{
  "contractName": "AccountManager",
  "abi": [
    {
      "inputs": [
        {
          "name": "_permUpgradable",
          "type": "address"
        }
      ],
      "payable": false,
      "stateMutability": "nonpayable",
      "type": "constructor"
    },
    {
      "anonymous": false,
      "inputs": [
        {
          "indexed": false,
          "name": "_account",
          "type": "address"
        },
        {
          "indexed": false,
          "name": "_orgId",
          "type": "string"
        },
        {
          "indexed": false,
          "name": "_roleId",
          "type": "string"
        },
        {
          "indexed": false,
          "name": "_orgAdmin",
          "type": "bool"
        },
        {
          "indexed": false,
          "name": "_status",
          "type": "uint256"
        }
      ],
      "name": "AccountAccessModified",
      "type": "event"
    },
    {
      "anonymous": false,
      "inputs": [
        {
          "indexed": false,
          "name": "_account",
          "type": "address"
        },
        {
          "indexed": false,
          "name": "_orgId",
          "type": "string"
        },
        {
          "indexed": false,
          "name": "_roleId",
          "type": "string"
        },
        {
          "indexed": false,
          "name": "_orgAdmin",
          "type": "bool"
        }
      ],
      "name": "AccountAccessRevoked",
      "type": "event"
    },
    {
      "anonymous": false,
      "inputs": [
        {
          "indexed": false,
          "name": "_account",
          "type": "address"
        },
        {
          "indexed": false,
          "name": "_orgId",
          "type": "string"
        },
        {
          "indexed": false,
          "name": "_status",
          "type": "uint256"
        }
      ],
      "name": "AccountStatusChanged",
      "type": "event"
    },
    {
      "constant": true,
      "inputs": [
        {
          "name": "_account",
          "type": "address"
        }
      ],
      "name": "getAccountDetails",
      "outputs": [
        {
          "name": "",
          "type": "address"
        },
        {
          "name": "",
          "type": "string"
        },
        {
          "name": "",
          "type": "string"
        },
        {
          "name": "",
          "type": "uint256"
        },
        {
          "name": "",
          "type": "bool"
        }
      ],
      "payable": false,
      "stateMutability": "view",
      "type": "function"
    },
    {
      "constant": true,
      "inputs": [
        {
          "name": "_account",
          "type": "address"
        }
      ],
      "name": "getAccountOrgRole",
      "outputs": [
        {
          "name": "",
          "type": "string"
        },
        {
          "name": "",
          "type": "string"
        }
      ],
      "payable": false,
      "stateMutability": "view",
      "type": "function"
    },
    {
      "constant": true,
      "inputs": [
        {
          "name": "_aIndex",
          "type": "uint256"
        }
      ],
      "name": "getAccountDetailsFromIndex",
      "outputs": [
        {
          "name": "",
          "type": "address"
        },
        {
          "name": "",
          "type": "string"
        },
        {
          "name": "",
          "type": "string"
        },
        {
          "name": "",
          "type": "uint256"
        },
        {
          "name": "",
          "type": "bool"
        }
      ],
      "payable": false,
      "stateMutability": "view",
      "type": "function"
    },
    {
      "constant": true,
      "inputs": [],
      "name": "getNumberOfAccounts",
      "outputs": [
        {
          "name": "",
          "type": "uint256"
        }
      ],
      "payable": false,
      "stateMutability": "view",
      "type": "function"
    },
    {
      "constant": false,
      "inputs": [
        {
          "name": "_nwAdminRole",
          "type": "string"
        },
        {
          "name": "_oAdminRole",
          "type": "string"
        }
      ],
      "name": "setDefaults",
      "outputs": [],
      "payable": false,
      "stateMutability": "nonpayable",
      "type": "function"
    },
    {
      "constant": false,
      "inputs": [
        {
          "name": "_account",
          "type": "address"
        },
        {
          "name": "_orgId",
          "type": "string"
        },
        {
          "name": "_roleId",
          "type": "string"
        },
        {
          "name": "_status",
          "type": "uint256"
        }
      ],
      "name": "assignAdminRole",
      "outputs": [],
      "payable": false,
      "stateMutability": "nonpayable",
      "type": "function"
    },
    {
      "constant": false,
      "inputs": [
        {
          "name": "_account",
          "type": "address"
        },
        {
          "name": "_orgId",
          "type": "string"
        },
        {
          "name": "_roleId",
          "type": "string"
        },
        {
          "name": "_adminRole",
          "type": "bool"
        }
      ],
      "name": "assignAccountRole",
      "outputs": [],
      "payable": false,
      "stateMutability": "nonpayable",
      "type": "function"
    },
    {
      "constant": false,
      "inputs": [
        {
          "name": "_orgId",
          "type": "string"
        }
      ],
      "name": "removeExistingAdmin",
      "outputs": [
        {
          "name": "voterUpdate",
          "type": "bool"
        },
        {
          "name": "account",
          "type": "address"
        }
      ],
      "payable": false,
      "stateMutability": "nonpayable",
      "type": "function"
    },
    {
      "constant": false,
      "inputs": [
        {
          "name": "_orgId",
          "type": "string"
        },
        {
          "name": "_account",
          "type": "address"
        }
      ],
      "name": "addNewAdmin",
      "outputs": [
        {
          "name": "voterUpdate",
          "type": "bool"
        }
      ],
      "payable": false,
      "stateMutability": "nonpayable",
      "type": "function"
    },
    {
      "constant": false,
      "inputs": [
        {
          "name": "_orgId",
          "type": "string"
        },
        {
          "name": "_account",
          "type": "address"
        },
        {
          "name": "_action",
          "type": "uint256"
        }
      ],
      "name": "updateAccountStatus",
      "outputs": [],
      "payable": false,
      "stateMutability": "nonpayable",
      "type": "function"
    },
    {
      "constant": true,
      "inputs": [
        {
          "name": "_account",
          "type": "address"
        },
        {
          "name": "_orgId",
          "type": "string"
        }
      ],
      "name": "validateAccount",
      "outputs": [
        {
          "name": "",
          "type": "bool"
        }
      ],
      "payable": false,
      "stateMutability": "view",
      "type": "function"
    },
    {
      "constant": true,
      "inputs": [
        {
          "name": "_orgId",
          "type": "string"
        }
      ],
      "name": "orgAdminExists",
      "outputs": [
        {
          "name": "",
          "type": "bool"
        }
      ],
      "payable": false,
      "stateMutability": "view",
      "type": "function"
    },
    {
      "constant": true,
      "inputs": [
        {
          "name": "_account",
          "type": "address"
        }
      ],
      "name": "getAccountRole",
      "outputs": [
        {
          "name": "",
          "type": "string"
        }
      ],
      "payable": false,
      "stateMutability": "view",
      "type": "function"
    },
    {
      "constant": true,
      "inputs": [
        {
          "name": "_account",
          "type": "address"
        }
      ],
      "name": "getAccountStatus",
      "outputs": [
        {
          "name": "",
          "type": "uint256"
        }
      ],
      "payable": false,
      "stateMutability": "view",
      "type": "function"
    },
    {
      "constant": true,
      "inputs": [
        {
          "name": "_account",
          "type": "address"
        },
        {
          "name": "_orgId",
          "type": "string"
        },
        {
          "name": "_ultParent",
          "type": "string"
        }
      ],
      "name": "checkOrgAdmin",
      "outputs": [
        {
          "name": "",
          "type": "bool"
        }
      ],
      "payable": false,
      "stateMutability": "view",
      "type": "function"
    }
  ],
  "bytecode": "0x608060405234801561001057600080fd5b5060405160208062004c938339810180604052602081101561003157600080fd5b8101908080519060200190929190505050806000806101000a81548173ffffffffffffffffffffffffffffffffffffffff021916908373ffffffffffffffffffffffffffffffffffffffff16021790555050614c0080620000936000396000f3fe608060405234801561001057600080fd5b5060043610610112576000357c01000000000000000000000000000000000000000000000000000000009004806384b7a84a116100b4578063cef7f6af11610083578063cef7f6af14610a77578063e3483a9d14610b45578063e8b42bf414610c3d578063fd4fa05a14610dc757610112565b806384b7a84a146106f8578063950145cf1461079b578063b20185681461086e578063c214e5e5146109c657610112565b8063309e36ef116100f0578063309e36ef146104435780636acee5fd146104615780636b568d761461058a57806381d66b231461063b57610112565b8063143a5604146101175780631d09dc93146102115780632aceb534146102d5575b600080fd5b61020f6004803603608081101561012d57600080fd5b81019080803573ffffffffffffffffffffffffffffffffffffffff1690602001909291908035906020019064010000000081111561016a57600080fd5b82018360208201111561017c57600080fd5b8035906020019184600183028401116401000000008311171561019e57600080fd5b9091929391929390803590602001906401000000008111156101bf57600080fd5b8201836020820111156101d157600080fd5b803590602001918460018302840111640100000000831117156101f357600080fd5b9091929391929390803515159060200190929190505050610e1f565b005b6102886004803603602081101561022757600080fd5b810190808035906020019064010000000081111561024457600080fd5b82018360208201111561025657600080fd5b8035906020019184600183028401116401000000008311171561027857600080fd5b90919293919293905050506112fe565b60405180831515151581526020018273ffffffffffffffffffffffffffffffffffffffff1673ffffffffffffffffffffffffffffffffffffffff1681526020019250505060405180910390f35b610317600480360360208110156102eb57600080fd5b81019080803573ffffffffffffffffffffffffffffffffffffffff1690602001909291905050506119ca565b604051808673ffffffffffffffffffffffffffffffffffffffff1673ffffffffffffffffffffffffffffffffffffffff168152602001806020018060200185815260200184151515158152602001838103835287818151815260200191508051906020019080838360005b8381101561039d578082015181840152602081019050610382565b50505050905090810190601f1680156103ca5780820380516001836020036101000a031916815260200191505b50838103825286818151815260200191508051906020019080838360005b838110156104035780820151818401526020810190506103e8565b50505050905090810190601f1680156104305780820380516001836020036101000a031916815260200191505b5097505050505050505060405180910390f35b61044b611ca5565b6040518082815260200191505060405180910390f35b6104a36004803603602081101561047757600080fd5b81019080803573ffffffffffffffffffffffffffffffffffffffff169060200190929190505050611cb2565b604051808060200180602001838103835285818151815260200191508051906020019080838360005b838110156104e75780820151818401526020810190506104cc565b50505050905090810190601f1680156105145780820380516001836020036101000a031916815260200191505b50838103825284818151815260200191508051906020019080838360005b8381101561054d578082015181840152602081019050610532565b50505050905090810190601f16801561057a5780820380516001836020036101000a031916815260200191505b5094505050505060405180910390f35b610621600480360360408110156105a057600080fd5b81019080803573ffffffffffffffffffffffffffffffffffffffff169060200190929190803590602001906401000000008111156105dd57600080fd5b8201836020820111156105ef57600080fd5b8035906020019184600183028401116401000000008311171561061157600080fd5b9091929391929390505050611edd565b604051808215151515815260200191505060405180910390f35b61067d6004803603602081101561065157600080fd5b81019080803573ffffffffffffffffffffffffffffffffffffffff169060200190929190505050612063565b6040518080602001828103825283818151815260200191508051906020019080838360005b838110156106bd5780820151818401526020810190506106a2565b50505050905090810190601f1680156106ea5780820380516001836020036101000a031916815260200191505b509250505060405180910390f35b6107996004803603606081101561070e57600080fd5b810190808035906020019064010000000081111561072b57600080fd5b82018360208201111561073d57600080fd5b8035906020019184600183028401116401000000008311171561075f57600080fd5b9091929391929390803573ffffffffffffffffffffffffffffffffffffffff16906020019092919080359060200190929190505050612221565b005b610854600480360360208110156107b157600080fd5b81019080803590602001906401000000008111156107ce57600080fd5b8201836020820111156107e057600080fd5b8035906020019184600183028401116401000000008311171561080257600080fd5b91908080601f016020809104026020016040519081016040528093929190818152602001838380828437600081840152601f19601f820116905080830192505050505050509192919290505050612b53565b604051808215151515815260200191505060405180910390f35b61089a6004803603602081101561088457600080fd5b8101908080359060200190929190505050612d29565b604051808673ffffffffffffffffffffffffffffffffffffffff1673ffffffffffffffffffffffffffffffffffffffff168152602001806020018060200185815260200184151515158152602001838103835287818151815260200191508051906020019080838360005b83811015610920578082015181840152602081019050610905565b50505050905090810190601f16801561094d5780820380516001836020036101000a031916815260200191505b50838103825286818151815260200191508051906020019080838360005b8381101561098657808201518184015260208101905061096b565b50505050905090810190601f1680156109b35780820380516001836020036101000a031916815260200191505b5097505050505050505060405180910390f35b610a5d600480360360408110156109dc57600080fd5b81019080803590602001906401000000008111156109f957600080fd5b820183602082011115610a0b57600080fd5b80359060200191846001830284011164010000000083111715610a2d57600080fd5b9091929391929390803573ffffffffffffffffffffffffffffffffffffffff169060200190929190505050612f4c565b604051808215151515815260200191505060405180910390f35b610b4360048036036040811015610a8d57600080fd5b8101908080359060200190640100000000811115610aaa57600080fd5b820183602082011115610abc57600080fd5b80359060200191846001830284011164010000000083111715610ade57600080fd5b909192939192939080359060200190640100000000811115610aff57600080fd5b820183602082011115610b1157600080fd5b80359060200191846001830284011164010000000083111715610b3357600080fd5b90919293919293905050506136b5565b005b610c3b60048036036080811015610b5b57600080fd5b81019080803573ffffffffffffffffffffffffffffffffffffffff16906020019092919080359060200190640100000000811115610b9857600080fd5b820183602082011115610baa57600080fd5b80359060200191846001830284011164010000000083111715610bcc57600080fd5b909192939192939080359060200190640100000000811115610bed57600080fd5b820183602082011115610bff57600080fd5b80359060200191846001830284011164010000000083111715610c2157600080fd5b90919293919293908035906020019092919050505061383f565b005b610dad60048036036060811015610c5357600080fd5b81019080803573ffffffffffffffffffffffffffffffffffffffff16906020019092919080359060200190640100000000811115610c9057600080fd5b820183602082011115610ca257600080fd5b80359060200191846001830284011164010000000083111715610cc457600080fd5b91908080601f016020809104026020016040519081016040528093929190818152602001838380828437600081840152601f19601f82011690508083019250505050505050919291929080359060200190640100000000811115610d2757600080fd5b820183602082011115610d3957600080fd5b80359060200191846001830284011164010000000083111715610d5b57600080fd5b91908080601f016020809104026020016040519081016040528093929190818152602001838380828437600081840152601f19601f820116905080830192505050505050509192919290505050613c97565b604051808215151515815260200191505060405180910390f35b610e0960048036036020811015610ddd57600080fd5b81019080803573ffffffffffffffffffffffffffffffffffffffff16906020019092919050505061428e565b6040518082815260200191505060405180910390f35b6000809054906101000a900473ffffffffffffffffffffffffffffffffffffffff1673ffffffffffffffffffffffffffffffffffffffff16630e32cf906040518163ffffffff167c010000000000000000000000000000000000000000000000000000000002815260040160206040518083038186803b158015610ea257600080fd5b505afa158015610eb6573d6000803e3d6000fd5b505050506040513d6020811015610ecc57600080fd5b810190808051906020019092919050505073ffffffffffffffffffffffffffffffffffffffff163373ffffffffffffffffffffffffffffffffffffffff16141515610f7f576040517f08c379a000000000000000000000000000000000000000000000000000000000815260040180806020018281038252600e8152602001807f696e76616c69642063616c6c657200000000000000000000000000000000000081525060200191505060405180910390fd5b6004604051602001808060200182810382528381815460018160011615610100020316600290048152602001915080546001816001161561010002031660029004801561100d5780601f10610fe25761010080835404028352916020019161100d565b820191906000526020600020905b815481529060010190602001808311610ff057829003601f168201915b50509250505060405160208183030381529060405280519060200120838360405160200180806020018281038252848482818152602001925080828437600081840152601f19601f820116905080830192505050935050505060405160208183030381529060405280519060200120141580156112095750600560405160200180806020018281038252838181546001816001161561010002031660029004815260200191508054600181600116156101000203166002900480156111135780601f106110e857610100808354040283529160200191611113565b820191906000526020600020905b8154815290600101906020018083116110f657829003601f168201915b50509250505060405160208183030381529060405280519060200120838360405160200180806020018281038252848482818152602001925080828437600081840152601f19601f82011690508083019250505093505050506040516020818303038152906040526040516020018080602001828103825283818151815260200191508051906020019080838360005b838110156111be5780820151818401526020810190506111a3565b50505050905090810190601f1680156111eb5780820380516001836020036101000a031916815260200191505b50925050506040516020818303038152906040528051906020012014155b1515611260576040517f08c379a0000000000000000000000000000000000000000000000000000000008152600401808060200182810382526040815260200180614b306040913960400191505060405180910390fd5b6112f68686868080601f016020809104026020016040519081016040528093929190818152602001838380828437600081840152601f19601f8201169050808301925050505050505085858080601f016020809104026020016040519081016040528093929190818152602001838380828437600081840152601f19601f82011690508083019250505050505050600285614317565b505050505050565b6000806000809054906101000a900473ffffffffffffffffffffffffffffffffffffffff1673ffffffffffffffffffffffffffffffffffffffff16630e32cf906040518163ffffffff167c010000000000000000000000000000000000000000000000000000000002815260040160206040518083038186803b15801561138457600080fd5b505afa158015611398573d6000803e3d6000fd5b505050506040513d60208110156113ae57600080fd5b810190808051906020019092919050505073ffffffffffffffffffffffffffffffffffffffff163373ffffffffffffffffffffffffffffffffffffffff16141515611461576040517f08c379a000000000000000000000000000000000000000000000000000000000815260040180806020018281038252600e8152602001807f696e76616c69642063616c6c657200000000000000000000000000000000000081525060200191505060405180910390fd5b6114ae84848080601f016020809104026020016040519081016040528093929190818152602001838380828437600081840152601f19601f82011690508083019250505050505050612b53565b156119b857600061154360066000878760405160200180806020018281038252848482818152602001925080828437600081840152601f19601f820116905080830192505050935050505060405160208183030381529060405280519060200120815260200190815260200160002060009054906101000a900473ffffffffffffffffffffffffffffffffffffffff16614831565b9050600660018281548110151561155657fe5b906000526020600020906005020160030181905550600060018281548110151561157c57fe5b906000526020600020906005020160040160006101000a81548160ff0219169083151502179055507f68e62a03aeb0a125c2fc869eed72f2fca473680987bdd680c093a534e17cc7766001828154811015156115d457fe5b906000526020600020906005020160000160009054906101000a900473ffffffffffffffffffffffffffffffffffffffff1660018381548110151561161557fe5b906000526020600020906005020160010160018481548110151561163557fe5b906000526020600020906005020160020160018581548110151561165557fe5b906000526020600020906005020160040160009054906101000a900460ff1660018681548110151561168357fe5b906000526020600020906005020160030154604051808673ffffffffffffffffffffffffffffffffffffffff1673ffffffffffffffffffffffffffffffffffffffff1681526020018060200180602001851515151581526020018481526020018381038352878181546001816001161561010002031660029004815260200191508054600181600116156101000203166002900480156117645780601f1061173957610100808354040283529160200191611764565b820191906000526020600020905b81548152906001019060200180831161174757829003601f168201915b50508381038252868181546001816001161561010002031660029004815260200191508054600181600116156101000203166002900480156117e75780601f106117bc576101008083540402835291602001916117e7565b820191906000526020600020905b8154815290600101906020018083116117ca57829003601f168201915b505097505050505050505060405180910390a1600460405160200180806020018281038252838181546001816001161561010002031660029004815260200191508054600181600116156101000203166002900480156118885780601f1061185d57610100808354040283529160200191611888565b820191906000526020600020905b81548152906001019060200180831161186b57829003601f168201915b505092505050604051602081830303815290604052805190602001206001828154811015156118b357fe5b906000526020600020906005020160020160405160200180806020018281038252838181546001816001161561010002031660029004815260200191508054600181600116156101000203166002900480156119505780601f1061192557610100808354040283529160200191611950565b820191906000526020600020905b81548152906001019060200180831161193357829003601f168201915b505092505050604051602081830303815290604052805190602001201460018281548110151561197c57fe5b906000526020600020906005020160000160009054906101000a900473ffffffffffffffffffffffffffffffffffffffff1692509250506119c3565b600080809050915091505b9250929050565b60006060806000806000600260008873ffffffffffffffffffffffffffffffffffffffff1673ffffffffffffffffffffffffffffffffffffffff168152602001908152602001600020541415611a7b57856000806040805190810160405280600481526020017f4e4f4e450000000000000000000000000000000000000000000000000000000081525091906020604051908101604052806000815250919081915094509450945094509450611c9c565b6000611a8687614831565b9050600181815481101515611a9757fe5b906000526020600020906005020160000160009054906101000a900473ffffffffffffffffffffffffffffffffffffffff16600182815481101515611ad857fe5b9060005260206000209060050201600101600183815481101515611af857fe5b9060005260206000209060050201600201600184815481101515611b1857fe5b906000526020600020906005020160030154600185815481101515611b3957fe5b906000526020600020906005020160040160009054906101000a900460ff16838054600181600116156101000203166002900480601f016020809104026020016040519081016040528092919081815260200182805460018160011615610100020316600290048015611bed5780601f10611bc257610100808354040283529160200191611bed565b820191906000526020600020905b815481529060010190602001808311611bd057829003601f168201915b50505050509350828054600181600116156101000203166002900480601f016020809104026020016040519081016040528092919081815260200182805460018160011615610100020316600290048015611c895780601f10611c5e57610100808354040283529160200191611c89565b820191906000526020600020905b815481529060010190602001808311611c6c57829003601f168201915b5050505050925095509550955095509550505b91939590929450565b6000600180549050905090565b6060806000600260008573ffffffffffffffffffffffffffffffffffffffff1673ffffffffffffffffffffffffffffffffffffffff168152602001908152602001600020541415611d4d576040805190810160405280600481526020017f4e4f4e4500000000000000000000000000000000000000000000000000000000815250602060405190810160405280600081525091509150611ed8565b6000611d5884614831565b9050600181815481101515611d6957fe5b9060005260206000209060050201600101600182815481101515611d8957fe5b9060005260206000209060050201600201818054600181600116156101000203166002900480601f016020809104026020016040519081016040528092919081815260200182805460018160011615610100020316600290048015611e2f5780601f10611e0457610100808354040283529160200191611e2f565b820191906000526020600020905b815481529060010190602001808311611e1257829003601f168201915b50505050509150808054600181600116156101000203166002900480601f016020809104026020016040519081016040528092919081815260200182805460018160011615610100020316600290048015611ecb5780601f10611ea057610100808354040283529160200191611ecb565b820191906000526020600020905b815481529060010190602001808311611eae57829003601f168201915b5050505050905092509250505b915091565b600080600260008673ffffffffffffffffffffffffffffffffffffffff1673ffffffffffffffffffffffffffffffffffffffff168152602001908152602001600020541415611f2f576001905061205c565b6000611f3a85614831565b9050838360405160200180806020018281038252848482818152602001925080828437600081840152601f19601f820116905080830192505050935050505060405160208183030381529060405280519060200120600182815481101515611f9e57fe5b9060005260206000209060050201600101604051602001808060200182810382528381815460018160011615610100020316600290048152602001915080546001816001161561010002031660029004801561203b5780601f106120105761010080835404028352916020019161203b565b820191906000526020600020905b81548152906001019060200180831161201e57829003601f168201915b50509250505060405160208183030381529060405280519060200120149150505b9392505050565b60606000600260008473ffffffffffffffffffffffffffffffffffffffff1673ffffffffffffffffffffffffffffffffffffffff1681526020019081526020016000205414156120ea576040805190810160405280600481526020017f4e4f4e4500000000000000000000000000000000000000000000000000000000815250905061221c565b60006120f583614831565b9050600060018281548110151561210857fe5b9060005260206000209060050201600301541415156121e25760018181548110151561213057fe5b90600052602060002090600502016002018054600181600116156101000203166002900480601f0160208091040260200160405190810160405280929190818152602001828054600181600116156101000203166002900480156121d55780601f106121aa576101008083540402835291602001916121d5565b820191906000526020600020905b8154815290600101906020018083116121b857829003601f168201915b505050505091505061221c565b6040805190810160405280600481526020017f4e4f4e45000000000000000000000000000000000000000000000000000000008152509150505b919050565b6000809054906101000a900473ffffffffffffffffffffffffffffffffffffffff1673ffffffffffffffffffffffffffffffffffffffff16630e32cf906040518163ffffffff167c010000000000000000000000000000000000000000000000000000000002815260040160206040518083038186803b1580156122a457600080fd5b505afa1580156122b8573d6000803e3d6000fd5b505050506040513d60208110156122ce57600080fd5b810190808051906020019092919050505073ffffffffffffffffffffffffffffffffffffffff163373ffffffffffffffffffffffffffffffffffffffff16141515612381576040517f08c379a000000000000000000000000000000000000000000000000000000000815260040180806020018281038252600e8152602001807f696e76616c69642063616c6c657200000000000000000000000000000000000081525060200191505060405180910390fd5b83838080601f016020809104026020016040519081016040528093929190818152602001838380828437600081840152601f19601f82011690508083019250505050505050826000600260008373ffffffffffffffffffffffffffffffffffffffff1673ffffffffffffffffffffffffffffffffffffffff168152602001908152602001600020541415151561247f576040517f08c379a00000000000000000000000000000000000000000000000000000000081526004018080602001828103825260178152602001807f6163636f756e7420646f6573206e6f742065786973747300000000000000000081525060200191505060405180910390fd5b816040516020018080602001828103825283818151815260200191508051906020019080838360005b838110156124c35780820151818401526020810190506124a8565b50505050905090810190601f1680156124f05780820380516001836020036101000a031916815260200191505b509250505060405160208183030381529060405280519060200120600161251683614831565b81548110151561252257fe5b906000526020600020906005020160010160405160200180806020018281038252838181546001816001161561010002031660029004815260200191508054600181600116156101000203166002900480156125bf5780601f10612594576101008083540402835291602001916125bf565b820191906000526020600020905b8154815290600101906020018083116125a257829003601f168201915b50509250505060405160208183030381529060405280519060200120141515612650576040517f08c379a00000000000000000000000000000000000000000000000000000000081526004018080602001828103825260188152602001807f6163636f756e7420696e20646966666572656e74206f7267000000000000000081525060200191505060405180910390fd5b6000831180156126605750600683105b15156126d4576040517f08c379a000000000000000000000000000000000000000000000000000000000815260040180806020018281038252601d8152602001807f696e76616c696420737461747573206368616e6765207265717565737400000081525060200191505060405180910390fd5b600115156127378588888080601f016020809104026020016040519081016040528093929190818152602001838380828437600081840152601f19601f820116905080830192505050505050506020604051908101604052806000815250613c97565b151514151515612792576040517f08c379a0000000000000000000000000000000000000000000000000000000008152600401808060200182810382526031815260200180614ba46031913960400191505060405180910390fd5b6000600184141561282957600260016127aa87614831565b8154811015156127b657fe5b906000526020600020906005020160030154141515612820576040517f08c379a0000000000000000000000000000000000000000000000000000000008152600401808060200182810382526039815260200180614acf6039913960400191505060405180910390fd5b60049050612a7e565b60028414156128be576004600161283f87614831565b81548110151561284b57fe5b9060005260206000209060050201600301541415156128b5576040517f08c379a000000000000000000000000000000000000000000000000000000000815260040180806020018281038252603c815260200180614a93603c913960400191505060405180910390fd5b60029050612a7d565b600384141561295457600560016128d487614831565b8154811015156128e057fe5b9060005260206000209060050201600301541415151561294b576040517f08c379a0000000000000000000000000000000000000000000000000000000008152600401808060200182810382526038815260200180614a5b6038913960400191505060405180910390fd5b60059050612a7c565b60048414156129e9576005600161296a87614831565b81548110151561297657fe5b9060005260206000209060050201600301541415156129e0576040517f08c379a0000000000000000000000000000000000000000000000000000000008152600401808060200182810382526034815260200180614b706034913960400191505060405180910390fd5b60079050612a7b565b6005841415612a7a57600760016129ff87614831565b815481101515612a0b57fe5b906000526020600020906005020160030154141515612a75576040517f08c379a0000000000000000000000000000000000000000000000000000000008152600401808060200182810382526038815260200180614a236038913960400191505060405180910390fd5b600290505b5b5b5b5b806001612a8a87614831565b815481101515612a9657fe5b9060005260206000209060050201600301819055507f36b0ea38154dec5e98b6bf928b971a9db5e8cd4b6946350e9e43fb9848c70b2585888884604051808573ffffffffffffffffffffffffffffffffffffffff1673ffffffffffffffffffffffffffffffffffffffff168152602001806020018381526020018281038252858582818152602001925080828437600081840152601f19601f8201169050808301925050509550505050505060405180910390a150505050505050565b60008073ffffffffffffffffffffffffffffffffffffffff1660066000846040516020018080602001828103825283818151815260200191508051906020019080838360005b83811015612bb4578082015181840152602081019050612b99565b50505050905090810190601f168015612be15780820380516001836020036101000a031916815260200191505b509250505060405160208183030381529060405280519060200120815260200190815260200160002060009054906101000a900473ffffffffffffffffffffffffffffffffffffffff1673ffffffffffffffffffffffffffffffffffffffff16141515612d1f57600060066000846040516020018080602001828103825283818151815260200191508051906020019080838360005b83811015612c92578082015181840152602081019050612c77565b50505050905090810190601f168015612cbf5780820380516001836020036101000a031916815260200191505b509250505060405160208183030381529060405280519060200120815260200190815260200160002060009054906101000a900473ffffffffffffffffffffffffffffffffffffffff1690506002612d168261428e565b14915050612d24565b600090505b919050565b6000606080600080600186815481101515612d4057fe5b906000526020600020906005020160000160009054906101000a900473ffffffffffffffffffffffffffffffffffffffff16600187815481101515612d8157fe5b9060005260206000209060050201600101600188815481101515612da157fe5b9060005260206000209060050201600201600189815481101515612dc157fe5b90600052602060002090600502016003015460018a815481101515612de257fe5b906000526020600020906005020160040160009054906101000a900460ff16838054600181600116156101000203166002900480601f016020809104026020016040519081016040528092919081815260200182805460018160011615610100020316600290048015612e965780601f10612e6b57610100808354040283529160200191612e96565b820191906000526020600020905b815481529060010190602001808311612e7957829003601f168201915b50505050509350828054600181600116156101000203166002900480601f016020809104026020016040519081016040528092919081815260200182805460018160011615610100020316600290048015612f325780601f10612f0757610100808354040283529160200191612f32565b820191906000526020600020905b815481529060010190602001808311612f1557829003601f168201915b505050505092509450945094509450945091939590929450565b60008060009054906101000a900473ffffffffffffffffffffffffffffffffffffffff1673ffffffffffffffffffffffffffffffffffffffff16630e32cf906040518163ffffffff167c010000000000000000000000000000000000000000000000000000000002815260040160206040518083038186803b158015612fd157600080fd5b505afa158015612fe5573d6000803e3d6000fd5b505050506040513d6020811015612ffb57600080fd5b810190808051906020019092919050505073ffffffffffffffffffffffffffffffffffffffff163373ffffffffffffffffffffffffffffffffffffffff161415156130ae576040517f08c379a000000000000000000000000000000000000000000000000000000000815260040180806020018281038252600e8152602001807f696e76616c69642063616c6c657200000000000000000000000000000000000081525060200191505060405180910390fd5b60606130b983612063565b905060006130c68461428e565b905060006130d385614831565b9050600560405160200180806020018281038252838181546001816001161561010002031660029004815260200191508054600181600116156101000203166002900480156131635780601f1061313857610100808354040283529160200191613163565b820191906000526020600020905b81548152906001019060200180831161314657829003601f168201915b50509250505060405160208183030381529060405280519060200120836040516020018080602001828103825283818151815260200191508051906020019080838360005b838110156131c35780820151818401526020810190506131a8565b50505050905090810190601f1680156131f05780820380516001836020036101000a031916815260200191505b5092505050604051602081830303815290604052805190602001201480156132185750600182145b156132c2578460066000898960405160200180806020018281038252848482818152602001925080828437600081840152601f19601f820116905080830192505050935050505060405160208183030381529060405280519060200120815260200190815260200160002060006101000a81548173ffffffffffffffffffffffffffffffffffffffff021916908373ffffffffffffffffffffffffffffffffffffffff1602179055505b60026001828154811015156132d357fe5b906000526020600020906005020160030181905550600180828154811015156132f857fe5b906000526020600020906005020160040160006101000a81548160ff0219169083151502179055507f68e62a03aeb0a125c2fc869eed72f2fca473680987bdd680c093a534e17cc7768560018381548110151561335157fe5b906000526020600020906005020160010160018481548110151561337157fe5b906000526020600020906005020160020160018581548110151561339157fe5b906000526020600020906005020160040160009054906101000a900460ff166001868154811015156133bf57fe5b906000526020600020906005020160030154604051808673ffffffffffffffffffffffffffffffffffffffff1673ffffffffffffffffffffffffffffffffffffffff1681526020018060200180602001851515151581526020018481526020018381038352878181546001816001161561010002031660029004815260200191508054600181600116156101000203166002900480156134a05780601f10613475576101008083540402835291602001916134a0565b820191906000526020600020905b81548152906001019060200180831161348357829003601f168201915b50508381038252868181546001816001161561010002031660029004815260200191508054600181600116156101000203166002900480156135235780601f106134f857610100808354040283529160200191613523565b820191906000526020600020905b81548152906001019060200180831161350657829003601f168201915b505097505050505050505060405180910390a1600460405160200180806020018281038252838181546001816001161561010002031660029004815260200191508054600181600116156101000203166002900480156135c45780601f10613599576101008083540402835291602001916135c4565b820191906000526020600020905b8154815290600101906020018083116135a757829003601f168201915b505092505050604051602081830303815290604052805190602001206001828154811015156135ef57fe5b9060005260206000209060050201600201604051602001808060200182810382528381815460018160011615610100020316600290048152602001915080546001816001161561010002031660029004801561368c5780601f106136615761010080835404028352916020019161368c565b820191906000526020600020905b81548152906001019060200180831161366f57829003601f168201915b505092505050604051602081830303815290604052805190602001201493505050509392505050565b6000809054906101000a900473ffffffffffffffffffffffffffffffffffffffff1673ffffffffffffffffffffffffffffffffffffffff16630e32cf906040518163ffffffff167c010000000000000000000000000000000000000000000000000000000002815260040160206040518083038186803b15801561373857600080fd5b505afa15801561374c573d6000803e3d6000fd5b505050506040513d602081101561376257600080fd5b810190808051906020019092919050505073ffffffffffffffffffffffffffffffffffffffff163373ffffffffffffffffffffffffffffffffffffffff16141515613815576040517f08c379a000000000000000000000000000000000000000000000000000000000815260040180806020018281038252600e8152602001807f696e76616c69642063616c6c657200000000000000000000000000000000000081525060200191505060405180910390fd5b83836004919061382692919061487d565b5081816005919061383892919061487d565b5050505050565b6000809054906101000a900473ffffffffffffffffffffffffffffffffffffffff1673ffffffffffffffffffffffffffffffffffffffff16630e32cf906040518163ffffffff167c010000000000000000000000000000000000000000000000000000000002815260040160206040518083038186803b1580156138c257600080fd5b505afa1580156138d6573d6000803e3d6000fd5b505050506040513d60208110156138ec57600080fd5b810190808051906020019092919050505073ffffffffffffffffffffffffffffffffffffffff163373ffffffffffffffffffffffffffffffffffffffff1614151561399f576040517f08c379a000000000000000000000000000000000000000000000000000000000815260040180806020018281038252600e8152602001807f696e76616c69642063616c6c657200000000000000000000000000000000000081525060200191505060405180910390fd5b60056040516020018080602001828103825283818154600181600116156101000203166002900481526020019150805460018160011615610100020316600290048015613a2d5780601f10613a0257610100808354040283529160200191613a2d565b820191906000526020600020905b815481529060010190602001808311613a1057829003601f168201915b50509250505060405160208183030381529060405280519060200120838360405160200180806020018281038252848482818152602001925080828437600081840152601f19601f8201169050808301925050509350505050604051602081830303815290604052805190602001201480613ba2575060046040516020018080602001828103825283818154600181600116156101000203166002900481526020019150805460018160011615610100020316600290048015613b315780601f10613b0657610100808354040283529160200191613b31565b820191906000526020600020905b815481529060010190602001808311613b1457829003601f168201915b50509250505060405160208183030381529060405280519060200120838360405160200180806020018281038252848482818152602001925080828437600081840152601f19601f820116905080830192505050935050505060405160208183030381529060405280519060200120145b1515613bf9576040517f08c379a0000000000000000000000000000000000000000000000000000000008152600401808060200182810382526028815260200180614b086028913960400191505060405180910390fd5b613c8f8686868080601f016020809104026020016040519081016040528093929190818152602001838380828437600081840152601f19601f8201169050808301925050505050505085858080601f016020809104026020016040519081016040528093929190818152602001838380828437600081840152601f19601f82011690508083019250505050505050846001614317565b505050505050565b600060046040516020018080602001828103825283818154600181600116156101000203166002900481526020019150805460018160011615610100020316600290048015613d275780601f10613cfc57610100808354040283529160200191613d27565b820191906000526020600020905b815481529060010190602001808311613d0a57829003601f168201915b50509250505060405160208183030381529060405280519060200120613d4c85612063565b6040516020018080602001828103825283818151815260200191508051906020019080838360005b83811015613d8f578082015181840152602081019050613d74565b50505050905090810190601f168015613dbc5780820380516001836020036101000a031916815260200191505b50925050506040516020818303038152906040528051906020012014156140a3576000613de885614831565b9050836040516020018080602001828103825283818151815260200191508051906020019080838360005b83811015613e2e578082015181840152602081019050613e13565b50505050905090810190601f168015613e5b5780820380516001836020036101000a031916815260200191505b509250505060405160208183030381529060405280519060200120600182815481101515613e8557fe5b90600052602060002090600502016001016040516020018080602001828103825283818154600181600116156101000203166002900481526020019150805460018160011615610100020316600290048015613f225780601f10613ef757610100808354040283529160200191613f22565b820191906000526020600020905b815481529060010190602001808311613f0557829003601f168201915b50509250505060405160208183030381529060405280519060200120148061409b5750826040516020018080602001828103825283818151815260200191508051906020019080838360005b83811015613f89578082015181840152602081019050613f6e565b50505050905090810190601f168015613fb65780820380516001836020036101000a031916815260200191505b509250505060405160208183030381529060405280519060200120600182815481101515613fe057fe5b9060005260206000209060050201600101604051602001808060200182810382528381815460018160011615610100020316600290048152602001915080546001816001161561010002031660029004801561407d5780601f106140525761010080835404028352916020019161407d565b820191906000526020600020905b81548152906001019060200180831161406057829003601f168201915b50509250505060405160208183030381529060405280519060200120145b915050614287565b8373ffffffffffffffffffffffffffffffffffffffff1660066000856040516020018080602001828103825283818151815260200191508051906020019080838360005b838110156141025780820151818401526020810190506140e7565b50505050905090810190601f16801561412f5780820380516001836020036101000a031916815260200191505b509250505060405160208183030381529060405280519060200120815260200190815260200160002060009054906101000a900473ffffffffffffffffffffffffffffffffffffffff1673ffffffffffffffffffffffffffffffffffffffff16148061428457508373ffffffffffffffffffffffffffffffffffffffff1660066000846040516020018080602001828103825283818151815260200191508051906020019080838360005b838110156141f55780820151818401526020810190506141da565b50505050905090810190601f1680156142225780820380516001836020036101000a031916815260200191505b509250505060405160208183030381529060405280519060200120815260200190815260200160002060009054906101000a900473ffffffffffffffffffffffffffffffffffffffff1673ffffffffffffffffffffffffffffffffffffffff16145b90505b9392505050565b600080600260008473ffffffffffffffffffffffffffffffffffffffff1673ffffffffffffffffffffffffffffffffffffffff1681526020019081526020016000205414156142e05760009050614312565b60006142eb83614831565b90506001818154811015156142fc57fe5b9060005260206000209060050201600301549150505b919050565b6000809054906101000a900473ffffffffffffffffffffffffffffffffffffffff1673ffffffffffffffffffffffffffffffffffffffff16630e32cf906040518163ffffffff167c010000000000000000000000000000000000000000000000000000000002815260040160206040518083038186803b15801561439a57600080fd5b505afa1580156143ae573d6000803e3d6000fd5b505050506040513d60208110156143c457600080fd5b810190808051906020019092919050505073ffffffffffffffffffffffffffffffffffffffff163373ffffffffffffffffffffffffffffffffffffffff16141515614477576040517f08c379a000000000000000000000000000000000000000000000000000000000815260040180806020018281038252600e8152602001807f696e76616c69642063616c6c657200000000000000000000000000000000000081525060200191505060405180910390fd5b600061448286614831565b90506000600260008873ffffffffffffffffffffffffffffffffffffffff1673ffffffffffffffffffffffffffffffffffffffff1681526020019081526020016000205414151561456457836001828154811015156144dd57fe5b906000526020600020906005020160020190805190602001906145019291906148fd565b508260018281548110151561451257fe5b9060005260206000209060050201600301819055508160018281548110151561453757fe5b906000526020600020906005020160040160006101000a81548160ff0219169083151502179055506146d8565b600360008154809291906001019190505550600354600260008873ffffffffffffffffffffffffffffffffffffffff1673ffffffffffffffffffffffffffffffffffffffff16815260200190815260200160002081905550600160a0604051908101604052808873ffffffffffffffffffffffffffffffffffffffff1681526020018781526020018681526020018581526020018415158152509080600181540180825580915050906001820390600052602060002090600502016000909192909190915060008201518160000160006101000a81548173ffffffffffffffffffffffffffffffffffffffff021916908373ffffffffffffffffffffffffffffffffffffffff160217905550602082015181600101908051906020019061468c92919061497d565b5060408201518160020190805190602001906146a992919061497d565b506060820151816003015560808201518160040160006101000a81548160ff0219169083151502179055505050505b7f68e62a03aeb0a125c2fc869eed72f2fca473680987bdd680c093a534e17cc7768686868587604051808673ffffffffffffffffffffffffffffffffffffffff1673ffffffffffffffffffffffffffffffffffffffff168152602001806020018060200185151515158152602001848152602001838103835287818151815260200191508051906020019080838360005b83811015614784578082015181840152602081019050614769565b50505050905090810190601f1680156147b15780820380516001836020036101000a031916815260200191505b50838103825286818151815260200191508051906020019080838360005b838110156147ea5780820151818401526020810190506147cf565b50505050905090810190601f1680156148175780820380516001836020036101000a031916815260200191505b5097505050505050505060405180910390a1505050505050565b60006001600260008473ffffffffffffffffffffffffffffffffffffffff1673ffffffffffffffffffffffffffffffffffffffff16815260200190815260200160002054039050919050565b828054600181600116156101000203166002900490600052602060002090601f016020900481019282601f106148be57803560ff19168380011785556148ec565b828001600101855582156148ec579182015b828111156148eb5782358255916020019190600101906148d0565b5b5090506148f991906149fd565b5090565b828054600181600116156101000203166002900490600052602060002090601f016020900481019282601f1061493e57805160ff191683800117855561496c565b8280016001018555821561496c579182015b8281111561496b578251825591602001919060010190614950565b5b50905061497991906149fd565b5090565b828054600181600116156101000203166002900490600052602060002090601f016020900481019282601f106149be57805160ff19168380011785556149ec565b828001600101855582156149ec579182015b828111156149eb5782518255916020019190600101906149d0565b5b5090506149f991906149fd565b5090565b614a1f91905b80821115614a1b576000816000905550600101614a03565b5090565b9056fe6163636f756e74207265636f76657279206e6f7420696e697469617465642e206f7065726174696f6e2063616e6e6f7420626520646f6e656163636f756e7420697320616c726561647920626c61636b6c69737465642e206f7065726174696f6e2063616e6e6f7420626520646f6e656163636f756e74206973206e6f7420696e2073757370656e646564207374617475732e206f7065726174696f6e2063616e6e6f7420626520646f6e656163636f756e74206973206e6f7420696e20616374697665207374617475732e206f7065726174696f6e2063616e6e6f7420626520646f6e6563616e2062652063616c6c656420746f2061737369676e2061646d696e20726f6c6573206f6e6c7963616e6e6f742062652063616c6c65642066726f2061737369676e696e67206f72672061646d696e20616e64206e6574776f726b2061646d696e20726f6c65736163636f756e74206973206e6f7420626c61636b6c69737465642e206f7065726174696f6e2063616e6e6f7420626520646f6e65737461747573206368616e6765206e6f7420706f737369626c6520666f72206f72672061646d696e206163636f756e7473a165627a7a723058202aa931db4bef86b6a96f016925b938033f4909edd437b543a4f6cf8d3a1fdb3f0029",
  "source": "pragma solidity ^0.5.3;\n\nimport \"./PermissionsUpgradable.sol\";\n\n/** @title Account manager contract\n  * @notice This contract holds implementation logic for all account management\n    functionality. This can be called only by the implementation contract only.\n    there are few view functions exposed as public and can be called directly.\n    these are invoked by quorum for populating permissions data in cache\n  * @dev account status is denoted by a fixed integer value. The values are\n    as below:\n        0 - Not in list\n        1 - Account pending approval\n        2 - Active\n        3 - Inactive\n        4 - Suspended\n        5 - Blacklisted\n        6 - Revoked\n        7 - Recovery Initiated for blacklisted accounts and pending approval\n            from network admins\n     Once the account is blacklisted no further activity on the account is\n     possible.\n     When adding a new org admin account to an existing org, the existing org\n     admin account will be in revoked status and can be assigned a new role\n     later\n  */\ncontract AccountManager {\n    PermissionsUpgradable private permUpgradable;\n    struct AccountAccessDetails {\n        address account;\n        string orgId;\n        string role;\n        uint status;\n        bool orgAdmin;\n    }\n\n    AccountAccessDetails[] private accountAccessList;\n    mapping(address => uint) private accountIndex;\n    uint private numAccounts;\n\n    string private adminRole;\n    string private orgAdminRole;\n\n    mapping(bytes32 => address) private orgAdminIndex;\n\n    // account permission events\n    event AccountAccessModified(address _account, string _orgId, string _roleId, bool _orgAdmin, uint _status);\n    event AccountAccessRevoked(address _account, string _orgId, string _roleId, bool _orgAdmin);\n    event AccountStatusChanged(address _account, string _orgId, uint _status);\n\n    /** @notice confirms that the caller is the address of implementation\n        contract\n      */\n    modifier onlyImplementation {\n        require(msg.sender == permUpgradable.getPermImpl(), \"invalid caller\");\n        _;\n    }\n\n    /** @notice checks if the account is exists and belongs to the org id passed\n      * @param _orgId - org id\n      * @param _account - account id\n      */\n    modifier accountExists(string memory _orgId, address _account) {\n        require((accountIndex[_account]) != 0, \"account does not exists\");\n        require(keccak256(abi.encode(accountAccessList[_getAccountIndex(_account)].orgId)) == keccak256(abi.encode(_orgId)), \"account in different org\");\n        _;\n    }\n\n    /// @notice constructor. sets the permissions upgradable address\n    constructor (address _permUpgradable) public {\n        permUpgradable = PermissionsUpgradable(_permUpgradable);\n    }\n\n\n    /** @notice returns the account details for a given account\n      * @param _account account id\n      * @return account id\n      * @return org id of the account\n      * @return role linked to the account\n      * @return status of the account\n      * @return bool indicating if the account is an org admin\n      */\n    function getAccountDetails(address _account) external view returns (address,\n        string memory, string memory, uint, bool){\n        if (accountIndex[_account] == 0) {\n            return (_account, \"NONE\", \"\", 0, false);\n        }\n        uint aIndex = _getAccountIndex(_account);\n        return (accountAccessList[aIndex].account, accountAccessList[aIndex].orgId,\n        accountAccessList[aIndex].role, accountAccessList[aIndex].status,\n        accountAccessList[aIndex].orgAdmin);\n    }\n\n    /** @notice returns the account details for a given account if account is valid/active\n      * @param _account account id\n      * @return org id of the account\n      * @return role linked to the account\n      */\n    function getAccountOrgRole(address _account) external view\n    returns (string memory, string memory){\n        if (accountIndex[_account] == 0) {\n            return (\"NONE\", \"\");\n        }\n        uint aIndex = _getAccountIndex(_account);\n        return (accountAccessList[aIndex].orgId, accountAccessList[aIndex].role);\n    }\n\n    /** @notice returns the account details a given account index\n      * @param  _aIndex account index\n      * @return account id\n      * @return org id of the account\n      * @return role linked to the account\n      * @return status of the account\n      * @return bool indicating if the account is an org admin\n      */\n    function getAccountDetailsFromIndex(uint _aIndex) external view returns\n    (address, string memory, string memory, uint, bool) {\n        return (accountAccessList[_aIndex].account,\n        accountAccessList[_aIndex].orgId, accountAccessList[_aIndex].role,\n        accountAccessList[_aIndex].status, accountAccessList[_aIndex].orgAdmin);\n    }\n\n    /** @notice returns the total number of accounts\n      * @return total number accounts\n      */\n    function getNumberOfAccounts() external view returns (uint) {\n        return accountAccessList.length;\n    }\n\n    /** @notice this is called at the time of network initialization to set\n        the default values of network admin and org admin roles\n      */\n    function setDefaults(string calldata _nwAdminRole, string calldata _oAdminRole)\n    external onlyImplementation {\n        adminRole = _nwAdminRole;\n        orgAdminRole = _oAdminRole;\n    }\n\n    /** @notice this function is called to assign the org admin or network\n        admin roles only to the passed account\n      * @param _account - account id\n      * @param _orgId - org to which it belongs\n      * @param _roleId - role id to be assigned\n      * @param _status - account status to be assigned\n      */\n    function assignAdminRole(address _account, string calldata _orgId,\n        string calldata _roleId, uint _status) external onlyImplementation {\n        require(((keccak256(abi.encode(_roleId)) == keccak256(abi.encode(orgAdminRole))) ||\n        (keccak256(abi.encode(_roleId)) == keccak256(abi.encode(adminRole)))),\n            \"can be called to assign admin roles only\");\n\n        _setAccountRole(_account, _orgId, _roleId, _status, true);\n\n    }\n\n    /** @notice this function is called to assign the any role to the passed\n        account.\n      * @param _account - account id\n      * @param _orgId - org to which it belongs\n      * @param _roleId - role id to be assigned\n      * @param _adminRole - indicates of the role is an admin role\n      */\n    function assignAccountRole(address _account, string calldata _orgId,\n        string calldata _roleId, bool _adminRole) external onlyImplementation {\n        require(((keccak256(abi.encode(_roleId)) != keccak256(abi.encode(adminRole)))\n        && (keccak256(abi.encode(abi.encode(_roleId))) != keccak256(abi.encode(orgAdminRole)))),\n            \"cannot be called fro assigning org admin and network admin roles\");\n        _setAccountRole(_account, _orgId, _roleId, 2, _adminRole);\n    }\n\n    /** @notice this function removes existing admin account. will be called at\n        the time of adding a new account as org admin account. at org\n        level there can be one org admin account only\n      * @param _orgId - org id\n      * @return bool to indicate if voter update is required or not\n      * @return _adminRole - indicates of the role is an admin role\n      */\n    function removeExistingAdmin(string calldata _orgId) external\n    onlyImplementation\n    returns (bool voterUpdate, address account) {\n        // change the status of existing org admin to revoked\n        if (orgAdminExists(_orgId)) {\n            uint id = _getAccountIndex(orgAdminIndex[keccak256(abi.encode(_orgId))]);\n            accountAccessList[id].status = 6;\n            accountAccessList[id].orgAdmin = false;\n            emit AccountAccessModified(accountAccessList[id].account,\n                accountAccessList[id].orgId, accountAccessList[id].role,\n                accountAccessList[id].orgAdmin, accountAccessList[id].status);\n            return ((keccak256(abi.encode(accountAccessList[id].role)) == keccak256(abi.encode(adminRole))),\n            accountAccessList[id].account);\n        }\n        return (false, address(0));\n    }\n\n    /** @notice function to add an account as network admin or org admin.\n      * @param _orgId - org id\n      * @param _account - account id\n      * @return bool to indicate if voter update is required or not\n      */\n    function addNewAdmin(string calldata _orgId, address _account) external\n    onlyImplementation\n    returns (bool voterUpdate) {\n        // check of the account role is org admin role and status is pending\n        // approval. if yes update the status to approved\n        string memory role = getAccountRole(_account);\n        uint status = getAccountStatus(_account);\n        uint id = _getAccountIndex(_account);\n        if ((keccak256(abi.encode(role)) == keccak256(abi.encode(orgAdminRole))) &&\n            (status == 1)) {\n            orgAdminIndex[keccak256(abi.encode(_orgId))] = _account;\n        }\n        accountAccessList[id].status = 2;\n        accountAccessList[id].orgAdmin = true;\n        emit AccountAccessModified(_account, accountAccessList[id].orgId, accountAccessList[id].role,\n            accountAccessList[id].orgAdmin, accountAccessList[id].status);\n        return (keccak256(abi.encode(accountAccessList[id].role)) == keccak256(abi.encode(adminRole)));\n    }\n\n    /** @notice updates the account status to the passed status value\n      * @param _orgId - org id\n      * @param _account - account id\n      * @param _action - new status of the account\n      * @dev the following actions are allowed\n            1 - Suspend the account\n            2 - Reactivate a suspended account\n            3 - Blacklist an account\n            4 - Initiate recovery for black listed account\n            5 - Complete recovery of black listed account and update status to active\n      */\n    function updateAccountStatus(string calldata _orgId, address _account, uint _action) external\n    onlyImplementation\n    accountExists(_orgId, _account) {\n        require((_action > 0 && _action < 6), \"invalid status change request\");\n\n        // check if the account is org admin. if yes then do not allow any status change\n        require(checkOrgAdmin(_account, _orgId, \"\") != true, \"status change not possible for org admin accounts\");\n        uint newStatus;\n        if (_action == 1) {\n            // for suspending an account current status should be active\n            require(accountAccessList[_getAccountIndex(_account)].status == 2,\n                \"account is not in active status. operation cannot be done\");\n            newStatus = 4;\n        }\n        else if (_action == 2) {\n            // for reactivating a suspended account, current status should be suspended\n            require(accountAccessList[_getAccountIndex(_account)].status == 4,\n                \"account is not in suspended status. operation cannot be done\");\n            newStatus = 2;\n        }\n        else if (_action == 3) {\n            require(accountAccessList[_getAccountIndex(_account)].status != 5,\n                \"account is already blacklisted. operation cannot be done\");\n            newStatus = 5;\n        }\n        else if (_action == 4) {\n            require(accountAccessList[_getAccountIndex(_account)].status == 5,\n                \"account is not blacklisted. operation cannot be done\");\n            newStatus = 7;\n        }\n        else if (_action == 5) {\n            require(accountAccessList[_getAccountIndex(_account)].status == 7, \"account recovery not initiated. operation cannot be done\");\n            newStatus = 2;\n        }\n\n        accountAccessList[_getAccountIndex(_account)].status = newStatus;\n        emit AccountStatusChanged(_account, _orgId, newStatus);\n    }\n\n    /** @notice checks if the passed account exists and if exists does it\n        belong to the passed organization.\n      * @param _account - account id\n      * @param _orgId - org id\n      * @return bool true if the account does not exists or exists and belongs\n      * @return passed org\n      */\n    function validateAccount(address _account, string calldata _orgId) external\n    view returns (bool){\n        if (accountIndex[_account] == 0) {\n            return true;\n        }\n        uint256 id = _getAccountIndex(_account);\n        return (keccak256(abi.encode(accountAccessList[id].orgId)) == keccak256(abi.encode(_orgId)));\n    }\n\n    /** @notice checks if org admin account exists for the passed org id\n      * @param _orgId - org id\n      * @return true if the org admin account exists and is approved\n      */\n    function orgAdminExists(string memory _orgId) public view returns (bool) {\n        if (orgAdminIndex[keccak256(abi.encode(_orgId))] != address(0)) {\n            address adminAcct = orgAdminIndex[keccak256(abi.encode(_orgId))];\n            return getAccountStatus(adminAcct) == 2;\n        }\n        return false;\n\n    }\n\n    /** @notice returns the role id linked to the passed account\n      * @param _account account id\n      * @return role id\n      */\n    function getAccountRole(address _account) public view returns (string memory) {\n        if (accountIndex[_account] == 0) {\n            return \"NONE\";\n        }\n        uint256 acctIndex = _getAccountIndex(_account);\n        if (accountAccessList[acctIndex].status != 0) {\n            return accountAccessList[acctIndex].role;\n        }\n        else {\n            return \"NONE\";\n        }\n    }\n\n    /** @notice returns the account status for a given account\n      * @param _account account id\n      * @return account status\n      */\n    function getAccountStatus(address _account) public view returns (uint256) {\n        if (accountIndex[_account] == 0) {\n            return 0;\n        }\n        uint256 aIndex = _getAccountIndex(_account);\n        return (accountAccessList[aIndex].status);\n    }\n\n\n    /** @notice checks if the account is a org admin for the passed org or\n        for the ultimate parent organization\n      * @param _account account id\n      * @param _orgId org id\n      * @param _ultParent master org id or\n      */\n    function checkOrgAdmin(address _account, string memory _orgId,\n        string memory _ultParent) public view returns (bool) {\n        // check if the account role is network admin. If yes return success\n        if (keccak256(abi.encode(getAccountRole(_account))) == keccak256(abi.encode(adminRole))) {\n            // check of the orgid is network admin org. then return true\n            uint256 id = _getAccountIndex(_account);\n            return ((keccak256(abi.encode(accountAccessList[id].orgId)) == keccak256(abi.encode(_orgId)))\n            || (keccak256(abi.encode(accountAccessList[id].orgId)) == keccak256(abi.encode(_ultParent))));\n        }\n        return ((orgAdminIndex[keccak256(abi.encode(_orgId))] == _account) || (orgAdminIndex[keccak256(abi.encode(_ultParent))] == _account));\n    }\n\n    /** @notice returns the index for a given account id\n      * @param _account account id\n      * @return account index\n      */\n    function _getAccountIndex(address _account) internal view returns (uint256) {\n        return accountIndex[_account] - 1;\n    }\n\n    /** @notice sets the account role to the passed role id and sets the status\n      * @param _account account id\n      * @param _orgId org id\n      * @param _status status to be set\n      * @param _oAdmin bool to indicate if account is org admin\n      */\n    function _setAccountRole(address _account, string memory _orgId,\n        string memory _roleId, uint256 _status, bool _oAdmin) internal onlyImplementation {\n        // Check if account already exists\n        uint256 aIndex = _getAccountIndex(_account);\n        if (accountIndex[_account] != 0) {\n            accountAccessList[aIndex].role = _roleId;\n            accountAccessList[aIndex].status = _status;\n            accountAccessList[aIndex].orgAdmin = _oAdmin;\n        }\n        else {\n            numAccounts ++;\n            accountIndex[_account] = numAccounts;\n            accountAccessList.push(AccountAccessDetails(_account, _orgId,\n                _roleId, _status, _oAdmin));\n        }\n        emit AccountAccessModified(_account, _orgId, _roleId, _oAdmin, _status);\n    }\n}\n",
  "sourcePath": "/home/manhtv19/coding/quorum/quorum-root/permission/contracts/AccountManager.sol",
  "compiler": {
    "name": "solc",
    "version": "0.5.3+commit.10d17f24.Emscripten.clang"
  },
  "schemaVersion": "3.4.6",
  "updatedAt": "2022-03-22T10:03:46.171Z",
  "devdoc": {
    "details": "account status is denoted by a fixed integer value. The values are as below: 0 - Not in list 1 - Account pending approval 2 - Active 3 - Inactive 4 - Suspended 5 - Blacklisted 6 - Revoked 7 - Recovery Initiated for blacklisted accounts and pending approval from network admins Once the account is blacklisted no further activity on the account is possible. When adding a new org admin account to an existing org, the existing org admin account will be in revoked status and can be assigned a new role later",
    "methods": {
      "addNewAdmin(string,address)": {
        "params": {
          "_account": "- account id",
          "_orgId": "- org id"
        },
        "return": "bool to indicate if voter update is required or not"
      },
      "assignAccountRole(address,string,string,bool)": {
        "params": {
          "_account": "- account id",
          "_adminRole": "- indicates of the role is an admin role",
          "_orgId": "- org to which it belongs",
          "_roleId": "- role id to be assigned"
        }
      },
      "assignAdminRole(address,string,string,uint256)": {
        "params": {
          "_account": "- account id",
          "_orgId": "- org to which it belongs",
          "_roleId": "- role id to be assigned",
          "_status": "- account status to be assigned"
        }
      },
      "checkOrgAdmin(address,string,string)": {
        "params": {
          "_account": "account id",
          "_orgId": "org id",
          "_ultParent": "master org id or"
        }
      },
      "getAccountDetails(address)": {
        "params": {
          "_account": "account id"
        },
        "return": "account idorg id of the accountrole linked to the accountstatus of the accountbool indicating if the account is an org admin"
      },
      "getAccountDetailsFromIndex(uint256)": {
        "params": {
          "_aIndex": "account index"
        },
        "return": "account idorg id of the accountrole linked to the accountstatus of the accountbool indicating if the account is an org admin"
      },
      "getAccountOrgRole(address)": {
        "params": {
          "_account": "account id"
        },
        "return": "org id of the accountrole linked to the account"
      },
      "getAccountRole(address)": {
        "params": {
          "_account": "account id"
        },
        "return": "role id"
      },
      "getAccountStatus(address)": {
        "params": {
          "_account": "account id"
        },
        "return": "account status"
      },
      "getNumberOfAccounts()": {
        "return": "total number accounts"
      },
      "orgAdminExists(string)": {
        "params": {
          "_orgId": "- org id"
        },
        "return": "true if the org admin account exists and is approved"
      },
      "removeExistingAdmin(string)": {
        "params": {
          "_orgId": "- org id"
        },
        "return": "bool to indicate if voter update is required or not_adminRole - indicates of the role is an admin role"
      },
      "updateAccountStatus(string,address,uint256)": {
        "details": "the following actions are allowed 1 - Suspend the account 2 - Reactivate a suspended account 3 - Blacklist an account 4 - Initiate recovery for black listed account 5 - Complete recovery of black listed account and update status to active",
        "params": {
          "_account": "- account id",
          "_action": "- new status of the account",
          "_orgId": "- org id"
        }
      },
      "validateAccount(address,string)": {
        "params": {
          "_account": "- account id",
          "_orgId": "- org id"
        },
        "return": "bool true if the account does not exists or exists and belongspassed org"
      }
    },
    "title": "Account manager contract"
  },
  "userdoc": {
    "methods": {
      "addNewAdmin(string,address)": {
        "notice": "function to add an account as network admin or org admin."
      },
      "assignAccountRole(address,string,string,bool)": {
        "notice": "this function is called to assign the any role to the passed account."
      },
      "assignAdminRole(address,string,string,uint256)": {
        "notice": "this function is called to assign the org admin or network admin roles only to the passed account"
      },
      "checkOrgAdmin(address,string,string)": {
        "notice": "checks if the account is a org admin for the passed org or for the ultimate parent organization"
      },
      "constructor": "constructor. sets the permissions upgradable address",
      "getAccountDetails(address)": {
        "notice": "returns the account details for a given account"
      },
      "getAccountDetailsFromIndex(uint256)": {
        "notice": "returns the account details a given account index"
      },
      "getAccountOrgRole(address)": {
        "notice": "returns the account details for a given account if account is valid/active"
      },
      "getAccountRole(address)": {
        "notice": "returns the role id linked to the passed account"
      },
      "getAccountStatus(address)": {
        "notice": "returns the account status for a given account"
      },
      "getNumberOfAccounts()": {
        "notice": "returns the total number of accounts"
      },
      "orgAdminExists(string)": {
        "notice": "checks if org admin account exists for the passed org id"
      },
      "removeExistingAdmin(string)": {
        "notice": "this function removes existing admin account. will be called at the time of adding a new account as org admin account. at org level there can be one org admin account only"
      },
      "setDefaults(string,string)": {
        "notice": "this is called at the time of network initialization to set the default values of network admin and org admin roles"
      },
      "updateAccountStatus(string,address,uint256)": {
        "notice": "updates the account status to the passed status value"
      },
      "validateAccount(address,string)": {
        "notice": "checks if the passed account exists and if exists does it belong to the passed organization."
      }
    },
    "notice": "This contract holds implementation logic for all account management functionality. This can be called only by the implementation contract only. there are few view functions exposed as public and can be called directly. these are invoked by quorum for populating permissions data in cache"
  }
}