{
  "contractName": "Box",
  "abi": [
    {
      "anonymous": false,
      "inputs": [
        {
          "indexed": false,
          "name": "value",
          "type": "uint256"
        }
      ],
      "name": "ValueChanged",
      "type": "event"
    },
    {
      "constant": false,
      "inputs": [
        {
          "name": "value",
          "type": "uint256"
        }
      ],
      "name": "store",
      "outputs": [],
      "payable": false,
      "stateMutability": "nonpayable",
      "type": "function"
    },
    {
      "constant": true,
      "inputs": [],
      "name": "retrieve",
      "outputs": [
        {
          "name": "",
          "type": "uint256"
        }
      ],
      "payable": false,
      "stateMutability": "view",
      "type": "function"
    }
  ],
  "bytecode": "0x608060405234801561001057600080fd5b50610111806100206000396000f3fe6080604052348015600f57600080fd5b5060043610604f576000357c0100000000000000000000000000000000000000000000000000000000900480632e64cec11460545780636057361d146070575b600080fd5b605a609b565b6040518082815260200191505060405180910390f35b609960048036036020811015608457600080fd5b810190808035906020019092919050505060a4565b005b60008054905090565b806000819055507f93fe6d397c74fdf1402a8b72e47b68512f0510d7b98a4bc4cbdf6ac7108b3c59816040518082815260200191505060405180910390a15056fea165627a7a72305820a429bd3e8c9dca66eb150ad27c74a9ebcc3f4195d1aa5683902e50097e1e8a890029",
  "source": "// contracts/Box.sol\n// SPDX-License-Identifier: MIT\npragma solidity ^0.5.3;\n\ncontract Box {\n    uint256 private _value;\n\n    // Emitted when the stored value changes\n    event ValueChanged(uint256 value);\n\n    // Stores a new value in the contract\n    function store(uint256 value) public {\n        _value = value;\n        emit ValueChanged(value);\n    }\n\n    // Reads the last stored value\n    function retrieve() public view returns (uint256) {\n        return _value;\n    }\n}",
  "sourcePath": "/home/manhtv19/coding/quorum/quorum-root/permission/contracts/Box.sol",
  "compiler": {
    "name": "solc",
    "version": "0.5.3+commit.10d17f24.Emscripten.clang"
  },
  "schemaVersion": "3.4.6",
  "updatedAt": "2022-03-22T10:09:07.546Z",
  "devdoc": {
    "methods": {}
  },
  "userdoc": {
    "methods": {}
  }
}