{
  "contractName": "NodeManager",
  "abi": [
    {
      "inputs": [
        {
          "name": "_permUpgradable",
          "type": "address"
        }
      ],
      "payable": false,
      "stateMutability": "nonpayable",
      "type": "constructor"
    },
    {
      "anonymous": false,
      "inputs": [
        {
          "indexed": false,
          "name": "_enodeId",
          "type": "string"
        },
        {
          "indexed": false,
          "name": "_ip",
          "type": "string"
        },
        {
          "indexed": false,
          "name": "_port",
          "type": "uint16"
        },
        {
          "indexed": false,
          "name": "_raftport",
          "type": "uint16"
        },
        {
          "indexed": false,
          "name": "_orgId",
          "type": "string"
        }
      ],
      "name": "NodeProposed",
      "type": "event"
    },
    {
      "anonymous": false,
      "inputs": [
        {
          "indexed": false,
          "name": "_enodeId",
          "type": "string"
        },
        {
          "indexed": false,
          "name": "_ip",
          "type": "string"
        },
        {
          "indexed": false,
          "name": "_port",
          "type": "uint16"
        },
        {
          "indexed": false,
          "name": "_raftport",
          "type": "uint16"
        },
        {
          "indexed": false,
          "name": "_orgId",
          "type": "string"
        }
      ],
      "name": "NodeApproved",
      "type": "event"
    },
    {
      "anonymous": false,
      "inputs": [
        {
          "indexed": false,
          "name": "_enodeId",
          "type": "string"
        },
        {
          "indexed": false,
          "name": "_ip",
          "type": "string"
        },
        {
          "indexed": false,
          "name": "_port",
          "type": "uint16"
        },
        {
          "indexed": false,
          "name": "_raftport",
          "type": "uint16"
        },
        {
          "indexed": false,
          "name": "_orgId",
          "type": "string"
        }
      ],
      "name": "NodeDeactivated",
      "type": "event"
    },
    {
      "anonymous": false,
      "inputs": [
        {
          "indexed": false,
          "name": "_enodeId",
          "type": "string"
        },
        {
          "indexed": false,
          "name": "_ip",
          "type": "string"
        },
        {
          "indexed": false,
          "name": "_port",
          "type": "uint16"
        },
        {
          "indexed": false,
          "name": "_raftport",
          "type": "uint16"
        },
        {
          "indexed": false,
          "name": "_orgId",
          "type": "string"
        }
      ],
      "name": "NodeActivated",
      "type": "event"
    },
    {
      "anonymous": false,
      "inputs": [
        {
          "indexed": false,
          "name": "_enodeId",
          "type": "string"
        },
        {
          "indexed": false,
          "name": "_ip",
          "type": "string"
        },
        {
          "indexed": false,
          "name": "_port",
          "type": "uint16"
        },
        {
          "indexed": false,
          "name": "_raftport",
          "type": "uint16"
        },
        {
          "indexed": false,
          "name": "_orgId",
          "type": "string"
        }
      ],
      "name": "NodeBlacklisted",
      "type": "event"
    },
    {
      "anonymous": false,
      "inputs": [
        {
          "indexed": false,
          "name": "_enodeId",
          "type": "string"
        },
        {
          "indexed": false,
          "name": "_ip",
          "type": "string"
        },
        {
          "indexed": false,
          "name": "_port",
          "type": "uint16"
        },
        {
          "indexed": false,
          "name": "_raftport",
          "type": "uint16"
        },
        {
          "indexed": false,
          "name": "_orgId",
          "type": "string"
        }
      ],
      "name": "NodeRecoveryInitiated",
      "type": "event"
    },
    {
      "anonymous": false,
      "inputs": [
        {
          "indexed": false,
          "name": "_enodeId",
          "type": "string"
        },
        {
          "indexed": false,
          "name": "_ip",
          "type": "string"
        },
        {
          "indexed": false,
          "name": "_port",
          "type": "uint16"
        },
        {
          "indexed": false,
          "name": "_raftport",
          "type": "uint16"
        },
        {
          "indexed": false,
          "name": "_orgId",
          "type": "string"
        }
      ],
      "name": "NodeRecoveryCompleted",
      "type": "event"
    },
    {
      "constant": true,
      "inputs": [
        {
          "name": "enodeId",
          "type": "string"
        }
      ],
      "name": "getNodeDetails",
      "outputs": [
        {
          "name": "_orgId",
          "type": "string"
        },
        {
          "name": "_enodeId",
          "type": "string"
        },
        {
          "name": "_ip",
          "type": "string"
        },
        {
          "name": "_port",
          "type": "uint16"
        },
        {
          "name": "_raftport",
          "type": "uint16"
        },
        {
          "name": "_nodeStatus",
          "type": "uint256"
        }
      ],
      "payable": false,
      "stateMutability": "view",
      "type": "function"
    },
    {
      "constant": true,
      "inputs": [
        {
          "name": "_nodeIndex",
          "type": "uint256"
        }
      ],
      "name": "getNodeDetailsFromIndex",
      "outputs": [
        {
          "name": "_orgId",
          "type": "string"
        },
        {
          "name": "_enodeId",
          "type": "string"
        },
        {
          "name": "_ip",
          "type": "string"
        },
        {
          "name": "_port",
          "type": "uint16"
        },
        {
          "name": "_raftport",
          "type": "uint16"
        },
        {
          "name": "_nodeStatus",
          "type": "uint256"
        }
      ],
      "payable": false,
      "stateMutability": "view",
      "type": "function"
    },
    {
      "constant": true,
      "inputs": [],
      "name": "getNumberOfNodes",
      "outputs": [
        {
          "name": "",
          "type": "uint256"
        }
      ],
      "payable": false,
      "stateMutability": "view",
      "type": "function"
    },
    {
      "constant": false,
      "inputs": [
        {
          "name": "_enodeId",
          "type": "string"
        },
        {
          "name": "_ip",
          "type": "string"
        },
        {
          "name": "_port",
          "type": "uint16"
        },
        {
          "name": "_raftport",
          "type": "uint16"
        },
        {
          "name": "_orgId",
          "type": "string"
        }
      ],
      "name": "addAdminNode",
      "outputs": [],
      "payable": false,
      "stateMutability": "nonpayable",
      "type": "function"
    },
    {
      "constant": false,
      "inputs": [
        {
          "name": "_enodeId",
          "type": "string"
        },
        {
          "name": "_ip",
          "type": "string"
        },
        {
          "name": "_port",
          "type": "uint16"
        },
        {
          "name": "_raftport",
          "type": "uint16"
        },
        {
          "name": "_orgId",
          "type": "string"
        }
      ],
      "name": "addNode",
      "outputs": [],
      "payable": false,
      "stateMutability": "nonpayable",
      "type": "function"
    },
    {
      "constant": false,
      "inputs": [
        {
          "name": "_enodeId",
          "type": "string"
        },
        {
          "name": "_ip",
          "type": "string"
        },
        {
          "name": "_port",
          "type": "uint16"
        },
        {
          "name": "_raftport",
          "type": "uint16"
        },
        {
          "name": "_orgId",
          "type": "string"
        }
      ],
      "name": "addOrgNode",
      "outputs": [],
      "payable": false,
      "stateMutability": "nonpayable",
      "type": "function"
    },
    {
      "constant": false,
      "inputs": [
        {
          "name": "_enodeId",
          "type": "string"
        },
        {
          "name": "_ip",
          "type": "string"
        },
        {
          "name": "_port",
          "type": "uint16"
        },
        {
          "name": "_raftport",
          "type": "uint16"
        },
        {
          "name": "_orgId",
          "type": "string"
        }
      ],
      "name": "approveNode",
      "outputs": [],
      "payable": false,
      "stateMutability": "nonpayable",
      "type": "function"
    },
    {
      "constant": false,
      "inputs": [
        {
          "name": "_enodeId",
          "type": "string"
        },
        {
          "name": "_ip",
          "type": "string"
        },
        {
          "name": "_port",
          "type": "uint16"
        },
        {
          "name": "_raftport",
          "type": "uint16"
        },
        {
          "name": "_orgId",
          "type": "string"
        },
        {
          "name": "_action",
          "type": "uint256"
        }
      ],
      "name": "updateNodeStatus",
      "outputs": [],
      "payable": false,
      "stateMutability": "nonpayable",
      "type": "function"
    },
    {
      "constant": true,
      "inputs": [
        {
          "name": "_enodeId",
          "type": "string"
        },
        {
          "name": "_ip",
          "type": "string"
        },
        {
          "name": "_port",
          "type": "uint16"
        }
      ],
      "name": "connectionAllowed",
      "outputs": [
        {
          "name": "",
          "type": "bool"
        }
      ],
      "payable": false,
      "stateMutability": "view",
      "type": "function"
    }
  ],
  "bytecode": "0x608060405234801561001057600080fd5b50604051602080620048ed8339810180604052602081101561003157600080fd5b8101908080519060200190929190505050806000806101000a81548173ffffffffffffffffffffffffffffffffffffffff021916908373ffffffffffffffffffffffffffffffffffffffff1602179055505061485a80620000936000396000f3fe608060405234801561001057600080fd5b50600436106100b0576000357c0100000000000000000000000000000000000000000000000000000000900480634c573311116100835780634c57331114610830578063549583df14610a3557806397c07a9b14610c3a578063b81c806a14610dde578063f82e08ac14610dfc576100b0565b806337d50b27146100b55780633f0e0e47146102c45780634530abe1146104b357806345a59e5b146106b8575b600080fd5b6102c2600480360360c08110156100cb57600080fd5b81019080803590602001906401000000008111156100e857600080fd5b8201836020820111156100fa57600080fd5b8035906020019184600183028401116401000000008311171561011c57600080fd5b91908080601f016020809104026020016040519081016040528093929190818152602001838380828437600081840152601f19601f8201169050808301925050505050505091929192908035906020019064010000000081111561017f57600080fd5b82018360208201111561019157600080fd5b803590602001918460018302840111640100000000831117156101b357600080fd5b91908080601f016020809104026020016040519081016040528093929190818152602001838380828437600081840152601f19601f820116905080830192505050505050509192919290803561ffff169060200190929190803561ffff1690602001909291908035906020019064010000000081111561023257600080fd5b82018360208201111561024457600080fd5b8035906020019184600183028401116401000000008311171561026657600080fd5b91908080601f016020809104026020016040519081016040528093929190818152602001838380828437600081840152601f19601f82011690508083019250505050505050919291929080359060200190929190505050611001565b005b61033b600480360360208110156102da57600080fd5b81019080803590602001906401000000008111156102f757600080fd5b82018360208201111561030957600080fd5b8035906020019184600183028401116401000000008311171561032b57600080fd5b9091929391929390505050612044565b604051808060200180602001806020018761ffff1661ffff1681526020018661ffff1661ffff16815260200185815260200184810384528a818151815260200191508051906020019080838360005b838110156103a557808201518184015260208101905061038a565b50505050905090810190601f1680156103d25780820380516001836020036101000a031916815260200191505b50848103835289818151815260200191508051906020019080838360005b8381101561040b5780820151818401526020810190506103f0565b50505050905090810190601f1680156104385780820380516001836020036101000a031916815260200191505b50848103825288818151815260200191508051906020019080838360005b83811015610471578082015181840152602081019050610456565b50505050905090810190601f16801561049e5780820380516001836020036101000a031916815260200191505b50995050505050505050505060405180910390f35b6106b6600480360360a08110156104c957600080fd5b81019080803590602001906401000000008111156104e657600080fd5b8201836020820111156104f857600080fd5b8035906020019184600183028401116401000000008311171561051a57600080fd5b91908080601f016020809104026020016040519081016040528093929190818152602001838380828437600081840152601f19601f8201169050808301925050505050505091929192908035906020019064010000000081111561057d57600080fd5b82018360208201111561058f57600080fd5b803590602001918460018302840111640100000000831117156105b157600080fd5b91908080601f016020809104026020016040519081016040528093929190818152602001838380828437600081840152601f19601f820116905080830192505050505050509192919290803561ffff169060200190929190803561ffff1690602001909291908035906020019064010000000081111561063057600080fd5b82018360208201111561064257600080fd5b8035906020019184600183028401116401000000008311171561066457600080fd5b91908080601f016020809104026020016040519081016040528093929190818152602001838380828437600081840152601f19601f82011690508083019250505050505050919291929050505061246b565b005b610816600480360360608110156106ce57600080fd5b81019080803590602001906401000000008111156106eb57600080fd5b8201836020820111156106fd57600080fd5b8035906020019184600183028401116401000000008311171561071f57600080fd5b91908080601f016020809104026020016040519081016040528093929190818152602001838380828437600081840152601f19601f8201169050808301925050505050505091929192908035906020019064010000000081111561078257600080fd5b82018360208201111561079457600080fd5b803590602001918460018302840111640100000000831117156107b657600080fd5b91908080601f016020809104026020016040519081016040528093929190818152602001838380828437600081840152601f19601f820116905080830192505050505050509192919290803561ffff169060200190929190505050612a45565b604051808215151515815260200191505060405180910390f35b610a33600480360360a081101561084657600080fd5b810190808035906020019064010000000081111561086357600080fd5b82018360208201111561087557600080fd5b8035906020019184600183028401116401000000008311171561089757600080fd5b91908080601f016020809104026020016040519081016040528093929190818152602001838380828437600081840152601f19601f820116905080830192505050505050509192919290803590602001906401000000008111156108fa57600080fd5b82018360208201111561090c57600080fd5b8035906020019184600183028401116401000000008311171561092e57600080fd5b91908080601f016020809104026020016040519081016040528093929190818152602001838380828437600081840152601f19601f820116905080830192505050505050509192919290803561ffff169060200190929190803561ffff169060200190929190803590602001906401000000008111156109ad57600080fd5b8201836020820111156109bf57600080fd5b803590602001918460018302840111640100000000831117156109e157600080fd5b91908080601f016020809104026020016040519081016040528093929190818152602001838380828437600081840152601f19601f820116905080830192505050505050509192919290505050612e01565b005b610c38600480360360a0811015610a4b57600080fd5b8101908080359060200190640100000000811115610a6857600080fd5b820183602082011115610a7a57600080fd5b80359060200191846001830284011164010000000083111715610a9c57600080fd5b91908080601f016020809104026020016040519081016040528093929190818152602001838380828437600081840152601f19601f82011690508083019250505050505050919291929080359060200190640100000000811115610aff57600080fd5b820183602082011115610b1157600080fd5b80359060200191846001830284011164010000000083111715610b3357600080fd5b91908080601f016020809104026020016040519081016040528093929190818152602001838380828437600081840152601f19601f820116905080830192505050505050509192919290803561ffff169060200190929190803561ffff16906020019092919080359060200190640100000000811115610bb257600080fd5b820183602082011115610bc457600080fd5b80359060200191846001830284011164010000000083111715610be657600080fd5b91908080601f016020809104026020016040519081016040528093929190818152602001838380828437600081840152601f19601f8201169050808301925050505050505091929192905050506133db565b005b610c6660048036036020811015610c5057600080fd5b81019080803590602001909291905050506139b5565b604051808060200180602001806020018761ffff1661ffff1681526020018661ffff1661ffff16815260200185815260200184810384528a818151815260200191508051906020019080838360005b83811015610cd0578082015181840152602081019050610cb5565b50505050905090810190601f168015610cfd5780820380516001836020036101000a031916815260200191505b50848103835289818151815260200191508051906020019080838360005b83811015610d36578082015181840152602081019050610d1b565b50505050905090810190601f168015610d635780820380516001836020036101000a031916815260200191505b50848103825288818151815260200191508051906020019080838360005b83811015610d9c578082015181840152602081019050610d81565b50505050905090810190601f168015610dc95780820380516001836020036101000a031916815260200191505b50995050505050505050505060405180910390f35b610de6613c87565b6040518082815260200191505060405180910390f35b610fff600480360360a0811015610e1257600080fd5b8101908080359060200190640100000000811115610e2f57600080fd5b820183602082011115610e4157600080fd5b80359060200191846001830284011164010000000083111715610e6357600080fd5b91908080601f016020809104026020016040519081016040528093929190818152602001838380828437600081840152601f19601f82011690508083019250505050505050919291929080359060200190640100000000811115610ec657600080fd5b820183602082011115610ed857600080fd5b80359060200191846001830284011164010000000083111715610efa57600080fd5b91908080601f016020809104026020016040519081016040528093929190818152602001838380828437600081840152601f19601f820116905080830192505050505050509192919290803561ffff169060200190929190803561ffff16906020019092919080359060200190640100000000811115610f7957600080fd5b820183602082011115610f8b57600080fd5b80359060200191846001830284011164010000000083111715610fad57600080fd5b91908080601f016020809104026020016040519081016040528093929190818152602001838380828437600081840152601f19601f820116905080830192505050505050509192919290505050613c91565b005b6000809054906101000a900473ffffffffffffffffffffffffffffffffffffffff1673ffffffffffffffffffffffffffffffffffffffff16630e32cf906040518163ffffffff167c010000000000000000000000000000000000000000000000000000000002815260040160206040518083038186803b15801561108457600080fd5b505afa158015611098573d6000803e3d6000fd5b505050506040513d60208110156110ae57600080fd5b810190808051906020019092919050505073ffffffffffffffffffffffffffffffffffffffff163373ffffffffffffffffffffffffffffffffffffffff16141515611161576040517f08c379a000000000000000000000000000000000000000000000000000000000815260040180806020018281038252600e8152602001807f696e76616c69642063616c6c657200000000000000000000000000000000000081525060200191505060405180910390fd5b85600060036000836040516020018080602001828103825283818151815260200191508051906020019080838360005b838110156111ac578082015181840152602081019050611191565b50505050905090810190601f1680156111d95780820380516001836020036101000a031916815260200191505b50925050506040516020818303038152906040528051906020012081526020019081526020016000205414151515611279576040517f08c379a000000000000000000000000000000000000000000000000000000000815260040180806020018281038252601e8152602001807f70617373656420656e6f646520696420646f6573206e6f74206578697374000081525060200191505060405180910390fd5b6112838784614418565b15156112da576040517f08c379a000000000000000000000000000000000000000000000000000000000815260040180806020018281038252602a8152602001806147b2602a913960400191505060405180910390fd5b60018214806112e95750600282145b806112f45750600382145b806112ff5750600482145b8061130a5750600582145b1515611361576040517f08c379a00000000000000000000000000000000000000000000000000000000081526004018080602001828103825260268152602001806147dc6026913960400191505060405180910390fd5b600061136c8861457f565b9050866040516020018080602001828103825283818151815260200191508051906020019080838360005b838110156113b2578082015181840152602081019050611397565b50505050905090810190601f1680156113df5780820380516001836020036101000a031916815260200191505b50925050506040516020818303038152906040528051906020012060018281548110151561140957fe5b906000526020600020906005020160010160405160200180806020018281038252838181546001816001161561010002031660029004815260200191508054600181600116156101000203166002900480156114a65780601f1061147b576101008083540402835291602001916114a6565b820191906000526020600020905b81548152906001019060200180831161148957829003601f168201915b5050925050506040516020818303038152906040528051906020012014158061150557508561ffff166001828154811015156114de57fe5b906000526020600020906005020160020160009054906101000a900461ffff1661ffff1614155b8061154657508461ffff1660018281548110151561151f57fe5b906000526020600020906005020160020160029054906101000a900461ffff1661ffff1614155b15611551575061203b565b600183141561179b5760026115658961462a565b1415156115da576040517f08c379a000000000000000000000000000000000000000000000000000000000815260040180806020018281038252601d8152602001807f6f7065726174696f6e2063616e6e6f7420626520706572666f726d656400000081525060200191505060405180910390fd5b60036001828154811015156115eb57fe5b9060005260206000209060050201600401819055507ff631019be71bc682c59150635d714061185232e98e60de8bdd87bbee239cc5c888888888886040518080602001806020018661ffff1661ffff1681526020018561ffff1661ffff16815260200180602001848103845289818151815260200191508051906020019080838360005b8381101561168a57808201518184015260208101905061166f565b50505050905090810190601f1680156116b75780820380516001836020036101000a031916815260200191505b50848103835288818151815260200191508051906020019080838360005b838110156116f05780820151818401526020810190506116d5565b50505050905090810190601f16801561171d5780820380516001836020036101000a031916815260200191505b50848103825285818151815260200191508051906020019080838360005b8381101561175657808201518184015260208101905061173b565b50505050905090810190601f1680156117835780820380516001836020036101000a031916815260200191505b509850505050505050505060405180910390a1612039565b60028314156119e55760036117af8961462a565b141515611824576040517f08c379a000000000000000000000000000000000000000000000000000000000815260040180806020018281038252601d8152602001807f6f7065726174696f6e2063616e6e6f7420626520706572666f726d656400000081525060200191505060405180910390fd5b600260018281548110151561183557fe5b9060005260206000209060050201600401819055507ffb98f62dea866f0c373574c8523f611d0db1d8f19cc1b95d07a221d36a6a45de88888888886040518080602001806020018661ffff1661ffff1681526020018561ffff1661ffff16815260200180602001848103845289818151815260200191508051906020019080838360005b838110156118d45780820151818401526020810190506118b9565b50505050905090810190601f1680156119015780820380516001836020036101000a031916815260200191505b50848103835288818151815260200191508051906020019080838360005b8381101561193a57808201518184015260208101905061191f565b50505050905090810190601f1680156119675780820380516001836020036101000a031916815260200191505b50848103825285818151815260200191508051906020019080838360005b838110156119a0578082015181840152602081019050611985565b50505050905090810190601f1680156119cd5780820380516001836020036101000a031916815260200191505b509850505050505050505060405180910390a1612038565b6003831415611baf5760046001828154811015156119ff57fe5b9060005260206000209060050201600401819055507f25300d4d785e654bc9b7979700cfa0fdc9ace890a46841fecfce661fd2c41a3388888888886040518080602001806020018661ffff1661ffff1681526020018561ffff1661ffff16815260200180602001848103845289818151815260200191508051906020019080838360005b83811015611a9e578082015181840152602081019050611a83565b50505050905090810190601f168015611acb5780820380516001836020036101000a031916815260200191505b50848103835288818151815260200191508051906020019080838360005b83811015611b04578082015181840152602081019050611ae9565b50505050905090810190601f168015611b315780820380516001836020036101000a031916815260200191505b50848103825285818151815260200191508051906020019080838360005b83811015611b6a578082015181840152602081019050611b4f565b50505050905090810190601f168015611b975780820380516001836020036101000a031916815260200191505b509850505050505050505060405180910390a1612037565b6004831415611df9576004611bc38961462a565b141515611c38576040517f08c379a000000000000000000000000000000000000000000000000000000000815260040180806020018281038252601d8152602001807f6f7065726174696f6e2063616e6e6f7420626520706572666f726d656400000081525060200191505060405180910390fd5b6005600182815481101515611c4957fe5b9060005260206000209060050201600401819055507f72779f66ea90e28bae76fbfe03eaef5ae01699976c7493f93186ab9560ccfaa488888888886040518080602001806020018661ffff1661ffff1681526020018561ffff1661ffff16815260200180602001848103845289818151815260200191508051906020019080838360005b83811015611ce8578082015181840152602081019050611ccd565b50505050905090810190601f168015611d155780820380516001836020036101000a031916815260200191505b50848103835288818151815260200191508051906020019080838360005b83811015611d4e578082015181840152602081019050611d33565b50505050905090810190601f168015611d7b5780820380516001836020036101000a031916815260200191505b50848103825285818151815260200191508051906020019080838360005b83811015611db4578082015181840152602081019050611d99565b50505050905090810190601f168015611de15780820380516001836020036101000a031916815260200191505b509850505050505050505060405180910390a1612036565b6005611e048961462a565b141515611e79576040517f08c379a000000000000000000000000000000000000000000000000000000000815260040180806020018281038252601d8152602001807f6f7065726174696f6e2063616e6e6f7420626520706572666f726d656400000081525060200191505060405180910390fd5b6002600182815481101515611e8a57fe5b9060005260206000209060050201600401819055507f60aac8c36efdaabf125dc9ec2124bde8b3ceafe5c8b4fc8063fc4ac9017eb0be88888888886040518080602001806020018661ffff1661ffff1681526020018561ffff1661ffff16815260200180602001848103845289818151815260200191508051906020019080838360005b83811015611f29578082015181840152602081019050611f0e565b50505050905090810190601f168015611f565780820380516001836020036101000a031916815260200191505b50848103835288818151815260200191508051906020019080838360005b83811015611f8f578082015181840152602081019050611f74565b50505050905090810190601f168015611fbc5780820380516001836020036101000a031916815260200191505b50848103825285818151815260200191508051906020019080838360005b83811015611ff5578082015181840152602081019050611fda565b50505050905090810190601f1680156120225780820380516001836020036101000a031916815260200191505b509850505050505050505060405180910390a15b5b5b5b505b50505050505050565b606080606060008060008060026000876040516020018080602001828103825283818151815260200191508051906020019080838360005b8381101561209757808201518184015260208101905061207c565b50505050905090810190601f1680156120c45780820380516001836020036101000a031916815260200191505b509250505060405160208183030381529060405280519060200120815260200190815260200160002054141561214f576000806000602060405190810160405280600081525092919060206040519081016040528060008152509291906020604051908101604052806000815250929190829250819150809050955095509550955095509550612461565b600061219e89898080601f016020809104026020016040519081016040528093929190818152602001838380828437600081840152601f19601f8201169050808301925050505050505061457f565b90506001818154811015156121af57fe5b90600052602060002090600502016003016001828154811015156121cf57fe5b90600052602060002090600502016000016001838154811015156121ef57fe5b906000526020600020906005020160010160018481548110151561220f57fe5b906000526020600020906005020160020160009054906101000a900461ffff1660018581548110151561223e57fe5b906000526020600020906005020160020160029054906101000a900461ffff1660018681548110151561226d57fe5b906000526020600020906005020160040154858054600181600116156101000203166002900480601f0160208091040260200160405190810160405280929190818152602001828054600181600116156101000203166002900480156123145780601f106122e957610100808354040283529160200191612314565b820191906000526020600020905b8154815290600101906020018083116122f757829003601f168201915b50505050509550848054600181600116156101000203166002900480601f0160208091040260200160405190810160405280929190818152602001828054600181600116156101000203166002900480156123b05780601f10612385576101008083540402835291602001916123b0565b820191906000526020600020905b81548152906001019060200180831161239357829003601f168201915b50505050509450838054600181600116156101000203166002900480601f01602080910402602001604051908101604052809291908181526020018280546001816001161561010002031660029004801561244c5780601f106124215761010080835404028352916020019161244c565b820191906000526020600020905b81548152906001019060200180831161242f57829003601f168201915b50505050509350965096509650965096509650505b9295509295509295565b6000809054906101000a900473ffffffffffffffffffffffffffffffffffffffff1673ffffffffffffffffffffffffffffffffffffffff16630e32cf906040518163ffffffff167c010000000000000000000000000000000000000000000000000000000002815260040160206040518083038186803b1580156124ee57600080fd5b505afa158015612502573d6000803e3d6000fd5b505050506040513d602081101561251857600080fd5b810190808051906020019092919050505073ffffffffffffffffffffffffffffffffffffffff163373ffffffffffffffffffffffffffffffffffffffff161415156125cb576040517f08c379a000000000000000000000000000000000000000000000000000000000815260040180806020018281038252600e8152602001807f696e76616c69642063616c6c657200000000000000000000000000000000000081525060200191505060405180910390fd5b84600060036000836040516020018080602001828103825283818151815260200191508051906020019080838360005b838110156126165780820151818401526020810190506125fb565b50505050905090810190601f1680156126435780820380516001836020036101000a031916815260200191505b5092505050604051602081830303815290604052805190602001208152602001908152602001600020541415156126e2576040517f08c379a00000000000000000000000000000000000000000000000000000000081526004018080602001828103825260168152602001807f70617373656420656e6f6465206964206578697374730000000000000000000081525060200191505060405180910390fd5b60046000815480929190600101919050555060045460036000886040516020018080602001828103825283818151815260200191508051906020019080838360005b8381101561273f578082015181840152602081019050612724565b50505050905090810190601f16801561276c5780820380516001836020036101000a031916815260200191505b509250505060405160208183030381529060405280519060200120815260200190815260200160002081905550600160c0604051908101604052808881526020018781526020018661ffff1681526020018561ffff168152602001848152602001600281525090806001815401808255809150509060018203906000526020600020906005020160009091929091909150600082015181600001908051906020019061281992919061470c565b50602082015181600101908051906020019061283692919061470c565b5060408201518160020160006101000a81548161ffff021916908361ffff16021790555060608201518160020160026101000a81548161ffff021916908361ffff160217905550608082015181600301908051906020019061289992919061470c565b5060a082015181600401555050507f9394c836a3325586270659f6aa3b9f835abca9afe7fec5abfc69760bb12bce0d86868686866040518080602001806020018661ffff1661ffff1681526020018561ffff1661ffff16815260200180602001848103845289818151815260200191508051906020019080838360005b83811015612931578082015181840152602081019050612916565b50505050905090810190601f16801561295e5780820380516001836020036101000a031916815260200191505b50848103835288818151815260200191508051906020019080838360005b8381101561299757808201518184015260208101905061297c565b50505050905090810190601f1680156129c45780820380516001836020036101000a031916815260200191505b50848103825285818151815260200191508051906020019080838360005b838110156129fd5780820151818401526020810190506129e2565b50505050905090810190601f168015612a2a5780820380516001836020036101000a031916815260200191505b509850505050505050505060405180910390a1505050505050565b60008060009054906101000a900473ffffffffffffffffffffffffffffffffffffffff1673ffffffffffffffffffffffffffffffffffffffff16630e32cf906040518163ffffffff167c010000000000000000000000000000000000000000000000000000000002815260040160206040518083038186803b158015612aca57600080fd5b505afa158015612ade573d6000803e3d6000fd5b505050506040513d6020811015612af457600080fd5b810190808051906020019092919050505073ffffffffffffffffffffffffffffffffffffffff163373ffffffffffffffffffffffffffffffffffffffff16141515612ba7576040517f08c379a000000000000000000000000000000000000000000000000000000000815260040180806020018281038252600e8152602001807f696e76616c69642063616c6c657200000000000000000000000000000000000081525060200191505060405180910390fd5b600060036000866040516020018080602001828103825283818151815260200191508051906020019080838360005b83811015612bf1578082015181840152602081019050612bd6565b50505050905090810190601f168015612c1e5780820380516001836020036101000a031916815260200191505b5092505050604051602081830303815290604052805190602001208152602001908152602001600020541415612c575760009050612dfa565b6000612c628561457f565b90506002600182815481101515612c7557fe5b906000526020600020906005020160040154148015612de55750836040516020018080602001828103825283818151815260200191508051906020019080838360005b83811015612cd3578082015181840152602081019050612cb8565b50505050905090810190601f168015612d005780820380516001836020036101000a031916815260200191505b509250505060405160208183030381529060405280519060200120600182815481101515612d2a57fe5b90600052602060002090600502016001016040516020018080602001828103825283818154600181600116156101000203166002900481526020019150805460018160011615610100020316600290048015612dc75780601f10612d9c57610100808354040283529160200191612dc7565b820191906000526020600020905b815481529060010190602001808311612daa57829003601f168201915b50509250505060405160208183030381529060405280519060200120145b15612df4576001915050612dfa565b60009150505b9392505050565b6000809054906101000a900473ffffffffffffffffffffffffffffffffffffffff1673ffffffffffffffffffffffffffffffffffffffff16630e32cf906040518163ffffffff167c010000000000000000000000000000000000000000000000000000000002815260040160206040518083038186803b158015612e8457600080fd5b505afa158015612e98573d6000803e3d6000fd5b505050506040513d6020811015612eae57600080fd5b810190808051906020019092919050505073ffffffffffffffffffffffffffffffffffffffff163373ffffffffffffffffffffffffffffffffffffffff16141515612f61576040517f08c379a000000000000000000000000000000000000000000000000000000000815260040180806020018281038252600e8152602001807f696e76616c69642063616c6c657200000000000000000000000000000000000081525060200191505060405180910390fd5b84600060036000836040516020018080602001828103825283818151815260200191508051906020019080838360005b83811015612fac578082015181840152602081019050612f91565b50505050905090810190601f168015612fd95780820380516001836020036101000a031916815260200191505b509250505060405160208183030381529060405280519060200120815260200190815260200160002054141515613078576040517f08c379a00000000000000000000000000000000000000000000000000000000081526004018080602001828103825260168152602001807f70617373656420656e6f6465206964206578697374730000000000000000000081525060200191505060405180910390fd5b60046000815480929190600101919050555060045460036000886040516020018080602001828103825283818151815260200191508051906020019080838360005b838110156130d55780820151818401526020810190506130ba565b50505050905090810190601f1680156131025780820380516001836020036101000a031916815260200191505b509250505060405160208183030381529060405280519060200120815260200190815260200160002081905550600160c0604051908101604052808881526020018781526020018661ffff1681526020018561ffff16815260200184815260200160028152509080600181540180825580915050906001820390600052602060002090600502016000909192909190915060008201518160000190805190602001906131af92919061470c565b5060208201518160010190805190602001906131cc92919061470c565b5060408201518160020160006101000a81548161ffff021916908361ffff16021790555060608201518160020160026101000a81548161ffff021916908361ffff160217905550608082015181600301908051906020019061322f92919061470c565b5060a082015181600401555050507f9394c836a3325586270659f6aa3b9f835abca9afe7fec5abfc69760bb12bce0d86868686866040518080602001806020018661ffff1661ffff1681526020018561ffff1661ffff16815260200180602001848103845289818151815260200191508051906020019080838360005b838110156132c75780820151818401526020810190506132ac565b50505050905090810190601f1680156132f45780820380516001836020036101000a031916815260200191505b50848103835288818151815260200191508051906020019080838360005b8381101561332d578082015181840152602081019050613312565b50505050905090810190601f16801561335a5780820380516001836020036101000a031916815260200191505b50848103825285818151815260200191508051906020019080838360005b83811015613393578082015181840152602081019050613378565b50505050905090810190601f1680156133c05780820380516001836020036101000a031916815260200191505b509850505050505050505060405180910390a1505050505050565b6000809054906101000a900473ffffffffffffffffffffffffffffffffffffffff1673ffffffffffffffffffffffffffffffffffffffff16630e32cf906040518163ffffffff167c010000000000000000000000000000000000000000000000000000000002815260040160206040518083038186803b15801561345e57600080fd5b505afa158015613472573d6000803e3d6000fd5b505050506040513d602081101561348857600080fd5b810190808051906020019092919050505073ffffffffffffffffffffffffffffffffffffffff163373ffffffffffffffffffffffffffffffffffffffff1614151561353b576040517f08c379a000000000000000000000000000000000000000000000000000000000815260040180806020018281038252600e8152602001807f696e76616c69642063616c6c657200000000000000000000000000000000000081525060200191505060405180910390fd5b84600060036000836040516020018080602001828103825283818151815260200191508051906020019080838360005b8381101561358657808201518184015260208101905061356b565b50505050905090810190601f1680156135b35780820380516001836020036101000a031916815260200191505b509250505060405160208183030381529060405280519060200120815260200190815260200160002054141515613652576040517f08c379a00000000000000000000000000000000000000000000000000000000081526004018080602001828103825260168152602001807f70617373656420656e6f6465206964206578697374730000000000000000000081525060200191505060405180910390fd5b60046000815480929190600101919050555060045460036000886040516020018080602001828103825283818151815260200191508051906020019080838360005b838110156136af578082015181840152602081019050613694565b50505050905090810190601f1680156136dc5780820380516001836020036101000a031916815260200191505b509250505060405160208183030381529060405280519060200120815260200190815260200160002081905550600160c0604051908101604052808881526020018781526020018661ffff1681526020018561ffff168152602001848152602001600181525090806001815401808255809150509060018203906000526020600020906005020160009091929091909150600082015181600001908051906020019061378992919061470c565b5060208201518160010190805190602001906137a692919061470c565b5060408201518160020160006101000a81548161ffff021916908361ffff16021790555060608201518160020160026101000a81548161ffff021916908361ffff160217905550608082015181600301908051906020019061380992919061470c565b5060a082015181600401555050507ff9bad9f8a2dccc52fad61273a7fd673335b420319506c19b87df9ce7a19732da86868686866040518080602001806020018661ffff1661ffff1681526020018561ffff1661ffff16815260200180602001848103845289818151815260200191508051906020019080838360005b838110156138a1578082015181840152602081019050613886565b50505050905090810190601f1680156138ce5780820380516001836020036101000a031916815260200191505b50848103835288818151815260200191508051906020019080838360005b838110156139075780820151818401526020810190506138ec565b50505050905090810190601f1680156139345780820380516001836020036101000a031916815260200191505b50848103825285818151815260200191508051906020019080838360005b8381101561396d578082015181840152602081019050613952565b50505050905090810190601f16801561399a5780820380516001836020036101000a031916815260200191505b509850505050505050505060405180910390a1505050505050565b606080606060008060006001878154811015156139ce57fe5b90600052602060002090600502016003016001888154811015156139ee57fe5b9060005260206000209060050201600001600189815481101515613a0e57fe5b906000526020600020906005020160010160018a815481101515613a2e57fe5b906000526020600020906005020160020160009054906101000a900461ffff1660018b815481101515613a5d57fe5b906000526020600020906005020160020160029054906101000a900461ffff1660018c815481101515613a8c57fe5b906000526020600020906005020160040154858054600181600116156101000203166002900480601f016020809104026020016040519081016040528092919081815260200182805460018160011615610100020316600290048015613b335780601f10613b0857610100808354040283529160200191613b33565b820191906000526020600020905b815481529060010190602001808311613b1657829003601f168201915b50505050509550848054600181600116156101000203166002900480601f016020809104026020016040519081016040528092919081815260200182805460018160011615610100020316600290048015613bcf5780601f10613ba457610100808354040283529160200191613bcf565b820191906000526020600020905b815481529060010190602001808311613bb257829003601f168201915b50505050509450838054600181600116156101000203166002900480601f016020809104026020016040519081016040528092919081815260200182805460018160011615610100020316600290048015613c6b5780601f10613c4057610100808354040283529160200191613c6b565b820191906000526020600020905b815481529060010190602001808311613c4e57829003601f168201915b5050505050935095509550955095509550955091939550919395565b6000600454905090565b6000809054906101000a900473ffffffffffffffffffffffffffffffffffffffff1673ffffffffffffffffffffffffffffffffffffffff16630e32cf906040518163ffffffff167c010000000000000000000000000000000000000000000000000000000002815260040160206040518083038186803b158015613d1457600080fd5b505afa158015613d28573d6000803e3d6000fd5b505050506040513d6020811015613d3e57600080fd5b810190808051906020019092919050505073ffffffffffffffffffffffffffffffffffffffff163373ffffffffffffffffffffffffffffffffffffffff16141515613df1576040517f08c379a000000000000000000000000000000000000000000000000000000000815260040180806020018281038252600e8152602001807f696e76616c69642063616c6c657200000000000000000000000000000000000081525060200191505060405180910390fd5b84600060036000836040516020018080602001828103825283818151815260200191508051906020019080838360005b83811015613e3c578082015181840152602081019050613e21565b50505050905090810190601f168015613e695780820380516001836020036101000a031916815260200191505b50925050506040516020818303038152906040528051906020012081526020019081526020016000205414151515613f09576040517f08c379a000000000000000000000000000000000000000000000000000000000815260040180806020018281038252601e8152602001807f70617373656420656e6f646520696420646f6573206e6f74206578697374000081525060200191505060405180910390fd5b613f138683614418565b1515613f6a576040517f08c379a000000000000000000000000000000000000000000000000000000000815260040180806020018281038252602d815260200180614802602d913960400191505060405180910390fd5b6001613f758761462a565b141515613fea576040517f08c379a000000000000000000000000000000000000000000000000000000000815260040180806020018281038252601c8152602001807f6e6f7468696e672070656e64696e6720666f7220617070726f76616c0000000081525060200191505060405180910390fd5b6000613ff58761457f565b9050856040516020018080602001828103825283818151815260200191508051906020019080838360005b8381101561403b578082015181840152602081019050614020565b50505050905090810190601f1680156140685780820380516001836020036101000a031916815260200191505b50925050506040516020818303038152906040528051906020012060018281548110151561409257fe5b9060005260206000209060050201600101604051602001808060200182810382528381815460018160011615610100020316600290048152602001915080546001816001161561010002031660029004801561412f5780601f106141045761010080835404028352916020019161412f565b820191906000526020600020905b81548152906001019060200180831161411257829003601f168201915b5050925050506040516020818303038152906040528051906020012014158061418e57508461ffff1660018281548110151561416757fe5b906000526020600020906005020160020160009054906101000a900461ffff1661ffff1614155b806141cf57508361ffff166001828154811015156141a857fe5b906000526020600020906005020160020160029054906101000a900461ffff1661ffff1614155b156141da5750614410565b60026001828154811015156141eb57fe5b9060005260206000209060050201600401819055507f9394c836a3325586270659f6aa3b9f835abca9afe7fec5abfc69760bb12bce0d60018281548110151561423057fe5b906000526020600020906005020160000187878760018681548110151561425357fe5b90600052602060002090600502016003016040518080602001806020018661ffff1661ffff1681526020018561ffff1661ffff168152602001806020018481038452898181546001816001161561010002031660029004815260200191508054600181600116156101000203166002900480156143115780601f106142e657610100808354040283529160200191614311565b820191906000526020600020905b8154815290600101906020018083116142f457829003601f168201915b5050848103835288818151815260200191508051906020019080838360005b8381101561434b578082015181840152602081019050614330565b50505050905090810190601f1680156143785780820380516001836020036101000a031916815260200191505b508481038252858181546001816001161561010002031660029004815260200191508054600181600116156101000203166002900480156143fa5780601f106143cf576101008083540402835291602001916143fa565b820191906000526020600020905b8154815290600101906020018083116143dd57829003601f168201915b50509850505050505050505060405180910390a1505b505050505050565b6000816040516020018080602001828103825283818151815260200191508051906020019080838360005b8381101561445e578082015181840152602081019050614443565b50505050905090810190601f16801561448b5780820380516001836020036101000a031916815260200191505b50925050506040516020818303038152906040528051906020012060016144b18561457f565b8154811015156144bd57fe5b9060005260206000209060050201600301604051602001808060200182810382528381815460018160011615610100020316600290048152602001915080546001816001161561010002031660029004801561455a5780601f1061452f5761010080835404028352916020019161455a565b820191906000526020600020905b81548152906001019060200180831161453d57829003601f168201915b5050925050506040516020818303038152906040528051906020012014905092915050565b6000600160036000846040516020018080602001828103825283818151815260200191508051906020019080838360005b838110156145cb5780820151818401526020810190506145b0565b50505050905090810190601f1680156145f85780820380516001836020036101000a031916815260200191505b509250505060405160208183030381529060405280519060200120815260200190815260200160002054039050919050565b60008060036000846040516020018080602001828103825283818151815260200191508051906020019080838360005b8381101561467557808201518184015260208101905061465a565b50505050905090810190601f1680156146a25780820380516001836020036101000a031916815260200191505b50925050506040516020818303038152906040528051906020012081526020019081526020016000205414156146db5760009050614707565b60016146e68361457f565b8154811015156146f257fe5b90600052602060002090600502016004015490505b919050565b828054600181600116156101000203166002900490600052602060002090601f016020900481019282601f1061474d57805160ff191683800117855561477b565b8280016001018555821561477b579182015b8281111561477a57825182559160200191906001019061475f565b5b509050614788919061478c565b5090565b6147ae91905b808211156147aa576000816000905550600101614792565b5090565b9056fe656e6f646520696420646f6573206e6f742062656c6f6e6720746f2074686520706173736564206f7267696e76616c6964206f7065726174696f6e2e2077726f6e6720616374696f6e20706173736564656e6f646520696420646f6573206e6f742062656c6f6e6720746f2074686520706173736564206f7267206964a165627a7a7230582061af2f672a5daa89d282fb339f447fa1d9ed6d8c94c78ab8938b3dc6d95c4d960029",
  "source": "pragma solidity ^0.5.3;\n\nimport \"./PermissionsUpgradable.sol\";\n/** @title Node manager contract\n  * @notice This contract holds implementation logic for all node management\n    functionality. This can be called only by the implementation contract.\n    There are few view functions exposed as public and can be called directly.\n    These are invoked by quorum for populating permissions data in cache\n  * @dev node status is denoted by a fixed integer value. The values are\n    as below:\n        0 - Not in list\n        1 - Node pending approval\n        2 - Active\n        3 - Deactivated\n        4 - Blacklisted\n        5 - Blacklisted node recovery initiated. Once approved the node\n            status will be updated to Active (2)\n     Once the node is blacklisted no further activity on the node is\n     possible.\n  */\ncontract NodeManager {\n    PermissionsUpgradable private permUpgradable;\n\n    struct NodeDetails {\n        string enodeId;\n        string ip;\n        uint16 port;\n        uint16 raftPort;\n        string orgId;\n        uint256 status;\n    }\n    // use an array to store node details\n    // if we want to list all node one day, mapping is not capable\n    NodeDetails[] private nodeList;\n    // mapping of enode id to array index to track node\n    mapping(bytes32 => uint256) private nodeIdToIndex;\n    // mapping of enodeId to array index to track node\n    mapping(bytes32 => uint256) private enodeIdToIndex;\n    // tracking total number of nodes in network\n    uint256 private numberOfNodes;\n\n\n    // node permission events for new node propose\n    event NodeProposed(string _enodeId, string _ip, uint16 _port, uint16 _raftport, string _orgId);\n    event NodeApproved(string _enodeId, string _ip, uint16 _port, uint16 _raftport, string _orgId);\n\n    // node permission events for node deactivation\n    event NodeDeactivated(string _enodeId, string _ip, uint16 _port, uint16 _raftport, string _orgId);\n\n    // node permission events for node activation\n    event NodeActivated(string _enodeId, string _ip, uint16 _port, uint16 _raftport, string _orgId);\n\n    // node permission events for node blacklist\n    event NodeBlacklisted(string _enodeId, string _ip, uint16 _port, uint16 _raftport, string _orgId);\n\n    // node permission events for initiating the recovery of blacklisted\n    // node\n    event NodeRecoveryInitiated(string _enodeId, string _ip, uint16 _port, uint16 _raftport, string _orgId);\n\n    // node permission events for completing the recovery of blacklisted\n    // node\n    event NodeRecoveryCompleted(string _enodeId, string _ip, uint16 _port, uint16 _raftport, string _orgId);\n\n    /** @notice confirms that the caller is the address of implementation\n        contract\n    */\n    modifier onlyImplementation {\n        require(msg.sender == permUpgradable.getPermImpl(), \"invalid caller\");\n        _;\n    }\n\n    /** @notice  checks if the node exists in the network\n      * @param _enodeId full enode id\n      */\n    modifier enodeExists(string memory _enodeId) {\n        require(enodeIdToIndex[keccak256(abi.encode(_enodeId))] != 0,\n            \"passed enode id does not exist\");\n        _;\n    }\n\n    /** @notice  checks if the node does not exist in the network\n      * @param _enodeId full enode id\n      */\n    modifier enodeDoesNotExists(string memory _enodeId) {\n        require(enodeIdToIndex[keccak256(abi.encode(_enodeId))] == 0,\n            \"passed enode id exists\");\n        _;\n    }\n\n    /** @notice constructor. sets the permissions upgradable address\n      */\n    constructor (address _permUpgradable) public {\n        permUpgradable = PermissionsUpgradable(_permUpgradable);\n    }\n\n    /** @notice fetches the node details given an enode id\n      * @param _enodeId full enode id\n      * @return org id\n      * @return enode id\n      * @return status of the node\n      */\n    function getNodeDetails(string calldata enodeId) external view\n    returns (string memory _orgId, string memory _enodeId, string memory _ip, uint16 _port, uint16 _raftport, uint256 _nodeStatus) {\n        if (nodeIdToIndex[keccak256(abi.encode(_enodeId))] == 0) {\n            return (\"\", \"\", \"\", 0, 0, 0);\n        }\n        uint256 nodeIndex = _getNodeIndex(enodeId);\n        return (nodeList[nodeIndex].orgId, nodeList[nodeIndex].enodeId, nodeList[nodeIndex].ip,\n        nodeList[nodeIndex].port, nodeList[nodeIndex].raftPort,\n        nodeList[nodeIndex].status);\n    }\n\n    /** @notice fetches the node details given the index of the enode\n      * @param _nodeIndex node index\n      * @return org id\n      * @return enode id\n      * @return ip of the node\n      * @return port of the node\n      * @return raftport of the node\n      * @return status of the node\n      */\n    function getNodeDetailsFromIndex(uint256 _nodeIndex) external view\n    returns (string memory _orgId, string memory _enodeId, string memory _ip, uint16 _port, uint16 _raftport, uint256 _nodeStatus) {\n        return (nodeList[_nodeIndex].orgId, nodeList[_nodeIndex].enodeId, nodeList[_nodeIndex].ip,\n        nodeList[_nodeIndex].port, nodeList[_nodeIndex].raftPort,\n        nodeList[_nodeIndex].status);\n    }\n\n    /** @notice returns the total number of enodes in the network\n      * @return number of nodes\n      */\n    function getNumberOfNodes() external view returns (uint256) {\n        return numberOfNodes;\n    }\n\n    /** @notice called at the time of network initialization for adding\n        admin nodes\n      * @param _enodeId enode id\n      * @param _ip IP of node\n      * @param _port tcp port of node\n      * @param _raftport raft port of node\n      * @param _orgId org id to which the enode belongs\n      */\n    function addAdminNode(string memory _enodeId, string memory _ip, uint16 _port, uint16 _raftport, string memory _orgId) public\n    onlyImplementation\n    enodeDoesNotExists(_enodeId) {\n        numberOfNodes++;\n        enodeIdToIndex[keccak256(abi.encode(_enodeId))] = numberOfNodes;\n        nodeList.push(NodeDetails(_enodeId, _ip, _port, _raftport, _orgId, 2));\n        emit NodeApproved(_enodeId, _ip, _port, _raftport, _orgId);\n    }\n\n    /** @notice called at the time of new org creation to add node to org\n      * @param _enodeId enode id\n      * @param _ip IP of node\n      * @param _port tcp port of node\n      * @param _raftport raft port of node\n      * @param _orgId org id to which the enode belongs\n      */\n    function addNode(string memory _enodeId, string memory _ip, uint16 _port, uint16 _raftport, string memory _orgId) public\n    onlyImplementation\n    enodeDoesNotExists(_enodeId) {\n        numberOfNodes++;\n        enodeIdToIndex[keccak256(abi.encode(_enodeId))] = numberOfNodes;\n        nodeList.push(NodeDetails(_enodeId, _ip, _port, _raftport, _orgId, 1));\n        emit NodeProposed(_enodeId, _ip, _port, _raftport, _orgId);\n    }\n\n    /** @notice called org admins to add new enodes to the org or sub orgs\n      * @param _enodeId enode id\n      * @param _ip IP of node\n      * @param _port tcp port of node\n      * @param _raftport raft port of node\n      * @param _orgId org or sub org id to which the enode belongs\n      */\n    function addOrgNode(string memory _enodeId, string memory _ip, uint16 _port, uint16 _raftport, string memory _orgId) public\n    onlyImplementation\n    enodeDoesNotExists(_enodeId) {\n        numberOfNodes++;\n        enodeIdToIndex[keccak256(abi.encode(_enodeId))] = numberOfNodes;\n        nodeList.push(NodeDetails(_enodeId, _ip, _port, _raftport, _orgId, 2));\n        emit NodeApproved(_enodeId, _ip, _port, _raftport, _orgId);\n    }\n\n    /** @notice function to approve the node addition. only called at the time\n        master org creation by network admin\n      * @param _enodeId enode id\n      * @param _ip IP of node\n      * @param _port tcp port of node\n      * @param _raftport raft port of node\n      * @param _orgId org or sub org id to which the enode belongs\n      */\n    function approveNode(string memory _enodeId, string memory _ip, uint16 _port, uint16 _raftport, string memory _orgId) public\n    onlyImplementation\n    enodeExists(_enodeId) {\n        // node should belong to the passed org\n        require(_checkOrg(_enodeId, _orgId), \"enode id does not belong to the passed org id\");\n        require(_getNodeStatus(_enodeId) == 1, \"nothing pending for approval\");\n        uint256 nodeIndex = _getNodeIndex(_enodeId);\n        if (keccak256(abi.encode(nodeList[nodeIndex].ip)) != keccak256(abi.encode(_ip)) || nodeList[nodeIndex].port != _port || nodeList[nodeIndex].raftPort != _raftport) {\n            return;\n        }\n        nodeList[nodeIndex].status = 2;\n        emit NodeApproved(nodeList[nodeIndex].enodeId, _ip, _port, _raftport, nodeList[nodeIndex].orgId);\n    }\n\n    /** @notice updates the node status. can be called for deactivating/\n        blacklisting  and reactivating a deactivated node\n      * @param _enodeId enode id\n      * @param _ip IP of node\n      * @param _port tcp port of node\n      * @param _raftport raft port of node\n      * @param _orgId org or sub org id to which the enode belong\n      * @param _action action being performed\n      * @dev action can have any of the following values\n            1 - Suspend the node\n            2 - Revoke suspension of a suspended node\n            3 - blacklist a node\n            4 - initiate the recovery of a blacklisted node\n            5 - blacklisted node recovery fully approved. mark to active\n      */\n    function updateNodeStatus(string memory _enodeId, string memory _ip, uint16 _port, uint16 _raftport, string memory _orgId, uint256 _action) public\n    onlyImplementation\n    enodeExists(_enodeId) {\n        // node should belong to the org\n        require(_checkOrg(_enodeId, _orgId), \"enode id does not belong to the passed org\");\n        require((_action == 1 || _action == 2 || _action == 3 || _action == 4 || _action == 5),\n            \"invalid operation. wrong action passed\");\n\n        uint256 nodeIndex = _getNodeIndex(_enodeId);\n        if (keccak256(abi.encode(nodeList[nodeIndex].ip)) != keccak256(abi.encode(_ip)) || nodeList[nodeIndex].port != _port || nodeList[nodeIndex].raftPort != _raftport) {\n            return;\n        }\n\n        if (_action == 1) {\n            require(_getNodeStatus(_enodeId) == 2, \"operation cannot be performed\");\n            nodeList[nodeIndex].status = 3;\n            emit NodeDeactivated(_enodeId, _ip, _port, _raftport, _orgId);\n        }\n        else if (_action == 2) {\n            require(_getNodeStatus(_enodeId) == 3, \"operation cannot be performed\");\n            nodeList[nodeIndex].status = 2;\n            emit NodeActivated(_enodeId, _ip, _port, _raftport, _orgId);\n        }\n        else if (_action == 3) {\n            nodeList[nodeIndex].status = 4;\n            emit NodeBlacklisted(_enodeId, _ip, _port, _raftport, _orgId);\n        } else if (_action == 4) {\n            // node should be in blacklisted state\n            require(_getNodeStatus(_enodeId) == 4, \"operation cannot be performed\");\n            nodeList[nodeIndex].status = 5;\n            emit NodeRecoveryInitiated(_enodeId, _ip, _port, _raftport, _orgId);\n        } else {\n            // node should be in initiated recovery state\n            require(_getNodeStatus(_enodeId) == 5, \"operation cannot be performed\");\n            nodeList[nodeIndex].status = 2;\n            emit NodeRecoveryCompleted(_enodeId, _ip, _port, _raftport, _orgId);\n        }\n    }\n\n    // private functions\n    /** @notice returns the node index for given enode id\n      * @param _enodeId enode id\n      * @return trur or false\n      */\n    function _getNodeIndex(string memory _enodeId) internal view\n    returns (uint256) {\n        return enodeIdToIndex[keccak256(abi.encode(_enodeId))] - 1;\n    }\n\n    /** @notice checks if enode id is linked to the org id passed\n      * @param _enodeId enode id\n      * @param _orgId org or sub org id to which the enode belongs\n      * @return true or false\n      */\n    function _checkOrg(string memory _enodeId, string memory _orgId) internal view\n    returns (bool) {\n        return (keccak256(abi.encode(nodeList[_getNodeIndex(_enodeId)].orgId)) == keccak256(abi.encode(_orgId)));\n    }\n\n    /** @notice returns the node status for a given enode id\n      * @param _enodeId enode id\n      * @return node status\n      */\n    function _getNodeStatus(string memory _enodeId) internal view returns (uint256) {\n        if (enodeIdToIndex[keccak256(abi.encode(_enodeId))] == 0) {\n            return 0;\n        }\n        return nodeList[_getNodeIndex(_enodeId)].status;\n    }\n\n    /** @notice checks if the node is allowed to connect or not\n    * @param _enodeId enode id\n    * @param _ip IP of node\n    * @param _port tcp port of node\n    * @return bool indicating if the node is allowed to connect or not\n    */\n    function connectionAllowed(string memory _enodeId, string memory _ip, uint16 _port) public view onlyImplementation\n    returns (bool){\n        if (enodeIdToIndex[keccak256(abi.encode(_enodeId))] == 0) {\n            return false;\n        }\n        uint256 nodeIndex = _getNodeIndex(_enodeId);\n        if (nodeList[nodeIndex].status == 2 && keccak256(abi.encode(nodeList[nodeIndex].ip)) == keccak256(abi.encode(_ip))) {\n            return true;\n        }\n\n        return false;\n    }\n}\n",
  "sourcePath": "/home/manhtv19/coding/quorum/quorum-root/permission/contracts/NodeManager.sol",
  "compiler": {
    "name": "solc",
    "version": "0.5.3+commit.10d17f24.Emscripten.clang"
  },
  "schemaVersion": "3.4.6",
  "updatedAt": "2022-03-22T10:03:46.180Z",
  "devdoc": {
    "details": "node status is denoted by a fixed integer value. The values are as below: 0 - Not in list 1 - Node pending approval 2 - Active 3 - Deactivated 4 - Blacklisted 5 - Blacklisted node recovery initiated. Once approved the node status will be updated to Active (2) Once the node is blacklisted no further activity on the node is possible.",
    "methods": {
      "addAdminNode(string,string,uint16,uint16,string)": {
        "params": {
          "_enodeId": "enode id",
          "_ip": "IP of node",
          "_orgId": "org id to which the enode belongs",
          "_port": "tcp port of node",
          "_raftport": "raft port of node"
        }
      },
      "addNode(string,string,uint16,uint16,string)": {
        "params": {
          "_enodeId": "enode id",
          "_ip": "IP of node",
          "_orgId": "org id to which the enode belongs",
          "_port": "tcp port of node",
          "_raftport": "raft port of node"
        }
      },
      "addOrgNode(string,string,uint16,uint16,string)": {
        "params": {
          "_enodeId": "enode id",
          "_ip": "IP of node",
          "_orgId": "org or sub org id to which the enode belongs",
          "_port": "tcp port of node",
          "_raftport": "raft port of node"
        }
      },
      "approveNode(string,string,uint16,uint16,string)": {
        "params": {
          "_enodeId": "enode id",
          "_ip": "IP of node",
          "_orgId": "org or sub org id to which the enode belongs",
          "_port": "tcp port of node",
          "_raftport": "raft port of node"
        }
      },
      "connectionAllowed(string,string,uint16)": {
        "params": {
          "_enodeId": "enode id",
          "_ip": "IP of node",
          "_port": "tcp port of node"
        },
        "return": "bool indicating if the node is allowed to connect or not"
      },
      "getNodeDetails(string)": {
        "params": {
          "_enodeId": "full enode id"
        },
        "return": "org idenode idstatus of the node"
      },
      "getNodeDetailsFromIndex(uint256)": {
        "params": {
          "_nodeIndex": "node index"
        },
        "return": "org idenode idip of the nodeport of the noderaftport of the nodestatus of the node"
      },
      "getNumberOfNodes()": {
        "return": "number of nodes"
      },
      "updateNodeStatus(string,string,uint16,uint16,string,uint256)": {
        "details": "action can have any of the following values 1 - Suspend the node 2 - Revoke suspension of a suspended node 3 - blacklist a node 4 - initiate the recovery of a blacklisted node 5 - blacklisted node recovery fully approved. mark to active",
        "params": {
          "_action": "action being performed",
          "_enodeId": "enode id",
          "_ip": "IP of node",
          "_orgId": "org or sub org id to which the enode belong",
          "_port": "tcp port of node",
          "_raftport": "raft port of node"
        }
      }
    },
    "title": "Node manager contract"
  },
  "userdoc": {
    "methods": {
      "addAdminNode(string,string,uint16,uint16,string)": {
        "notice": "called at the time of network initialization for adding admin nodes"
      },
      "addNode(string,string,uint16,uint16,string)": {
        "notice": "called at the time of new org creation to add node to org"
      },
      "addOrgNode(string,string,uint16,uint16,string)": {
        "notice": "called org admins to add new enodes to the org or sub orgs"
      },
      "approveNode(string,string,uint16,uint16,string)": {
        "notice": "function to approve the node addition. only called at the time master org creation by network admin"
      },
      "connectionAllowed(string,string,uint16)": {
        "notice": "checks if the node is allowed to connect or not"
      },
      "constructor": "constructor. sets the permissions upgradable address",
      "getNodeDetails(string)": {
        "notice": "fetches the node details given an enode id"
      },
      "getNodeDetailsFromIndex(uint256)": {
        "notice": "fetches the node details given the index of the enode"
      },
      "getNumberOfNodes()": {
        "notice": "returns the total number of enodes in the network"
      },
      "updateNodeStatus(string,string,uint16,uint16,string,uint256)": {
        "notice": "updates the node status. can be called for deactivating/ blacklisting  and reactivating a deactivated node"
      }
    },
    "notice": "This contract holds implementation logic for all node management functionality. This can be called only by the implementation contract. There are few view functions exposed as public and can be called directly. These are invoked by quorum for populating permissions data in cache"
  }
}