{
  "contractName": "OrgManager",
  "abi": [
    {
      "inputs": [
        {
          "name": "_permUpgradable",
          "type": "address"
        }
      ],
      "payable": false,
      "stateMutability": "nonpayable",
      "type": "constructor"
    },
    {
      "anonymous": false,
      "inputs": [
        {
          "indexed": false,
          "name": "_orgId",
          "type": "string"
        },
        {
          "indexed": false,
          "name": "_porgId",
          "type": "string"
        },
        {
          "indexed": false,
          "name": "_ultParent",
          "type": "string"
        },
        {
          "indexed": false,
          "name": "_level",
          "type": "uint256"
        },
        {
          "indexed": false,
          "name": "_status",
          "type": "uint256"
        }
      ],
      "name": "OrgApproved",
      "type": "event"
    },
    {
      "anonymous": false,
      "inputs": [
        {
          "indexed": false,
          "name": "_orgId",
          "type": "string"
        },
        {
          "indexed": false,
          "name": "_porgId",
          "type": "string"
        },
        {
          "indexed": false,
          "name": "_ultParent",
          "type": "string"
        },
        {
          "indexed": false,
          "name": "_level",
          "type": "uint256"
        },
        {
          "indexed": false,
          "name": "_status",
          "type": "uint256"
        }
      ],
      "name": "OrgPendingApproval",
      "type": "event"
    },
    {
      "anonymous": false,
      "inputs": [
        {
          "indexed": false,
          "name": "_orgId",
          "type": "string"
        },
        {
          "indexed": false,
          "name": "_porgId",
          "type": "string"
        },
        {
          "indexed": false,
          "name": "_ultParent",
          "type": "string"
        },
        {
          "indexed": false,
          "name": "_level",
          "type": "uint256"
        }
      ],
      "name": "OrgSuspended",
      "type": "event"
    },
    {
      "anonymous": false,
      "inputs": [
        {
          "indexed": false,
          "name": "_orgId",
          "type": "string"
        },
        {
          "indexed": false,
          "name": "_porgId",
          "type": "string"
        },
        {
          "indexed": false,
          "name": "_ultParent",
          "type": "string"
        },
        {
          "indexed": false,
          "name": "_level",
          "type": "uint256"
        }
      ],
      "name": "OrgSuspensionRevoked",
      "type": "event"
    },
    {
      "constant": false,
      "inputs": [
        {
          "name": "_orgId",
          "type": "string"
        },
        {
          "name": "_breadth",
          "type": "uint256"
        },
        {
          "name": "_depth",
          "type": "uint256"
        }
      ],
      "name": "setUpOrg",
      "outputs": [],
      "payable": false,
      "stateMutability": "nonpayable",
      "type": "function"
    },
    {
      "constant": false,
      "inputs": [
        {
          "name": "_orgId",
          "type": "string"
        }
      ],
      "name": "addOrg",
      "outputs": [],
      "payable": false,
      "stateMutability": "nonpayable",
      "type": "function"
    },
    {
      "constant": false,
      "inputs": [
        {
          "name": "_pOrgId",
          "type": "string"
        },
        {
          "name": "_orgId",
          "type": "string"
        }
      ],
      "name": "addSubOrg",
      "outputs": [],
      "payable": false,
      "stateMutability": "nonpayable",
      "type": "function"
    },
    {
      "constant": false,
      "inputs": [
        {
          "name": "_orgId",
          "type": "string"
        },
        {
          "name": "_action",
          "type": "uint256"
        }
      ],
      "name": "updateOrg",
      "outputs": [
        {
          "name": "",
          "type": "uint256"
        }
      ],
      "payable": false,
      "stateMutability": "nonpayable",
      "type": "function"
    },
    {
      "constant": false,
      "inputs": [
        {
          "name": "_orgId",
          "type": "string"
        },
        {
          "name": "_action",
          "type": "uint256"
        }
      ],
      "name": "approveOrgStatusUpdate",
      "outputs": [],
      "payable": false,
      "stateMutability": "nonpayable",
      "type": "function"
    },
    {
      "constant": false,
      "inputs": [
        {
          "name": "_orgId",
          "type": "string"
        }
      ],
      "name": "approveOrg",
      "outputs": [],
      "payable": false,
      "stateMutability": "nonpayable",
      "type": "function"
    },
    {
      "constant": true,
      "inputs": [
        {
          "name": "_orgIndex",
          "type": "uint256"
        }
      ],
      "name": "getOrgInfo",
      "outputs": [
        {
          "name": "",
          "type": "string"
        },
        {
          "name": "",
          "type": "string"
        },
        {
          "name": "",
          "type": "string"
        },
        {
          "name": "",
          "type": "uint256"
        },
        {
          "name": "",
          "type": "uint256"
        }
      ],
      "payable": false,
      "stateMutability": "view",
      "type": "function"
    },
    {
      "constant": true,
      "inputs": [
        {
          "name": "_orgId",
          "type": "string"
        }
      ],
      "name": "getOrgDetails",
      "outputs": [
        {
          "name": "",
          "type": "string"
        },
        {
          "name": "",
          "type": "string"
        },
        {
          "name": "",
          "type": "string"
        },
        {
          "name": "",
          "type": "uint256"
        },
        {
          "name": "",
          "type": "uint256"
        }
      ],
      "payable": false,
      "stateMutability": "view",
      "type": "function"
    },
    {
      "constant": true,
      "inputs": [
        {
          "name": "_orgId",
          "type": "string"
        }
      ],
      "name": "getSubOrgIndexes",
      "outputs": [
        {
          "name": "",
          "type": "uint256[]"
        }
      ],
      "payable": false,
      "stateMutability": "view",
      "type": "function"
    },
    {
      "constant": true,
      "inputs": [
        {
          "name": "_orgId",
          "type": "string"
        }
      ],
      "name": "getUltimateParent",
      "outputs": [
        {
          "name": "",
          "type": "string"
        }
      ],
      "payable": false,
      "stateMutability": "view",
      "type": "function"
    },
    {
      "constant": true,
      "inputs": [],
      "name": "getNumberOfOrgs",
      "outputs": [
        {
          "name": "",
          "type": "uint256"
        }
      ],
      "payable": false,
      "stateMutability": "view",
      "type": "function"
    },
    {
      "constant": true,
      "inputs": [
        {
          "name": "_orgId",
          "type": "string"
        },
        {
          "name": "_orgStatus",
          "type": "uint256"
        }
      ],
      "name": "checkOrgStatus",
      "outputs": [
        {
          "name": "",
          "type": "bool"
        }
      ],
      "payable": false,
      "stateMutability": "view",
      "type": "function"
    },
    {
      "constant": true,
      "inputs": [
        {
          "name": "_orgId",
          "type": "string"
        }
      ],
      "name": "checkOrgActive",
      "outputs": [
        {
          "name": "",
          "type": "bool"
        }
      ],
      "payable": false,
      "stateMutability": "view",
      "type": "function"
    },
    {
      "constant": true,
      "inputs": [
        {
          "name": "_orgId",
          "type": "string"
        }
      ],
      "name": "checkOrgExists",
      "outputs": [
        {
          "name": "",
          "type": "bool"
        }
      ],
      "payable": false,
      "stateMutability": "view",
      "type": "function"
    }
  ],
  "bytecode": "0x60806040526000600160146101000a81548160ff02191690831515021790555060046002556004600355600060065534801561003a57600080fd5b5060405160208062004ba98339810180604052602081101561005b57600080fd5b810190808051906020019092919050505080600160006101000a81548173ffffffffffffffffffffffffffffffffffffffff021916908373ffffffffffffffffffffffffffffffffffffffff16021790555050614aeb80620000be6000396000f3fe608060405234801561001057600080fd5b5060043610610107576000357c0100000000000000000000000000000000000000000000000000000000900480637755ebdd116100a9578063e302831611610083578063e30283161461089c578063f4d6d9f514610915578063f9953de514610aed578063ffe40d1d14610b6657610107565b80637755ebdd146107145780638c8642df146107325780639e58eb9f1461080f57610107565b80631f953480116100e55780631f953480146103185780633fd62ae7146103e65780635c4f32ee146104b95780635e99f6e51461064657610107565b80630cc274931461010c57806314f775f9146101a3578063177c8d8a14610226575b600080fd5b61018d6004803603604081101561012257600080fd5b810190808035906020019064010000000081111561013f57600080fd5b82018360208201111561015157600080fd5b8035906020019184600183028401116401000000008311171561017357600080fd5b909192939192939080359060200190929190505050610c39565b6040518082815260200191505060405180910390f35b610224600480360360408110156101b957600080fd5b81019080803590602001906401000000008111156101d657600080fd5b8201836020820111156101e857600080fd5b8035906020019184600183028401116401000000008311171561020a57600080fd5b909192939192939080359060200190929190505050611126565b005b61029d6004803603602081101561023c57600080fd5b810190808035906020019064010000000081111561025957600080fd5b82018360208201111561026b57600080fd5b8035906020019184600183028401116401000000008311171561028d57600080fd5b90919293919293905050506113ff565b6040518080602001828103825283818151815260200191508051906020019080838360005b838110156102dd5780820151818401526020810190506102c2565b50505050905090810190601f16801561030a5780820380516001836020036101000a031916815260200191505b509250505060405180910390f35b6103e46004803603604081101561032e57600080fd5b810190808035906020019064010000000081111561034b57600080fd5b82018360208201111561035d57600080fd5b8035906020019184600183028401116401000000008311171561037f57600080fd5b9091929391929390803590602001906401000000008111156103a057600080fd5b8201836020820111156103b257600080fd5b803590602001918460018302840111640100000000831117156103d457600080fd5b909192939192939050505061166f565b005b61049f600480360360208110156103fc57600080fd5b810190808035906020019064010000000081111561041957600080fd5b82018360208201111561042b57600080fd5b8035906020019184600183028401116401000000008311171561044d57600080fd5b91908080601f016020809104026020016040519081016040528093929190818152602001838380828437600081840152601f19601f820116905080830192505050505050509192919290505050611952565b604051808215151515815260200191505060405180910390f35b6104e5600480360360208110156104cf57600080fd5b8101908080359060200190929190505050611b76565b60405180806020018060200180602001868152602001858152602001848103845289818151815260200191508051906020019080838360005b8381101561053957808201518184015260208101905061051e565b50505050905090810190601f1680156105665780820380516001836020036101000a031916815260200191505b50848103835288818151815260200191508051906020019080838360005b8381101561059f578082015181840152602081019050610584565b50505050905090810190601f1680156105cc5780820380516001836020036101000a031916815260200191505b50848103825287818151815260200191508051906020019080838360005b838110156106055780820151818401526020810190506105ea565b50505050905090810190601f1680156106325780820380516001836020036101000a031916815260200191505b509850505050505050505060405180910390f35b6106bd6004803603602081101561065c57600080fd5b810190808035906020019064010000000081111561067957600080fd5b82018360208201111561068b57600080fd5b803590602001918460018302840111640100000000831117156106ad57600080fd5b9091929391929390505050611e07565b6040518080602001828103825283818151815260200191508051906020019060200280838360005b838110156107005780820151818401526020810190506106e5565b505050509050019250505060405180910390f35b61071c611f9a565b6040518082815260200191505060405180910390f35b6107f56004803603604081101561074857600080fd5b810190808035906020019064010000000081111561076557600080fd5b82018360208201111561077757600080fd5b8035906020019184600183028401116401000000008311171561079957600080fd5b91908080601f016020809104026020016040519081016040528093929190818152602001838380828437600081840152601f19601f82011690508083019250505050505050919291929080359060200190929190505050611fa7565b604051808215151515815260200191505060405180910390f35b61089a6004803603606081101561082557600080fd5b810190808035906020019064010000000081111561084257600080fd5b82018360208201111561085457600080fd5b8035906020019184600183028401116401000000008311171561087657600080fd5b9091929391929390803590602001909291908035906020019092919050505061210d565b005b610913600480360360208110156108b257600080fd5b81019080803590602001906401000000008111156108cf57600080fd5b8201836020820111156108e157600080fd5b8035906020019184600183028401116401000000008311171561090357600080fd5b90919293919293905050506122e4565b005b61098c6004803603602081101561092b57600080fd5b810190808035906020019064010000000081111561094857600080fd5b82018360208201111561095a57600080fd5b8035906020019184600183028401116401000000008311171561097c57600080fd5b90919293919293905050506127e6565b60405180806020018060200180602001868152602001858152602001848103845289818151815260200191508051906020019080838360005b838110156109e05780820151818401526020810190506109c5565b50505050905090810190601f168015610a0d5780820380516001836020036101000a031916815260200191505b50848103835288818151815260200191508051906020019080838360005b83811015610a46578082015181840152602081019050610a2b565b50505050905090810190601f168015610a735780820380516001836020036101000a031916815260200191505b50848103825287818151815260200191508051906020019080838360005b83811015610aac578082015181840152602081019050610a91565b50505050905090810190601f168015610ad95780820380516001836020036101000a031916815260200191505b509850505050505050505060405180910390f35b610b6460048036036020811015610b0357600080fd5b8101908080359060200190640100000000811115610b2057600080fd5b820183602082011115610b3257600080fd5b80359060200191846001830284011164010000000083111715610b5457600080fd5b9091929391929390505050612ba9565b005b610c1f60048036036020811015610b7c57600080fd5b8101908080359060200190640100000000811115610b9957600080fd5b820183602082011115610bab57600080fd5b80359060200191846001830284011164010000000083111715610bcd57600080fd5b91908080601f016020809104026020016040519081016040528093929190818152602001838380828437600081840152601f19601f820116905080830192505050505050509192919290505050612e39565b604051808215151515815260200191505060405180910390f35b6000600160009054906101000a900473ffffffffffffffffffffffffffffffffffffffff1673ffffffffffffffffffffffffffffffffffffffff16630e32cf906040518163ffffffff167c010000000000000000000000000000000000000000000000000000000002815260040160206040518083038186803b158015610cbf57600080fd5b505afa158015610cd3573d6000803e3d6000fd5b505050506040513d6020811015610ce957600080fd5b810190808051906020019092919050505073ffffffffffffffffffffffffffffffffffffffff163373ffffffffffffffffffffffffffffffffffffffff16141515610d9c576040517f08c379a000000000000000000000000000000000000000000000000000000000815260040180806020018281038252600e8152602001807f696e76616c69642063616c6c657200000000000000000000000000000000000081525060200191505060405180910390fd5b83838080601f016020809104026020016040519081016040528093929190818152602001838380828437600081840152601f19601f8201169050808301925050505050505060011515610dee82612e39565b1515141515610e65576040517f08c379a00000000000000000000000000000000000000000000000000000000081526004018080602001828103825260128152602001807f6f726720646f6573206e6f74206578697374000000000000000000000000000081525060200191505060405180910390fd5b6001831480610e745750600283145b1515610ecb576040517f08c379a0000000000000000000000000000000000000000000000000000000008152600401808060200182810382526025815260200180614a196025913960400191505060405180910390fd5b6000610f1a86868080601f016020809104026020016040519081016040528093929190818152602001838380828437600081840152601f19601f82011690508083019250505050505050612ecc565b90506001600482815481101515610f2d57fe5b906000526020600020906008020160060154141515610f97576040517f08c379a0000000000000000000000000000000000000000000000000000000008152600401808060200182810382526027815260200180614a3e6027913960400191505060405180910390fd5b6000806001861415610fb0576002915060029050610fc3565b6002861415610fc25760049150600390505b5b6001151561101589898080601f016020809104026020016040519081016040528093929190818152602001838380828437600081840152601f19601f8201169050808301925050505050505084611fa7565b151514151561106f576040517f08c379a0000000000000000000000000000000000000000000000000000000008152600401808060200182810382526027815260200180614a656027913960400191505060405180910390fd5b60018614156110ca576110c588888080601f016020809104026020016040519081016040528093929190818152602001838380828437600081840152601f19601f82011690508083019250505050505050612f5f565b611118565b61111788888080601f016020809104026020016040519081016040528093929190818152602001838380828437600081840152601f19601f8201169050808301925050505050505061325a565b5b809450505050509392505050565b600160009054906101000a900473ffffffffffffffffffffffffffffffffffffffff1673ffffffffffffffffffffffffffffffffffffffff16630e32cf906040518163ffffffff167c010000000000000000000000000000000000000000000000000000000002815260040160206040518083038186803b1580156111aa57600080fd5b505afa1580156111be573d6000803e3d6000fd5b505050506040513d60208110156111d457600080fd5b810190808051906020019092919050505073ffffffffffffffffffffffffffffffffffffffff163373ffffffffffffffffffffffffffffffffffffffff16141515611287576040517f08c379a000000000000000000000000000000000000000000000000000000000815260040180806020018281038252600e8152602001807f696e76616c69642063616c6c657200000000000000000000000000000000000081525060200191505060405180910390fd5b82828080601f016020809104026020016040519081016040528093929190818152602001838380828437600081840152601f19601f82011690508083019250505050505050600115156112d982612e39565b1515141515611350576040517f08c379a00000000000000000000000000000000000000000000000000000000081526004018080602001828103825260128152602001807f6f726720646f6573206e6f74206578697374000000000000000000000000000081525060200191505060405180910390fd5b60018214156113ab576113a684848080601f016020809104026020016040519081016040528093929190818152602001838380828437600081840152601f19601f82011690508083019250505050505050613572565b6113f9565b6113f884848080601f016020809104026020016040519081016040528093929190818152602001838380828437600081840152601f19601f82011690508083019250505050505050613880565b5b50505050565b6060600160009054906101000a900473ffffffffffffffffffffffffffffffffffffffff1673ffffffffffffffffffffffffffffffffffffffff16630e32cf906040518163ffffffff167c010000000000000000000000000000000000000000000000000000000002815260040160206040518083038186803b15801561148557600080fd5b505afa158015611499573d6000803e3d6000fd5b505050506040513d60208110156114af57600080fd5b810190808051906020019092919050505073ffffffffffffffffffffffffffffffffffffffff163373ffffffffffffffffffffffffffffffffffffffff16141515611562576040517f08c379a000000000000000000000000000000000000000000000000000000000815260040180806020018281038252600e8152602001807f696e76616c69642063616c6c657200000000000000000000000000000000000081525060200191505060405180910390fd5b60046115b184848080601f016020809104026020016040519081016040528093929190818152602001838380828437600081840152601f19601f82011690508083019250505050505050612ecc565b8154811015156115bd57fe5b90600052602060002090600802016004018054600181600116156101000203166002900480601f0160208091040260200160405190810160405280929190818152602001828054600181600116156101000203166002900480156116625780601f1061163757610100808354040283529160200191611662565b820191906000526020600020905b81548152906001019060200180831161164557829003601f168201915b5050505050905092915050565b600160009054906101000a900473ffffffffffffffffffffffffffffffffffffffff1673ffffffffffffffffffffffffffffffffffffffff16630e32cf906040518163ffffffff167c010000000000000000000000000000000000000000000000000000000002815260040160206040518083038186803b1580156116f357600080fd5b505afa158015611707573d6000803e3d6000fd5b505050506040513d602081101561171d57600080fd5b810190808051906020019092919050505073ffffffffffffffffffffffffffffffffffffffff163373ffffffffffffffffffffffffffffffffffffffff161415156117d0576040517f08c379a000000000000000000000000000000000000000000000000000000000815260040180806020018281038252600e8152602001807f696e76616c69642063616c6c657200000000000000000000000000000000000081525060200191505060405180910390fd5b838383836040516020018085858082843780830192505050807f2e00000000000000000000000000000000000000000000000000000000000000815250600101838380828437808301925050509450505050506040516020818303038152906040526000151561183f82612e39565b15151415156118b6576040517f08c379a000000000000000000000000000000000000000000000000000000000815260040180806020018281038252600a8152602001807f6f7267206578697374730000000000000000000000000000000000000000000081525060200191505060405180910390fd5b61194b85858080601f016020809104026020016040519081016040528093929190818152602001838380828437600081840152601f19601f8201169050808301925050505050505084848080601f016020809104026020016040519081016040528093929190818152602001838380828437600081840152601f19601f82011690508083019250505050505050600280613b8f565b5050505050565b60008060056000846040516020018082805190602001908083835b602083101515611992578051825260208201915060208101905060208303925061196d565b6001836020036101000a03801982511681845116808217855250505050505090500191505060405160208183030381529060405280519060200120815260200190815260200160002054141515611b6c5760006119ee83612ecc565b90506002600482815481101515611a0157fe5b9060005260206000209060080201600101541480611a3f57506003600482815481101515611a2b57fe5b906000526020600020906008020160010154145b15611b6a576000611b07600483815481101515611a5857fe5b90600052602060002090600802016004018054600181600116156101000203166002900480601f016020809104026020016040519081016040528092919081815260200182805460018160011615610100020316600290048015611afd5780601f10611ad257610100808354040283529160200191611afd565b820191906000526020600020905b815481529060010190602001808311611ae057829003601f168201915b5050505050612ecc565b90506002600482815481101515611b1a57fe5b9060005260206000209060080201600101541480611b5857506003600482815481101515611b4457fe5b906000526020600020906008020160010154145b15611b6857600192505050611b71565b505b505b600090505b919050565b6060806060600080600486815481101515611b8d57fe5b9060005260206000209060080201600001600487815481101515611bad57fe5b9060005260206000209060080201600201600488815481101515611bcd57fe5b9060005260206000209060080201600401600489815481101515611bed57fe5b90600052602060002090600802016006015460048a815481101515611c0e57fe5b906000526020600020906008020160010154848054600181600116156101000203166002900480601f016020809104026020016040519081016040528092919081815260200182805460018160011615610100020316600290048015611cb55780601f10611c8a57610100808354040283529160200191611cb5565b820191906000526020600020905b815481529060010190602001808311611c9857829003601f168201915b50505050509450838054600181600116156101000203166002900480601f016020809104026020016040519081016040528092919081815260200182805460018160011615610100020316600290048015611d515780601f10611d2657610100808354040283529160200191611d51565b820191906000526020600020905b815481529060010190602001808311611d3457829003601f168201915b50505050509350828054600181600116156101000203166002900480601f016020809104026020016040519081016040528092919081815260200182805460018160011615610100020316600290048015611ded5780601f10611dc257610100808354040283529160200191611ded565b820191906000526020600020905b815481529060010190602001808311611dd057829003601f168201915b505050505092509450945094509450945091939590929450565b606060011515611e5a84848080601f016020809104026020016040519081016040528093929190818152602001838380828437600081840152601f19601f82011690508083019250505050505050612e39565b1515141515611ed1576040517f08c379a00000000000000000000000000000000000000000000000000000000081526004018080602001828103825260128152602001807f6f726720646f6573206e6f74206578697374000000000000000000000000000081525060200191505060405180910390fd5b6000611f2084848080601f016020809104026020016040519081016040528093929190818152602001838380828437600081840152601f19601f82011690508083019250505050505050612ecc565b9050600481815481101515611f3157fe5b9060005260206000209060080201600701805480602002602001604051908101604052809291908181526020018280548015611f8c57602002820191906000526020600020905b815481526020019060010190808311611f78575b505050505091505092915050565b6000600480549050905090565b60008060056000856040516020018082805190602001908083835b602083101515611fe75780518252602082019150602081019050602083039250611fc2565b6001836020036101000a0380198251168184511680821785525050505050509050019150506040516020818303038152906040528051906020012081526020019081526020016000205414156120405760009050612107565b600061204b84612ecc565b9050600060056000866040516020018082805190602001908083835b60208310151561208c5780518252602082019150602081019050602083039250612067565b6001836020036101000a03801982511681845116808217855250505050505090500191505060405160208183030381529060405280519060200120815260200190815260200160002054141580156121035750826004828154811015156120ef57fe5b906000526020600020906008020160010154145b9150505b92915050565b600160009054906101000a900473ffffffffffffffffffffffffffffffffffffffff1673ffffffffffffffffffffffffffffffffffffffff16630e32cf906040518163ffffffff167c010000000000000000000000000000000000000000000000000000000002815260040160206040518083038186803b15801561219157600080fd5b505afa1580156121a5573d6000803e3d6000fd5b505050506040513d60208110156121bb57600080fd5b810190808051906020019092919050505073ffffffffffffffffffffffffffffffffffffffff163373ffffffffffffffffffffffffffffffffffffffff1614151561226e576040517f08c379a000000000000000000000000000000000000000000000000000000000815260040180806020018281038252600e8152602001807f696e76616c69642063616c6c657200000000000000000000000000000000000081525060200191505060405180910390fd5b6122d0602060405190810160405280600081525085858080601f016020809104026020016040519081016040528093929190818152602001838380828437600081840152601f19601f8201169050808301925050505050505060016002613b8f565b806002819055508160038190555050505050565b600160009054906101000a900473ffffffffffffffffffffffffffffffffffffffff1673ffffffffffffffffffffffffffffffffffffffff16630e32cf906040518163ffffffff167c010000000000000000000000000000000000000000000000000000000002815260040160206040518083038186803b15801561236857600080fd5b505afa15801561237c573d6000803e3d6000fd5b505050506040513d602081101561239257600080fd5b810190808051906020019092919050505073ffffffffffffffffffffffffffffffffffffffff163373ffffffffffffffffffffffffffffffffffffffff16141515612445576040517f08c379a000000000000000000000000000000000000000000000000000000000815260040180806020018281038252600e8152602001807f696e76616c69642063616c6c657200000000000000000000000000000000000081525060200191505060405180910390fd5b6001151561249883838080601f016020809104026020016040519081016040528093929190818152602001838380828437600081840152601f19601f820116905080830192505050505050506001611fa7565b151514151561250f576040517f08c379a00000000000000000000000000000000000000000000000000000000081526004018080602001828103825260128152602001807f6e6f7468696e6720746f20617070726f7665000000000000000000000000000081525060200191505060405180910390fd5b600061255e83838080601f016020809104026020016040519081016040528093929190818152602001838380828437600081840152601f19601f82011690508083019250505050505050612ecc565b9050600260048281548110151561257157fe5b9060005260206000209060080201600101819055507fd705723a50859c9cc1d3953e10b8b9478820e7a62927ad3215897ed87b20591c6004828154811015156125b657fe5b90600052602060002090600802016000016004838154811015156125d657fe5b90600052602060002090600802016002016004848154811015156125f657fe5b906000526020600020906008020160040160048581548110151561261657fe5b9060005260206000209060080201600601546002604051808060200180602001806020018681526020018581526020018481038452898181546001816001161561010002031660029004815260200191508054600181600116156101000203166002900480156126c75780601f1061269c576101008083540402835291602001916126c7565b820191906000526020600020905b8154815290600101906020018083116126aa57829003601f168201915b505084810383528881815460018160011615610100020316600290048152602001915080546001816001161561010002031660029004801561274a5780601f1061271f5761010080835404028352916020019161274a565b820191906000526020600020905b81548152906001019060200180831161272d57829003601f168201915b50508481038252878181546001816001161561010002031660029004815260200191508054600181600116156101000203166002900480156127cd5780601f106127a2576101008083540402835291602001916127cd565b820191906000526020600020905b8154815290600101906020018083116127b057829003601f168201915b50509850505050505050505060405180910390a1505050565b606080606060008061283b87878080601f016020809104026020016040519081016040528093929190818152602001838380828437600081840152601f19601f82011690508083019250505050505050612e39565b15156128cc57868660008083838080601f016020809104026020016040519081016040528093929190818152602001838380828437600081840152601f19601f82011690508083019250505050505050925090919250602060405190810160405280600081525091906020604051908101604052806000815250919081915080905094509450945094509450612b9f565b600061291b88888080601f016020809104026020016040519081016040528093929190818152602001838380828437600081840152601f19601f82011690508083019250505050505050612ecc565b905060048181548110151561292c57fe5b906000526020600020906008020160000160048281548110151561294c57fe5b906000526020600020906008020160020160048381548110151561296c57fe5b906000526020600020906008020160040160048481548110151561298c57fe5b9060005260206000209060080201600601546004858154811015156129ad57fe5b906000526020600020906008020160010154848054600181600116156101000203166002900480601f016020809104026020016040519081016040528092919081815260200182805460018160011615610100020316600290048015612a545780601f10612a2957610100808354040283529160200191612a54565b820191906000526020600020905b815481529060010190602001808311612a3757829003601f168201915b50505050509450838054600181600116156101000203166002900480601f016020809104026020016040519081016040528092919081815260200182805460018160011615610100020316600290048015612af05780601f10612ac557610100808354040283529160200191612af0565b820191906000526020600020905b815481529060010190602001808311612ad357829003601f168201915b50505050509350828054600181600116156101000203166002900480601f016020809104026020016040519081016040528092919081815260200182805460018160011615610100020316600290048015612b8c5780601f10612b6157610100808354040283529160200191612b8c565b820191906000526020600020905b815481529060010190602001808311612b6f57829003601f168201915b5050505050925095509550955095509550505b9295509295909350565b600160009054906101000a900473ffffffffffffffffffffffffffffffffffffffff1673ffffffffffffffffffffffffffffffffffffffff16630e32cf906040518163ffffffff167c010000000000000000000000000000000000000000000000000000000002815260040160206040518083038186803b158015612c2d57600080fd5b505afa158015612c41573d6000803e3d6000fd5b505050506040513d6020811015612c5757600080fd5b810190808051906020019092919050505073ffffffffffffffffffffffffffffffffffffffff163373ffffffffffffffffffffffffffffffffffffffff16141515612d0a576040517f08c379a000000000000000000000000000000000000000000000000000000000815260040180806020018281038252600e8152602001807f696e76616c69642063616c6c657200000000000000000000000000000000000081525060200191505060405180910390fd5b81818080601f016020809104026020016040519081016040528093929190818152602001838380828437600081840152601f19601f8201169050808301925050505050505060001515612d5c82612e39565b1515141515612dd3576040517f08c379a000000000000000000000000000000000000000000000000000000000815260040180806020018281038252600a8152602001807f6f7267206578697374730000000000000000000000000000000000000000000081525060200191505060405180910390fd5b612e34602060405190810160405280600081525084848080601f016020809104026020016040519081016040528093929190818152602001838380828437600081840152601f19601f82011690508083019250505050505050600180613b8f565b505050565b60008060056000846040516020018082805190602001908083835b602083101515612e795780518252602082019150602081019050602083039250612e54565b6001836020036101000a0380198251168184511680821785525050505050509050019150506040516020818303038152906040528051906020012081526020019081526020016000205414159050919050565b6000600160056000846040516020018082805190602001908083835b602083101515612f0d5780518252602082019150602081019050602083039250612ee8565b6001836020036101000a03801982511681845116808217855250505050505090500191505060405160208183030381529060405280519060200120815260200190815260200160002054039050919050565b60011515612f6e826002611fa7565b1515141515612fc8576040517f08c379a0000000000000000000000000000000000000000000000000000000008152600401808060200182810382526034815260200180614a8c6034913960400191505060405180910390fd5b6000612fd382612ecc565b90506003600482815481101515612fe657fe5b9060005260206000209060080201600101819055507f0e8b7be64e0c730234ba2cd252b227fb481d7a247ba806d1941144c535bf054b60048281548110151561302b57fe5b906000526020600020906008020160000160048381548110151561304b57fe5b906000526020600020906008020160020160048481548110151561306b57fe5b906000526020600020906008020160040160048581548110151561308b57fe5b90600052602060002090600802016006015460036040518080602001806020018060200186815260200185815260200184810384528981815460018160011615610100020316600290048152602001915080546001816001161561010002031660029004801561313c5780601f106131115761010080835404028352916020019161313c565b820191906000526020600020905b81548152906001019060200180831161311f57829003601f168201915b50508481038352888181546001816001161561010002031660029004815260200191508054600181600116156101000203166002900480156131bf5780601f10613194576101008083540402835291602001916131bf565b820191906000526020600020905b8154815290600101906020018083116131a257829003601f168201915b50508481038252878181546001816001161561010002031660029004815260200191508054600181600116156101000203166002900480156132425780601f1061321757610100808354040283529160200191613242565b820191906000526020600020905b81548152906001019060200180831161322557829003601f168201915b50509850505050505050505060405180910390a15050565b60011515613269826004611fa7565b15151415156132e0576040517f08c379a000000000000000000000000000000000000000000000000000000000815260040180806020018281038252601a8152602001807f6f7267206e6f7420696e2073757370656e64656420737461746500000000000081525060200191505060405180910390fd5b60006132eb82612ecc565b905060056004828154811015156132fe57fe5b9060005260206000209060080201600101819055507f0e8b7be64e0c730234ba2cd252b227fb481d7a247ba806d1941144c535bf054b60048281548110151561334357fe5b906000526020600020906008020160000160048381548110151561336357fe5b906000526020600020906008020160020160048481548110151561338357fe5b90600052602060002090600802016004016004858154811015156133a357fe5b9060005260206000209060080201600601546005604051808060200180602001806020018681526020018581526020018481038452898181546001816001161561010002031660029004815260200191508054600181600116156101000203166002900480156134545780601f1061342957610100808354040283529160200191613454565b820191906000526020600020905b81548152906001019060200180831161343757829003601f168201915b50508481038352888181546001816001161561010002031660029004815260200191508054600181600116156101000203166002900480156134d75780601f106134ac576101008083540402835291602001916134d7565b820191906000526020600020905b8154815290600101906020018083116134ba57829003601f168201915b505084810382528781815460018160011615610100020316600290048152602001915080546001816001161561010002031660029004801561355a5780601f1061352f5761010080835404028352916020019161355a565b820191906000526020600020905b81548152906001019060200180831161353d57829003601f168201915b50509850505050505050505060405180910390a15050565b60011515613581826003611fa7565b15151415156135f8576040517f08c379a00000000000000000000000000000000000000000000000000000000081526004018080602001828103825260128152602001807f6e6f7468696e6720746f20617070726f7665000000000000000000000000000081525060200191505060405180910390fd5b600061360382612ecc565b90506004808281548110151561361557fe5b9060005260206000209060080201600101819055507f73ccf8d6c8385bf5347269bd59712da33183c1a5e1702494bcdb87d0f4674d9660048281548110151561365a57fe5b906000526020600020906008020160000160048381548110151561367a57fe5b906000526020600020906008020160020160048481548110151561369a57fe5b90600052602060002090600802016004016004858154811015156136ba57fe5b906000526020600020906008020160060154604051808060200180602001806020018581526020018481038452888181546001816001161561010002031660029004815260200191508054600181600116156101000203166002900480156137635780601f1061373857610100808354040283529160200191613763565b820191906000526020600020905b81548152906001019060200180831161374657829003601f168201915b50508481038352878181546001816001161561010002031660029004815260200191508054600181600116156101000203166002900480156137e65780601f106137bb576101008083540402835291602001916137e6565b820191906000526020600020905b8154815290600101906020018083116137c957829003601f168201915b50508481038252868181546001816001161561010002031660029004815260200191508054600181600116156101000203166002900480156138695780601f1061383e57610100808354040283529160200191613869565b820191906000526020600020905b81548152906001019060200180831161384c57829003601f168201915b505097505050505050505060405180910390a15050565b6001151561388f826005611fa7565b1515141515613906576040517f08c379a00000000000000000000000000000000000000000000000000000000081526004018080602001828103825260128152602001807f6e6f7468696e6720746f20617070726f7665000000000000000000000000000081525060200191505060405180910390fd5b600061391182612ecc565b9050600260048281548110151561392457fe5b9060005260206000209060080201600101819055507f882f030c609566cd82918a97d457fd48f9cfcefd11282e2654cde3f94579c15f60048281548110151561396957fe5b906000526020600020906008020160000160048381548110151561398957fe5b90600052602060002090600802016002016004848154811015156139a957fe5b90600052602060002090600802016004016004858154811015156139c957fe5b90600052602060002090600802016006015460405180806020018060200180602001858152602001848103845288818154600181600116156101000203166002900481526020019150805460018160011615610100020316600290048015613a725780601f10613a4757610100808354040283529160200191613a72565b820191906000526020600020905b815481529060010190602001808311613a5557829003601f168201915b5050848103835287818154600181600116156101000203166002900481526020019150805460018160011615610100020316600290048015613af55780601f10613aca57610100808354040283529160200191613af5565b820191906000526020600020905b815481529060010190602001808311613ad857829003601f168201915b5050848103825286818154600181600116156101000203166002900481526020019150805460018160011615610100020316600290048015613b785780601f10613b4d57610100808354040283529160200191613b78565b820191906000526020600020905b815481529060010190602001808311613b5b57829003601f168201915b505097505050505050505060405180910390a15050565b6000809050600080905060008090506001851415613c2257856040516020018082805190602001908083835b602083101515613be05780518252602082019150602081019050602083039250613bbb565b6001836020036101000a038019825116818451168082178552505050505050905001915050604051602081830303815290604052805190602001209150613d8c565b866040516020018082805190602001908083835b602083101515613c5b5780518252602082019150602081019050602083039250613c36565b6001836020036101000a03801982511681845116808217855250505050505090500191505060405160208183030381529060405280519060200120925086866040516020018083805190602001908083835b602083101515613cd25780518252602082019150602081019050602083039250613cad565b6001836020036101000a038019825116818451168082178552505050505050905001807f2e0000000000000000000000000000000000000000000000000000000000000081525060010182805190602001908083835b602083101515613d4d5780518252602082019150602081019050602083039250613d28565b6001836020036101000a038019825116818451168082178552505050505050905001925050506040516020818303038152906040528051906020012091505b6006600081548092919060010191905055506006546005600084815260200190815260200160002081905550600060048054809190600101613dce919061479e565b90506001861415613e935785600482815481101515613de957fe5b9060005260206000209060080201600601819055506000600482815481101515613e0f57fe5b90600052602060002090600802016005018190555086600482815481101515613e3457fe5b90600052602060002090600802016003019080519060200190613e589291906147d0565b5086600482815481101515613e6957fe5b90600052602060002090600802016004019080519060200190613e8d9291906147d0565b50614240565b60016005600086815260200190815260200160002054039150600354600483815481101515613ebe57fe5b906000526020600020906008020160070180549050101515613f48576040517f08c379a00000000000000000000000000000000000000000000000000000000081526004018080602001828103825260168152602001807f62726561647468206c6576656c2065786365656465640000000000000000000081525060200191505060405180910390fd5b600254600483815481101515613f5a57fe5b906000526020600020906008020160060154101515613fe1576040517f08c379a00000000000000000000000000000000000000000000000000000000081526004018080602001828103825260148152602001807f6465707468206c6576656c20657863656564656400000000000000000000000081525060200191505060405180910390fd5b6001600483815481101515613ff257fe5b9060005260206000209060080201600601540160048281548110151561401457fe5b9060005260206000209060080201600601819055508160048281548110151561403957fe5b90600052602060002090600802016005018190555060048281548110151561405d57fe5b906000526020600020906008020160040160048281548110151561407d57fe5b906000526020600020906008020160040190805460018160011615610100020316600290046140ad929190614850565b5060006004838154811015156140bf57fe5b906000526020600020906008020160070180548091906001016140e291906148d7565b9050816004848154811015156140f457fe5b90600052602060002090600802016007018281548110151561411257fe5b906000526020600020018190555088886040516020018083805190602001908083835b60208310151561415a5780518252602082019150602081019050602083039250614135565b6001836020036101000a038019825116818451168082178552505050505050905001807f2e0000000000000000000000000000000000000000000000000000000000000081525060010182805190602001908083835b6020831015156141d557805182526020820191506020810190506020830392506141b0565b6001836020036101000a0380198251168184511680821785525050505050509050019250505060405160208183030381529060405260048381548110151561421957fe5b9060005260206000209060080201600301908051906020019061423d9291906147d0565b50505b8660048281548110151561425057fe5b906000526020600020906008020160000190805190602001906142749291906147d0565b508760048281548110151561428557fe5b906000526020600020906008020160020190805190602001906142a99291906147d0565b50846004828154811015156142ba57fe5b9060005260206000209060080201600101819055506001851415614538577f0e8b7be64e0c730234ba2cd252b227fb481d7a247ba806d1941144c535bf054b60048281548110151561430857fe5b906000526020600020906008020160000160048381548110151561432857fe5b906000526020600020906008020160020160048481548110151561434857fe5b906000526020600020906008020160040160048581548110151561436857fe5b9060005260206000209060080201600601546001604051808060200180602001806020018681526020018581526020018481038452898181546001816001161561010002031660029004815260200191508054600181600116156101000203166002900480156144195780601f106143ee57610100808354040283529160200191614419565b820191906000526020600020905b8154815290600101906020018083116143fc57829003601f168201915b505084810383528881815460018160011615610100020316600290048152602001915080546001816001161561010002031660029004801561449c5780601f106144715761010080835404028352916020019161449c565b820191906000526020600020905b81548152906001019060200180831161447f57829003601f168201915b505084810382528781815460018160011615610100020316600290048152602001915080546001816001161561010002031660029004801561451f5780601f106144f45761010080835404028352916020019161451f565b820191906000526020600020905b81548152906001019060200180831161450257829003601f168201915b50509850505050505050505060405180910390a1614794565b7fd705723a50859c9cc1d3953e10b8b9478820e7a62927ad3215897ed87b20591c60048281548110151561456857fe5b906000526020600020906008020160000160048381548110151561458857fe5b90600052602060002090600802016002016004848154811015156145a857fe5b90600052602060002090600802016004016004858154811015156145c857fe5b9060005260206000209060080201600601546002604051808060200180602001806020018681526020018581526020018481038452898181546001816001161561010002031660029004815260200191508054600181600116156101000203166002900480156146795780601f1061464e57610100808354040283529160200191614679565b820191906000526020600020905b81548152906001019060200180831161465c57829003601f168201915b50508481038352888181546001816001161561010002031660029004815260200191508054600181600116156101000203166002900480156146fc5780601f106146d1576101008083540402835291602001916146fc565b820191906000526020600020905b8154815290600101906020018083116146df57829003601f168201915b505084810382528781815460018160011615610100020316600290048152602001915080546001816001161561010002031660029004801561477f5780601f106147545761010080835404028352916020019161477f565b820191906000526020600020905b81548152906001019060200180831161476257829003601f168201915b50509850505050505050505060405180910390a15b5050505050505050565b8154818355818111156147cb576008028160080283600052602060002091820191016147ca9190614903565b5b505050565b828054600181600116156101000203166002900490600052602060002090601f016020900481019282601f1061481157805160ff191683800117855561483f565b8280016001018555821561483f579182015b8281111561483e578251825591602001919060010190614823565b5b50905061484c919061498a565b5090565b828054600181600116156101000203166002900490600052602060002090601f016020900481019282601f1061488957805485556148c6565b828001600101855582156148c657600052602060002091601f016020900482015b828111156148c55782548255916001019190600101906148aa565b5b5090506148d3919061498a565b5090565b8154818355818111156148fe578183600052602060002091820191016148fd919061498a565b5b505050565b61498791905b80821115614983576000808201600061492291906149af565b600182016000905560028201600061493a91906149af565b60038201600061494a91906149af565b60048201600061495a91906149af565b6005820160009055600682016000905560078201600061497a91906149f7565b50600801614909565b5090565b90565b6149ac91905b808211156149a8576000816000905550600101614990565b5090565b90565b50805460018160011615610100020316600290046000825580601f106149d557506149f4565b601f0160209004906000526020600020908101906149f3919061498a565b5b50565b5080546000825590600052602060002090810190614a15919061498a565b5056fe696e76616c696420616374696f6e2e206f7065726174696f6e206e6f7420616c6c6f7765646e6f742061206d6173746572206f72672e206f7065726174696f6e206e6f7420616c6c6f7765646f72672073746174757320646f6573206e6f7420616c6c6f7720746865206f7065726174696f6e6f7267206e6f7420696e20617070726f766564207374617475732e206f7065726174696f6e2063616e6e6f7420626520646f6e65a165627a7a72305820d594fde6d9010c770d11c6bba042a6761a7f02fb8ca8790271a961b824290e450029",
  "source": "pragma solidity ^0.5.3;\n\nimport \"./PermissionsUpgradable.sol\";\n/** @title Organization manager contract\n  * @notice This contract holds implementation logic for all org management\n    functionality. This can be called only by the implementation\n    contract only. there are few view functions exposed as public and\n    can be called directly. these are invoked by quorum for populating\n    permissions data in cache\n  * @dev the status of the organization is denoted by a set of integer\n    values. These are as below:\n        0 - Not in list,\n        1 - Org proposed for approval by network admins\n        2 - Org in Approved status\n        3 - Org proposed for suspension and pending approval by network admins\n        4 - Org in Suspended,\n     Once the node is blacklisted no further activity on the node is\n     possible.\n  */\ncontract OrgManager {\n    string private adminOrgId;\n    PermissionsUpgradable private permUpgradable;\n    // checks if first time network boot up has happened or not\n    bool private networkBoot = false;\n\n    // variables which control the breadth and depth of the sub org tree\n    uint private DEPTH_LIMIT = 4;\n    uint private BREADTH_LIMIT = 4;\n\n    struct OrgDetails {\n        string orgId;\n        uint status;\n        string parentId;\n        string fullOrgId;\n        string ultParent;\n        uint pindex;\n        uint level;\n        uint [] subOrgIndexList;\n    }\n\n    OrgDetails [] private orgList;\n    mapping(bytes32 => uint) private OrgIndex;\n    uint private orgNum = 0;\n\n    // events related to Master Org add\n    event OrgApproved(string _orgId, string _porgId, string _ultParent,\n        uint _level, uint _status);\n    event OrgPendingApproval(string _orgId, string _porgId, string _ultParent,\n        uint _level, uint _status);\n    event OrgSuspended(string _orgId, string _porgId, string _ultParent,\n        uint _level);\n    event OrgSuspensionRevoked(string _orgId, string _porgId, string _ultParent,\n        uint _level);\n\n    /** @notice confirms that the caller is the address of implementation\n        contract\n    */\n    modifier onlyImplementation{\n        require(msg.sender == permUpgradable.getPermImpl(), \"invalid caller\");\n        _;\n    }\n\n    /** @notice checks if the org id does not exists\n      * @param _orgId - org id\n      * @return true if org does not exist\n      */\n    modifier orgDoesNotExist(string memory _orgId) {\n        require(checkOrgExists(_orgId) == false, \"org exists\");\n        _;\n    }\n\n    /** @notice checks if the org id does exists\n      * @param _orgId - org id\n      * @return true if org exists\n      */\n    modifier orgExists(string memory _orgId) {\n        require(checkOrgExists(_orgId) == true, \"org does not exist\");\n        _;\n    }\n\n    /** @notice constructor. sets the permissions upgradable address\n      */\n    constructor (address _permUpgradable) public {\n        permUpgradable = PermissionsUpgradable(_permUpgradable);\n    }\n\n    /** @notice called at the time of network initialization. sets the depth\n        breadth for sub orgs creation. and creates the default network\n        admin org as per config file\n      */\n    function setUpOrg(string calldata _orgId, uint256 _breadth, uint256 _depth) external\n    onlyImplementation {\n        _addNewOrg(\"\", _orgId, 1, 2);\n        DEPTH_LIMIT = _depth;\n        BREADTH_LIMIT = _breadth;\n    }\n    /** @notice function for adding a new master org to the network\n      * @param _orgId unique org id to be added\n      * @dev org will be added if it does exist\n      */\n    function addOrg(string calldata _orgId) external\n    onlyImplementation\n    orgDoesNotExist(_orgId) {\n        _addNewOrg(\"\", _orgId, 1, 1);\n    }\n\n    /** @notice function for adding a new sub org under a parent org\n      * @param _pOrgId unique org id to be added\n      * @dev org will be added if it does exist\n      */\n    function addSubOrg(string calldata _pOrgId, string calldata _orgId) external\n    onlyImplementation\n    orgDoesNotExist(string(abi.encodePacked(_pOrgId, \".\", _orgId))) {\n        _addNewOrg(_pOrgId, _orgId, 2, 2);\n    }\n\n    /** @notice updates the status of a master org.\n      * @param _orgId unique org id to be added\n      * @param _action action being performed\n      * @dev status cannot be updated for sub orgs.\n        This function can be called for the following actions:\n            1 - to suspend an org\n            2 - to activate the org back\n      */\n    function updateOrg(string calldata _orgId, uint256 _action) external\n    onlyImplementation\n    orgExists(_orgId)\n    returns (uint256){\n        require((_action == 1 || _action == 2), \"invalid action. operation not allowed\");\n        uint256 id = _getOrgIndex(_orgId);\n        require(orgList[id].level == 1, \"not a master org. operation not allowed\");\n\n        uint256 reqStatus;\n        uint256 pendingOp;\n        if (_action == 1) {\n            reqStatus = 2;\n            pendingOp = 2;\n        }\n        else if (_action == 2) {\n            reqStatus = 4;\n            pendingOp = 3;\n        }\n        require(checkOrgStatus(_orgId, reqStatus) == true,\n            \"org status does not allow the operation\");\n        if (_action == 1) {\n            _suspendOrg(_orgId);\n        }\n        else {\n            _revokeOrgSuspension(_orgId);\n        }\n        return pendingOp;\n    }\n\n    /** @notice function to approve org status change for master orgs\n      * @param _orgId unique org id to be added\n      * @param _action approval for action\n      * @dev status cannot be updated for sub orgs.\n        This function can be called for the following actions:\n            1 - to suspend an org\n            2 - to activate the org back\n      */\n    function approveOrgStatusUpdate(string calldata _orgId, uint256 _action) external\n    onlyImplementation\n    orgExists(_orgId) {\n        if (_action == 1) {\n            _approveOrgSuspension(_orgId);\n        }\n        else {\n            _approveOrgRevokeSuspension(_orgId);\n        }\n    }\n\n    /** @notice function to approve org status change for master orgs\n      * @param _orgId unique org id to be added\n      */\n    function approveOrg(string calldata _orgId) external\n    onlyImplementation {\n        require(checkOrgStatus(_orgId, 1) == true, \"nothing to approve\");\n        uint256 id = _getOrgIndex(_orgId);\n        orgList[id].status = 2;\n        emit OrgApproved(orgList[id].orgId, orgList[id].parentId,\n            orgList[id].ultParent, orgList[id].level, 2);\n    }\n\n    /** @notice returns org info for a given org index\n      * @param _orgIndex org index\n      * @return org id\n      * @return parent org id\n      * @return ultimate parent id\n      * @return level in the org tree\n      * @return status\n      */\n    function getOrgInfo(uint256 _orgIndex) external view returns (string memory,\n        string memory, string memory, uint256, uint256) {\n        return (orgList[_orgIndex].orgId, orgList[_orgIndex].parentId,\n        orgList[_orgIndex].ultParent, orgList[_orgIndex].level, orgList[_orgIndex].status);\n    }\n\n    /** @notice returns org info for a given org id\n      * @param _orgId org id\n      * @return org id\n      * @return parent org id\n      * @return ultimate parent id\n      * @return level in the org tree\n      * @return status\n      */\n    function getOrgDetails(string calldata _orgId) external view returns (string memory,\n        string memory, string memory, uint256, uint256) {\n        if (!checkOrgExists(_orgId)) {\n            return (_orgId, \"\", \"\", 0, 0);\n        }\n        uint256 _orgIndex = _getOrgIndex(_orgId);\n        return (orgList[_orgIndex].orgId, orgList[_orgIndex].parentId,\n        orgList[_orgIndex].ultParent, orgList[_orgIndex].level, orgList[_orgIndex].status);\n    }\n\n    /** @notice returns the array of sub org indexes for the given org\n      * @param _orgId org id\n      * @return array of sub org indexes\n      */\n    function getSubOrgIndexes(string calldata _orgId) external view returns (uint[] memory) {\n        require(checkOrgExists(_orgId) == true, \"org does not exist\");\n        uint256 _orgIndex = _getOrgIndex(_orgId);\n        return (orgList[_orgIndex].subOrgIndexList);\n    }\n    /** @notice returns the master org id for the given org or sub org\n      * @param _orgId org id\n      * @return master org id\n      */\n    function getUltimateParent(string calldata _orgId) external view\n    onlyImplementation\n    returns (string memory) {\n        return orgList[_getOrgIndex(_orgId)].ultParent;\n    }\n\n    /** @notice returns the total number of orgs in the network\n      * @return master org id\n      */\n    function getNumberOfOrgs() public view returns (uint256) {\n        return orgList.length;\n    }\n\n    /** @notice confirms that org status is same as passed status\n      * @param _orgId org id\n      * @param _orgStatus org status\n      * @return true or false\n      */\n    function checkOrgStatus(string memory _orgId, uint256 _orgStatus)\n    public view returns (bool){\n        if (OrgIndex[keccak256(abi.encodePacked(_orgId))] == 0) {\n            return false;\n        }\n        uint256 id = _getOrgIndex(_orgId);\n        return ((OrgIndex[keccak256(abi.encodePacked(_orgId))] != 0)\n        && orgList[id].status == _orgStatus);\n    }\n\n    /** @notice confirms that org status either active or pending suspension\n      * @param _orgId org id\n      * @return true or false\n      */\n    function checkOrgActive(string memory _orgId)\n    public view returns (bool){\n        if (OrgIndex[keccak256(abi.encodePacked(_orgId))] != 0) {\n            uint256 id = _getOrgIndex(_orgId);\n            if (orgList[id].status == 2 || orgList[id].status == 3) {\n                uint256 uid = _getOrgIndex(orgList[id].ultParent);\n                if (orgList[uid].status == 2 || orgList[uid].status == 3) {\n                    return true;\n                }\n            }\n        }\n        return false;\n    }\n\n    /** @notice confirms if the org exists in the network\n      * @param _orgId org id\n      * @return true or false\n      */\n    function checkOrgExists(string memory _orgId) public view returns (bool) {\n        return (!(OrgIndex[keccak256(abi.encodePacked(_orgId))] == 0));\n    }\n\n    /** @notice updates the org status to suspended\n      * @param _orgId org id\n      */\n    function _suspendOrg(string memory _orgId) internal {\n        require(checkOrgStatus(_orgId, 2) == true,\n            \"org not in approved status. operation cannot be done\");\n        uint256 id = _getOrgIndex(_orgId);\n        orgList[id].status = 3;\n        emit OrgPendingApproval(orgList[id].orgId, orgList[id].parentId,\n            orgList[id].ultParent, orgList[id].level, 3);\n    }\n\n    /** @notice revokes the suspension of an org\n      * @param _orgId org id\n      */\n    function _revokeOrgSuspension(string memory _orgId) internal {\n        require(checkOrgStatus(_orgId, 4) == true, \"org not in suspended state\");\n        uint256 id = _getOrgIndex(_orgId);\n        orgList[id].status = 5;\n        emit OrgPendingApproval(orgList[id].orgId, orgList[id].parentId,\n            orgList[id].ultParent, orgList[id].level, 5);\n    }\n\n    /** @notice approval function for org suspension activity\n      * @param _orgId org id\n      */\n    function _approveOrgSuspension(string memory _orgId) internal {\n        require(checkOrgStatus(_orgId, 3) == true, \"nothing to approve\");\n        uint256 id = _getOrgIndex(_orgId);\n        orgList[id].status = 4;\n        emit OrgSuspended(orgList[id].orgId, orgList[id].parentId,\n            orgList[id].ultParent, orgList[id].level);\n    }\n\n    /** @notice approval function for revoking org suspension\n      * @param _orgId org id\n      */\n    function _approveOrgRevokeSuspension(string memory _orgId) internal {\n        require(checkOrgStatus(_orgId, 5) == true, \"nothing to approve\");\n        uint256 id = _getOrgIndex(_orgId);\n        orgList[id].status = 2;\n        emit OrgSuspensionRevoked(orgList[id].orgId, orgList[id].parentId,\n            orgList[id].ultParent, orgList[id].level);\n    }\n\n    /** @notice function to add a new organization\n      * @param _pOrgId parent org id\n      * @param _orgId org id\n      * @param _level level in org hierarchy\n      * @param _status status of the org\n      */\n    function _addNewOrg(string memory _pOrgId, string memory _orgId,\n        uint256 _level, uint _status) internal {\n        bytes32 pid = \"\";\n        bytes32 oid = \"\";\n        uint256 parentIndex = 0;\n\n        if (_level == 1) {//root\n            oid = keccak256(abi.encodePacked(_orgId));\n        } else {\n            pid = keccak256(abi.encodePacked(_pOrgId));\n            oid = keccak256(abi.encodePacked(_pOrgId, \".\", _orgId));\n        }\n        orgNum++;\n        OrgIndex[oid] = orgNum;\n        uint256 id = orgList.length++;\n        if (_level == 1) {\n            orgList[id].level = _level;\n            orgList[id].pindex = 0;\n            orgList[id].fullOrgId = _orgId;\n            orgList[id].ultParent = _orgId;\n        } else {\n            parentIndex = OrgIndex[pid] - 1;\n\n            require(orgList[parentIndex].subOrgIndexList.length < BREADTH_LIMIT,\n                \"breadth level exceeded\");\n            require(orgList[parentIndex].level < DEPTH_LIMIT,\n                \"depth level exceeded\");\n\n            orgList[id].level = orgList[parentIndex].level + 1;\n            orgList[id].pindex = parentIndex;\n            orgList[id].ultParent = orgList[parentIndex].ultParent;\n            uint256 subOrgId = orgList[parentIndex].subOrgIndexList.length++;\n            orgList[parentIndex].subOrgIndexList[subOrgId] = id;\n            orgList[id].fullOrgId = string(abi.encodePacked(_pOrgId, \".\", _orgId));\n        }\n        orgList[id].orgId = _orgId;\n        orgList[id].parentId = _pOrgId;\n        orgList[id].status = _status;\n        if (_status == 1) {\n            emit OrgPendingApproval(orgList[id].orgId, orgList[id].parentId,\n                orgList[id].ultParent, orgList[id].level, 1);\n        }\n        else {\n            emit OrgApproved(orgList[id].orgId, orgList[id].parentId,\n                orgList[id].ultParent, orgList[id].level, 2);\n        }\n    }\n\n    /** @notice returns the org index from the org list for the given org\n      * @return org index\n      */\n    function _getOrgIndex(string memory _orgId) private view returns (uint){\n        return OrgIndex[keccak256(abi.encodePacked(_orgId))] - 1;\n    }\n\n}\n",
  "sourcePath": "/home/manhtv19/coding/quorum/quorum-root/permission/contracts/OrgManager.sol",
  "compiler": {
    "name": "solc",
    "version": "0.5.3+commit.10d17f24.Emscripten.clang"
  },
  "schemaVersion": "3.4.6",
  "updatedAt": "2022-03-22T10:03:46.190Z",
  "devdoc": {
    "details": "the status of the organization is denoted by a set of integer values. These are as below: 0 - Not in list, 1 - Org proposed for approval by network admins 2 - Org in Approved status 3 - Org proposed for suspension and pending approval by network admins 4 - Org in Suspended, Once the node is blacklisted no further activity on the node is possible.",
    "methods": {
      "addOrg(string)": {
        "details": "org will be added if it does exist",
        "params": {
          "_orgId": "unique org id to be added"
        }
      },
      "addSubOrg(string,string)": {
        "details": "org will be added if it does exist",
        "params": {
          "_pOrgId": "unique org id to be added"
        }
      },
      "approveOrg(string)": {
        "params": {
          "_orgId": "unique org id to be added"
        }
      },
      "approveOrgStatusUpdate(string,uint256)": {
        "details": "status cannot be updated for sub orgs. This function can be called for the following actions: 1 - to suspend an org 2 - to activate the org back",
        "params": {
          "_action": "approval for action",
          "_orgId": "unique org id to be added"
        }
      },
      "checkOrgActive(string)": {
        "params": {
          "_orgId": "org id"
        },
        "return": "true or false"
      },
      "checkOrgExists(string)": {
        "params": {
          "_orgId": "org id"
        },
        "return": "true or false"
      },
      "checkOrgStatus(string,uint256)": {
        "params": {
          "_orgId": "org id",
          "_orgStatus": "org status"
        },
        "return": "true or false"
      },
      "getNumberOfOrgs()": {
        "return": "master org id"
      },
      "getOrgDetails(string)": {
        "params": {
          "_orgId": "org id"
        },
        "return": "org idparent org idultimate parent idlevel in the org treestatus"
      },
      "getOrgInfo(uint256)": {
        "params": {
          "_orgIndex": "org index"
        },
        "return": "org idparent org idultimate parent idlevel in the org treestatus"
      },
      "getSubOrgIndexes(string)": {
        "params": {
          "_orgId": "org id"
        },
        "return": "array of sub org indexes"
      },
      "getUltimateParent(string)": {
        "params": {
          "_orgId": "org id"
        },
        "return": "master org id"
      },
      "updateOrg(string,uint256)": {
        "details": "status cannot be updated for sub orgs. This function can be called for the following actions: 1 - to suspend an org 2 - to activate the org back",
        "params": {
          "_action": "action being performed",
          "_orgId": "unique org id to be added"
        }
      }
    },
    "title": "Organization manager contract"
  },
  "userdoc": {
    "methods": {
      "addOrg(string)": {
        "notice": "function for adding a new master org to the network"
      },
      "addSubOrg(string,string)": {
        "notice": "function for adding a new sub org under a parent org"
      },
      "approveOrg(string)": {
        "notice": "function to approve org status change for master orgs"
      },
      "approveOrgStatusUpdate(string,uint256)": {
        "notice": "function to approve org status change for master orgs"
      },
      "checkOrgActive(string)": {
        "notice": "confirms that org status either active or pending suspension"
      },
      "checkOrgExists(string)": {
        "notice": "confirms if the org exists in the network"
      },
      "checkOrgStatus(string,uint256)": {
        "notice": "confirms that org status is same as passed status"
      },
      "constructor": "constructor. sets the permissions upgradable address",
      "getNumberOfOrgs()": {
        "notice": "returns the total number of orgs in the network"
      },
      "getOrgDetails(string)": {
        "notice": "returns org info for a given org id"
      },
      "getOrgInfo(uint256)": {
        "notice": "returns org info for a given org index"
      },
      "getSubOrgIndexes(string)": {
        "notice": "returns the array of sub org indexes for the given org"
      },
      "getUltimateParent(string)": {
        "notice": "returns the master org id for the given org or sub org"
      },
      "setUpOrg(string,uint256,uint256)": {
        "notice": "called at the time of network initialization. sets the depth breadth for sub orgs creation. and creates the default network admin org as per config file"
      },
      "updateOrg(string,uint256)": {
        "notice": "updates the status of a master org."
      }
    },
    "notice": "This contract holds implementation logic for all org management functionality. This can be called only by the implementation contract only. there are few view functions exposed as public and can be called directly. these are invoked by quorum for populating permissions data in cache"
  }
}