{
  "contractName": "PermissionsInterface",
  "abi": [
    {
      "inputs": [
        {
          "name": "_permImplUpgradeable",
          "type": "address"
        }
      ],
      "payable": false,
      "stateMutability": "nonpayable",
      "type": "constructor"
    },
    {
      "constant": false,
      "inputs": [
        {
          "name": "_nwAdminOrg",
          "type": "string"
        },
        {
          "name": "_nwAdminRole",
          "type": "string"
        },
        {
          "name": "_oAdminRole",
          "type": "string"
        }
      ],
      "name": "setPolicy",
      "outputs": [],
      "payable": false,
      "stateMutability": "nonpayable",
      "type": "function"
    },
    {
      "constant": false,
      "inputs": [
        {
          "name": "_breadth",
          "type": "uint256"
        },
        {
          "name": "_depth",
          "type": "uint256"
        }
      ],
      "name": "init",
      "outputs": [],
      "payable": false,
      "stateMutability": "nonpayable",
      "type": "function"
    },
    {
      "constant": false,
      "inputs": [
        {
          "name": "_enodeId",
          "type": "string"
        },
        {
          "name": "_ip",
          "type": "string"
        },
        {
          "name": "_port",
          "type": "uint16"
        },
        {
          "name": "_raftport",
          "type": "uint16"
        }
      ],
      "name": "addAdminNode",
      "outputs": [],
      "payable": false,
      "stateMutability": "nonpayable",
      "type": "function"
    },
    {
      "constant": false,
      "inputs": [
        {
          "name": "_acct",
          "type": "address"
        }
      ],
      "name": "addAdminAccount",
      "outputs": [],
      "payable": false,
      "stateMutability": "nonpayable",
      "type": "function"
    },
    {
      "constant": false,
      "inputs": [],
      "name": "updateNetworkBootStatus",
      "outputs": [
        {
          "name": "",
          "type": "bool"
        }
      ],
      "payable": false,
      "stateMutability": "nonpayable",
      "type": "function"
    },
    {
      "constant": true,
      "inputs": [],
      "name": "getNetworkBootStatus",
      "outputs": [
        {
          "name": "",
          "type": "bool"
        }
      ],
      "payable": false,
      "stateMutability": "view",
      "type": "function"
    },
    {
      "constant": false,
      "inputs": [
        {
          "name": "_orgId",
          "type": "string"
        },
        {
          "name": "_enodeId",
          "type": "string"
        },
        {
          "name": "_ip",
          "type": "string"
        },
        {
          "name": "_port",
          "type": "uint16"
        },
        {
          "name": "_raftport",
          "type": "uint16"
        },
        {
          "name": "_account",
          "type": "address"
        }
      ],
      "name": "addOrg",
      "outputs": [],
      "payable": false,
      "stateMutability": "nonpayable",
      "type": "function"
    },
    {
      "constant": false,
      "inputs": [
        {
          "name": "_orgId",
          "type": "string"
        },
        {
          "name": "_enodeId",
          "type": "string"
        },
        {
          "name": "_ip",
          "type": "string"
        },
        {
          "name": "_port",
          "type": "uint16"
        },
        {
          "name": "_raftport",
          "type": "uint16"
        },
        {
          "name": "_account",
          "type": "address"
        }
      ],
      "name": "approveOrg",
      "outputs": [],
      "payable": false,
      "stateMutability": "nonpayable",
      "type": "function"
    },
    {
      "constant": false,
      "inputs": [
        {
          "name": "_pOrgId",
          "type": "string"
        },
        {
          "name": "_orgId",
          "type": "string"
        },
        {
          "name": "_enodeId",
          "type": "string"
        },
        {
          "name": "_ip",
          "type": "string"
        },
        {
          "name": "_port",
          "type": "uint16"
        },
        {
          "name": "_raftport",
          "type": "uint16"
        }
      ],
      "name": "addSubOrg",
      "outputs": [],
      "payable": false,
      "stateMutability": "nonpayable",
      "type": "function"
    },
    {
      "constant": false,
      "inputs": [
        {
          "name": "_orgId",
          "type": "string"
        },
        {
          "name": "_action",
          "type": "uint256"
        }
      ],
      "name": "updateOrgStatus",
      "outputs": [],
      "payable": false,
      "stateMutability": "nonpayable",
      "type": "function"
    },
    {
      "constant": false,
      "inputs": [
        {
          "name": "_orgId",
          "type": "string"
        },
        {
          "name": "_action",
          "type": "uint256"
        }
      ],
      "name": "approveOrgStatus",
      "outputs": [],
      "payable": false,
      "stateMutability": "nonpayable",
      "type": "function"
    },
    {
      "constant": false,
      "inputs": [
        {
          "name": "_roleId",
          "type": "string"
        },
        {
          "name": "_orgId",
          "type": "string"
        },
        {
          "name": "_access",
          "type": "uint256"
        },
        {
          "name": "_voter",
          "type": "bool"
        },
        {
          "name": "_admin",
          "type": "bool"
        }
      ],
      "name": "addNewRole",
      "outputs": [],
      "payable": false,
      "stateMutability": "nonpayable",
      "type": "function"
    },
    {
      "constant": false,
      "inputs": [
        {
          "name": "_roleId",
          "type": "string"
        },
        {
          "name": "_orgId",
          "type": "string"
        }
      ],
      "name": "removeRole",
      "outputs": [],
      "payable": false,
      "stateMutability": "nonpayable",
      "type": "function"
    },
    {
      "constant": false,
      "inputs": [
        {
          "name": "_orgId",
          "type": "string"
        },
        {
          "name": "_account",
          "type": "address"
        },
        {
          "name": "_roleId",
          "type": "string"
        }
      ],
      "name": "assignAdminRole",
      "outputs": [],
      "payable": false,
      "stateMutability": "nonpayable",
      "type": "function"
    },
    {
      "constant": false,
      "inputs": [
        {
          "name": "_orgId",
          "type": "string"
        },
        {
          "name": "_account",
          "type": "address"
        }
      ],
      "name": "approveAdminRole",
      "outputs": [],
      "payable": false,
      "stateMutability": "nonpayable",
      "type": "function"
    },
    {
      "constant": false,
      "inputs": [
        {
          "name": "_orgId",
          "type": "string"
        },
        {
          "name": "_account",
          "type": "address"
        },
        {
          "name": "_action",
          "type": "uint256"
        }
      ],
      "name": "updateAccountStatus",
      "outputs": [],
      "payable": false,
      "stateMutability": "nonpayable",
      "type": "function"
    },
    {
      "constant": false,
      "inputs": [
        {
          "name": "_orgId",
          "type": "string"
        },
        {
          "name": "_enodeId",
          "type": "string"
        },
        {
          "name": "_ip",
          "type": "string"
        },
        {
          "name": "_port",
          "type": "uint16"
        },
        {
          "name": "_raftport",
          "type": "uint16"
        }
      ],
      "name": "addNode",
      "outputs": [],
      "payable": false,
      "stateMutability": "nonpayable",
      "type": "function"
    },
    {
      "constant": false,
      "inputs": [
        {
          "name": "_orgId",
          "type": "string"
        },
        {
          "name": "_enodeId",
          "type": "string"
        },
        {
          "name": "_ip",
          "type": "string"
        },
        {
          "name": "_port",
          "type": "uint16"
        },
        {
          "name": "_raftport",
          "type": "uint16"
        },
        {
          "name": "_action",
          "type": "uint256"
        }
      ],
      "name": "updateNodeStatus",
      "outputs": [],
      "payable": false,
      "stateMutability": "nonpayable",
      "type": "function"
    },
    {
      "constant": false,
      "inputs": [
        {
          "name": "_orgId",
          "type": "string"
        },
        {
          "name": "_enodeId",
          "type": "string"
        },
        {
          "name": "_ip",
          "type": "string"
        },
        {
          "name": "_port",
          "type": "uint16"
        },
        {
          "name": "_raftport",
          "type": "uint16"
        }
      ],
      "name": "startBlacklistedNodeRecovery",
      "outputs": [],
      "payable": false,
      "stateMutability": "nonpayable",
      "type": "function"
    },
    {
      "constant": false,
      "inputs": [
        {
          "name": "_orgId",
          "type": "string"
        },
        {
          "name": "_enodeId",
          "type": "string"
        },
        {
          "name": "_ip",
          "type": "string"
        },
        {
          "name": "_port",
          "type": "uint16"
        },
        {
          "name": "_raftport",
          "type": "uint16"
        }
      ],
      "name": "approveBlacklistedNodeRecovery",
      "outputs": [],
      "payable": false,
      "stateMutability": "nonpayable",
      "type": "function"
    },
    {
      "constant": false,
      "inputs": [
        {
          "name": "_orgId",
          "type": "string"
        },
        {
          "name": "_account",
          "type": "address"
        }
      ],
      "name": "startBlacklistedAccountRecovery",
      "outputs": [],
      "payable": false,
      "stateMutability": "nonpayable",
      "type": "function"
    },
    {
      "constant": false,
      "inputs": [
        {
          "name": "_orgId",
          "type": "string"
        },
        {
          "name": "_account",
          "type": "address"
        }
      ],
      "name": "approveBlacklistedAccountRecovery",
      "outputs": [],
      "payable": false,
      "stateMutability": "nonpayable",
      "type": "function"
    },
    {
      "constant": true,
      "inputs": [
        {
          "name": "_orgId",
          "type": "string"
        }
      ],
      "name": "getPendingOp",
      "outputs": [
        {
          "name": "",
          "type": "string"
        },
        {
          "name": "",
          "type": "string"
        },
        {
          "name": "",
          "type": "address"
        },
        {
          "name": "",
          "type": "uint256"
        }
      ],
      "payable": false,
      "stateMutability": "view",
      "type": "function"
    },
    {
      "constant": false,
      "inputs": [
        {
          "name": "_permImplementation",
          "type": "address"
        }
      ],
      "name": "setPermImplementation",
      "outputs": [],
      "payable": false,
      "stateMutability": "nonpayable",
      "type": "function"
    },
    {
      "constant": true,
      "inputs": [],
      "name": "getPermissionsImpl",
      "outputs": [
        {
          "name": "",
          "type": "address"
        }
      ],
      "payable": false,
      "stateMutability": "view",
      "type": "function"
    },
    {
      "constant": false,
      "inputs": [
        {
          "name": "_account",
          "type": "address"
        },
        {
          "name": "_orgId",
          "type": "string"
        },
        {
          "name": "_roleId",
          "type": "string"
        }
      ],
      "name": "assignAccountRole",
      "outputs": [],
      "payable": false,
      "stateMutability": "nonpayable",
      "type": "function"
    },
    {
      "constant": true,
      "inputs": [
        {
          "name": "_account",
          "type": "address"
        }
      ],
      "name": "isNetworkAdmin",
      "outputs": [
        {
          "name": "",
          "type": "bool"
        }
      ],
      "payable": false,
      "stateMutability": "view",
      "type": "function"
    },
    {
      "constant": true,
      "inputs": [
        {
          "name": "_account",
          "type": "address"
        },
        {
          "name": "_orgId",
          "type": "string"
        }
      ],
      "name": "isOrgAdmin",
      "outputs": [
        {
          "name": "",
          "type": "bool"
        }
      ],
      "payable": false,
      "stateMutability": "view",
      "type": "function"
    },
    {
      "constant": true,
      "inputs": [
        {
          "name": "_account",
          "type": "address"
        },
        {
          "name": "_orgId",
          "type": "string"
        }
      ],
      "name": "validateAccount",
      "outputs": [
        {
          "name": "",
          "type": "bool"
        }
      ],
      "payable": false,
      "stateMutability": "view",
      "type": "function"
    },
    {
      "constant": true,
      "inputs": [
        {
          "name": "_enodeId",
          "type": "string"
        },
        {
          "name": "_ip",
          "type": "string"
        },
        {
          "name": "_port",
          "type": "uint16"
        }
      ],
      "name": "connectionAllowed",
      "outputs": [
        {
          "name": "",
          "type": "bool"
        }
      ],
      "payable": false,
      "stateMutability": "view",
      "type": "function"
    },
    {
      "constant": true,
      "inputs": [
        {
          "name": "_sender",
          "type": "address"
        },
        {
          "name": "_target",
          "type": "address"
        },
        {
          "name": "_value",
          "type": "uint256"
        },
        {
          "name": "_gasPrice",
          "type": "uint256"
        },
        {
          "name": "_gasLimit",
          "type": "uint256"
        },
        {
          "name": "_payload",
          "type": "bytes"
        }
      ],
      "name": "transactionAllowed",
      "outputs": [
        {
          "name": "",
          "type": "bool"
        }
      ],
      "payable": false,
      "stateMutability": "view",
      "type": "function"
    }
  ],
  "bytecode": "0x608060405234801561001057600080fd5b5060405160208062004e908339810180604052602081101561003157600080fd5b810190808051906020019092919050505080600260006101000a81548173ffffffffffffffffffffffffffffffffffffffff021916908373ffffffffffffffffffffffffffffffffffffffff16021790555050614dfc80620000946000396000f3fe608060405234801561001057600080fd5b5060043610610202576000357c01000000000000000000000000000000000000000000000000000000009004806358dcff711161012c578063a5843f08116100bf578063d1aa0c201161008e578063d1aa0c2014611b13578063ef5f719614611b6f578063f346a3a714611d74578063fa279d6114611f0c57610202565b8063a5843f08146118f1578063a634301214611929578063a97914bf146119f7578063bb3b6e8014611a9057610202565b80638683c7fe116100fb5780638683c7fe146113de57806391ba3f961461154c578063936421d5146117515780639bd381011461184057610202565b806358dcff71146110025780635be9672c146112075780636b568d761461128a57806384b7a84a1461133b57610202565b806343de646c116101a45780634fe57e7a116101735780634fe57e7a14610c65578063511bbd9f14610ca9578063513a327714610ced57806351f604c314610f1257610202565b806343de646c14610a3f57806344478e7914610b2d57806345a59e5b14610b4f5780634cbfa82e14610c4357610202565b80632e125a6c116101e05780632e125a6c1461040d5780632f7f0a12146106a95780633e239b23146107975780633f9be4971461083057610202565b806303ed69331461020757806316724c44146102515780631b610220146102ea575b600080fd5b61020f612131565b604051808273ffffffffffffffffffffffffffffffffffffffff1673ffffffffffffffffffffffffffffffffffffffff16815260200191505060405180910390f35b6102e86004803603604081101561026757600080fd5b810190808035906020019064010000000081111561028457600080fd5b82018360208201111561029657600080fd5b803590602001918460018302840111640100000000831117156102b857600080fd5b9091929391929390803573ffffffffffffffffffffffffffffffffffffffff16906020019092919050505061215a565b005b61040b6004803603606081101561030057600080fd5b810190808035906020019064010000000081111561031d57600080fd5b82018360208201111561032f57600080fd5b8035906020019184600183028401116401000000008311171561035157600080fd5b90919293919293908035906020019064010000000081111561037257600080fd5b82018360208201111561038457600080fd5b803590602001918460018302840111640100000000831117156103a657600080fd5b9091929391929390803590602001906401000000008111156103c757600080fd5b8201836020820111156103d957600080fd5b803590602001918460018302840111640100000000831117156103fb57600080fd5b909192939192939050505061229b565b005b6106a7600480360360c081101561042357600080fd5b810190808035906020019064010000000081111561044057600080fd5b82018360208201111561045257600080fd5b8035906020019184600183028401116401000000008311171561047457600080fd5b91908080601f016020809104026020016040519081016040528093929190818152602001838380828437600081840152601f19601f820116905080830192505050505050509192919290803590602001906401000000008111156104d757600080fd5b8201836020820111156104e957600080fd5b8035906020019184600183028401116401000000008311171561050b57600080fd5b91908080601f016020809104026020016040519081016040528093929190818152602001838380828437600081840152601f19601f8201169050808301925050505050505091929192908035906020019064010000000081111561056e57600080fd5b82018360208201111561058057600080fd5b803590602001918460018302840111640100000000831117156105a257600080fd5b91908080601f016020809104026020016040519081016040528093929190818152602001838380828437600081840152601f19601f8201169050808301925050505050505091929192908035906020019064010000000081111561060557600080fd5b82018360208201111561061757600080fd5b8035906020019184600183028401116401000000008311171561063957600080fd5b91908080601f016020809104026020016040519081016040528093929190818152602001838380828437600081840152601f19601f820116905080830192505050505050509192919290803561ffff169060200190929190803561ffff1690602001909291905050506123df565b005b610795600480360360608110156106bf57600080fd5b81019080803573ffffffffffffffffffffffffffffffffffffffff169060200190929190803590602001906401000000008111156106fc57600080fd5b82018360208201111561070e57600080fd5b8035906020019184600183028401116401000000008311171561073057600080fd5b90919293919293908035906020019064010000000081111561075157600080fd5b82018360208201111561076357600080fd5b8035906020019184600183028401116401000000008311171561078557600080fd5b909192939192939050505061268f565b005b61082e600480360360408110156107ad57600080fd5b81019080803590602001906401000000008111156107ca57600080fd5b8201836020820111156107dc57600080fd5b803590602001918460018302840111640100000000831117156107fe57600080fd5b9091929391929390803573ffffffffffffffffffffffffffffffffffffffff169060200190929190505050612806565b005b610a3d600480360360c081101561084657600080fd5b810190808035906020019064010000000081111561086357600080fd5b82018360208201111561087557600080fd5b8035906020019184600183028401116401000000008311171561089757600080fd5b91908080601f016020809104026020016040519081016040528093929190818152602001838380828437600081840152601f19601f820116905080830192505050505050509192919290803590602001906401000000008111156108fa57600080fd5b82018360208201111561090c57600080fd5b8035906020019184600183028401116401000000008311171561092e57600080fd5b91908080601f016020809104026020016040519081016040528093929190818152602001838380828437600081840152601f19601f8201169050808301925050505050505091929192908035906020019064010000000081111561099157600080fd5b8201836020820111156109a357600080fd5b803590602001918460018302840111640100000000831117156109c557600080fd5b91908080601f016020809104026020016040519081016040528093929190818152602001838380828437600081840152601f19601f820116905080830192505050505050509192919290803561ffff169060200190929190803561ffff16906020019092919080359060200190929190505050612947565b005b610b2b60048036036060811015610a5557600080fd5b8101908080359060200190640100000000811115610a7257600080fd5b820183602082011115610a8457600080fd5b80359060200191846001830284011164010000000083111715610aa657600080fd5b9091929391929390803573ffffffffffffffffffffffffffffffffffffffff16906020019092919080359060200190640100000000811115610ae757600080fd5b820183602082011115610af957600080fd5b80359060200191846001830284011164010000000083111715610b1b57600080fd5b9091929391929390505050612b92565b005b610b35612d09565b604051808215151515815260200191505060405180910390f35b610c2960048036036060811015610b6557600080fd5b8101908080359060200190640100000000811115610b8257600080fd5b820183602082011115610b9457600080fd5b80359060200191846001830284011164010000000083111715610bb657600080fd5b909192939192939080359060200190640100000000811115610bd757600080fd5b820183602082011115610be957600080fd5b80359060200191846001830284011164010000000083111715610c0b57600080fd5b9091929391929390803561ffff169060200190929190505050612dd0565b604051808215151515815260200191505060405180910390f35b610c4b612f16565b604051808215151515815260200191505060405180910390f35b610ca760048036036020811015610c7b57600080fd5b81019080803573ffffffffffffffffffffffffffffffffffffffff169060200190929190505050612fdb565b005b610ceb60048036036020811015610cbf57600080fd5b81019080803573ffffffffffffffffffffffffffffffffffffffff1690602001909291905050506130b2565b005b610f10600480360360c0811015610d0357600080fd5b8101908080359060200190640100000000811115610d2057600080fd5b820183602082011115610d3257600080fd5b80359060200191846001830284011164010000000083111715610d5457600080fd5b91908080601f016020809104026020016040519081016040528093929190818152602001838380828437600081840152601f19601f82011690508083019250505050505050919291929080359060200190640100000000811115610db757600080fd5b820183602082011115610dc957600080fd5b80359060200191846001830284011164010000000083111715610deb57600080fd5b91908080601f016020809104026020016040519081016040528093929190818152602001838380828437600081840152601f19601f82011690508083019250505050505050919291929080359060200190640100000000811115610e4e57600080fd5b820183602082011115610e6057600080fd5b80359060200191846001830284011164010000000083111715610e8257600080fd5b91908080601f016020809104026020016040519081016040528093929190818152602001838380828437600081840152601f19601f820116905080830192505050505050509192919290803561ffff169060200190929190803561ffff169060200190929190803573ffffffffffffffffffffffffffffffffffffffff1690602001909291905050506131ba565b005b611000600480360360a0811015610f2857600080fd5b8101908080359060200190640100000000811115610f4557600080fd5b820183602082011115610f5757600080fd5b80359060200191846001830284011164010000000083111715610f7957600080fd5b909192939192939080359060200190640100000000811115610f9a57600080fd5b820183602082011115610fac57600080fd5b80359060200191846001830284011164010000000083111715610fce57600080fd5b909192939192939080359060200190929190803515159060200190929190803515159060200190929190505050613431565b005b611205600480360360a081101561101857600080fd5b810190808035906020019064010000000081111561103557600080fd5b82018360208201111561104757600080fd5b8035906020019184600183028401116401000000008311171561106957600080fd5b91908080601f016020809104026020016040519081016040528093929190818152602001838380828437600081840152601f19601f820116905080830192505050505050509192919290803590602001906401000000008111156110cc57600080fd5b8201836020820111156110de57600080fd5b8035906020019184600183028401116401000000008311171561110057600080fd5b91908080601f016020809104026020016040519081016040528093929190818152602001838380828437600081840152601f19601f8201169050808301925050505050505091929192908035906020019064010000000081111561116357600080fd5b82018360208201111561117557600080fd5b8035906020019184600183028401116401000000008311171561119757600080fd5b91908080601f016020809104026020016040519081016040528093929190818152602001838380828437600081840152601f19601f820116905080830192505050505050509192919290803561ffff169060200190929190803561ffff169060200190929190505050613596565b005b6112886004803603604081101561121d57600080fd5b810190808035906020019064010000000081111561123a57600080fd5b82018360208201111561124c57600080fd5b8035906020019184600183028401116401000000008311171561126e57600080fd5b9091929391929390803590602001909291905050506137d8565b005b611321600480360360408110156112a057600080fd5b81019080803573ffffffffffffffffffffffffffffffffffffffff169060200190929190803590602001906401000000008111156112dd57600080fd5b8201836020820111156112ef57600080fd5b8035906020019184600183028401116401000000008311171561131157600080fd5b90919293919293905050506138ed565b604051808215151515815260200191505060405180910390f35b6113dc6004803603606081101561135157600080fd5b810190808035906020019064010000000081111561136e57600080fd5b82018360208201111561138057600080fd5b803590602001918460018302840111640100000000831117156113a257600080fd5b9091929391929390803573ffffffffffffffffffffffffffffffffffffffff16906020019092919080359060200190929190505050613a21565b005b61154a600480360360808110156113f457600080fd5b810190808035906020019064010000000081111561141157600080fd5b82018360208201111561142357600080fd5b8035906020019184600183028401116401000000008311171561144557600080fd5b91908080601f016020809104026020016040519081016040528093929190818152602001838380828437600081840152601f19601f820116905080830192505050505050509192919290803590602001906401000000008111156114a857600080fd5b8201836020820111156114ba57600080fd5b803590602001918460018302840111640100000000831117156114dc57600080fd5b91908080601f016020809104026020016040519081016040528093929190818152602001838380828437600081840152601f19601f820116905080830192505050505050509192919290803561ffff169060200190929190803561ffff169060200190929190505050613b6b565b005b61174f600480360360a081101561156257600080fd5b810190808035906020019064010000000081111561157f57600080fd5b82018360208201111561159157600080fd5b803590602001918460018302840111640100000000831117156115b357600080fd5b91908080601f016020809104026020016040519081016040528093929190818152602001838380828437600081840152601f19601f8201169050808301925050505050505091929192908035906020019064010000000081111561161657600080fd5b82018360208201111561162857600080fd5b8035906020019184600183028401116401000000008311171561164a57600080fd5b91908080601f016020809104026020016040519081016040528093929190818152602001838380828437600081840152601f19601f820116905080830192505050505050509192919290803590602001906401000000008111156116ad57600080fd5b8201836020820111156116bf57600080fd5b803590602001918460018302840111640100000000831117156116e157600080fd5b91908080601f016020809104026020016040519081016040528093929190818152602001838380828437600081840152601f19601f820116905080830192505050505050509192919290803561ffff169060200190929190803561ffff169060200190929190505050613d0b565b005b611826600480360360c081101561176757600080fd5b81019080803573ffffffffffffffffffffffffffffffffffffffff169060200190929190803573ffffffffffffffffffffffffffffffffffffffff169060200190929190803590602001909291908035906020019092919080359060200190929190803590602001906401000000008111156117e257600080fd5b8201836020820111156117f457600080fd5b8035906020019184600183028401116401000000008311171561181657600080fd5b9091929391929390505050613f4d565b604051808215151515815260200191505060405180910390f35b6118d76004803603604081101561185657600080fd5b81019080803573ffffffffffffffffffffffffffffffffffffffff1690602001909291908035906020019064010000000081111561189357600080fd5b8201836020820111156118a557600080fd5b803590602001918460018302840111640100000000831117156118c757600080fd5b90919293919293905050506140d1565b604051808215151515815260200191505060405180910390f35b6119276004803603604081101561190757600080fd5b810190808035906020019092919080359060200190929190505050614205565b005b6119f56004803603604081101561193f57600080fd5b810190808035906020019064010000000081111561195c57600080fd5b82018360208201111561196e57600080fd5b8035906020019184600183028401116401000000008311171561199057600080fd5b9091929391929390803590602001906401000000008111156119b157600080fd5b8201836020820111156119c357600080fd5b803590602001918460018302840111640100000000831117156119e557600080fd5b90919293919293905050506142b9565b005b611a8e60048036036040811015611a0d57600080fd5b8101908080359060200190640100000000811115611a2a57600080fd5b820183602082011115611a3c57600080fd5b80359060200191846001830284011164010000000083111715611a5e57600080fd5b9091929391929390803573ffffffffffffffffffffffffffffffffffffffff1690602001909291905050506143fb565b005b611b1160048036036040811015611aa657600080fd5b8101908080359060200190640100000000811115611ac357600080fd5b820183602082011115611ad557600080fd5b80359060200191846001830284011164010000000083111715611af757600080fd5b90919293919293908035906020019092919050505061453c565b005b611b5560048036036020811015611b2957600080fd5b81019080803573ffffffffffffffffffffffffffffffffffffffff169060200190929190505050614651565b604051808215151515815260200191505060405180910390f35b611d72600480360360a0811015611b8557600080fd5b8101908080359060200190640100000000811115611ba257600080fd5b820183602082011115611bb457600080fd5b80359060200191846001830284011164010000000083111715611bd657600080fd5b91908080601f016020809104026020016040519081016040528093929190818152602001838380828437600081840152601f19601f82011690508083019250505050505050919291929080359060200190640100000000811115611c3957600080fd5b820183602082011115611c4b57600080fd5b80359060200191846001830284011164010000000083111715611c6d57600080fd5b91908080601f016020809104026020016040519081016040528093929190818152602001838380828437600081840152601f19601f82011690508083019250505050505050919291929080359060200190640100000000811115611cd057600080fd5b820183602082011115611ce257600080fd5b80359060200191846001830284011164010000000083111715611d0457600080fd5b91908080601f016020809104026020016040519081016040528093929190818152602001838380828437600081840152601f19601f820116905080830192505050505050509192919290803561ffff169060200190929190803561ffff16906020019092919050505061474f565b005b611deb60048036036020811015611d8a57600080fd5b8101908080359060200190640100000000811115611da757600080fd5b820183602082011115611db957600080fd5b80359060200191846001830284011164010000000083111715611ddb57600080fd5b9091929391929390505050614991565b6040518080602001806020018573ffffffffffffffffffffffffffffffffffffffff1673ffffffffffffffffffffffffffffffffffffffff168152602001848152602001838103835287818151815260200191508051906020019080838360005b83811015611e67578082015181840152602081019050611e4c565b50505050905090810190601f168015611e945780820380516001836020036101000a031916815260200191505b50838103825286818151815260200191508051906020019080838360005b83811015611ecd578082015181840152602081019050611eb2565b50505050905090810190601f168015611efa5780820380516001836020036101000a031916815260200191505b50965050505050505060405180910390f35b61212f600480360360c0811015611f2257600080fd5b8101908080359060200190640100000000811115611f3f57600080fd5b820183602082011115611f5157600080fd5b80359060200191846001830284011164010000000083111715611f7357600080fd5b91908080601f016020809104026020016040519081016040528093929190818152602001838380828437600081840152601f19601f82011690508083019250505050505050919291929080359060200190640100000000811115611fd657600080fd5b820183602082011115611fe857600080fd5b8035906020019184600183028401116401000000008311171561200a57600080fd5b91908080601f016020809104026020016040519081016040528093929190818152602001838380828437600081840152601f19601f8201169050808301925050505050505091929192908035906020019064010000000081111561206d57600080fd5b82018360208201111561207f57600080fd5b803590602001918460018302840111640100000000831117156120a157600080fd5b91908080601f016020809104026020016040519081016040528093929190818152602001838380828437600081840152601f19601f820116905080830192505050505050509192919290803561ffff169060200190929190803561ffff169060200190929190803573ffffffffffffffffffffffffffffffffffffffff169060200190929190505050614b59565b005b60008060009054906101000a900473ffffffffffffffffffffffffffffffffffffffff16905090565b6000809054906101000a900473ffffffffffffffffffffffffffffffffffffffff1673ffffffffffffffffffffffffffffffffffffffff166388843041848484336040518563ffffffff167c010000000000000000000000000000000000000000000000000000000002815260040180806020018473ffffffffffffffffffffffffffffffffffffffff1673ffffffffffffffffffffffffffffffffffffffff1681526020018373ffffffffffffffffffffffffffffffffffffffff1673ffffffffffffffffffffffffffffffffffffffff1681526020018281038252868682818152602001925080828437600081840152601f19601f82011690508083019250505095505050505050600060405180830381600087803b15801561227e57600080fd5b505af1158015612292573d6000803e3d6000fd5b50505050505050565b6000809054906101000a900473ffffffffffffffffffffffffffffffffffffffff1673ffffffffffffffffffffffffffffffffffffffff16631b6102208787878787876040518763ffffffff167c01000000000000000000000000000000000000000000000000000000000281526004018080602001806020018060200184810384528a8a82818152602001925080828437600081840152601f19601f8201169050808301925050508481038352888882818152602001925080828437600081840152601f19601f8201169050808301925050508481038252868682818152602001925080828437600081840152601f19601f8201169050808301925050509950505050505050505050600060405180830381600087803b1580156123bf57600080fd5b505af11580156123d3573d6000803e3d6000fd5b50505050505050505050565b6000809054906101000a900473ffffffffffffffffffffffffffffffffffffffff1673ffffffffffffffffffffffffffffffffffffffff166368a61273878787878787336040518863ffffffff167c010000000000000000000000000000000000000000000000000000000002815260040180806020018060200180602001806020018861ffff1661ffff1681526020018761ffff1661ffff1681526020018673ffffffffffffffffffffffffffffffffffffffff1673ffffffffffffffffffffffffffffffffffffffff16815260200185810385528c818151815260200191508051906020019080838360005b838110156124e85780820151818401526020810190506124cd565b50505050905090810190601f1680156125155780820380516001836020036101000a031916815260200191505b5085810384528b818151815260200191508051906020019080838360005b8381101561254e578082015181840152602081019050612533565b50505050905090810190601f16801561257b5780820380516001836020036101000a031916815260200191505b5085810383528a818151815260200191508051906020019080838360005b838110156125b4578082015181840152602081019050612599565b50505050905090810190601f1680156125e15780820380516001836020036101000a031916815260200191505b50858103825289818151815260200191508051906020019080838360005b8381101561261a5780820151818401526020810190506125ff565b50505050905090810190601f1680156126475780820380516001836020036101000a031916815260200191505b509b505050505050505050505050600060405180830381600087803b15801561266f57600080fd5b505af1158015612683573d6000803e3d6000fd5b50505050505050505050565b6000809054906101000a900473ffffffffffffffffffffffffffffffffffffffff1673ffffffffffffffffffffffffffffffffffffffff16638baa81918686868686336040518763ffffffff167c0100000000000000000000000000000000000000000000000000000000028152600401808773ffffffffffffffffffffffffffffffffffffffff1673ffffffffffffffffffffffffffffffffffffffff16815260200180602001806020018473ffffffffffffffffffffffffffffffffffffffff1673ffffffffffffffffffffffffffffffffffffffff1681526020018381038352888882818152602001925080828437600081840152601f19601f8201169050808301925050508381038252868682818152602001925080828437600081840152601f19601f82011690508083019250505098505050505050505050600060405180830381600087803b1580156127e757600080fd5b505af11580156127fb573d6000803e3d6000fd5b505050505050505050565b6000809054906101000a900473ffffffffffffffffffffffffffffffffffffffff1673ffffffffffffffffffffffffffffffffffffffff16634b20f45f848484336040518563ffffffff167c010000000000000000000000000000000000000000000000000000000002815260040180806020018473ffffffffffffffffffffffffffffffffffffffff1673ffffffffffffffffffffffffffffffffffffffff1681526020018373ffffffffffffffffffffffffffffffffffffffff1673ffffffffffffffffffffffffffffffffffffffff1681526020018281038252868682818152602001925080828437600081840152601f19601f82011690508083019250505095505050505050600060405180830381600087803b15801561292a57600080fd5b505af115801561293e573d6000803e3d6000fd5b50505050505050565b6000809054906101000a900473ffffffffffffffffffffffffffffffffffffffff1673ffffffffffffffffffffffffffffffffffffffff1663b9b7fe6c878787878787336040518863ffffffff167c0100000000000000000000000000000000000000000000000000000000028152600401808060200180602001806020018861ffff1661ffff1681526020018761ffff1661ffff1681526020018681526020018573ffffffffffffffffffffffffffffffffffffffff1673ffffffffffffffffffffffffffffffffffffffff16815260200184810384528b818151815260200191508051906020019080838360005b83811015612a52578082015181840152602081019050612a37565b50505050905090810190601f168015612a7f5780820380516001836020036101000a031916815260200191505b5084810383528a818151815260200191508051906020019080838360005b83811015612ab8578082015181840152602081019050612a9d565b50505050905090810190601f168015612ae55780820380516001836020036101000a031916815260200191505b50848103825289818151815260200191508051906020019080838360005b83811015612b1e578082015181840152602081019050612b03565b50505050905090810190601f168015612b4b5780820380516001836020036101000a031916815260200191505b509a5050505050505050505050600060405180830381600087803b158015612b7257600080fd5b505af1158015612b86573d6000803e3d6000fd5b50505050505050505050565b6000809054906101000a900473ffffffffffffffffffffffffffffffffffffffff1673ffffffffffffffffffffffffffffffffffffffff1663404bf3eb8686868686336040518763ffffffff167c010000000000000000000000000000000000000000000000000000000002815260040180806020018673ffffffffffffffffffffffffffffffffffffffff1673ffffffffffffffffffffffffffffffffffffffff168152602001806020018473ffffffffffffffffffffffffffffffffffffffff1673ffffffffffffffffffffffffffffffffffffffff1681526020018381038352898982818152602001925080828437600081840152601f19601f8201169050808301925050508381038252868682818152602001925080828437600081840152601f19601f82011690508083019250505098505050505050505050600060405180830381600087803b158015612cea57600080fd5b505af1158015612cfe573d6000803e3d6000fd5b505050505050505050565b60008060009054906101000a900473ffffffffffffffffffffffffffffffffffffffff1673ffffffffffffffffffffffffffffffffffffffff166344478e796040518163ffffffff167c0100000000000000000000000000000000000000000000000000000000028152600401602060405180830381600087803b158015612d9057600080fd5b505af1158015612da4573d6000803e3d6000fd5b505050506040513d6020811015612dba57600080fd5b8101908080519060200190929190505050905090565b60008060009054906101000a900473ffffffffffffffffffffffffffffffffffffffff1673ffffffffffffffffffffffffffffffffffffffff166345a59e5b87878787876040518663ffffffff167c01000000000000000000000000000000000000000000000000000000000281526004018080602001806020018461ffff1661ffff1681526020018381038352888882818152602001925080828437600081840152601f19601f8201169050808301925050508381038252868682818152602001925080828437600081840152601f19601f82011690508083019250505097505050505050505060206040518083038186803b158015612ed057600080fd5b505afa158015612ee4573d6000803e3d6000fd5b505050506040513d6020811015612efa57600080fd5b8101908080519060200190929190505050905095945050505050565b60008060009054906101000a900473ffffffffffffffffffffffffffffffffffffffff1673ffffffffffffffffffffffffffffffffffffffff16634cbfa82e6040518163ffffffff167c010000000000000000000000000000000000000000000000000000000002815260040160206040518083038186803b158015612f9b57600080fd5b505afa158015612faf573d6000803e3d6000fd5b505050506040513d6020811015612fc557600080fd5b8101908080519060200190929190505050905090565b6000809054906101000a900473ffffffffffffffffffffffffffffffffffffffff1673ffffffffffffffffffffffffffffffffffffffff16634fe57e7a826040518263ffffffff167c0100000000000000000000000000000000000000000000000000000000028152600401808273ffffffffffffffffffffffffffffffffffffffff1673ffffffffffffffffffffffffffffffffffffffff168152602001915050600060405180830381600087803b15801561309757600080fd5b505af11580156130ab573d6000803e3d6000fd5b5050505050565b600260009054906101000a900473ffffffffffffffffffffffffffffffffffffffff1673ffffffffffffffffffffffffffffffffffffffff163373ffffffffffffffffffffffffffffffffffffffff16141515613177576040517f08c379a000000000000000000000000000000000000000000000000000000000815260040180806020018281038252600e8152602001807f696e76616c69642063616c6c657200000000000000000000000000000000000081525060200191505060405180910390fd5b806000806101000a81548173ffffffffffffffffffffffffffffffffffffffff021916908373ffffffffffffffffffffffffffffffffffffffff16021790555050565b6000809054906101000a900473ffffffffffffffffffffffffffffffffffffffff1673ffffffffffffffffffffffffffffffffffffffff1663e91b0e19878787878787336040518863ffffffff167c0100000000000000000000000000000000000000000000000000000000028152600401808060200180602001806020018861ffff1661ffff1681526020018761ffff1661ffff1681526020018673ffffffffffffffffffffffffffffffffffffffff1673ffffffffffffffffffffffffffffffffffffffff1681526020018573ffffffffffffffffffffffffffffffffffffffff1673ffffffffffffffffffffffffffffffffffffffff16815260200184810384528b818151815260200191508051906020019080838360005b838110156132f15780820151818401526020810190506132d6565b50505050905090810190601f16801561331e5780820380516001836020036101000a031916815260200191505b5084810383528a818151815260200191508051906020019080838360005b8381101561335757808201518184015260208101905061333c565b50505050905090810190601f1680156133845780820380516001836020036101000a031916815260200191505b50848103825289818151815260200191508051906020019080838360005b838110156133bd5780820151818401526020810190506133a2565b50505050905090810190601f1680156133ea5780820380516001836020036101000a031916815260200191505b509a5050505050505050505050600060405180830381600087803b15801561341157600080fd5b505af1158015613425573d6000803e3d6000fd5b50505050505050505050565b6000809054906101000a900473ffffffffffffffffffffffffffffffffffffffff1673ffffffffffffffffffffffffffffffffffffffff16631b04c27688888888888888336040518963ffffffff167c010000000000000000000000000000000000000000000000000000000002815260040180806020018060200187815260200186151515158152602001851515151581526020018473ffffffffffffffffffffffffffffffffffffffff1673ffffffffffffffffffffffffffffffffffffffff16815260200183810383528b8b82818152602001925080828437600081840152601f19601f8201169050808301925050508381038252898982818152602001925080828437600081840152601f19601f8201169050808301925050509a5050505050505050505050600060405180830381600087803b15801561357557600080fd5b505af1158015613589573d6000803e3d6000fd5b5050505050505050505050565b6000809054906101000a900473ffffffffffffffffffffffffffffffffffffffff1673ffffffffffffffffffffffffffffffffffffffff1663a042bf408686868686336040518763ffffffff167c0100000000000000000000000000000000000000000000000000000000028152600401808060200180602001806020018761ffff1661ffff1681526020018661ffff1661ffff1681526020018573ffffffffffffffffffffffffffffffffffffffff1673ffffffffffffffffffffffffffffffffffffffff16815260200184810384528a818151815260200191508051906020019080838360005b8381101561369a57808201518184015260208101905061367f565b50505050905090810190601f1680156136c75780820380516001836020036101000a031916815260200191505b50848103835289818151815260200191508051906020019080838360005b838110156137005780820151818401526020810190506136e5565b50505050905090810190601f16801561372d5780820380516001836020036101000a031916815260200191505b50848103825288818151815260200191508051906020019080838360005b8381101561376657808201518184015260208101905061374b565b50505050905090810190601f1680156137935780820380516001836020036101000a031916815260200191505b509950505050505050505050600060405180830381600087803b1580156137b957600080fd5b505af11580156137cd573d6000803e3d6000fd5b505050505050505050565b6000809054906101000a900473ffffffffffffffffffffffffffffffffffffffff1673ffffffffffffffffffffffffffffffffffffffff1663b5546564848484336040518563ffffffff167c010000000000000000000000000000000000000000000000000000000002815260040180806020018481526020018373ffffffffffffffffffffffffffffffffffffffff1673ffffffffffffffffffffffffffffffffffffffff1681526020018281038252868682818152602001925080828437600081840152601f19601f82011690508083019250505095505050505050600060405180830381600087803b1580156138d057600080fd5b505af11580156138e4573d6000803e3d6000fd5b50505050505050565b60008060009054906101000a900473ffffffffffffffffffffffffffffffffffffffff1673ffffffffffffffffffffffffffffffffffffffff16636b568d768585856040518463ffffffff167c0100000000000000000000000000000000000000000000000000000000028152600401808473ffffffffffffffffffffffffffffffffffffffff1673ffffffffffffffffffffffffffffffffffffffff168152602001806020018281038252848482818152602001925080828437600081840152601f19601f82011690508083019250505094505050505060206040518083038186803b1580156139dd57600080fd5b505afa1580156139f1573d6000803e3d6000fd5b505050506040513d6020811015613a0757600080fd5b810190808051906020019092919050505090509392505050565b6000809054906101000a900473ffffffffffffffffffffffffffffffffffffffff1673ffffffffffffffffffffffffffffffffffffffff166304e81f1e85858585336040518663ffffffff167c010000000000000000000000000000000000000000000000000000000002815260040180806020018573ffffffffffffffffffffffffffffffffffffffff1673ffffffffffffffffffffffffffffffffffffffff1681526020018481526020018373ffffffffffffffffffffffffffffffffffffffff1673ffffffffffffffffffffffffffffffffffffffff1681526020018281038252878782818152602001925080828437600081840152601f19601f8201169050808301925050509650505050505050600060405180830381600087803b158015613b4d57600080fd5b505af1158015613b61573d6000803e3d6000fd5b5050505050505050565b6000809054906101000a900473ffffffffffffffffffffffffffffffffffffffff1673ffffffffffffffffffffffffffffffffffffffff16638683c7fe858585856040518563ffffffff167c01000000000000000000000000000000000000000000000000000000000281526004018080602001806020018561ffff1661ffff1681526020018461ffff1661ffff168152602001838103835287818151815260200191508051906020019080838360005b83811015613c37578082015181840152602081019050613c1c565b50505050905090810190601f168015613c645780820380516001836020036101000a031916815260200191505b50838103825286818151815260200191508051906020019080838360005b83811015613c9d578082015181840152602081019050613c82565b50505050905090810190601f168015613cca5780820380516001836020036101000a031916815260200191505b509650505050505050600060405180830381600087803b158015613ced57600080fd5b505af1158015613d01573d6000803e3d6000fd5b5050505050505050565b6000809054906101000a900473ffffffffffffffffffffffffffffffffffffffff1673ffffffffffffffffffffffffffffffffffffffff1663d621d9578686868686336040518763ffffffff167c0100000000000000000000000000000000000000000000000000000000028152600401808060200180602001806020018761ffff1661ffff1681526020018661ffff1661ffff1681526020018573ffffffffffffffffffffffffffffffffffffffff1673ffffffffffffffffffffffffffffffffffffffff16815260200184810384528a818151815260200191508051906020019080838360005b83811015613e0f578082015181840152602081019050613df4565b50505050905090810190601f168015613e3c5780820380516001836020036101000a031916815260200191505b50848103835289818151815260200191508051906020019080838360005b83811015613e75578082015181840152602081019050613e5a565b50505050905090810190601f168015613ea25780820380516001836020036101000a031916815260200191505b50848103825288818151815260200191508051906020019080838360005b83811015613edb578082015181840152602081019050613ec0565b50505050905090810190601f168015613f085780820380516001836020036101000a031916815260200191505b509950505050505050505050600060405180830381600087803b158015613f2e57600080fd5b505af1158015613f42573d6000803e3d6000fd5b505050505050505050565b60008060009054906101000a900473ffffffffffffffffffffffffffffffffffffffff1673ffffffffffffffffffffffffffffffffffffffff1663936421d5898989898989896040518863ffffffff167c0100000000000000000000000000000000000000000000000000000000028152600401808873ffffffffffffffffffffffffffffffffffffffff1673ffffffffffffffffffffffffffffffffffffffff1681526020018773ffffffffffffffffffffffffffffffffffffffff1673ffffffffffffffffffffffffffffffffffffffff168152602001868152602001858152602001848152602001806020018281038252848482818152602001925080828437600081840152601f19601f8201169050808301925050509850505050505050505060206040518083038186803b15801561408957600080fd5b505afa15801561409d573d6000803e3d6000fd5b505050506040513d60208110156140b357600080fd5b81019080805190602001909291905050509050979650505050505050565b60008060009054906101000a900473ffffffffffffffffffffffffffffffffffffffff1673ffffffffffffffffffffffffffffffffffffffff16639bd381018585856040518463ffffffff167c0100000000000000000000000000000000000000000000000000000000028152600401808473ffffffffffffffffffffffffffffffffffffffff1673ffffffffffffffffffffffffffffffffffffffff168152602001806020018281038252848482818152602001925080828437600081840152601f19601f82011690508083019250505094505050505060206040518083038186803b1580156141c157600080fd5b505afa1580156141d5573d6000803e3d6000fd5b505050506040513d60208110156141eb57600080fd5b810190808051906020019092919050505090509392505050565b6000809054906101000a900473ffffffffffffffffffffffffffffffffffffffff1673ffffffffffffffffffffffffffffffffffffffff1663a5843f0883836040518363ffffffff167c01000000000000000000000000000000000000000000000000000000000281526004018083815260200182815260200192505050600060405180830381600087803b15801561429d57600080fd5b505af11580156142b1573d6000803e3d6000fd5b505050505050565b6000809054906101000a900473ffffffffffffffffffffffffffffffffffffffff1673ffffffffffffffffffffffffffffffffffffffff16635ca5adbe85858585336040518663ffffffff167c01000000000000000000000000000000000000000000000000000000000281526004018080602001806020018473ffffffffffffffffffffffffffffffffffffffff1673ffffffffffffffffffffffffffffffffffffffff1681526020018381038352888882818152602001925080828437600081840152601f19601f8201169050808301925050508381038252868682818152602001925080828437600081840152601f19601f820116905080830192505050975050505050505050600060405180830381600087803b1580156143dd57600080fd5b505af11580156143f1573d6000803e3d6000fd5b5050505050505050565b6000809054906101000a900473ffffffffffffffffffffffffffffffffffffffff1673ffffffffffffffffffffffffffffffffffffffff16631c249912848484336040518563ffffffff167c010000000000000000000000000000000000000000000000000000000002815260040180806020018473ffffffffffffffffffffffffffffffffffffffff1673ffffffffffffffffffffffffffffffffffffffff1681526020018373ffffffffffffffffffffffffffffffffffffffff1673ffffffffffffffffffffffffffffffffffffffff1681526020018281038252868682818152602001925080828437600081840152601f19601f82011690508083019250505095505050505050600060405180830381600087803b15801561451f57600080fd5b505af1158015614533573d6000803e3d6000fd5b50505050505050565b6000809054906101000a900473ffffffffffffffffffffffffffffffffffffffff1673ffffffffffffffffffffffffffffffffffffffff16633cf5f33b848484336040518563ffffffff167c010000000000000000000000000000000000000000000000000000000002815260040180806020018481526020018373ffffffffffffffffffffffffffffffffffffffff1673ffffffffffffffffffffffffffffffffffffffff1681526020018281038252868682818152602001925080828437600081840152601f19601f82011690508083019250505095505050505050600060405180830381600087803b15801561463457600080fd5b505af1158015614648573d6000803e3d6000fd5b50505050505050565b60008060009054906101000a900473ffffffffffffffffffffffffffffffffffffffff1673ffffffffffffffffffffffffffffffffffffffff1663d1aa0c20836040518263ffffffff167c0100000000000000000000000000000000000000000000000000000000028152600401808273ffffffffffffffffffffffffffffffffffffffff1673ffffffffffffffffffffffffffffffffffffffff16815260200191505060206040518083038186803b15801561470d57600080fd5b505afa158015614721573d6000803e3d6000fd5b505050506040513d602081101561473757600080fd5b81019080805190602001909291905050509050919050565b6000809054906101000a900473ffffffffffffffffffffffffffffffffffffffff1673ffffffffffffffffffffffffffffffffffffffff1663ecad01d58686868686336040518763ffffffff167c0100000000000000000000000000000000000000000000000000000000028152600401808060200180602001806020018761ffff1661ffff1681526020018661ffff1661ffff1681526020018573ffffffffffffffffffffffffffffffffffffffff1673ffffffffffffffffffffffffffffffffffffffff16815260200184810384528a818151815260200191508051906020019080838360005b83811015614853578082015181840152602081019050614838565b50505050905090810190601f1680156148805780820380516001836020036101000a031916815260200191505b50848103835289818151815260200191508051906020019080838360005b838110156148b957808201518184015260208101905061489e565b50505050905090810190601f1680156148e65780820380516001836020036101000a031916815260200191505b50848103825288818151815260200191508051906020019080838360005b8381101561491f578082015181840152602081019050614904565b50505050905090810190601f16801561494c5780820380516001836020036101000a031916815260200191505b509950505050505050505050600060405180830381600087803b15801561497257600080fd5b505af1158015614986573d6000803e3d6000fd5b505050505050505050565b6060806000806000809054906101000a900473ffffffffffffffffffffffffffffffffffffffff1673ffffffffffffffffffffffffffffffffffffffff1663f346a3a787876040518363ffffffff167c010000000000000000000000000000000000000000000000000000000002815260040180806020018281038252848482818152602001925080828437600081840152601f19601f820116905080830192505050935050505060006040518083038186803b158015614a5157600080fd5b505afa158015614a65573d6000803e3d6000fd5b505050506040513d6000823e3d601f19601f820116820180604052506080811015614a8f57600080fd5b810190808051640100000000811115614aa757600080fd5b82810190506020810184811115614abd57600080fd5b8151856001820283011164010000000082111715614ada57600080fd5b50509291906020018051640100000000811115614af657600080fd5b82810190506020810184811115614b0c57600080fd5b8151856001820283011164010000000082111715614b2957600080fd5b50509291906020018051906020019092919080519060200190929190505050935093509350935092959194509250565b6000809054906101000a900473ffffffffffffffffffffffffffffffffffffffff1673ffffffffffffffffffffffffffffffffffffffff1663f75f0a06878787878787336040518863ffffffff167c0100000000000000000000000000000000000000000000000000000000028152600401808060200180602001806020018861ffff1661ffff1681526020018761ffff1661ffff1681526020018673ffffffffffffffffffffffffffffffffffffffff1673ffffffffffffffffffffffffffffffffffffffff1681526020018573ffffffffffffffffffffffffffffffffffffffff1673ffffffffffffffffffffffffffffffffffffffff16815260200184810384528b818151815260200191508051906020019080838360005b83811015614c90578082015181840152602081019050614c75565b50505050905090810190601f168015614cbd5780820380516001836020036101000a031916815260200191505b5084810383528a818151815260200191508051906020019080838360005b83811015614cf6578082015181840152602081019050614cdb565b50505050905090810190601f168015614d235780820380516001836020036101000a031916815260200191505b50848103825289818151815260200191508051906020019080838360005b83811015614d5c578082015181840152602081019050614d41565b50505050905090810190601f168015614d895780820380516001836020036101000a031916815260200191505b509a5050505050505050505050600060405180830381600087803b158015614db057600080fd5b505af1158015614dc4573d6000803e3d6000fd5b5050505050505050505056fea165627a7a723058208fa67f538f86de7050247a16cead6e497a570115fd61f2aecdb8f089ddb767420029",
  "source": "pragma solidity ^0.5.3;\n\nimport \"./PermissionsImplementation.sol\";\nimport \"./PermissionsUpgradable.sol\";\n\n/** @title Permissions Interface Contract\n  * @notice This contract is the interface for permissions implementation\n    contract. for any call, it forwards the call to the implementation\n    contract\n  */\ncontract PermissionsInterface {\n    PermissionsImplementation private permImplementation;\n    PermissionsUpgradable private permUpgradable;\n    address private permImplUpgradeable;\n\n    /** @notice constructor\n      * @param _permImplUpgradeable permissions upgradable contract address\n      */\n    constructor(address _permImplUpgradeable) public {\n        permImplUpgradeable = _permImplUpgradeable;\n    }\n\n    /** @notice confirms that the caller is the address of upgradable\n        contract\n      */\n    modifier onlyUpgradeable {\n        require(msg.sender == permImplUpgradeable, \"invalid caller\");\n        _;\n    }\n\n    /** @notice interface for setting the permissions policy in implementation\n      * @param _nwAdminOrg network admin organization id\n      * @param _nwAdminRole default network admin role id\n      * @param _oAdminRole default organization admin role id\n      */\n    function setPolicy(string calldata _nwAdminOrg, string calldata _nwAdminRole,\n        string calldata _oAdminRole) external {\n        permImplementation.setPolicy(_nwAdminOrg, _nwAdminRole, _oAdminRole);\n    }\n\n    /** @notice interface to initializes the breadth and depth values for\n        sub organization management\n      * @param _breadth controls the number of sub org a parent org can have\n      * @param _depth controls the depth of nesting allowed for sub orgs\n      */\n    function init(uint256 _breadth, uint256 _depth) external {\n        permImplementation.init(_breadth, _depth);\n    }\n\n    /** @notice interface to add new node to an admin organization\n      * @param _enodeId enode id of the node to be added\n      * @param _ip IP of node\n      * @param _port tcp port of node\n      * @param _raftport raft port of node\n      */\n    function addAdminNode(string memory _enodeId, string memory _ip, uint16 _port, uint16 _raftport) public {\n        permImplementation.addAdminNode(_enodeId, _ip, _port, _raftport);\n    }\n\n    /** @notice interface to add accounts to an admin organization\n      * @param _acct account address to be added\n      */\n    function addAdminAccount(address _acct) external {\n        permImplementation.addAdminAccount(_acct);\n    }\n\n    /** @notice interface to update network boot up status\n      * @return bool true or false\n      */\n    function updateNetworkBootStatus() external\n    returns (bool)\n    {\n        return permImplementation.updateNetworkBootStatus();\n    }\n\n    /** @notice interface to fetch network boot status\n      * @return bool network boot status\n      */\n    function getNetworkBootStatus() external view returns (bool){\n        return permImplementation.getNetworkBootStatus();\n    }\n\n    /** @notice interface to add a new organization to the network\n      * @param _orgId unique organization id\n      * @param _enodeId enode id linked to the organization\n      * @param _ip IP of node\n      * @param _port tcp port of node\n      * @param _raftport raft port of node\n      * @param _account account id. this will have the org admin privileges\n      */\n    function addOrg(string memory _orgId, string memory _enodeId, string memory _ip, uint16 _port, uint16 _raftport,\n        address _account) public {\n        permImplementation.addOrg(_orgId, _enodeId, _ip, _port, _raftport, _account, msg.sender);\n    }\n\n    /** @notice interface to approve a newly added organization\n      * @param _orgId unique organization id\n      * @param _enodeId enode id linked to the organization\n      * @param _ip IP of node\n      * @param _port tcp port of node\n      * @param _raftport raft port of node\n      * @param _account account id this will have the org admin privileges\n      */\n    function approveOrg(string memory _orgId, string memory _enodeId, string memory _ip, uint16 _port, uint16 _raftport,\n        address _account) public {\n        permImplementation.approveOrg(_orgId, _enodeId, _ip, _port, _raftport, _account, msg.sender);\n    }\n\n    /** @notice interface to add sub org under an org\n      * @param _pOrgId parent org id under which the sub org is being added\n      * @param _orgId unique id for the sub organization\n      * @param _enodeId enode id linked to the sjb organization\n      * @param _ip IP of node\n      * @param _port tcp port of node\n      * @param _raftport raft port of node\n      */\n    function addSubOrg(string memory _pOrgId, string memory _orgId,\n        string memory _enodeId, string memory _ip, uint16 _port, uint16 _raftport) public {\n        permImplementation.addSubOrg(_pOrgId, _orgId, _enodeId, _ip, _port, _raftport, msg.sender);\n    }\n\n    /** @notice interface to update the org status\n      * @param _orgId unique id of the organization\n      * @param _action 1 for suspending an org and 2 for revoke of suspension\n      */\n    function updateOrgStatus(string calldata _orgId, uint256 _action) external {\n        permImplementation.updateOrgStatus(_orgId, _action, msg.sender);\n    }\n\n    /** @notice interface to approve org status change\n      * @param _orgId unique id for the sub organization\n      * @param _action 1 for suspending an org and 2 for revoke of suspension\n      */\n    function approveOrgStatus(string calldata _orgId, uint256 _action) external {\n        permImplementation.approveOrgStatus(_orgId, _action, msg.sender);\n    }\n\n    /** @notice interface to add a new role definition to an organization\n      * @param _roleId unique id for the role\n      * @param _orgId unique id of the organization to which the role belongs\n      * @param _access account access type for the role\n      * @param _voter bool indicates if the role is voter role or not\n      * @param _admin bool indicates if the role is an admin role\n      * @dev account access type can have of the following four values:\n            0 - Read only\n            1 - Transact access\n            2 - Contract deployment access. Can transact as well\n            3 - Full access\n      */\n    function addNewRole(string calldata _roleId, string calldata _orgId,\n        uint256 _access, bool _voter, bool _admin) external {\n        permImplementation.addNewRole(_roleId, _orgId, _access, _voter, _admin, msg.sender);\n    }\n\n    /** @notice interface to remove a role definition from an organization\n      * @param _roleId unique id for the role\n      * @param _orgId unique id of the organization to which the role belongs\n      */\n    function removeRole(string calldata _roleId, string calldata _orgId) external {\n        permImplementation.removeRole(_roleId, _orgId, msg.sender);\n    }\n\n    /** @notice interface to assign network admin/org admin role to an account\n        this can be executed by network admin accounts only\n      * @param _orgId unique id of the organization to which the account belongs\n      * @param _account account id\n      * @param _roleId role id to be assigned to the account\n      */\n    function assignAdminRole(string calldata _orgId, address _account,\n        string calldata _roleId) external {\n        permImplementation.assignAdminRole(_orgId, _account, _roleId, msg.sender);\n\n    }\n    /** @notice interface to approve network admin/org admin role assigment\n        this can be executed by network admin accounts only\n      * @param _orgId unique id of the organization to which the account belongs\n      * @param _account account id\n      */\n    function approveAdminRole(string calldata _orgId, address _account) external {\n        permImplementation.approveAdminRole(_orgId, _account, msg.sender);\n\n    }\n\n    /** @notice interface to update account status\n        this can be executed by org admin accounts only\n      * @param _orgId unique id of the organization to which the account belongs\n      * @param _account account id\n      * @param _action 1-suspending 2-activating back 3-blacklisting\n      */\n    function updateAccountStatus(string calldata _orgId, address _account,\n        uint256 _action) external {\n        permImplementation.updateAccountStatus(_orgId, _account, _action, msg.sender);\n    }\n\n    /** @notice interface to add a new node to the organization\n      * @param _orgId unique id of the organization to which the account belongs\n      * @param _enodeId enode id being dded to the org\n      * @param _ip IP of node\n      * @param _port tcp port of node\n      * @param _raftport raft port of node\n      */\n    function addNode(string memory _orgId, string memory _enodeId, string memory _ip, uint16 _port, uint16 _raftport) public {\n        permImplementation.addNode(_orgId, _enodeId, _ip, _port, _raftport, msg.sender);\n\n    }\n\n    /** @notice interface to update node status\n      * @param _orgId unique id of the organization to which the account belongs\n      * @param _enodeId enode id being dded to the org\n      * @param _ip IP of node\n      * @param _port tcp port of node\n      * @param _raftport raft port of node\n      * @param _action 1-deactivate, 2-activate back, 3-blacklist the node\n      */\n    function updateNodeStatus(string memory _orgId, string memory _enodeId, string memory _ip, uint16 _port, uint16 _raftport,\n        uint256 _action) public {\n        permImplementation.updateNodeStatus(_orgId, _enodeId, _ip, _port, _raftport, _action, msg.sender);\n    }\n\n    /** @notice interface to initiate blacklisted node recovery\n      * @param _orgId unique id of the organization to which the account belongs\n      * @param _enodeId enode id being recovered\n      * @param _ip IP of node\n      * @param _port tcp port of node\n      * @param _raftport raft port of node\n      */\n    function startBlacklistedNodeRecovery(string memory _orgId, string memory _enodeId, string memory _ip, uint16 _port, uint16 _raftport)\n    public {\n        permImplementation.startBlacklistedNodeRecovery(_orgId, _enodeId, _ip, _port, _raftport, msg.sender);\n    }\n\n    /** @notice interface to approve blacklisted node recoevry\n      * @param _orgId unique id of the organization to which the account belongs\n      * @param _enodeId enode id being recovered\n      * @param _ip IP of node\n      * @param _port tcp port of node\n      * @param _raftport raft port of node\n      */\n    function approveBlacklistedNodeRecovery(string memory _orgId, string memory _enodeId, string memory _ip, uint16 _port, uint16 _raftport)\n    public {\n        permImplementation.approveBlacklistedNodeRecovery(_orgId, _enodeId, _ip, _port, _raftport, msg.sender);\n    }\n\n    /** @notice interface to initiate blacklisted account recovery\n      * @param _orgId unique id of the organization to which the account belongs\n      * @param _account account id being recovered\n      */\n    function startBlacklistedAccountRecovery(string calldata _orgId, address _account)\n    external {\n        permImplementation.startBlacklistedAccountRecovery(_orgId, _account, msg.sender);\n    }\n\n    /** @notice interface to approve blacklisted node recovery\n      * @param _orgId unique id of the organization to which the account belongs\n      * @param _account account id being recovered\n      */\n    function approveBlacklistedAccountRecovery(string calldata _orgId, address _account)\n    external {\n        permImplementation.approveBlacklistedAccountRecovery(_orgId, _account, msg.sender);\n    }\n\n    /** @notice interface to fetch detail of any pending approval activities\n        for network admin organization\n      * @param _orgId unique id of the organization to which the account belongs\n      */\n    function getPendingOp(string calldata _orgId) external view\n    returns (string memory, string memory, address, uint256) {\n        return permImplementation.getPendingOp(_orgId);\n    }\n\n    /** @notice sets the permissions implementation contract address\n        can be called from upgradable contract only\n      * @param _permImplementation permissions implementation contract address\n      */\n    function setPermImplementation(address _permImplementation) external\n    onlyUpgradeable {\n        permImplementation = PermissionsImplementation(_permImplementation);\n    }\n\n    /** @notice returns the address of permissions implementation contract\n      * @return permissions implementation contract address\n      */\n    function getPermissionsImpl() external view returns (address) {\n        return address(permImplementation);\n    }\n\n    /** @notice interface to assigns a role id to the account give\n      * @param _account account id\n      * @param _orgId organization id to which the account belongs\n      * @param _roleId role id to be assigned to the account\n      */\n    function assignAccountRole(address _account, string calldata _orgId,\n        string calldata _roleId) external {\n        permImplementation.assignAccountRole(_account, _orgId, _roleId, msg.sender);\n\n    }\n\n    /** @notice interface to check if passed account is an network admin account\n      * @param _account account id\n      * @return true/false\n      */\n    function isNetworkAdmin(address _account) external view returns (bool) {\n        return permImplementation.isNetworkAdmin(_account);\n    }\n\n    /** @notice interface to check if passed account is an org admin account\n      * @param _account account id\n      * @param _orgId organization id\n      * @return true/false\n      */\n    function isOrgAdmin(address _account, string calldata _orgId)\n    external view returns (bool) {\n        return permImplementation.isOrgAdmin(_account, _orgId);\n    }\n\n    /** @notice interface to validate the account for access change operation\n      * @param _account account id\n      * @param _orgId organization id\n      * @return true/false\n      */\n    function validateAccount(address _account, string calldata _orgId)\n    external view returns (bool) {\n        return permImplementation.validateAccount(_account, _orgId);\n    }\n\n    /** @notice  checks if the node is allowed to connect or not\n      * @param _enodeId enode id\n      * @param _ip IP of node\n      * @param _port tcp port of node\n      * @return bool indicating if the node is allowed to connect or not\n      */\n    function connectionAllowed(string calldata _enodeId, string calldata _ip, uint16 _port) external view returns (bool) {\n        return permImplementation.connectionAllowed(_enodeId, _ip, _port);\n    }\n\n\n    /** @notice checks if the account is allowed to transact or not\n      * @param _sender source account\n      * @param _target target account\n      * @param _value value being transferred\n      * @param _gasPrice gas price\n      * @param _gasLimit gas limit\n      * @param _payload payload for transactions on contracts\n      * @return bool indicating if the account is allowed to transact or not\n      */\n    function transactionAllowed(address _sender, address _target, uint256 _value, uint256 _gasPrice, uint256 _gasLimit, bytes calldata _payload)\n    external view returns (bool) {\n        return permImplementation.transactionAllowed(_sender, _target, _value, _gasPrice, _gasLimit, _payload);\n    }\n\n}\n",
  "sourcePath": "/home/manhtv19/coding/quorum/quorum-root/permission/contracts/PermissionsInterface.sol",
  "compiler": {
    "name": "solc",
    "version": "0.5.3+commit.10d17f24.Emscripten.clang"
  },
  "schemaVersion": "3.4.6",
  "updatedAt": "2022-03-22T10:03:46.229Z",
  "devdoc": {
    "methods": {
      "addAdminAccount(address)": {
        "params": {
          "_acct": "account address to be added"
        }
      },
      "addAdminNode(string,string,uint16,uint16)": {
        "params": {
          "_enodeId": "enode id of the node to be added",
          "_ip": "IP of node",
          "_port": "tcp port of node",
          "_raftport": "raft port of node"
        }
      },
      "addNewRole(string,string,uint256,bool,bool)": {
        "details": "account access type can have of the following four values: 0 - Read only 1 - Transact access 2 - Contract deployment access. Can transact as well 3 - Full access",
        "params": {
          "_access": "account access type for the role",
          "_admin": "bool indicates if the role is an admin role",
          "_orgId": "unique id of the organization to which the role belongs",
          "_roleId": "unique id for the role",
          "_voter": "bool indicates if the role is voter role or not"
        }
      },
      "addNode(string,string,string,uint16,uint16)": {
        "params": {
          "_enodeId": "enode id being dded to the org",
          "_ip": "IP of node",
          "_orgId": "unique id of the organization to which the account belongs",
          "_port": "tcp port of node",
          "_raftport": "raft port of node"
        }
      },
      "addOrg(string,string,string,uint16,uint16,address)": {
        "params": {
          "_account": "account id. this will have the org admin privileges",
          "_enodeId": "enode id linked to the organization",
          "_ip": "IP of node",
          "_orgId": "unique organization id",
          "_port": "tcp port of node",
          "_raftport": "raft port of node"
        }
      },
      "addSubOrg(string,string,string,string,uint16,uint16)": {
        "params": {
          "_enodeId": "enode id linked to the sjb organization",
          "_ip": "IP of node",
          "_orgId": "unique id for the sub organization",
          "_pOrgId": "parent org id under which the sub org is being added",
          "_port": "tcp port of node",
          "_raftport": "raft port of node"
        }
      },
      "approveAdminRole(string,address)": {
        "params": {
          "_account": "account id",
          "_orgId": "unique id of the organization to which the account belongs"
        }
      },
      "approveBlacklistedAccountRecovery(string,address)": {
        "params": {
          "_account": "account id being recovered",
          "_orgId": "unique id of the organization to which the account belongs"
        }
      },
      "approveBlacklistedNodeRecovery(string,string,string,uint16,uint16)": {
        "params": {
          "_enodeId": "enode id being recovered",
          "_ip": "IP of node",
          "_orgId": "unique id of the organization to which the account belongs",
          "_port": "tcp port of node",
          "_raftport": "raft port of node"
        }
      },
      "approveOrg(string,string,string,uint16,uint16,address)": {
        "params": {
          "_account": "account id this will have the org admin privileges",
          "_enodeId": "enode id linked to the organization",
          "_ip": "IP of node",
          "_orgId": "unique organization id",
          "_port": "tcp port of node",
          "_raftport": "raft port of node"
        }
      },
      "approveOrgStatus(string,uint256)": {
        "params": {
          "_action": "1 for suspending an org and 2 for revoke of suspension",
          "_orgId": "unique id for the sub organization"
        }
      },
      "assignAccountRole(address,string,string)": {
        "params": {
          "_account": "account id",
          "_orgId": "organization id to which the account belongs",
          "_roleId": "role id to be assigned to the account"
        }
      },
      "assignAdminRole(string,address,string)": {
        "params": {
          "_account": "account id",
          "_orgId": "unique id of the organization to which the account belongs",
          "_roleId": "role id to be assigned to the account"
        }
      },
      "connectionAllowed(string,string,uint16)": {
        "params": {
          "_enodeId": "enode id",
          "_ip": "IP of node",
          "_port": "tcp port of node"
        },
        "return": "bool indicating if the node is allowed to connect or not"
      },
      "constructor": {
        "params": {
          "_permImplUpgradeable": "permissions upgradable contract address"
        }
      },
      "getNetworkBootStatus()": {
        "return": "bool network boot status"
      },
      "getPendingOp(string)": {
        "params": {
          "_orgId": "unique id of the organization to which the account belongs"
        }
      },
      "getPermissionsImpl()": {
        "return": "permissions implementation contract address"
      },
      "init(uint256,uint256)": {
        "params": {
          "_breadth": "controls the number of sub org a parent org can have",
          "_depth": "controls the depth of nesting allowed for sub orgs"
        }
      },
      "isNetworkAdmin(address)": {
        "params": {
          "_account": "account id"
        },
        "return": "true/false"
      },
      "isOrgAdmin(address,string)": {
        "params": {
          "_account": "account id",
          "_orgId": "organization id"
        },
        "return": "true/false"
      },
      "removeRole(string,string)": {
        "params": {
          "_orgId": "unique id of the organization to which the role belongs",
          "_roleId": "unique id for the role"
        }
      },
      "setPermImplementation(address)": {
        "params": {
          "_permImplementation": "permissions implementation contract address"
        }
      },
      "setPolicy(string,string,string)": {
        "params": {
          "_nwAdminOrg": "network admin organization id",
          "_nwAdminRole": "default network admin role id",
          "_oAdminRole": "default organization admin role id"
        }
      },
      "startBlacklistedAccountRecovery(string,address)": {
        "params": {
          "_account": "account id being recovered",
          "_orgId": "unique id of the organization to which the account belongs"
        }
      },
      "startBlacklistedNodeRecovery(string,string,string,uint16,uint16)": {
        "params": {
          "_enodeId": "enode id being recovered",
          "_ip": "IP of node",
          "_orgId": "unique id of the organization to which the account belongs",
          "_port": "tcp port of node",
          "_raftport": "raft port of node"
        }
      },
      "transactionAllowed(address,address,uint256,uint256,uint256,bytes)": {
        "params": {
          "_gasLimit": "gas limit",
          "_gasPrice": "gas price",
          "_payload": "payload for transactions on contracts",
          "_sender": "source account",
          "_target": "target account",
          "_value": "value being transferred"
        },
        "return": "bool indicating if the account is allowed to transact or not"
      },
      "updateAccountStatus(string,address,uint256)": {
        "params": {
          "_account": "account id",
          "_action": "1-suspending 2-activating back 3-blacklisting",
          "_orgId": "unique id of the organization to which the account belongs"
        }
      },
      "updateNetworkBootStatus()": {
        "return": "bool true or false"
      },
      "updateNodeStatus(string,string,string,uint16,uint16,uint256)": {
        "params": {
          "_action": "1-deactivate, 2-activate back, 3-blacklist the node",
          "_enodeId": "enode id being dded to the org",
          "_ip": "IP of node",
          "_orgId": "unique id of the organization to which the account belongs",
          "_port": "tcp port of node",
          "_raftport": "raft port of node"
        }
      },
      "updateOrgStatus(string,uint256)": {
        "params": {
          "_action": "1 for suspending an org and 2 for revoke of suspension",
          "_orgId": "unique id of the organization"
        }
      },
      "validateAccount(address,string)": {
        "params": {
          "_account": "account id",
          "_orgId": "organization id"
        },
        "return": "true/false"
      }
    },
    "title": "Permissions Interface Contract"
  },
  "userdoc": {
    "methods": {
      "addAdminAccount(address)": {
        "notice": "interface to add accounts to an admin organization"
      },
      "addAdminNode(string,string,uint16,uint16)": {
        "notice": "interface to add new node to an admin organization"
      },
      "addNewRole(string,string,uint256,bool,bool)": {
        "notice": "interface to add a new role definition to an organization"
      },
      "addNode(string,string,string,uint16,uint16)": {
        "notice": "interface to add a new node to the organization"
      },
      "addOrg(string,string,string,uint16,uint16,address)": {
        "notice": "interface to add a new organization to the network"
      },
      "addSubOrg(string,string,string,string,uint16,uint16)": {
        "notice": "interface to add sub org under an org"
      },
      "approveAdminRole(string,address)": {
        "notice": "interface to approve network admin/org admin role assigment this can be executed by network admin accounts only"
      },
      "approveBlacklistedAccountRecovery(string,address)": {
        "notice": "interface to approve blacklisted node recovery"
      },
      "approveBlacklistedNodeRecovery(string,string,string,uint16,uint16)": {
        "notice": "interface to approve blacklisted node recoevry"
      },
      "approveOrg(string,string,string,uint16,uint16,address)": {
        "notice": "interface to approve a newly added organization"
      },
      "approveOrgStatus(string,uint256)": {
        "notice": "interface to approve org status change"
      },
      "assignAccountRole(address,string,string)": {
        "notice": "interface to assigns a role id to the account give"
      },
      "assignAdminRole(string,address,string)": {
        "notice": "interface to assign network admin/org admin role to an account this can be executed by network admin accounts only"
      },
      "connectionAllowed(string,string,uint16)": {
        "notice": "checks if the node is allowed to connect or not"
      },
      "constructor": "constructor",
      "getNetworkBootStatus()": {
        "notice": "interface to fetch network boot status"
      },
      "getPendingOp(string)": {
        "notice": "interface to fetch detail of any pending approval activities for network admin organization"
      },
      "getPermissionsImpl()": {
        "notice": "returns the address of permissions implementation contract"
      },
      "init(uint256,uint256)": {
        "notice": "interface to initializes the breadth and depth values for sub organization management"
      },
      "isNetworkAdmin(address)": {
        "notice": "interface to check if passed account is an network admin account"
      },
      "isOrgAdmin(address,string)": {
        "notice": "interface to check if passed account is an org admin account"
      },
      "removeRole(string,string)": {
        "notice": "interface to remove a role definition from an organization"
      },
      "setPermImplementation(address)": {
        "notice": "sets the permissions implementation contract address can be called from upgradable contract only"
      },
      "setPolicy(string,string,string)": {
        "notice": "interface for setting the permissions policy in implementation"
      },
      "startBlacklistedAccountRecovery(string,address)": {
        "notice": "interface to initiate blacklisted account recovery"
      },
      "startBlacklistedNodeRecovery(string,string,string,uint16,uint16)": {
        "notice": "interface to initiate blacklisted node recovery"
      },
      "transactionAllowed(address,address,uint256,uint256,uint256,bytes)": {
        "notice": "checks if the account is allowed to transact or not"
      },
      "updateAccountStatus(string,address,uint256)": {
        "notice": "interface to update account status this can be executed by org admin accounts only"
      },
      "updateNetworkBootStatus()": {
        "notice": "interface to update network boot up status"
      },
      "updateNodeStatus(string,string,string,uint16,uint16,uint256)": {
        "notice": "interface to update node status"
      },
      "updateOrgStatus(string,uint256)": {
        "notice": "interface to update the org status"
      },
      "validateAccount(address,string)": {
        "notice": "interface to validate the account for access change operation"
      }
    },
    "notice": "This contract is the interface for permissions implementation contract. for any call, it forwards the call to the implementation contract"
  }
}