{
  "contractName": "PermissionsImplementation",
  "abi": [
    {
      "inputs": [
        {
          "name": "_permUpgradable",
          "type": "address"
        },
        {
          "name": "_orgManager",
          "type": "address"
        },
        {
          "name": "_rolesManager",
          "type": "address"
        },
        {
          "name": "_accountManager",
          "type": "address"
        },
        {
          "name": "_voterManager",
          "type": "address"
        },
        {
          "name": "_nodeManager",
          "type": "address"
        }
      ],
      "payable": false,
      "stateMutability": "nonpayable",
      "type": "constructor"
    },
    {
      "anonymous": false,
      "inputs": [
        {
          "indexed": false,
          "name": "_networkBootStatus",
          "type": "bool"
        }
      ],
      "name": "PermissionsInitialized",
      "type": "event"
    },
    {
      "constant": false,
      "inputs": [
        {
          "name": "_nwAdminOrg",
          "type": "string"
        },
        {
          "name": "_nwAdminRole",
          "type": "string"
        },
        {
          "name": "_oAdminRole",
          "type": "string"
        }
      ],
      "name": "setPolicy",
      "outputs": [],
      "payable": false,
      "stateMutability": "nonpayable",
      "type": "function"
    },
    {
      "constant": false,
      "inputs": [
        {
          "name": "_nwAdminOrg",
          "type": "string"
        },
        {
          "name": "_nwAdminRole",
          "type": "string"
        },
        {
          "name": "_oAdminRole",
          "type": "string"
        },
        {
          "name": "_networkBootStatus",
          "type": "bool"
        }
      ],
      "name": "setMigrationPolicy",
      "outputs": [],
      "payable": false,
      "stateMutability": "nonpayable",
      "type": "function"
    },
    {
      "constant": false,
      "inputs": [
        {
          "name": "_breadth",
          "type": "uint256"
        },
        {
          "name": "_depth",
          "type": "uint256"
        }
      ],
      "name": "init",
      "outputs": [],
      "payable": false,
      "stateMutability": "nonpayable",
      "type": "function"
    },
    {
      "constant": false,
      "inputs": [
        {
          "name": "_enodeId",
          "type": "string"
        },
        {
          "name": "_ip",
          "type": "string"
        },
        {
          "name": "_port",
          "type": "uint16"
        },
        {
          "name": "_raftport",
          "type": "uint16"
        }
      ],
      "name": "addAdminNode",
      "outputs": [],
      "payable": false,
      "stateMutability": "nonpayable",
      "type": "function"
    },
    {
      "constant": false,
      "inputs": [
        {
          "name": "_account",
          "type": "address"
        }
      ],
      "name": "addAdminAccount",
      "outputs": [],
      "payable": false,
      "stateMutability": "nonpayable",
      "type": "function"
    },
    {
      "constant": false,
      "inputs": [],
      "name": "updateNetworkBootStatus",
      "outputs": [
        {
          "name": "",
          "type": "bool"
        }
      ],
      "payable": false,
      "stateMutability": "nonpayable",
      "type": "function"
    },
    {
      "constant": false,
      "inputs": [
        {
          "name": "_orgId",
          "type": "string"
        },
        {
          "name": "_enodeId",
          "type": "string"
        },
        {
          "name": "_ip",
          "type": "string"
        },
        {
          "name": "_port",
          "type": "uint16"
        },
        {
          "name": "_raftport",
          "type": "uint16"
        },
        {
          "name": "_account",
          "type": "address"
        },
        {
          "name": "_caller",
          "type": "address"
        }
      ],
      "name": "addOrg",
      "outputs": [],
      "payable": false,
      "stateMutability": "nonpayable",
      "type": "function"
    },
    {
      "constant": false,
      "inputs": [
        {
          "name": "_orgId",
          "type": "string"
        },
        {
          "name": "_enodeId",
          "type": "string"
        },
        {
          "name": "_ip",
          "type": "string"
        },
        {
          "name": "_port",
          "type": "uint16"
        },
        {
          "name": "_raftport",
          "type": "uint16"
        },
        {
          "name": "_account",
          "type": "address"
        },
        {
          "name": "_caller",
          "type": "address"
        }
      ],
      "name": "approveOrg",
      "outputs": [],
      "payable": false,
      "stateMutability": "nonpayable",
      "type": "function"
    },
    {
      "constant": false,
      "inputs": [
        {
          "name": "_pOrgId",
          "type": "string"
        },
        {
          "name": "_orgId",
          "type": "string"
        },
        {
          "name": "_enodeId",
          "type": "string"
        },
        {
          "name": "_ip",
          "type": "string"
        },
        {
          "name": "_port",
          "type": "uint16"
        },
        {
          "name": "_raftport",
          "type": "uint16"
        },
        {
          "name": "_caller",
          "type": "address"
        }
      ],
      "name": "addSubOrg",
      "outputs": [],
      "payable": false,
      "stateMutability": "nonpayable",
      "type": "function"
    },
    {
      "constant": false,
      "inputs": [
        {
          "name": "_orgId",
          "type": "string"
        },
        {
          "name": "_action",
          "type": "uint256"
        },
        {
          "name": "_caller",
          "type": "address"
        }
      ],
      "name": "updateOrgStatus",
      "outputs": [],
      "payable": false,
      "stateMutability": "nonpayable",
      "type": "function"
    },
    {
      "constant": false,
      "inputs": [
        {
          "name": "_orgId",
          "type": "string"
        },
        {
          "name": "_action",
          "type": "uint256"
        },
        {
          "name": "_caller",
          "type": "address"
        }
      ],
      "name": "approveOrgStatus",
      "outputs": [],
      "payable": false,
      "stateMutability": "nonpayable",
      "type": "function"
    },
    {
      "constant": false,
      "inputs": [
        {
          "name": "_roleId",
          "type": "string"
        },
        {
          "name": "_orgId",
          "type": "string"
        },
        {
          "name": "_access",
          "type": "uint256"
        },
        {
          "name": "_voter",
          "type": "bool"
        },
        {
          "name": "_admin",
          "type": "bool"
        },
        {
          "name": "_caller",
          "type": "address"
        }
      ],
      "name": "addNewRole",
      "outputs": [],
      "payable": false,
      "stateMutability": "nonpayable",
      "type": "function"
    },
    {
      "constant": false,
      "inputs": [
        {
          "name": "_roleId",
          "type": "string"
        },
        {
          "name": "_orgId",
          "type": "string"
        },
        {
          "name": "_caller",
          "type": "address"
        }
      ],
      "name": "removeRole",
      "outputs": [],
      "payable": false,
      "stateMutability": "nonpayable",
      "type": "function"
    },
    {
      "constant": false,
      "inputs": [
        {
          "name": "_orgId",
          "type": "string"
        },
        {
          "name": "_account",
          "type": "address"
        },
        {
          "name": "_roleId",
          "type": "string"
        },
        {
          "name": "_caller",
          "type": "address"
        }
      ],
      "name": "assignAdminRole",
      "outputs": [],
      "payable": false,
      "stateMutability": "nonpayable",
      "type": "function"
    },
    {
      "constant": false,
      "inputs": [
        {
          "name": "_orgId",
          "type": "string"
        },
        {
          "name": "_account",
          "type": "address"
        },
        {
          "name": "_caller",
          "type": "address"
        }
      ],
      "name": "approveAdminRole",
      "outputs": [],
      "payable": false,
      "stateMutability": "nonpayable",
      "type": "function"
    },
    {
      "constant": false,
      "inputs": [
        {
          "name": "_orgId",
          "type": "string"
        },
        {
          "name": "_account",
          "type": "address"
        },
        {
          "name": "_action",
          "type": "uint256"
        },
        {
          "name": "_caller",
          "type": "address"
        }
      ],
      "name": "updateAccountStatus",
      "outputs": [],
      "payable": false,
      "stateMutability": "nonpayable",
      "type": "function"
    },
    {
      "constant": false,
      "inputs": [
        {
          "name": "_orgId",
          "type": "string"
        },
        {
          "name": "_enodeId",
          "type": "string"
        },
        {
          "name": "_ip",
          "type": "string"
        },
        {
          "name": "_port",
          "type": "uint16"
        },
        {
          "name": "_raftport",
          "type": "uint16"
        },
        {
          "name": "_caller",
          "type": "address"
        }
      ],
      "name": "addNode",
      "outputs": [],
      "payable": false,
      "stateMutability": "nonpayable",
      "type": "function"
    },
    {
      "constant": false,
      "inputs": [
        {
          "name": "_orgId",
          "type": "string"
        },
        {
          "name": "_enodeId",
          "type": "string"
        },
        {
          "name": "_ip",
          "type": "string"
        },
        {
          "name": "_port",
          "type": "uint16"
        },
        {
          "name": "_raftport",
          "type": "uint16"
        },
        {
          "name": "_action",
          "type": "uint256"
        },
        {
          "name": "_caller",
          "type": "address"
        }
      ],
      "name": "updateNodeStatus",
      "outputs": [],
      "payable": false,
      "stateMutability": "nonpayable",
      "type": "function"
    },
    {
      "constant": false,
      "inputs": [
        {
          "name": "_orgId",
          "type": "string"
        },
        {
          "name": "_enodeId",
          "type": "string"
        },
        {
          "name": "_ip",
          "type": "string"
        },
        {
          "name": "_port",
          "type": "uint16"
        },
        {
          "name": "_raftport",
          "type": "uint16"
        },
        {
          "name": "_caller",
          "type": "address"
        }
      ],
      "name": "startBlacklistedNodeRecovery",
      "outputs": [],
      "payable": false,
      "stateMutability": "nonpayable",
      "type": "function"
    },
    {
      "constant": false,
      "inputs": [
        {
          "name": "_orgId",
          "type": "string"
        },
        {
          "name": "_enodeId",
          "type": "string"
        },
        {
          "name": "_ip",
          "type": "string"
        },
        {
          "name": "_port",
          "type": "uint16"
        },
        {
          "name": "_raftport",
          "type": "uint16"
        },
        {
          "name": "_caller",
          "type": "address"
        }
      ],
      "name": "approveBlacklistedNodeRecovery",
      "outputs": [],
      "payable": false,
      "stateMutability": "nonpayable",
      "type": "function"
    },
    {
      "constant": false,
      "inputs": [
        {
          "name": "_orgId",
          "type": "string"
        },
        {
          "name": "_account",
          "type": "address"
        },
        {
          "name": "_caller",
          "type": "address"
        }
      ],
      "name": "startBlacklistedAccountRecovery",
      "outputs": [],
      "payable": false,
      "stateMutability": "nonpayable",
      "type": "function"
    },
    {
      "constant": false,
      "inputs": [
        {
          "name": "_orgId",
          "type": "string"
        },
        {
          "name": "_account",
          "type": "address"
        },
        {
          "name": "_caller",
          "type": "address"
        }
      ],
      "name": "approveBlacklistedAccountRecovery",
      "outputs": [],
      "payable": false,
      "stateMutability": "nonpayable",
      "type": "function"
    },
    {
      "constant": true,
      "inputs": [],
      "name": "getNetworkBootStatus",
      "outputs": [
        {
          "name": "",
          "type": "bool"
        }
      ],
      "payable": false,
      "stateMutability": "view",
      "type": "function"
    },
    {
      "constant": true,
      "inputs": [
        {
          "name": "_orgId",
          "type": "string"
        }
      ],
      "name": "getPendingOp",
      "outputs": [
        {
          "name": "",
          "type": "string"
        },
        {
          "name": "",
          "type": "string"
        },
        {
          "name": "",
          "type": "address"
        },
        {
          "name": "",
          "type": "uint256"
        }
      ],
      "payable": false,
      "stateMutability": "view",
      "type": "function"
    },
    {
      "constant": false,
      "inputs": [
        {
          "name": "_account",
          "type": "address"
        },
        {
          "name": "_orgId",
          "type": "string"
        },
        {
          "name": "_roleId",
          "type": "string"
        },
        {
          "name": "_caller",
          "type": "address"
        }
      ],
      "name": "assignAccountRole",
      "outputs": [],
      "payable": false,
      "stateMutability": "nonpayable",
      "type": "function"
    },
    {
      "constant": true,
      "inputs": [
        {
          "name": "_account",
          "type": "address"
        }
      ],
      "name": "isNetworkAdmin",
      "outputs": [
        {
          "name": "",
          "type": "bool"
        }
      ],
      "payable": false,
      "stateMutability": "view",
      "type": "function"
    },
    {
      "constant": true,
      "inputs": [
        {
          "name": "_account",
          "type": "address"
        },
        {
          "name": "_orgId",
          "type": "string"
        }
      ],
      "name": "isOrgAdmin",
      "outputs": [
        {
          "name": "",
          "type": "bool"
        }
      ],
      "payable": false,
      "stateMutability": "view",
      "type": "function"
    },
    {
      "constant": true,
      "inputs": [
        {
          "name": "_account",
          "type": "address"
        },
        {
          "name": "_orgId",
          "type": "string"
        }
      ],
      "name": "validateAccount",
      "outputs": [
        {
          "name": "",
          "type": "bool"
        }
      ],
      "payable": false,
      "stateMutability": "view",
      "type": "function"
    },
    {
      "constant": true,
      "inputs": [],
      "name": "getPolicyDetails",
      "outputs": [
        {
          "name": "",
          "type": "string"
        },
        {
          "name": "",
          "type": "string"
        },
        {
          "name": "",
          "type": "string"
        },
        {
          "name": "",
          "type": "bool"
        }
      ],
      "payable": false,
      "stateMutability": "view",
      "type": "function"
    },
    {
      "constant": true,
      "inputs": [
        {
          "name": "_enodeId",
          "type": "string"
        },
        {
          "name": "_ip",
          "type": "string"
        },
        {
          "name": "_port",
          "type": "uint16"
        }
      ],
      "name": "connectionAllowed",
      "outputs": [
        {
          "name": "",
          "type": "bool"
        }
      ],
      "payable": false,
      "stateMutability": "view",
      "type": "function"
    },
    {
      "constant": true,
      "inputs": [
        {
          "name": "_sender",
          "type": "address"
        },
        {
          "name": "_target",
          "type": "address"
        },
        {
          "name": "_value",
          "type": "uint256"
        },
        {
          "name": "_gasPrice",
          "type": "uint256"
        },
        {
          "name": "_gasLimit",
          "type": "uint256"
        },
        {
          "name": "_payload",
          "type": "bytes"
        }
      ],
      "name": "transactionAllowed",
      "outputs": [
        {
          "name": "",
          "type": "bool"
        }
      ],
      "payable": false,
      "stateMutability": "view",
      "type": "function"
    }
  ],
  "bytecode": "0x608060405260036009556000600a60006101000a81548160ff0219169083151502179055503480156200003157600080fd5b5060405160c0806200bacb833981018060405260c08110156200005357600080fd5b8101908080519060200190929190805190602001909291908051906020019092919080519060200190929190805190602001909291908051906020019092919050505085600560006101000a81548173ffffffffffffffffffffffffffffffffffffffff021916908373ffffffffffffffffffffffffffffffffffffffff16021790555084600460006101000a81548173ffffffffffffffffffffffffffffffffffffffff021916908373ffffffffffffffffffffffffffffffffffffffff16021790555083600160006101000a81548173ffffffffffffffffffffffffffffffffffffffff021916908373ffffffffffffffffffffffffffffffffffffffff160217905550826000806101000a81548173ffffffffffffffffffffffffffffffffffffffff021916908373ffffffffffffffffffffffffffffffffffffffff16021790555081600260006101000a81548173ffffffffffffffffffffffffffffffffffffffff021916908373ffffffffffffffffffffffffffffffffffffffff16021790555080600360006101000a81548173ffffffffffffffffffffffffffffffffffffffff021916908373ffffffffffffffffffffffffffffffffffffffff16021790555050505050505061b89a80620002316000396000f3fe608060405234801561001057600080fd5b5060043610610202576000357c010000000000000000000000000000000000000000000000000000000090048063888430411161012c578063cc9ba6fa116100bf578063ecad01d51161008e578063ecad01d514611da3578063f346a3a714611fc8578063f5ad584a14612160578063f75f0a061461228f57610202565b8063cc9ba6fa14611777578063d1aa0c20146118dd578063d621d95714611939578063e91b0e1914611b5e57610202565b8063a042bf40116100fb578063a042bf4014611248578063a5843f081461146d578063b5546564146114a5578063b9b7fe6c1461154857610202565b80638884304114610e1b5780638baa819114610ed4578063936421d5146110665780639bd381011461115557610202565b806345a59e5b116101a45780635ca5adbe116101735780635ca5adbe1461099c57806368a6127314610a8a5780636b568d7614610c3e5780638683c7fe14610d3157610202565b806345a59e5b146107895780634b20f45f1461087d5780634cbfa82e146109365780634fe57e7a1461095857610202565b80631c249912116101e05780631c249912146104fd5780633cf5f33b146105b6578063404bf3eb1461065957806344478e791461076757610202565b806304e81f1e146102075780631b04c276146102ca5780631b610220146103da575b600080fd5b6102c86004803603608081101561021d57600080fd5b810190808035906020019064010000000081111561023a57600080fd5b82018360208201111561024c57600080fd5b8035906020019184600183028401116401000000008311171561026e57600080fd5b9091929391929390803573ffffffffffffffffffffffffffffffffffffffff16906020019092919080359060200190929190803573ffffffffffffffffffffffffffffffffffffffff1690602001909291905050506124d4565b005b6103d8600480360360c08110156102e057600080fd5b81019080803590602001906401000000008111156102fd57600080fd5b82018360208201111561030f57600080fd5b8035906020019184600183028401116401000000008311171561033157600080fd5b90919293919293908035906020019064010000000081111561035257600080fd5b82018360208201111561036457600080fd5b8035906020019184600183028401116401000000008311171561038657600080fd5b909192939192939080359060200190929190803515159060200190929190803515159060200190929190803573ffffffffffffffffffffffffffffffffffffffff169060200190929190505050612850565b005b6104fb600480360360608110156103f057600080fd5b810190808035906020019064010000000081111561040d57600080fd5b82018360208201111561041f57600080fd5b8035906020019184600183028401116401000000008311171561044157600080fd5b90919293919293908035906020019064010000000081111561046257600080fd5b82018360208201111561047457600080fd5b8035906020019184600183028401116401000000008311171561049657600080fd5b9091929391929390803590602001906401000000008111156104b757600080fd5b8201836020820111156104c957600080fd5b803590602001918460018302840111640100000000831117156104eb57600080fd5b9091929391929390505050612c41565b005b6105b46004803603606081101561051357600080fd5b810190808035906020019064010000000081111561053057600080fd5b82018360208201111561054257600080fd5b8035906020019184600183028401116401000000008311171561056457600080fd5b9091929391929390803573ffffffffffffffffffffffffffffffffffffffff169060200190929190803573ffffffffffffffffffffffffffffffffffffffff169060200190929190505050612e50565b005b610657600480360360608110156105cc57600080fd5b81019080803590602001906401000000008111156105e957600080fd5b8201836020820111156105fb57600080fd5b8035906020019184600183028401116401000000008311171561061d57600080fd5b909192939192939080359060200190929190803573ffffffffffffffffffffffffffffffffffffffff1690602001909291905050506132c5565b005b6107656004803603608081101561066f57600080fd5b810190808035906020019064010000000081111561068c57600080fd5b82018360208201111561069e57600080fd5b803590602001918460018302840111640100000000831117156106c057600080fd5b9091929391929390803573ffffffffffffffffffffffffffffffffffffffff1690602001909291908035906020019064010000000081111561070157600080fd5b82018360208201111561071357600080fd5b8035906020019184600183028401116401000000008311171561073557600080fd5b9091929391929390803573ffffffffffffffffffffffffffffffffffffffff16906020019092919050505061372e565b005b61076f613ca3565b604051808215151515815260200191505060405180910390f35b6108636004803603606081101561079f57600080fd5b81019080803590602001906401000000008111156107bc57600080fd5b8201836020820111156107ce57600080fd5b803590602001918460018302840111640100000000831117156107f057600080fd5b90919293919293908035906020019064010000000081111561081157600080fd5b82018360208201111561082357600080fd5b8035906020019184600183028401116401000000008311171561084557600080fd5b9091929391929390803561ffff169060200190929190505050613ef0565b604051808215151515815260200191505060405180910390f35b6109346004803603606081101561089357600080fd5b81019080803590602001906401000000008111156108b057600080fd5b8201836020820111156108c257600080fd5b803590602001918460018302840111640100000000831117156108e457600080fd5b9091929391929390803573ffffffffffffffffffffffffffffffffffffffff169060200190929190803573ffffffffffffffffffffffffffffffffffffffff169060200190929190505050614057565b005b61093e6143c7565b604051808215151515815260200191505060405180910390f35b61099a6004803603602081101561096e57600080fd5b81019080803573ffffffffffffffffffffffffffffffffffffffff1690602001909291905050506143de565b005b610a88600480360360608110156109b257600080fd5b81019080803590602001906401000000008111156109cf57600080fd5b8201836020820111156109e157600080fd5b80359060200191846001830284011164010000000083111715610a0357600080fd5b909192939192939080359060200190640100000000811115610a2457600080fd5b820183602082011115610a3657600080fd5b80359060200191846001830284011164010000000083111715610a5857600080fd5b9091929391929390803573ffffffffffffffffffffffffffffffffffffffff16906020019092919050505061484b565b005b610c3c600480360360e0811015610aa057600080fd5b8101908080359060200190640100000000811115610abd57600080fd5b820183602082011115610acf57600080fd5b80359060200191846001830284011164010000000083111715610af157600080fd5b909192939192939080359060200190640100000000811115610b1257600080fd5b820183602082011115610b2457600080fd5b80359060200191846001830284011164010000000083111715610b4657600080fd5b909192939192939080359060200190640100000000811115610b6757600080fd5b820183602082011115610b7957600080fd5b80359060200191846001830284011164010000000083111715610b9b57600080fd5b909192939192939080359060200190640100000000811115610bbc57600080fd5b820183602082011115610bce57600080fd5b80359060200191846001830284011164010000000083111715610bf057600080fd5b9091929391929390803561ffff169060200190929190803561ffff169060200190929190803573ffffffffffffffffffffffffffffffffffffffff169060200190929190505050614e93565b005b610d1760048036036040811015610c5457600080fd5b81019080803573ffffffffffffffffffffffffffffffffffffffff16906020019092919080359060200190640100000000811115610c9157600080fd5b820183602082011115610ca357600080fd5b80359060200191846001830284011164010000000083111715610cc557600080fd5b91908080601f016020809104026020016040519081016040528093929190818152602001838380828437600081840152601f19601f820116905080830192505050505050509192919290505050615471565b604051808215151515815260200191505060405180910390f35b610e1960048036036080811015610d4757600080fd5b8101908080359060200190640100000000811115610d6457600080fd5b820183602082011115610d7657600080fd5b80359060200191846001830284011164010000000083111715610d9857600080fd5b909192939192939080359060200190640100000000811115610db957600080fd5b820183602082011115610dcb57600080fd5b80359060200191846001830284011164010000000083111715610ded57600080fd5b9091929391929390803561ffff169060200190929190803561ffff1690602001909291905050506155dd565b005b610ed260048036036060811015610e3157600080fd5b8101908080359060200190640100000000811115610e4e57600080fd5b820183602082011115610e6057600080fd5b80359060200191846001830284011164010000000083111715610e8257600080fd5b9091929391929390803573ffffffffffffffffffffffffffffffffffffffff169060200190929190803573ffffffffffffffffffffffffffffffffffffffff16906020019092919050505061596a565b005b61106460048036036080811015610eea57600080fd5b81019080803573ffffffffffffffffffffffffffffffffffffffff16906020019092919080359060200190640100000000811115610f2757600080fd5b820183602082011115610f3957600080fd5b80359060200191846001830284011164010000000083111715610f5b57600080fd5b91908080601f016020809104026020016040519081016040528093929190818152602001838380828437600081840152601f19601f82011690508083019250505050505050919291929080359060200190640100000000811115610fbe57600080fd5b820183602082011115610fd057600080fd5b80359060200191846001830284011164010000000083111715610ff257600080fd5b91908080601f016020809104026020016040519081016040528093929190818152602001838380828437600081840152601f19601f820116905080830192505050505050509192919290803573ffffffffffffffffffffffffffffffffffffffff169060200190929190505050615f5c565b005b61113b600480360360c081101561107c57600080fd5b81019080803573ffffffffffffffffffffffffffffffffffffffff169060200190929190803573ffffffffffffffffffffffffffffffffffffffff169060200190929190803590602001909291908035906020019092919080359060200190929190803590602001906401000000008111156110f757600080fd5b82018360208201111561110957600080fd5b8035906020019184600183028401116401000000008311171561112b57600080fd5b9091929391929390505050616672565b604051808215151515815260200191505060405180910390f35b61122e6004803603604081101561116b57600080fd5b81019080803573ffffffffffffffffffffffffffffffffffffffff169060200190929190803590602001906401000000008111156111a857600080fd5b8201836020820111156111ba57600080fd5b803590602001918460018302840111640100000000831117156111dc57600080fd5b91908080601f016020809104026020016040519081016040528093929190818152602001838380828437600081840152601f19601f820116905080830192505050505050509192919290505050616d23565b604051808215151515815260200191505060405180910390f35b61146b600480360360c081101561125e57600080fd5b810190808035906020019064010000000081111561127b57600080fd5b82018360208201111561128d57600080fd5b803590602001918460018302840111640100000000831117156112af57600080fd5b91908080601f016020809104026020016040519081016040528093929190818152602001838380828437600081840152601f19601f8201169050808301925050505050505091929192908035906020019064010000000081111561131257600080fd5b82018360208201111561132457600080fd5b8035906020019184600183028401116401000000008311171561134657600080fd5b91908080601f016020809104026020016040519081016040528093929190818152602001838380828437600081840152601f19601f820116905080830192505050505050509192919290803590602001906401000000008111156113a957600080fd5b8201836020820111156113bb57600080fd5b803590602001918460018302840111640100000000831117156113dd57600080fd5b91908080601f016020809104026020016040519081016040528093929190818152602001838380828437600081840152601f19601f820116905080830192505050505050509192919290803561ffff169060200190929190803561ffff169060200190929190803573ffffffffffffffffffffffffffffffffffffffff16906020019092919050505061726e565b005b6114a36004803603604081101561148357600080fd5b8101908080359060200190929190803590602001909291905050506176e0565b005b611546600480360360608110156114bb57600080fd5b81019080803590602001906401000000008111156114d857600080fd5b8201836020820111156114ea57600080fd5b8035906020019184600183028401116401000000008311171561150c57600080fd5b909192939192939080359060200190929190803573ffffffffffffffffffffffffffffffffffffffff169060200190929190505050617d81565b005b611775600480360360e081101561155e57600080fd5b810190808035906020019064010000000081111561157b57600080fd5b82018360208201111561158d57600080fd5b803590602001918460018302840111640100000000831117156115af57600080fd5b91908080601f016020809104026020016040519081016040528093929190818152602001838380828437600081840152601f19601f8201169050808301925050505050505091929192908035906020019064010000000081111561161257600080fd5b82018360208201111561162457600080fd5b8035906020019184600183028401116401000000008311171561164657600080fd5b91908080601f016020809104026020016040519081016040528093929190818152602001838380828437600081840152601f19601f820116905080830192505050505050509192919290803590602001906401000000008111156116a957600080fd5b8201836020820111156116bb57600080fd5b803590602001918460018302840111640100000000831117156116dd57600080fd5b91908080601f016020809104026020016040519081016040528093929190818152602001838380828437600081840152601f19601f820116905080830192505050505050509192919290803561ffff169060200190929190803561ffff16906020019092919080359060200190929190803573ffffffffffffffffffffffffffffffffffffffff169060200190929190505050618236565b005b61177f61866c565b6040518080602001806020018060200185151515158152602001848103845288818151815260200191508051906020019080838360005b838110156117d15780820151818401526020810190506117b6565b50505050905090810190601f1680156117fe5780820380516001836020036101000a031916815260200191505b50848103835287818151815260200191508051906020019080838360005b8381101561183757808201518184015260208101905061181c565b50505050905090810190601f1680156118645780820380516001836020036101000a031916815260200191505b50848103825286818151815260200191508051906020019080838360005b8381101561189d578082015181840152602081019050611882565b50505050905090810190601f1680156118ca5780820380516001836020036101000a031916815260200191505b5097505050505050505060405180910390f35b61191f600480360360208110156118f357600080fd5b81019080803573ffffffffffffffffffffffffffffffffffffffff16906020019092919050505061886b565b604051808215151515815260200191505060405180910390f35b611b5c600480360360c081101561194f57600080fd5b810190808035906020019064010000000081111561196c57600080fd5b82018360208201111561197e57600080fd5b803590602001918460018302840111640100000000831117156119a057600080fd5b91908080601f016020809104026020016040519081016040528093929190818152602001838380828437600081840152601f19601f82011690508083019250505050505050919291929080359060200190640100000000811115611a0357600080fd5b820183602082011115611a1557600080fd5b80359060200191846001830284011164010000000083111715611a3757600080fd5b91908080601f016020809104026020016040519081016040528093929190818152602001838380828437600081840152601f19601f82011690508083019250505050505050919291929080359060200190640100000000811115611a9a57600080fd5b820183602082011115611aac57600080fd5b80359060200191846001830284011164010000000083111715611ace57600080fd5b91908080601f016020809104026020016040519081016040528093929190818152602001838380828437600081840152601f19601f820116905080830192505050505050509192919290803561ffff169060200190929190803561ffff169060200190929190803573ffffffffffffffffffffffffffffffffffffffff169060200190929190505050618af5565b005b611da1600480360360e0811015611b7457600080fd5b8101908080359060200190640100000000811115611b9157600080fd5b820183602082011115611ba357600080fd5b80359060200191846001830284011164010000000083111715611bc557600080fd5b91908080601f016020809104026020016040519081016040528093929190818152602001838380828437600081840152601f19601f82011690508083019250505050505050919291929080359060200190640100000000811115611c2857600080fd5b820183602082011115611c3a57600080fd5b80359060200191846001830284011164010000000083111715611c5c57600080fd5b91908080601f016020809104026020016040519081016040528093929190818152602001838380828437600081840152601f19601f82011690508083019250505050505050919291929080359060200190640100000000811115611cbf57600080fd5b820183602082011115611cd157600080fd5b80359060200191846001830284011164010000000083111715611cf357600080fd5b91908080601f016020809104026020016040519081016040528093929190818152602001838380828437600081840152601f19601f820116905080830192505050505050509192919290803561ffff169060200190929190803561ffff169060200190929190803573ffffffffffffffffffffffffffffffffffffffff169060200190929190803573ffffffffffffffffffffffffffffffffffffffff1690602001909291905050506190ff565b005b611fc6600480360360c0811015611db957600080fd5b8101908080359060200190640100000000811115611dd657600080fd5b820183602082011115611de857600080fd5b80359060200191846001830284011164010000000083111715611e0a57600080fd5b91908080601f016020809104026020016040519081016040528093929190818152602001838380828437600081840152601f19601f82011690508083019250505050505050919291929080359060200190640100000000811115611e6d57600080fd5b820183602082011115611e7f57600080fd5b80359060200191846001830284011164010000000083111715611ea157600080fd5b91908080601f016020809104026020016040519081016040528093929190818152602001838380828437600081840152601f19601f82011690508083019250505050505050919291929080359060200190640100000000811115611f0457600080fd5b820183602082011115611f1657600080fd5b80359060200191846001830284011164010000000083111715611f3857600080fd5b91908080601f016020809104026020016040519081016040528093929190818152602001838380828437600081840152601f19601f820116905080830192505050505050509192919290803561ffff169060200190929190803561ffff169060200190929190803573ffffffffffffffffffffffffffffffffffffffff169060200190929190505050619af1565b005b61203f60048036036020811015611fde57600080fd5b8101908080359060200190640100000000811115611ffb57600080fd5b82018360208201111561200d57600080fd5b8035906020019184600183028401116401000000008311171561202f57600080fd5b9091929391929390505050619f33565b6040518080602001806020018573ffffffffffffffffffffffffffffffffffffffff1673ffffffffffffffffffffffffffffffffffffffff168152602001848152602001838103835287818151815260200191508051906020019080838360005b838110156120bb5780820151818401526020810190506120a0565b50505050905090810190601f1680156120e85780820380516001836020036101000a031916815260200191505b50838103825286818151815260200191508051906020019080838360005b83811015612121578082015181840152602081019050612106565b50505050905090810190601f16801561214e5780820380516001836020036101000a031916815260200191505b50965050505050505060405180910390f35b61228d6004803603608081101561217657600080fd5b810190808035906020019064010000000081111561219357600080fd5b8201836020820111156121a557600080fd5b803590602001918460018302840111640100000000831117156121c757600080fd5b9091929391929390803590602001906401000000008111156121e857600080fd5b8201836020820111156121fa57600080fd5b8035906020019184600183028401116401000000008311171561221c57600080fd5b90919293919293908035906020019064010000000081111561223d57600080fd5b82018360208201111561224f57600080fd5b8035906020019184600183028401116401000000008311171561227157600080fd5b909192939192939080351515906020019092919050505061a0fc565b005b6124d2600480360360e08110156122a557600080fd5b81019080803590602001906401000000008111156122c257600080fd5b8201836020820111156122d457600080fd5b803590602001918460018302840111640100000000831117156122f657600080fd5b91908080601f016020809104026020016040519081016040528093929190818152602001838380828437600081840152601f19601f8201169050808301925050505050505091929192908035906020019064010000000081111561235957600080fd5b82018360208201111561236b57600080fd5b8035906020019184600183028401116401000000008311171561238d57600080fd5b91908080601f016020809104026020016040519081016040528093929190818152602001838380828437600081840152601f19601f820116905080830192505050505050509192919290803590602001906401000000008111156123f057600080fd5b82018360208201111561240257600080fd5b8035906020019184600183028401116401000000008311171561242457600080fd5b91908080601f016020809104026020016040519081016040528093929190818152602001838380828437600081840152601f19601f820116905080830192505050505050509192919290803561ffff169060200190929190803561ffff169060200190929190803573ffffffffffffffffffffffffffffffffffffffff169060200190929190803573ffffffffffffffffffffffffffffffffffffffff16906020019092919050505061a2a7565b005b600560009054906101000a900473ffffffffffffffffffffffffffffffffffffffff1673ffffffffffffffffffffffffffffffffffffffff1663e572515c6040518163ffffffff167c010000000000000000000000000000000000000000000000000000000002815260040160206040518083038186803b15801561255857600080fd5b505afa15801561256c573d6000803e3d6000fd5b505050506040513d602081101561258257600080fd5b810190808051906020019092919050505073ffffffffffffffffffffffffffffffffffffffff163373ffffffffffffffffffffffffffffffffffffffff16141515612618576040517f08c379a000000000000000000000000000000000000000000000000000000000815260040180806020018281038252602881526020018061b7ff6028913960400191505060405180910390fd5b8085858080601f016020809104026020016040519081016040528093929190818152602001838380828437600081840152601f19601f820116905080830192505050505050506001151561266c8383616d23565b15151415156126c6576040517f08c379a000000000000000000000000000000000000000000000000000000000815260040180806020018281038252602281526020018061b84d6022913960400191505060405180910390fd5b60018414806126d55750600284145b806126e05750600384145b1515612737576040517f08c379a000000000000000000000000000000000000000000000000000000000815260040180806020018281038252602581526020018061b7da6025913960400191505060405180910390fd5b6000809054906101000a900473ffffffffffffffffffffffffffffffffffffffff1673ffffffffffffffffffffffffffffffffffffffff166384b7a84a888888886040518563ffffffff167c010000000000000000000000000000000000000000000000000000000002815260040180806020018473ffffffffffffffffffffffffffffffffffffffff1673ffffffffffffffffffffffffffffffffffffffff1681526020018381526020018281038252868682818152602001925080828437600081840152601f19601f82011690508083019250505095505050505050600060405180830381600087803b15801561282f57600080fd5b505af1158015612843573d6000803e3d6000fd5b5050505050505050505050565b600560009054906101000a900473ffffffffffffffffffffffffffffffffffffffff1673ffffffffffffffffffffffffffffffffffffffff1663e572515c6040518163ffffffff167c010000000000000000000000000000000000000000000000000000000002815260040160206040518083038186803b1580156128d457600080fd5b505afa1580156128e8573d6000803e3d6000fd5b505050506040513d60208110156128fe57600080fd5b810190808051906020019092919050505073ffffffffffffffffffffffffffffffffffffffff163373ffffffffffffffffffffffffffffffffffffffff16141515612994576040517f08c379a000000000000000000000000000000000000000000000000000000000815260040180806020018281038252602881526020018061b7ff6028913960400191505060405180910390fd5b85858080601f016020809104026020016040519081016040528093929190818152602001838380828437600081840152601f19601f82011690508083019250505050505050600115156129e68261abc4565b1515141515612a5d576040517f08c379a000000000000000000000000000000000000000000000000000000000815260040180806020018281038252601a8152602001807f6f7267206e6f7420696e20617070726f7665642073746174757300000000000081525060200191505060405180910390fd5b8187878080601f016020809104026020016040519081016040528093929190818152602001838380828437600081840152601f19601f8201169050808301925050505050505060011515612ab18383616d23565b1515141515612b0b576040517f08c379a000000000000000000000000000000000000000000000000000000000815260040180806020018281038252602281526020018061b84d6022913960400191505060405180910390fd5b600160009054906101000a900473ffffffffffffffffffffffffffffffffffffffff1673ffffffffffffffffffffffffffffffffffffffff16637b7135798c8c8c8c8c8c8c6040518863ffffffff167c0100000000000000000000000000000000000000000000000000000000028152600401808060200180602001868152602001851515151581526020018415151515815260200183810383528a8a82818152602001925080828437600081840152601f19601f8201169050808301925050508381038252888882818152602001925080828437600081840152601f19601f8201169050808301925050509950505050505050505050600060405180830381600087803b158015612c1c57600080fd5b505af1158015612c30573d6000803e3d6000fd5b505050505050505050505050505050565b600560009054906101000a900473ffffffffffffffffffffffffffffffffffffffff1673ffffffffffffffffffffffffffffffffffffffff1663e572515c6040518163ffffffff167c010000000000000000000000000000000000000000000000000000000002815260040160206040518083038186803b158015612cc557600080fd5b505afa158015612cd9573d6000803e3d6000fd5b505050506040513d6020811015612cef57600080fd5b810190808051906020019092919050505073ffffffffffffffffffffffffffffffffffffffff163373ffffffffffffffffffffffffffffffffffffffff16141515612d85576040517f08c379a000000000000000000000000000000000000000000000000000000000815260040180806020018281038252602881526020018061b7ff6028913960400191505060405180910390fd5b6000801515600a60009054906101000a900460ff161515141515612e11576040517f08c379a000000000000000000000000000000000000000000000000000000000815260040180806020018281038252601d8152602001807f496e636f7272656374206e6574776f726b20626f6f742073746174757300000081525060200191505060405180910390fd5b868660069190612e2292919061b734565b50848460079190612e3492919061b734565b50828260089190612e4692919061b734565b5050505050505050565b600560009054906101000a900473ffffffffffffffffffffffffffffffffffffffff1673ffffffffffffffffffffffffffffffffffffffff1663e572515c6040518163ffffffff167c010000000000000000000000000000000000000000000000000000000002815260040160206040518083038186803b158015612ed457600080fd5b505afa158015612ee8573d6000803e3d6000fd5b505050506040513d6020811015612efe57600080fd5b810190808051906020019092919050505073ffffffffffffffffffffffffffffffffffffffff163373ffffffffffffffffffffffffffffffffffffffff16141515612f94576040517f08c379a000000000000000000000000000000000000000000000000000000000815260040180806020018281038252602881526020018061b7ff6028913960400191505060405180910390fd5b8060011515612fa28261886b565b1515141515612ffc576040517f08c379a000000000000000000000000000000000000000000000000000000000815260040180806020018281038252602681526020018061b8276026913960400191505060405180910390fd5b6000809054906101000a900473ffffffffffffffffffffffffffffffffffffffff1673ffffffffffffffffffffffffffffffffffffffff166384b7a84a86868660046040518563ffffffff167c010000000000000000000000000000000000000000000000000000000002815260040180806020018473ffffffffffffffffffffffffffffffffffffffff1673ffffffffffffffffffffffffffffffffffffffff1681526020018381526020018281038252868682818152602001925080828437600081840152601f19601f82011690508083019250505095505050505050600060405180830381600087803b1580156130f557600080fd5b505af1158015613109573d6000803e3d6000fd5b50505050600260009054906101000a900473ffffffffffffffffffffffffffffffffffffffff1673ffffffffffffffffffffffffffffffffffffffff1663e98ac22d600687878760066040518663ffffffff167c0100000000000000000000000000000000000000000000000000000000028152600401808060200180602001806020018673ffffffffffffffffffffffffffffffffffffffff1673ffffffffffffffffffffffffffffffffffffffff1681526020018581526020018481038452898181546001816001161561010002031660029004815260200191508054600181600116156101000203166002900480156132465780601f1061321b57610100808354040283529160200191613246565b820191906000526020600020905b81548152906001019060200180831161322957829003601f168201915b50508481038352888882818152602001925080828437600081840152601f19601f82011690508083019250505084810382526000815260200160200198505050505050505050600060405180830381600087803b1580156132a657600080fd5b505af11580156132ba573d6000803e3d6000fd5b505050505050505050565b600560009054906101000a900473ffffffffffffffffffffffffffffffffffffffff1673ffffffffffffffffffffffffffffffffffffffff1663e572515c6040518163ffffffff167c010000000000000000000000000000000000000000000000000000000002815260040160206040518083038186803b15801561334957600080fd5b505afa15801561335d573d6000803e3d6000fd5b505050506040513d602081101561337357600080fd5b810190808051906020019092919050505073ffffffffffffffffffffffffffffffffffffffff163373ffffffffffffffffffffffffffffffffffffffff16141515613409576040517f08c379a000000000000000000000000000000000000000000000000000000000815260040180806020018281038252602881526020018061b7ff6028913960400191505060405180910390fd5b80600115156134178261886b565b1515141515613471576040517f08c379a000000000000000000000000000000000000000000000000000000000815260040180806020018281038252602681526020018061b8276026913960400191505060405180910390fd5b6000600460009054906101000a900473ffffffffffffffffffffffffffffffffffffffff1673ffffffffffffffffffffffffffffffffffffffff16630cc274938787876040518463ffffffff167c010000000000000000000000000000000000000000000000000000000002815260040180806020018381526020018281038252858582818152602001925080828437600081840152601f19601f820116905080830192505050945050505050602060405180830381600087803b15801561353857600080fd5b505af115801561354c573d6000803e3d6000fd5b505050506040513d602081101561356257600080fd5b81019080805190602001909291905050509050600260009054906101000a900473ffffffffffffffffffffffffffffffffffffffff1673ffffffffffffffffffffffffffffffffffffffff1663e98ac22d600688886000866040518663ffffffff167c0100000000000000000000000000000000000000000000000000000000028152600401808060200180602001806020018673ffffffffffffffffffffffffffffffffffffffff1673ffffffffffffffffffffffffffffffffffffffff1681526020018581526020018481038452898181546001816001161561010002031660029004815260200191508054600181600116156101000203166002900480156136ae5780601f10613683576101008083540402835291602001916136ae565b820191906000526020600020905b81548152906001019060200180831161369157829003601f168201915b50508481038352888882818152602001925080828437600081840152601f19601f82011690508083019250505084810382526000815260200160200198505050505050505050600060405180830381600087803b15801561370e57600080fd5b505af1158015613722573d6000803e3d6000fd5b50505050505050505050565b600560009054906101000a900473ffffffffffffffffffffffffffffffffffffffff1673ffffffffffffffffffffffffffffffffffffffff1663e572515c6040518163ffffffff167c010000000000000000000000000000000000000000000000000000000002815260040160206040518083038186803b1580156137b257600080fd5b505afa1580156137c6573d6000803e3d6000fd5b505050506040513d60208110156137dc57600080fd5b810190808051906020019092919050505073ffffffffffffffffffffffffffffffffffffffff163373ffffffffffffffffffffffffffffffffffffffff16141515613872576040517f08c379a000000000000000000000000000000000000000000000000000000000815260040180806020018281038252602881526020018061b7ff6028913960400191505060405180910390fd5b85858080601f016020809104026020016040519081016040528093929190818152602001838380828437600081840152601f19601f82011690508083019250505050505050600115156138c48261ad05565b151514151561393b576040517f08c379a00000000000000000000000000000000000000000000000000000000081526004018080602001828103825260128152602001807f6f726720646f6573206e6f74206578697374000000000000000000000000000081525060200191505060405180910390fd5b81600115156139498261886b565b15151415156139a3576040517f08c379a000000000000000000000000000000000000000000000000000000000815260040180806020018281038252602681526020018061b8276026913960400191505060405180910390fd5b6000809054906101000a900473ffffffffffffffffffffffffffffffffffffffff1673ffffffffffffffffffffffffffffffffffffffff1663e3483a9d878a8a898960016040518763ffffffff167c0100000000000000000000000000000000000000000000000000000000028152600401808773ffffffffffffffffffffffffffffffffffffffff1673ffffffffffffffffffffffffffffffffffffffff16815260200180602001806020018481526020018381038352888882818152602001925080828437600081840152601f19601f8201169050808301925050508381038252868682818152602001925080828437600081840152601f19601f82011690508083019250505098505050505050505050600060405180830381600087803b158015613ad057600080fd5b505af1158015613ae4573d6000803e3d6000fd5b50505050600260009054906101000a900473ffffffffffffffffffffffffffffffffffffffff1673ffffffffffffffffffffffffffffffffffffffff1663e98ac22d60068a8a8a60046040518663ffffffff167c0100000000000000000000000000000000000000000000000000000000028152600401808060200180602001806020018673ffffffffffffffffffffffffffffffffffffffff1673ffffffffffffffffffffffffffffffffffffffff168152602001858152602001848103845289818154600181600116156101000203166002900481526020019150805460018160011615610100020316600290048015613c215780601f10613bf657610100808354040283529160200191613c21565b820191906000526020600020905b815481529060010190602001808311613c0457829003601f168201915b50508481038352888882818152602001925080828437600081840152601f19601f82011690508083019250505084810382526000815260200160200198505050505050505050600060405180830381600087803b158015613c8157600080fd5b505af1158015613c95573d6000803e3d6000fd5b505050505050505050505050565b6000600560009054906101000a900473ffffffffffffffffffffffffffffffffffffffff1673ffffffffffffffffffffffffffffffffffffffff1663e572515c6040518163ffffffff167c010000000000000000000000000000000000000000000000000000000002815260040160206040518083038186803b158015613d2957600080fd5b505afa158015613d3d573d6000803e3d6000fd5b505050506040513d6020811015613d5357600080fd5b810190808051906020019092919050505073ffffffffffffffffffffffffffffffffffffffff163373ffffffffffffffffffffffffffffffffffffffff16141515613de9576040517f08c379a000000000000000000000000000000000000000000000000000000000815260040180806020018281038252602881526020018061b7ff6028913960400191505060405180910390fd5b6000801515600a60009054906101000a900460ff161515141515613e75576040517f08c379a000000000000000000000000000000000000000000000000000000000815260040180806020018281038252601d8152602001807f496e636f7272656374206e6574776f726b20626f6f742073746174757300000081525060200191505060405180910390fd5b6001600a60006101000a81548160ff0219169083151502179055507f04f651be6fb8fc575d94591e56e9f6e66e33ef23e949765918b3bdae50c617cf600a60009054906101000a900460ff16604051808215151515815260200191505060405180910390a1600a60009054906101000a900460ff1691505090565b6000600a60009054906101000a900460ff161515613f11576001905061404e565b600360009054906101000a900473ffffffffffffffffffffffffffffffffffffffff1673ffffffffffffffffffffffffffffffffffffffff166345a59e5b87878787876040518663ffffffff167c01000000000000000000000000000000000000000000000000000000000281526004018080602001806020018461ffff1661ffff1681526020018381038352888882818152602001925080828437600081840152601f19601f8201169050808301925050508381038252868682818152602001925080828437600081840152601f19601f82011690508083019250505097505050505050505060206040518083038186803b15801561401057600080fd5b505afa158015614024573d6000803e3d6000fd5b505050506040513d602081101561403a57600080fd5b810190808051906020019092919050505090505b95945050505050565b600560009054906101000a900473ffffffffffffffffffffffffffffffffffffffff1673ffffffffffffffffffffffffffffffffffffffff1663e572515c6040518163ffffffff167c010000000000000000000000000000000000000000000000000000000002815260040160206040518083038186803b1580156140db57600080fd5b505afa1580156140ef573d6000803e3d6000fd5b505050506040513d602081101561410557600080fd5b810190808051906020019092919050505073ffffffffffffffffffffffffffffffffffffffff163373ffffffffffffffffffffffffffffffffffffffff1614151561419b576040517f08c379a000000000000000000000000000000000000000000000000000000000815260040180806020018281038252602881526020018061b7ff6028913960400191505060405180910390fd5b80600115156141a98261886b565b1515141515614203576040517f08c379a000000000000000000000000000000000000000000000000000000000815260040180806020018281038252602681526020018061b8276026913960400191505060405180910390fd5b6142a960068054600181600116156101000203166002900480601f01602080910402602001604051908101604052809291908181526020018280546001816001161561010002031660029004801561429c5780601f106142715761010080835404028352916020019161429c565b820191906000526020600020905b81548152906001019060200180831161427f57829003601f168201915b505050505083600661ae3d565b156143c0576000809054906101000a900473ffffffffffffffffffffffffffffffffffffffff1673ffffffffffffffffffffffffffffffffffffffff166384b7a84a86868660056040518563ffffffff167c010000000000000000000000000000000000000000000000000000000002815260040180806020018473ffffffffffffffffffffffffffffffffffffffff1673ffffffffffffffffffffffffffffffffffffffff1681526020018381526020018281038252868682818152602001925080828437600081840152601f19601f82011690508083019250505095505050505050600060405180830381600087803b1580156143a757600080fd5b505af11580156143bb573d6000803e3d6000fd5b505050505b5050505050565b6000600a60009054906101000a900460ff16905090565b600560009054906101000a900473ffffffffffffffffffffffffffffffffffffffff1673ffffffffffffffffffffffffffffffffffffffff1663e572515c6040518163ffffffff167c010000000000000000000000000000000000000000000000000000000002815260040160206040518083038186803b15801561446257600080fd5b505afa158015614476573d6000803e3d6000fd5b505050506040513d602081101561448c57600080fd5b810190808051906020019092919050505073ffffffffffffffffffffffffffffffffffffffff163373ffffffffffffffffffffffffffffffffffffffff16141515614522576040517f08c379a000000000000000000000000000000000000000000000000000000000815260040180806020018281038252602881526020018061b7ff6028913960400191505060405180910390fd5b6000801515600a60009054906101000a900460ff1615151415156145ae576040517f08c379a000000000000000000000000000000000000000000000000000000000815260040180806020018281038252601d8152602001807f496e636f7272656374206e6574776f726b20626f6f742073746174757300000081525060200191505060405180910390fd5b61465460068054600181600116156101000203166002900480601f0160208091040260200160405190810160405280929190818152602001828054600181600116156101000203166002900480156146475780601f1061461c57610100808354040283529160200191614647565b820191906000526020600020905b81548152906001019060200180831161462a57829003601f168201915b505050505083600161afb5565b6000809054906101000a900473ffffffffffffffffffffffffffffffffffffffff1673ffffffffffffffffffffffffffffffffffffffff1663e3483a9d836006600760026040518563ffffffff167c0100000000000000000000000000000000000000000000000000000000028152600401808573ffffffffffffffffffffffffffffffffffffffff1673ffffffffffffffffffffffffffffffffffffffff16815260200180602001806020018481526020018381038352868181546001816001161561010002031660029004815260200191508054600181600116156101000203166002900480156147885780601f1061475d57610100808354040283529160200191614788565b820191906000526020600020905b81548152906001019060200180831161476b57829003601f168201915b505083810382528581815460018160011615610100020316600290048152602001915080546001816001161561010002031660029004801561480b5780601f106147e05761010080835404028352916020019161480b565b820191906000526020600020905b8154815290600101906020018083116147ee57829003601f168201915b50509650505050505050600060405180830381600087803b15801561482f57600080fd5b505af1158015614843573d6000803e3d6000fd5b505050505050565b600560009054906101000a900473ffffffffffffffffffffffffffffffffffffffff1673ffffffffffffffffffffffffffffffffffffffff1663e572515c6040518163ffffffff167c010000000000000000000000000000000000000000000000000000000002815260040160206040518083038186803b1580156148cf57600080fd5b505afa1580156148e3573d6000803e3d6000fd5b505050506040513d60208110156148f957600080fd5b810190808051906020019092919050505073ffffffffffffffffffffffffffffffffffffffff163373ffffffffffffffffffffffffffffffffffffffff1614151561498f576040517f08c379a000000000000000000000000000000000000000000000000000000000815260040180806020018281038252602881526020018061b7ff6028913960400191505060405180910390fd5b82828080601f016020809104026020016040519081016040528093929190818152602001838380828437600081840152601f19601f82011690508083019250505050505050600115156149e18261abc4565b1515141515614a58576040517f08c379a000000000000000000000000000000000000000000000000000000000815260040180806020018281038252601a8152602001807f6f7267206e6f7420696e20617070726f7665642073746174757300000000000081525060200191505060405180910390fd5b8184848080601f016020809104026020016040519081016040528093929190818152602001838380828437600081840152601f19601f8201169050808301925050505050505060011515614aac8383616d23565b1515141515614b06576040517f08c379a000000000000000000000000000000000000000000000000000000000815260040180806020018281038252602281526020018061b84d6022913960400191505060405180910390fd5b60076040516020018080602001828103825283818154600181600116156101000203166002900481526020019150805460018160011615610100020316600290048015614b945780601f10614b6957610100808354040283529160200191614b94565b820191906000526020600020905b815481529060010190602001808311614b7757829003601f168201915b50509250505060405160208183030381529060405280519060200120888860405160200180806020018281038252848482818152602001925080828437600081840152601f19601f82011690508083019250505093505050506040516020818303038152906040528051906020012014158015614d0c575060086040516020018080602001828103825283818154600181600116156101000203166002900481526020019150805460018160011615610100020316600290048015614c9a5780601f10614c6f57610100808354040283529160200191614c9a565b820191906000526020600020905b815481529060010190602001808311614c7d57829003601f168201915b50509250505060405160208183030381529060405280519060200120888860405160200180806020018281038252848482818152602001925080828437600081840152601f19601f82011690508083019250505093505050506040516020818303038152906040528051906020012014155b1515614d80576040517f08c379a000000000000000000000000000000000000000000000000000000000815260040180806020018281038252601d8152602001807f61646d696e20726f6c65732063616e6e6f742062652072656d6f76656400000081525060200191505060405180910390fd5b600160009054906101000a900473ffffffffffffffffffffffffffffffffffffffff1673ffffffffffffffffffffffffffffffffffffffff1663a6343012898989896040518563ffffffff167c01000000000000000000000000000000000000000000000000000000000281526004018080602001806020018381038352878782818152602001925080828437600081840152601f19601f8201169050808301925050508381038252858582818152602001925080828437600081840152601f19601f8201169050808301925050509650505050505050600060405180830381600087803b158015614e7157600080fd5b505af1158015614e85573d6000803e3d6000fd5b505050505050505050505050565b600560009054906101000a900473ffffffffffffffffffffffffffffffffffffffff1673ffffffffffffffffffffffffffffffffffffffff1663e572515c6040518163ffffffff167c010000000000000000000000000000000000000000000000000000000002815260040160206040518083038186803b158015614f1757600080fd5b505afa158015614f2b573d6000803e3d6000fd5b505050506040513d6020811015614f4157600080fd5b810190808051906020019092919050505073ffffffffffffffffffffffffffffffffffffffff163373ffffffffffffffffffffffffffffffffffffffff16141515614fd7576040517f08c379a000000000000000000000000000000000000000000000000000000000815260040180806020018281038252602881526020018061b7ff6028913960400191505060405180910390fd5b8a8a8080601f016020809104026020016040519081016040528093929190818152602001838380828437600081840152601f19601f82011690508083019250505050505050600115156150298261ad05565b15151415156150a0576040517f08c379a00000000000000000000000000000000000000000000000000000000081526004018080602001828103825260128152602001807f6f726720646f6573206e6f74206578697374000000000000000000000000000081525060200191505060405180910390fd5b818c8c8080601f016020809104026020016040519081016040528093929190818152602001838380828437600081840152601f19601f82011690508083019250505050505050600115156150f48383616d23565b151514151561514e576040517f08c379a000000000000000000000000000000000000000000000000000000000815260040180806020018281038252602281526020018061b84d6022913960400191505060405180910390fd5b600460009054906101000a900473ffffffffffffffffffffffffffffffffffffffff1673ffffffffffffffffffffffffffffffffffffffff16631f9534808f8f8f8f6040518563ffffffff167c01000000000000000000000000000000000000000000000000000000000281526004018080602001806020018381038352878782818152602001925080828437600081840152601f19601f8201169050808301925050508381038252858582818152602001925080828437600081840152601f19601f8201169050808301925050509650505050505050600060405180830381600087803b15801561523f57600080fd5b505af1158015615253573d6000803e3d6000fd5b5050505060608e8e8e8e6040516020018085858082843780830192505050807f2e0000000000000000000000000000000000000000000000000000000000000081525060010183838082843780830192505050945050505050604051602081830303815290604052905060008b8b9050111561546057600360009054906101000a900473ffffffffffffffffffffffffffffffffffffffff1673ffffffffffffffffffffffffffffffffffffffff16634c5733118c8c8c8c8c8c886040518863ffffffff167c01000000000000000000000000000000000000000000000000000000000281526004018080602001806020018661ffff1661ffff1681526020018561ffff1661ffff1681526020018060200184810384528b8b82818152602001925080828437600081840152601f19601f8201169050808301925050508481038352898982818152602001925080828437600081840152601f19601f820116905080830192505050848103825285818151815260200191508051906020019080838360005b838110156153f35780820151818401526020810190506153d8565b50505050905090810190601f1680156154205780820380516001836020036101000a031916815260200191505b509a5050505050505050505050600060405180830381600087803b15801561544757600080fd5b505af115801561545b573d6000803e3d6000fd5b505050505b505050505050505050505050505050565b60008060009054906101000a900473ffffffffffffffffffffffffffffffffffffffff1673ffffffffffffffffffffffffffffffffffffffff16636b568d7684846040518363ffffffff167c0100000000000000000000000000000000000000000000000000000000028152600401808373ffffffffffffffffffffffffffffffffffffffff1673ffffffffffffffffffffffffffffffffffffffff16815260200180602001828103825283818151815260200191508051906020019080838360005b8381101561554f578082015181840152602081019050615534565b50505050905090810190601f16801561557c5780820380516001836020036101000a031916815260200191505b50935050505060206040518083038186803b15801561559a57600080fd5b505afa1580156155ae573d6000803e3d6000fd5b505050506040513d60208110156155c457600080fd5b8101908080519060200190929190505050905092915050565b600560009054906101000a900473ffffffffffffffffffffffffffffffffffffffff1673ffffffffffffffffffffffffffffffffffffffff1663e572515c6040518163ffffffff167c010000000000000000000000000000000000000000000000000000000002815260040160206040518083038186803b15801561566157600080fd5b505afa158015615675573d6000803e3d6000fd5b505050506040513d602081101561568b57600080fd5b810190808051906020019092919050505073ffffffffffffffffffffffffffffffffffffffff163373ffffffffffffffffffffffffffffffffffffffff16141515615721576040517f08c379a000000000000000000000000000000000000000000000000000000000815260040180806020018281038252602881526020018061b7ff6028913960400191505060405180910390fd5b6000801515600a60009054906101000a900460ff1615151415156157ad576040517f08c379a000000000000000000000000000000000000000000000000000000000815260040180806020018281038252601d8152602001807f496e636f7272656374206e6574776f726b20626f6f742073746174757300000081525060200191505060405180910390fd5b600360009054906101000a900473ffffffffffffffffffffffffffffffffffffffff1673ffffffffffffffffffffffffffffffffffffffff16634530abe188888888888860066040518863ffffffff167c01000000000000000000000000000000000000000000000000000000000281526004018080602001806020018661ffff1661ffff1681526020018561ffff1661ffff1681526020018060200184810384528b8b82818152602001925080828437600081840152601f19601f8201169050808301925050508481038352898982818152602001925080828437600081840152601f19601f8201169050808301925050508481038252858181546001816001161561010002031660029004815260200191508054600181600116156101000203166002900480156159215780601f106158f657610100808354040283529160200191615921565b820191906000526020600020905b81548152906001019060200180831161590457829003601f168201915b50509a5050505050505050505050600060405180830381600087803b15801561594957600080fd5b505af115801561595d573d6000803e3d6000fd5b5050505050505050505050565b600560009054906101000a900473ffffffffffffffffffffffffffffffffffffffff1673ffffffffffffffffffffffffffffffffffffffff1663e572515c6040518163ffffffff167c010000000000000000000000000000000000000000000000000000000002815260040160206040518083038186803b1580156159ee57600080fd5b505afa158015615a02573d6000803e3d6000fd5b505050506040513d6020811015615a1857600080fd5b810190808051906020019092919050505073ffffffffffffffffffffffffffffffffffffffff163373ffffffffffffffffffffffffffffffffffffffff16141515615aae576040517f08c379a000000000000000000000000000000000000000000000000000000000815260040180806020018281038252602881526020018061b7ff6028913960400191505060405180910390fd5b8060011515615abc8261886b565b1515141515615b16576040517f08c379a000000000000000000000000000000000000000000000000000000000815260040180806020018281038252602681526020018061b8276026913960400191505060405180910390fd5b615bbc60068054600181600116156101000203166002900480601f016020809104026020016040519081016040528092919081815260200182805460018160011615610100020316600290048015615baf5780601f10615b8457610100808354040283529160200191615baf565b820191906000526020600020905b815481529060010190602001808311615b9257829003601f168201915b505050505083600461ae3d565b15615f55576000806000809054906101000a900473ffffffffffffffffffffffffffffffffffffffff1673ffffffffffffffffffffffffffffffffffffffff16631d09dc9388886040518363ffffffff167c010000000000000000000000000000000000000000000000000000000002815260040180806020018281038252848482818152602001925080828437600081840152601f19601f82011690508083019250505093505050506040805180830381600087803b158015615c7f57600080fd5b505af1158015615c93573d6000803e3d6000fd5b505050506040513d6040811015615ca957600080fd5b810190808051906020019092919080519060200190929190505050915091508115615d7557615d7460068054600181600116156101000203166002900480601f016020809104026020016040519081016040528092919081815260200182805460018160011615610100020316600290048015615d675780601f10615d3c57610100808354040283529160200191615d67565b820191906000526020600020905b815481529060010190602001808311615d4a57829003601f168201915b505050505082600061afb5565b5b60008060009054906101000a900473ffffffffffffffffffffffffffffffffffffffff1673ffffffffffffffffffffffffffffffffffffffff1663c214e5e58989896040518463ffffffff167c010000000000000000000000000000000000000000000000000000000002815260040180806020018373ffffffffffffffffffffffffffffffffffffffff1673ffffffffffffffffffffffffffffffffffffffff1681526020018281038252858582818152602001925080828437600081840152601f19601f820116905080830192505050945050505050602060405180830381600087803b158015615e6757600080fd5b505af1158015615e7b573d6000803e3d6000fd5b505050506040513d6020811015615e9157600080fd5b810190808051906020019092919050505090508015615f5157615f5060068054600181600116156101000203166002900480601f016020809104026020016040519081016040528092919081815260200182805460018160011615610100020316600290048015615f435780601f10615f1857610100808354040283529160200191615f43565b820191906000526020600020905b815481529060010190602001808311615f2657829003601f168201915b505050505087600161afb5565b5b5050505b5050505050565b600560009054906101000a900473ffffffffffffffffffffffffffffffffffffffff1673ffffffffffffffffffffffffffffffffffffffff1663e572515c6040518163ffffffff167c010000000000000000000000000000000000000000000000000000000002815260040160206040518083038186803b158015615fe057600080fd5b505afa158015615ff4573d6000803e3d6000fd5b505050506040513d602081101561600a57600080fd5b810190808051906020019092919050505073ffffffffffffffffffffffffffffffffffffffff163373ffffffffffffffffffffffffffffffffffffffff161415156160a0576040517f08c379a000000000000000000000000000000000000000000000000000000000815260040180806020018281038252602881526020018061b7ff6028913960400191505060405180910390fd5b8083600115156160b08383616d23565b151514151561610a576040517f08c379a000000000000000000000000000000000000000000000000000000000815260040180806020018281038252602281526020018061b84d6022913960400191505060405180910390fd5b84600115156161188261abc4565b151514151561618f576040517f08c379a000000000000000000000000000000000000000000000000000000000815260040180806020018281038252601a8152602001807f6f7267206e6f7420696e20617070726f7665642073746174757300000000000081525060200191505060405180910390fd5b6001151561619d8888615471565b1515141515616214576040517f08c379a000000000000000000000000000000000000000000000000000000000815260040180806020018281038252601d8152602001807f6f7065726174696f6e2063616e6e6f7420626520706572666f726d656400000081525060200191505060405180910390fd5b60011515616222868861b24a565b1515141515616299576040517f08c379a00000000000000000000000000000000000000000000000000000000081526004018080602001828103825260148152602001807f726f6c6520646f6573206e6f742065786973747300000000000000000000000081525060200191505060405180910390fd5b6000600160009054906101000a900473ffffffffffffffffffffffffffffffffffffffff1673ffffffffffffffffffffffffffffffffffffffff1663be322e5487896162e48b61b465565b6040518463ffffffff167c010000000000000000000000000000000000000000000000000000000002815260040180806020018060200180602001848103845287818151815260200191508051906020019080838360005b8381101561635757808201518184015260208101905061633c565b50505050905090810190601f1680156163845780820380516001836020036101000a031916815260200191505b50848103835286818151815260200191508051906020019080838360005b838110156163bd5780820151818401526020810190506163a2565b50505050905090810190601f1680156163ea5780820380516001836020036101000a031916815260200191505b50848103825285818151815260200191508051906020019080838360005b83811015616423578082015181840152602081019050616408565b50505050905090810190601f1680156164505780820380516001836020036101000a031916815260200191505b50965050505050505060206040518083038186803b15801561647157600080fd5b505afa158015616485573d6000803e3d6000fd5b505050506040513d602081101561649b57600080fd5b810190808051906020019092919050505090506000809054906101000a900473ffffffffffffffffffffffffffffffffffffffff1673ffffffffffffffffffffffffffffffffffffffff1663143a5604898989856040518563ffffffff167c0100000000000000000000000000000000000000000000000000000000028152600401808573ffffffffffffffffffffffffffffffffffffffff1673ffffffffffffffffffffffffffffffffffffffff168152602001806020018060200184151515158152602001838103835286818151815260200191508051906020019080838360005b8381101561659a57808201518184015260208101905061657f565b50505050905090810190601f1680156165c75780820380516001836020036101000a031916815260200191505b50838103825285818151815260200191508051906020019080838360005b838110156166005780820151818401526020810190506165e5565b50505050905090810190601f16801561662d5780820380516001836020036101000a031916815260200191505b509650505050505050600060405180830381600087803b15801561665057600080fd5b505af1158015616664573d6000803e3d6000fd5b505050505050505050505050565b6000600a60009054906101000a900460ff1615156166935760019050616d18565b60026000809054906101000a900473ffffffffffffffffffffffffffffffffffffffff1673ffffffffffffffffffffffffffffffffffffffff1663fd4fa05a8a6040518263ffffffff167c0100000000000000000000000000000000000000000000000000000000028152600401808273ffffffffffffffffffffffffffffffffffffffff1673ffffffffffffffffffffffffffffffffffffffff16815260200191505060206040518083038186803b15801561674f57600080fd5b505afa158015616763573d6000803e3d6000fd5b505050506040513d602081101561677957600080fd5b81019080805190602001909291905050501415616d13576060806000809054906101000a900473ffffffffffffffffffffffffffffffffffffffff1673ffffffffffffffffffffffffffffffffffffffff16636acee5fd8b6040518263ffffffff167c0100000000000000000000000000000000000000000000000000000000028152600401808273ffffffffffffffffffffffffffffffffffffffff1673ffffffffffffffffffffffffffffffffffffffff16815260200191505060006040518083038186803b15801561684d57600080fd5b505afa158015616861573d6000803e3d6000fd5b505050506040513d6000823e3d601f19601f82011682018060405250604081101561688b57600080fd5b8101908080516401000000008111156168a357600080fd5b828101905060208101848111156168b957600080fd5b81518560018202830111640100000000821117156168d657600080fd5b505092919060200180516401000000008111156168f257600080fd5b8281019050602081018481111561690857600080fd5b815185600182028301116401000000008211171561692557600080fd5b505092919050505091509150606061693c8361b465565b9050600460009054906101000a900473ffffffffffffffffffffffffffffffffffffffff1673ffffffffffffffffffffffffffffffffffffffff16633fd62ae7846040518263ffffffff167c01000000000000000000000000000000000000000000000000000000000281526004018080602001828103825283818151815260200191508051906020019080838360005b838110156169e85780820151818401526020810190506169cd565b50505050905090810190601f168015616a155780820380516001836020036101000a031916815260200191505b509250505060206040518083038186803b158015616a3257600080fd5b505afa158015616a46573d6000803e3d6000fd5b505050506040513d6020811015616a5c57600080fd5b810190808051906020019092919050505015616d0f57616a7b8b61886b565b80616a8c5750616a8b8b84616d23565b5b15616a9d5760019350505050616d18565b600060019050600073ffffffffffffffffffffffffffffffffffffffff168b73ffffffffffffffffffffffffffffffffffffffff161415616ae15760029050616af3565b6000878790501115616af257600390505b5b600160009054906101000a900473ffffffffffffffffffffffffffffffffffffffff1673ffffffffffffffffffffffffffffffffffffffff1663d1f77866848685856040518563ffffffff167c010000000000000000000000000000000000000000000000000000000002815260040180806020018060200180602001858152602001848103845288818151815260200191508051906020019080838360005b83811015616bae578082015181840152602081019050616b93565b50505050905090810190601f168015616bdb5780820380516001836020036101000a031916815260200191505b50848103835287818151815260200191508051906020019080838360005b83811015616c14578082015181840152602081019050616bf9565b50505050905090810190601f168015616c415780820380516001836020036101000a031916815260200191505b50848103825286818151815260200191508051906020019080838360005b83811015616c7a578082015181840152602081019050616c5f565b50505050905090810190601f168015616ca75780820380516001836020036101000a031916815260200191505b5097505050505050505060206040518083038186803b158015616cc957600080fd5b505afa158015616cdd573d6000803e3d6000fd5b505050506040513d6020811015616cf357600080fd5b8101908080519060200190929190505050945050505050616d18565b5050505b600090505b979650505050505050565b60008060009054906101000a900473ffffffffffffffffffffffffffffffffffffffff1673ffffffffffffffffffffffffffffffffffffffff1663e8b42bf48484616d6d8661b465565b6040518463ffffffff167c0100000000000000000000000000000000000000000000000000000000028152600401808473ffffffffffffffffffffffffffffffffffffffff1673ffffffffffffffffffffffffffffffffffffffff1681526020018060200180602001838103835285818151815260200191508051906020019080838360005b83811015616e0e578082015181840152602081019050616df3565b50505050905090810190601f168015616e3b5780820380516001836020036101000a031916815260200191505b50838103825284818151815260200191508051906020019080838360005b83811015616e74578082015181840152602081019050616e59565b50505050905090810190601f168015616ea15780820380516001836020036101000a031916815260200191505b509550505050505060206040518083038186803b158015616ec157600080fd5b505afa158015616ed5573d6000803e3d6000fd5b505050506040513d6020811015616eeb57600080fd5b810190808051906020019092919050505015616f0a5760019050617268565b600160009054906101000a900473ffffffffffffffffffffffffffffffffffffffff1673ffffffffffffffffffffffffffffffffffffffff1663be322e546000809054906101000a900473ffffffffffffffffffffffffffffffffffffffff1673ffffffffffffffffffffffffffffffffffffffff166381d66b23866040518263ffffffff167c0100000000000000000000000000000000000000000000000000000000028152600401808273ffffffffffffffffffffffffffffffffffffffff1673ffffffffffffffffffffffffffffffffffffffff16815260200191505060006040518083038186803b15801561700257600080fd5b505afa158015617016573d6000803e3d6000fd5b505050506040513d6000823e3d601f19601f82011682018060405250602081101561704057600080fd5b81019080805164010000000081111561705857600080fd5b8281019050602081018481111561706e57600080fd5b815185600182028301116401000000008211171561708b57600080fd5b50509291905050508461709d8661b465565b6040518463ffffffff167c010000000000000000000000000000000000000000000000000000000002815260040180806020018060200180602001848103845287818151815260200191508051906020019080838360005b838110156171105780820151818401526020810190506170f5565b50505050905090810190601f16801561713d5780820380516001836020036101000a031916815260200191505b50848103835286818151815260200191508051906020019080838360005b8381101561717657808201518184015260208101905061715b565b50505050905090810190601f1680156171a35780820380516001836020036101000a031916815260200191505b50848103825285818151815260200191508051906020019080838360005b838110156171dc5780820151818401526020810190506171c1565b50505050905090810190601f1680156172095780820380516001836020036101000a031916815260200191505b50965050505050505060206040518083038186803b15801561722a57600080fd5b505afa15801561723e573d6000803e3d6000fd5b505050506040513d602081101561725457600080fd5b810190808051906020019092919050505090505b92915050565b600560009054906101000a900473ffffffffffffffffffffffffffffffffffffffff1673ffffffffffffffffffffffffffffffffffffffff1663e572515c6040518163ffffffff167c010000000000000000000000000000000000000000000000000000000002815260040160206040518083038186803b1580156172f257600080fd5b505afa158015617306573d6000803e3d6000fd5b505050506040513d602081101561731c57600080fd5b810190808051906020019092919050505073ffffffffffffffffffffffffffffffffffffffff163373ffffffffffffffffffffffffffffffffffffffff161415156173b2576040517f08c379a000000000000000000000000000000000000000000000000000000000815260040180806020018281038252602881526020018061b7ff6028913960400191505060405180910390fd5b80600115156173c08261886b565b151514151561741a576040517f08c379a000000000000000000000000000000000000000000000000000000000815260040180806020018281038252602681526020018061b8276026913960400191505060405180910390fd5b6174c060068054600181600116156101000203166002900480601f0160208091040260200160405190810160405280929190818152602001828054600181600116156101000203166002900480156174b35780601f10617488576101008083540402835291602001916174b3565b820191906000526020600020905b81548152906001019060200180831161749657829003601f168201915b505050505083600561ae3d565b156176d757600360009054906101000a900473ffffffffffffffffffffffffffffffffffffffff1673ffffffffffffffffffffffffffffffffffffffff166337d50b27878787878c60056040518763ffffffff167c01000000000000000000000000000000000000000000000000000000000281526004018080602001806020018761ffff1661ffff1681526020018661ffff1661ffff1681526020018060200185815260200184810384528a818151815260200191508051906020019080838360005b8381101561759f578082015181840152602081019050617584565b50505050905090810190601f1680156175cc5780820380516001836020036101000a031916815260200191505b50848103835289818151815260200191508051906020019080838360005b838110156176055780820151818401526020810190506175ea565b50505050905090810190601f1680156176325780820380516001836020036101000a031916815260200191505b50848103825286818151815260200191508051906020019080838360005b8381101561766b578082015181840152602081019050617650565b50505050905090810190601f1680156176985780820380516001836020036101000a031916815260200191505b509950505050505050505050600060405180830381600087803b1580156176be57600080fd5b505af11580156176d2573d6000803e3d6000fd5b505050505b50505050505050565b600560009054906101000a900473ffffffffffffffffffffffffffffffffffffffff1673ffffffffffffffffffffffffffffffffffffffff1663e572515c6040518163ffffffff167c010000000000000000000000000000000000000000000000000000000002815260040160206040518083038186803b15801561776457600080fd5b505afa158015617778573d6000803e3d6000fd5b505050506040513d602081101561778e57600080fd5b810190808051906020019092919050505073ffffffffffffffffffffffffffffffffffffffff163373ffffffffffffffffffffffffffffffffffffffff16141515617824576040517f08c379a000000000000000000000000000000000000000000000000000000000815260040180806020018281038252602881526020018061b7ff6028913960400191505060405180910390fd5b6000801515600a60009054906101000a900460ff1615151415156178b0576040517f08c379a000000000000000000000000000000000000000000000000000000000815260040180806020018281038252601d8152602001807f496e636f7272656374206e6574776f726b20626f6f742073746174757300000081525060200191505060405180910390fd5b600460009054906101000a900473ffffffffffffffffffffffffffffffffffffffff1673ffffffffffffffffffffffffffffffffffffffff16639e58eb9f600685856040518463ffffffff167c010000000000000000000000000000000000000000000000000000000002815260040180806020018481526020018381526020018281038252858181546001816001161561010002031660029004815260200191508054600181600116156101000203166002900480156179b25780601f10617987576101008083540402835291602001916179b2565b820191906000526020600020905b81548152906001019060200180831161799557829003601f168201915b5050945050505050600060405180830381600087803b1580156179d457600080fd5b505af11580156179e8573d6000803e3d6000fd5b50505050600160009054906101000a900473ffffffffffffffffffffffffffffffffffffffff1673ffffffffffffffffffffffffffffffffffffffff16637b713579600760066009546001806040518663ffffffff167c01000000000000000000000000000000000000000000000000000000000281526004018080602001806020018681526020018515151515815260200184151515158152602001838103835288818154600181600116156101000203166002900481526020019150805460018160011615610100020316600290048015617b065780601f10617adb57610100808354040283529160200191617b06565b820191906000526020600020905b815481529060010190602001808311617ae957829003601f168201915b5050838103825287818154600181600116156101000203166002900481526020019150805460018160011615610100020316600290048015617b895780601f10617b5e57610100808354040283529160200191617b89565b820191906000526020600020905b815481529060010190602001808311617b6c57829003601f168201915b5050975050505050505050600060405180830381600087803b158015617bae57600080fd5b505af1158015617bc2573d6000803e3d6000fd5b505050506000809054906101000a900473ffffffffffffffffffffffffffffffffffffffff1673ffffffffffffffffffffffffffffffffffffffff1663cef7f6af600760086040518363ffffffff167c0100000000000000000000000000000000000000000000000000000000028152600401808060200180602001838103835285818154600181600116156101000203166002900481526020019150805460018160011615610100020316600290048015617cbf5780601f10617c9457610100808354040283529160200191617cbf565b820191906000526020600020905b815481529060010190602001808311617ca257829003601f168201915b5050838103825284818154600181600116156101000203166002900481526020019150805460018160011615610100020316600290048015617d425780601f10617d1757610100808354040283529160200191617d42565b820191906000526020600020905b815481529060010190602001808311617d2557829003601f168201915b5050945050505050600060405180830381600087803b158015617d6457600080fd5b505af1158015617d78573d6000803e3d6000fd5b50505050505050565b600560009054906101000a900473ffffffffffffffffffffffffffffffffffffffff1673ffffffffffffffffffffffffffffffffffffffff1663e572515c6040518163ffffffff167c010000000000000000000000000000000000000000000000000000000002815260040160206040518083038186803b158015617e0557600080fd5b505afa158015617e19573d6000803e3d6000fd5b505050506040513d6020811015617e2f57600080fd5b810190808051906020019092919050505073ffffffffffffffffffffffffffffffffffffffff163373ffffffffffffffffffffffffffffffffffffffff16141515617ec5576040517f08c379a000000000000000000000000000000000000000000000000000000000815260040180806020018281038252602881526020018061b7ff6028913960400191505060405180910390fd5b8060011515617ed38261886b565b1515141515617f2d576040517f08c379a000000000000000000000000000000000000000000000000000000000815260040180806020018281038252602681526020018061b8276026913960400191505060405180910390fd5b6001831480617f3c5750600283145b1515617fb0576040517f08c379a00000000000000000000000000000000000000000000000000000000081526004018080602001828103825260158152602001807f4f7065726174696f6e206e6f7420616c6c6f776564000000000000000000000081525060200191505060405180910390fd5b6000806001851415617fc9576002915060039050617fdc565b6002851415617fdb5760039150600590505b5b6001151561802e88888080601f016020809104026020016040519081016040528093929190818152602001838380828437600081840152601f19601f820116905080830192505050505050508361b5f3565b15151415156180a5576040517f08c379a00000000000000000000000000000000000000000000000000000000081526004018080602001828103825260158152602001807f6f7065726174696f6e206e6f7420616c6c6f776564000000000000000000000081525060200191505060405180910390fd5b61814a60068054600181600116156101000203166002900480601f01602080910402602001604051908101604052809291908181526020018280546001816001161561010002031660029004801561813e5780601f106181135761010080835404028352916020019161813e565b820191906000526020600020905b81548152906001019060200180831161812157829003601f168201915b5050505050858461ae3d565b1561822d57600460009054906101000a900473ffffffffffffffffffffffffffffffffffffffff1673ffffffffffffffffffffffffffffffffffffffff166314f775f98888886040518463ffffffff167c010000000000000000000000000000000000000000000000000000000002815260040180806020018381526020018281038252858582818152602001925080828437600081840152601f19601f820116905080830192505050945050505050600060405180830381600087803b15801561821457600080fd5b505af1158015618228573d6000803e3d6000fd5b505050505b50505050505050565b600560009054906101000a900473ffffffffffffffffffffffffffffffffffffffff1673ffffffffffffffffffffffffffffffffffffffff1663e572515c6040518163ffffffff167c010000000000000000000000000000000000000000000000000000000002815260040160206040518083038186803b1580156182ba57600080fd5b505afa1580156182ce573d6000803e3d6000fd5b505050506040513d60208110156182e457600080fd5b810190808051906020019092919050505073ffffffffffffffffffffffffffffffffffffffff163373ffffffffffffffffffffffffffffffffffffffff1614151561837a576040517f08c379a000000000000000000000000000000000000000000000000000000000815260040180806020018281038252602881526020018061b7ff6028913960400191505060405180910390fd5b600115156183888289616d23565b15151415156183e2576040517f08c379a000000000000000000000000000000000000000000000000000000000815260040180806020018281038252602281526020018061b84d6022913960400191505060405180910390fd5b60018214806183f15750600282145b806183fc5750600382145b1515618453576040517f08c379a000000000000000000000000000000000000000000000000000000000815260040180806020018281038252602581526020018061b7da6025913960400191505060405180910390fd5b600360009054906101000a900473ffffffffffffffffffffffffffffffffffffffff1673ffffffffffffffffffffffffffffffffffffffff166337d50b27878787878c886040518763ffffffff167c01000000000000000000000000000000000000000000000000000000000281526004018080602001806020018761ffff1661ffff1681526020018661ffff1661ffff1681526020018060200185815260200184810384528a818151815260200191508051906020019080838360005b8381101561852c578082015181840152602081019050618511565b50505050905090810190601f1680156185595780820380516001836020036101000a031916815260200191505b50848103835289818151815260200191508051906020019080838360005b83811015618592578082015181840152602081019050618577565b50505050905090810190601f1680156185bf5780820380516001836020036101000a031916815260200191505b50848103825286818151815260200191508051906020019080838360005b838110156185f85780820151818401526020810190506185dd565b50505050905090810190601f1680156186255780820380516001836020036101000a031916815260200191505b509950505050505050505050600060405180830381600087803b15801561864b57600080fd5b505af115801561865f573d6000803e3d6000fd5b5050505050505050505050565b60608060606000600660076008600a60009054906101000a900460ff16838054600181600116156101000203166002900480601f01602080910402602001604051908101604052809291908181526020018280546001816001161561010002031660029004801561871e5780601f106186f35761010080835404028352916020019161871e565b820191906000526020600020905b81548152906001019060200180831161870157829003601f168201915b50505050509350828054600181600116156101000203166002900480601f0160208091040260200160405190810160405280929190818152602001828054600181600116156101000203166002900480156187ba5780601f1061878f576101008083540402835291602001916187ba565b820191906000526020600020905b81548152906001019060200180831161879d57829003601f168201915b50505050509250818054600181600116156101000203166002900480601f0160208091040260200160405190810160405280929190818152602001828054600181600116156101000203166002900480156188565780601f1061882b57610100808354040283529160200191618856565b820191906000526020600020905b81548152906001019060200180831161883957829003601f168201915b50505050509150935093509350935090919293565b6000600760405160200180806020018281038252838181546001816001161561010002031660029004815260200191508054600181600116156101000203166002900480156188fb5780601f106188d0576101008083540402835291602001916188fb565b820191906000526020600020905b8154815290600101906020018083116188de57829003601f168201915b505092505050604051602081830303815290604052805190602001206000809054906101000a900473ffffffffffffffffffffffffffffffffffffffff1673ffffffffffffffffffffffffffffffffffffffff166381d66b23846040518263ffffffff167c0100000000000000000000000000000000000000000000000000000000028152600401808273ffffffffffffffffffffffffffffffffffffffff1673ffffffffffffffffffffffffffffffffffffffff16815260200191505060006040518083038186803b1580156189d157600080fd5b505afa1580156189e5573d6000803e3d6000fd5b505050506040513d6000823e3d601f19601f820116820180604052506020811015618a0f57600080fd5b810190808051640100000000811115618a2757600080fd5b82810190506020810184811115618a3d57600080fd5b8151856001820283011164010000000082111715618a5a57600080fd5b50509291905050506040516020018080602001828103825283818151815260200191508051906020019080838360005b83811015618aa5578082015181840152602081019050618a8a565b50505050905090810190601f168015618ad25780820380516001836020036101000a031916815260200191505b509250505060405160208183030381529060405280519060200120149050919050565b600560009054906101000a900473ffffffffffffffffffffffffffffffffffffffff1673ffffffffffffffffffffffffffffffffffffffff1663e572515c6040518163ffffffff167c010000000000000000000000000000000000000000000000000000000002815260040160206040518083038186803b158015618b7957600080fd5b505afa158015618b8d573d6000803e3d6000fd5b505050506040513d6020811015618ba357600080fd5b810190808051906020019092919050505073ffffffffffffffffffffffffffffffffffffffff163373ffffffffffffffffffffffffffffffffffffffff16141515618c39576040517f08c379a000000000000000000000000000000000000000000000000000000000815260040180806020018281038252602881526020018061b7ff6028913960400191505060405180910390fd5b8060011515618c478261886b565b1515141515618ca1576040517f08c379a000000000000000000000000000000000000000000000000000000000815260040180806020018281038252602681526020018061b8276026913960400191505060405180910390fd5b600360009054906101000a900473ffffffffffffffffffffffffffffffffffffffff1673ffffffffffffffffffffffffffffffffffffffff166337d50b27878787878c60046040518763ffffffff167c01000000000000000000000000000000000000000000000000000000000281526004018080602001806020018761ffff1661ffff1681526020018661ffff1661ffff1681526020018060200185815260200184810384528a818151815260200191508051906020019080838360005b83811015618d7b578082015181840152602081019050618d60565b50505050905090810190601f168015618da85780820380516001836020036101000a031916815260200191505b50848103835289818151815260200191508051906020019080838360005b83811015618de1578082015181840152602081019050618dc6565b50505050905090810190601f168015618e0e5780820380516001836020036101000a031916815260200191505b50848103825286818151815260200191508051906020019080838360005b83811015618e47578082015181840152602081019050618e2c565b50505050905090810190601f168015618e745780820380516001836020036101000a031916815260200191505b509950505050505050505050600060405180830381600087803b158015618e9a57600080fd5b505af1158015618eae573d6000803e3d6000fd5b50505050600260009054906101000a900473ffffffffffffffffffffffffffffffffffffffff1673ffffffffffffffffffffffffffffffffffffffff1663e98ac22d60068989600060056040518663ffffffff167c0100000000000000000000000000000000000000000000000000000000028152600401808060200180602001806020018673ffffffffffffffffffffffffffffffffffffffff1673ffffffffffffffffffffffffffffffffffffffff168152602001858152602001848103845289818154600181600116156101000203166002900481526020019150805460018160011615610100020316600290048015618fec5780601f10618fc157610100808354040283529160200191618fec565b820191906000526020600020905b815481529060010190602001808311618fcf57829003601f168201915b5050848103835288818151815260200191508051906020019080838360005b8381101561902657808201518184015260208101905061900b565b50505050905090810190601f1680156190535780820380516001836020036101000a031916815260200191505b50848103825287818151815260200191508051906020019080838360005b8381101561908c578082015181840152602081019050619071565b50505050905090810190601f1680156190b95780820380516001836020036101000a031916815260200191505b5098505050505050505050600060405180830381600087803b1580156190de57600080fd5b505af11580156190f2573d6000803e3d6000fd5b5050505050505050505050565b600560009054906101000a900473ffffffffffffffffffffffffffffffffffffffff1673ffffffffffffffffffffffffffffffffffffffff1663e572515c6040518163ffffffff167c010000000000000000000000000000000000000000000000000000000002815260040160206040518083038186803b15801561918357600080fd5b505afa158015619197573d6000803e3d6000fd5b505050506040513d60208110156191ad57600080fd5b810190808051906020019092919050505073ffffffffffffffffffffffffffffffffffffffff163373ffffffffffffffffffffffffffffffffffffffff16141515619243576040517f08c379a000000000000000000000000000000000000000000000000000000000815260040180806020018281038252602881526020018061b7ff6028913960400191505060405180910390fd5b60011515600a60009054906101000a900460ff1615151415156192ce576040517f08c379a000000000000000000000000000000000000000000000000000000000815260040180806020018281038252601d8152602001807f496e636f7272656374206e6574776f726b20626f6f742073746174757300000081525060200191505060405180910390fd5b600115156192db8261886b565b1515141515619335576040517f08c379a000000000000000000000000000000000000000000000000000000000815260040180806020018281038252602681526020018061b8276026913960400191505060405180910390fd5b600260009054906101000a900473ffffffffffffffffffffffffffffffffffffffff1673ffffffffffffffffffffffffffffffffffffffff1663e98ac22d600689898660016040518663ffffffff167c0100000000000000000000000000000000000000000000000000000000028152600401808060200180602001806020018673ffffffffffffffffffffffffffffffffffffffff1673ffffffffffffffffffffffffffffffffffffffff16815260200185815260200184810384528981815460018160011615610100020316600290048152602001915080546001816001161561010002031660029004801561946e5780601f106194435761010080835404028352916020019161946e565b820191906000526020600020905b81548152906001019060200180831161945157829003601f168201915b5050848103835288818151815260200191508051906020019080838360005b838110156194a857808201518184015260208101905061948d565b50505050905090810190601f1680156194d55780820380516001836020036101000a031916815260200191505b50848103825287818151815260200191508051906020019080838360005b8381101561950e5780820151818401526020810190506194f3565b50505050905090810190601f16801561953b5780820380516001836020036101000a031916815260200191505b5098505050505050505050600060405180830381600087803b15801561956057600080fd5b505af1158015619574573d6000803e3d6000fd5b50505050600460009054906101000a900473ffffffffffffffffffffffffffffffffffffffff1673ffffffffffffffffffffffffffffffffffffffff1663f9953de5886040518263ffffffff167c01000000000000000000000000000000000000000000000000000000000281526004018080602001828103825283818151815260200191508051906020019080838360005b83811015619622578082015181840152602081019050619607565b50505050905090810190601f16801561964f5780820380516001836020036101000a031916815260200191505b5092505050600060405180830381600087803b15801561966e57600080fd5b505af1158015619682573d6000803e3d6000fd5b50505050600360009054906101000a900473ffffffffffffffffffffffffffffffffffffffff1673ffffffffffffffffffffffffffffffffffffffff1663549583df878787878c6040518663ffffffff167c01000000000000000000000000000000000000000000000000000000000281526004018080602001806020018661ffff1661ffff1681526020018561ffff1661ffff16815260200180602001848103845289818151815260200191508051906020019080838360005b8381101561975857808201518184015260208101905061973d565b50505050905090810190601f1680156197855780820380516001836020036101000a031916815260200191505b50848103835288818151815260200191508051906020019080838360005b838110156197be5780820151818401526020810190506197a3565b50505050905090810190601f1680156197eb5780820380516001836020036101000a031916815260200191505b50848103825285818151815260200191508051906020019080838360005b83811015619824578082015181840152602081019050619809565b50505050905090810190601f1680156198515780820380516001836020036101000a031916815260200191505b5098505050505050505050600060405180830381600087803b15801561987657600080fd5b505af115801561988a573d6000803e3d6000fd5b505050506001151561989c8389615471565b1515141515619913576040517f08c379a000000000000000000000000000000000000000000000000000000000815260040180806020018281038252601d8152602001807f4f7065726174696f6e2063616e6e6f7420626520706572666f726d656400000081525060200191505060405180910390fd5b6000809054906101000a900473ffffffffffffffffffffffffffffffffffffffff1673ffffffffffffffffffffffffffffffffffffffff1663e3483a9d8389600860016040518563ffffffff167c0100000000000000000000000000000000000000000000000000000000028152600401808573ffffffffffffffffffffffffffffffffffffffff1673ffffffffffffffffffffffffffffffffffffffff1681526020018060200180602001848152602001838103835286818151815260200191508051906020019080838360005b838110156199fd5780820151818401526020810190506199e2565b50505050905090810190601f168015619a2a5780820380516001836020036101000a031916815260200191505b50838103825285818154600181600116156101000203166002900481526020019150805460018160011615610100020316600290048015619aac5780601f10619a8157610100808354040283529160200191619aac565b820191906000526020600020905b815481529060010190602001808311619a8f57829003601f168201915b50509650505050505050600060405180830381600087803b158015619ad057600080fd5b505af1158015619ae4573d6000803e3d6000fd5b5050505050505050505050565b600560009054906101000a900473ffffffffffffffffffffffffffffffffffffffff1673ffffffffffffffffffffffffffffffffffffffff1663e572515c6040518163ffffffff167c010000000000000000000000000000000000000000000000000000000002815260040160206040518083038186803b158015619b7557600080fd5b505afa158015619b89573d6000803e3d6000fd5b505050506040513d6020811015619b9f57600080fd5b810190808051906020019092919050505073ffffffffffffffffffffffffffffffffffffffff163373ffffffffffffffffffffffffffffffffffffffff16141515619c35576040517f08c379a000000000000000000000000000000000000000000000000000000000815260040180806020018281038252602881526020018061b7ff6028913960400191505060405180910390fd5b8560011515619c438261abc4565b1515141515619cba576040517f08c379a000000000000000000000000000000000000000000000000000000000815260040180806020018281038252601a8152602001807f6f7267206e6f7420696e20617070726f7665642073746174757300000000000081525060200191505060405180910390fd5b60011515619cc88389616d23565b1515141515619d22576040517f08c379a000000000000000000000000000000000000000000000000000000000815260040180806020018281038252602281526020018061b84d6022913960400191505060405180910390fd5b600360009054906101000a900473ffffffffffffffffffffffffffffffffffffffff1673ffffffffffffffffffffffffffffffffffffffff16634c573311878787878c6040518663ffffffff167c01000000000000000000000000000000000000000000000000000000000281526004018080602001806020018661ffff1661ffff1681526020018561ffff1661ffff16815260200180602001848103845289818151815260200191508051906020019080838360005b83811015619df4578082015181840152602081019050619dd9565b50505050905090810190601f168015619e215780820380516001836020036101000a031916815260200191505b50848103835288818151815260200191508051906020019080838360005b83811015619e5a578082015181840152602081019050619e3f565b50505050905090810190601f168015619e875780820380516001836020036101000a031916815260200191505b50848103825285818151815260200191508051906020019080838360005b83811015619ec0578082015181840152602081019050619ea5565b50505050905090810190601f168015619eed5780820380516001836020036101000a031916815260200191505b5098505050505050505050600060405180830381600087803b158015619f1257600080fd5b505af1158015619f26573d6000803e3d6000fd5b5050505050505050505050565b606080600080600260009054906101000a900473ffffffffffffffffffffffffffffffffffffffff1673ffffffffffffffffffffffffffffffffffffffff1663014e6acc87876040518363ffffffff167c010000000000000000000000000000000000000000000000000000000002815260040180806020018281038252848482818152602001925080828437600081840152601f19601f820116905080830192505050935050505060006040518083038186803b158015619ff457600080fd5b505afa15801561a008573d6000803e3d6000fd5b505050506040513d6000823e3d601f19601f82011682018060405250608081101561a03257600080fd5b81019080805164010000000081111561a04a57600080fd5b8281019050602081018481111561a06057600080fd5b815185600182028301116401000000008211171561a07d57600080fd5b5050929190602001805164010000000081111561a09957600080fd5b8281019050602081018481111561a0af57600080fd5b815185600182028301116401000000008211171561a0cc57600080fd5b50509291906020018051906020019092919080519060200190929190505050935093509350935092959194509250565b600560009054906101000a900473ffffffffffffffffffffffffffffffffffffffff1673ffffffffffffffffffffffffffffffffffffffff163373ffffffffffffffffffffffffffffffffffffffff1614151561a1c1576040517f08c379a000000000000000000000000000000000000000000000000000000000815260040180806020018281038252600e8152602001807f696e76616c69642063616c6c657200000000000000000000000000000000000081525060200191505060405180910390fd5b6000801515600a60009054906101000a900460ff16151514151561a24d576040517f08c379a000000000000000000000000000000000000000000000000000000000815260040180806020018281038252601d8152602001807f496e636f7272656374206e6574776f726b20626f6f742073746174757300000081525060200191505060405180910390fd5b87876006919061a25e92919061b734565b5085856007919061a27092919061b734565b5083836008919061a28292919061b734565b5081600a60006101000a81548160ff0219169083151502179055505050505050505050565b600560009054906101000a900473ffffffffffffffffffffffffffffffffffffffff1673ffffffffffffffffffffffffffffffffffffffff1663e572515c6040518163ffffffff167c010000000000000000000000000000000000000000000000000000000002815260040160206040518083038186803b15801561a32b57600080fd5b505afa15801561a33f573d6000803e3d6000fd5b505050506040513d602081101561a35557600080fd5b810190808051906020019092919050505073ffffffffffffffffffffffffffffffffffffffff163373ffffffffffffffffffffffffffffffffffffffff1614151561a3eb576040517f08c379a000000000000000000000000000000000000000000000000000000000815260040180806020018281038252602881526020018061b7ff6028913960400191505060405180910390fd5b6001151561a3f88261886b565b151514151561a452576040517f08c379a000000000000000000000000000000000000000000000000000000000815260040180806020018281038252602681526020018061b8276026913960400191505060405180910390fd5b6001151561a46188600161b5f3565b151514151561a4d8576040517f08c379a00000000000000000000000000000000000000000000000000000000081526004018080602001828103825260128152602001807f4e6f7468696e6720746f20617070726f7665000000000000000000000000000081525060200191505060405180910390fd5b61a57e60068054600181600116156101000203166002900480601f01602080910402602001604051908101604052809291908181526020018280546001816001161561010002031660029004801561a5715780601f1061a5465761010080835404028352916020019161a571565b820191906000526020600020905b81548152906001019060200180831161a55457829003601f168201915b505050505082600161ae3d565b1561abbb57600460009054906101000a900473ffffffffffffffffffffffffffffffffffffffff1673ffffffffffffffffffffffffffffffffffffffff1663e3028316886040518263ffffffff167c01000000000000000000000000000000000000000000000000000000000281526004018080602001828103825283818151815260200191508051906020019080838360005b8381101561a62d57808201518184015260208101905061a612565b50505050905090810190601f16801561a65a5780820380516001836020036101000a031916815260200191505b5092505050600060405180830381600087803b15801561a67957600080fd5b505af115801561a68d573d6000803e3d6000fd5b50505050600160009054906101000a900473ffffffffffffffffffffffffffffffffffffffff1673ffffffffffffffffffffffffffffffffffffffff16637b7135796008896009546001806040518663ffffffff167c0100000000000000000000000000000000000000000000000000000000028152600401808060200180602001868152602001851515151581526020018415151515815260200183810383528881815460018160011615610100020316600290048152602001915080546001816001161561010002031660029004801561a7aa5780601f1061a77f5761010080835404028352916020019161a7aa565b820191906000526020600020905b81548152906001019060200180831161a78d57829003601f168201915b5050838103825287818151815260200191508051906020019080838360005b8381101561a7e457808201518184015260208101905061a7c9565b50505050905090810190601f16801561a8115780820380516001836020036101000a031916815260200191505b50975050505050505050600060405180830381600087803b15801561a83557600080fd5b505af115801561a849573d6000803e3d6000fd5b50505050600360009054906101000a900473ffffffffffffffffffffffffffffffffffffffff1673ffffffffffffffffffffffffffffffffffffffff1663f82e08ac878787878c6040518663ffffffff167c01000000000000000000000000000000000000000000000000000000000281526004018080602001806020018661ffff1661ffff1681526020018561ffff1661ffff16815260200180602001848103845289818151815260200191508051906020019080838360005b8381101561a91f57808201518184015260208101905061a904565b50505050905090810190601f16801561a94c5780820380516001836020036101000a031916815260200191505b50848103835288818151815260200191508051906020019080838360005b8381101561a98557808201518184015260208101905061a96a565b50505050905090810190601f16801561a9b25780820380516001836020036101000a031916815260200191505b50848103825285818151815260200191508051906020019080838360005b8381101561a9eb57808201518184015260208101905061a9d0565b50505050905090810190601f16801561aa185780820380516001836020036101000a031916815260200191505b5098505050505050505050600060405180830381600087803b15801561aa3d57600080fd5b505af115801561aa51573d6000803e3d6000fd5b505050506000809054906101000a900473ffffffffffffffffffffffffffffffffffffffff1673ffffffffffffffffffffffffffffffffffffffff1663c214e5e588846040518363ffffffff167c010000000000000000000000000000000000000000000000000000000002815260040180806020018373ffffffffffffffffffffffffffffffffffffffff1673ffffffffffffffffffffffffffffffffffffffff168152602001828103825284818151815260200191508051906020019080838360005b8381101561ab3157808201518184015260208101905061ab16565b50505050905090810190601f16801561ab5e5780820380516001836020036101000a031916815260200191505b509350505050602060405180830381600087803b15801561ab7e57600080fd5b505af115801561ab92573d6000803e3d6000fd5b505050506040513d602081101561aba857600080fd5b8101908080519060200190929190505050505b50505050505050565b6000600460009054906101000a900473ffffffffffffffffffffffffffffffffffffffff1673ffffffffffffffffffffffffffffffffffffffff16638c8642df8360026040518363ffffffff167c01000000000000000000000000000000000000000000000000000000000281526004018080602001838152602001828103825284818151815260200191508051906020019080838360005b8381101561ac7857808201518184015260208101905061ac5d565b50505050905090810190601f16801561aca55780820380516001836020036101000a031916815260200191505b50935050505060206040518083038186803b15801561acc357600080fd5b505afa15801561acd7573d6000803e3d6000fd5b505050506040513d602081101561aced57600080fd5b81019080805190602001909291905050509050919050565b6000600460009054906101000a900473ffffffffffffffffffffffffffffffffffffffff1673ffffffffffffffffffffffffffffffffffffffff1663ffe40d1d836040518263ffffffff167c01000000000000000000000000000000000000000000000000000000000281526004018080602001828103825283818151815260200191508051906020019080838360005b8381101561adb157808201518184015260208101905061ad96565b50505050905090810190601f16801561adde5780820380516001836020036101000a031916815260200191505b509250505060206040518083038186803b15801561adfb57600080fd5b505afa15801561ae0f573d6000803e3d6000fd5b505050506040513d602081101561ae2557600080fd5b81019080805190602001909291905050509050919050565b6000600260009054906101000a900473ffffffffffffffffffffffffffffffffffffffff1673ffffffffffffffffffffffffffffffffffffffff1663b02138648585856040518463ffffffff167c010000000000000000000000000000000000000000000000000000000002815260040180806020018473ffffffffffffffffffffffffffffffffffffffff1673ffffffffffffffffffffffffffffffffffffffff168152602001838152602001828103825285818151815260200191508051906020019080838360005b8381101561af2357808201518184015260208101905061af08565b50505050905090810190601f16801561af505780820380516001836020036101000a031916815260200191505b50945050505050602060405180830381600087803b15801561af7157600080fd5b505af115801561af85573d6000803e3d6000fd5b505050506040513d602081101561af9b57600080fd5b810190808051906020019092919050505090509392505050565b801561b10257600260009054906101000a900473ffffffffffffffffffffffffffffffffffffffff1673ffffffffffffffffffffffffffffffffffffffff16635607395b84846040518363ffffffff167c010000000000000000000000000000000000000000000000000000000002815260040180806020018373ffffffffffffffffffffffffffffffffffffffff1673ffffffffffffffffffffffffffffffffffffffff168152602001828103825284818151815260200191508051906020019080838360005b8381101561b09857808201518184015260208101905061b07d565b50505050905090810190601f16801561b0c55780820380516001836020036101000a031916815260200191505b509350505050600060405180830381600087803b15801561b0e557600080fd5b505af115801561b0f9573d6000803e3d6000fd5b5050505061b245565b600260009054906101000a900473ffffffffffffffffffffffffffffffffffffffff1673ffffffffffffffffffffffffffffffffffffffff166359cbd6fe84846040518363ffffffff167c010000000000000000000000000000000000000000000000000000000002815260040180806020018373ffffffffffffffffffffffffffffffffffffffff1673ffffffffffffffffffffffffffffffffffffffff168152602001828103825284818151815260200191508051906020019080838360005b8381101561b1df57808201518184015260208101905061b1c4565b50505050905090810190601f16801561b20c5780820380516001836020036101000a031916815260200191505b509350505050600060405180830381600087803b15801561b22c57600080fd5b505af115801561b240573d6000803e3d6000fd5b505050505b505050565b6000600160009054906101000a900473ffffffffffffffffffffffffffffffffffffffff1673ffffffffffffffffffffffffffffffffffffffff1663abf5739f848461b2958661b465565b6040518463ffffffff167c010000000000000000000000000000000000000000000000000000000002815260040180806020018060200180602001848103845287818151815260200191508051906020019080838360005b8381101561b30857808201518184015260208101905061b2ed565b50505050905090810190601f16801561b3355780820380516001836020036101000a031916815260200191505b50848103835286818151815260200191508051906020019080838360005b8381101561b36e57808201518184015260208101905061b353565b50505050905090810190601f16801561b39b5780820380516001836020036101000a031916815260200191505b50848103825285818151815260200191508051906020019080838360005b8381101561b3d457808201518184015260208101905061b3b9565b50505050905090810190601f16801561b4015780820380516001836020036101000a031916815260200191505b50965050505050505060206040518083038186803b15801561b42257600080fd5b505afa15801561b436573d6000803e3d6000fd5b505050506040513d602081101561b44c57600080fd5b8101908080519060200190929190505050905092915050565b6060600460009054906101000a900473ffffffffffffffffffffffffffffffffffffffff1673ffffffffffffffffffffffffffffffffffffffff1663177c8d8a836040518263ffffffff167c01000000000000000000000000000000000000000000000000000000000281526004018080602001828103825283818151815260200191508051906020019080838360005b8381101561b51157808201518184015260208101905061b4f6565b50505050905090810190601f16801561b53e5780820380516001836020036101000a031916815260200191505b509250505060006040518083038186803b15801561b55b57600080fd5b505afa15801561b56f573d6000803e3d6000fd5b505050506040513d6000823e3d601f19601f82011682018060405250602081101561b59957600080fd5b81019080805164010000000081111561b5b157600080fd5b8281019050602081018481111561b5c757600080fd5b815185600182028301116401000000008211171561b5e457600080fd5b50509291905050509050919050565b6000600460009054906101000a900473ffffffffffffffffffffffffffffffffffffffff1673ffffffffffffffffffffffffffffffffffffffff16638c8642df84846040518363ffffffff167c01000000000000000000000000000000000000000000000000000000000281526004018080602001838152602001828103825284818151815260200191508051906020019080838360005b8381101561b6a657808201518184015260208101905061b68b565b50505050905090810190601f16801561b6d35780820380516001836020036101000a031916815260200191505b50935050505060206040518083038186803b15801561b6f157600080fd5b505afa15801561b705573d6000803e3d6000fd5b505050506040513d602081101561b71b57600080fd5b8101908080519060200190929190505050905092915050565b828054600181600116156101000203166002900490600052602060002090601f016020900481019282601f1061b77557803560ff191683800117855561b7a3565b8280016001018555821561b7a3579182015b8281111561b7a257823582559160200191906001019061b787565b5b50905061b7b0919061b7b4565b5090565b61b7d691905b8082111561b7d257600081600090555060010161b7ba565b5090565b9056fe696e76616c696420616374696f6e2e206f7065726174696f6e206e6f7420616c6c6f77656463616e2062652063616c6c656420627920696e7465726661636520636f6e7472616374206f6e6c796163636f756e74206973206e6f742061206e6574776f726b2061646d696e206163636f756e746163636f756e74206973206e6f742061206f72672061646d696e206163636f756e74a165627a7a72305820e32c02851994d968bab8f0a2d15dddfe6efd303174bbd852d32f7698158e34120029",
  "source": "pragma solidity ^0.5.3;\n\nimport \"./RoleManager.sol\";\nimport \"./AccountManager.sol\";\nimport \"./VoterManager.sol\";\nimport \"./NodeManager.sol\";\nimport \"./OrgManager.sol\";\nimport \"./PermissionsUpgradable.sol\";\n\n/** @title Permissions Implementation Contract\n  * @notice This contract holds implementation logic for all permissions\n    related functionality. This can be called only by the interface\n    contract.\n  */\ncontract PermissionsImplementation {\n    AccountManager private accountManager;\n    RoleManager private roleManager;\n    VoterManager private voterManager;\n    NodeManager private nodeManager;\n    OrgManager private orgManager;\n    PermissionsUpgradable private permUpgradable;\n\n    string private adminOrg;\n    string private adminRole;\n    string private orgAdminRole;\n\n\n    uint256 private fullAccess = 3;\n\n    /** @dev this variable is meant for tracking the initial network boot up\n        once the network boot up is done the value is set to true\n      */\n    bool private networkBoot = false;\n\n    event PermissionsInitialized(bool _networkBootStatus);\n\n\n    /** @notice modifier to confirm that caller is the interface contract\n      */\n    modifier onlyInterface{\n        require(msg.sender == permUpgradable.getPermInterface(),\n            \"can be called by interface contract only\");\n        _;\n    }\n    /** @notice modifier to confirm that caller is the upgradable contract\n      */\n    modifier onlyUpgradeable {\n        require(msg.sender == address(permUpgradable), \"invalid caller\");\n        _;\n    }\n\n    /** @notice confirms if the network boot status is equal to passed value\n      * @param _status true/false\n      */\n    modifier networkBootStatus(bool _status){\n        require(networkBoot == _status, \"Incorrect network boot status\");\n        _;\n    }\n\n    /** @notice confirms that the account passed is network admin account\n      * @param _account account id\n      */\n    modifier networkAdmin(address _account) {\n        require(isNetworkAdmin(_account) == true, \"account is not a network admin account\");\n        _;\n    }\n\n    /** @notice confirms that the account passed is org admin account\n      * @param _account account id\n      * @param _orgId org id to which the account belongs\n      */\n    modifier orgAdmin(address _account, string memory _orgId) {\n        require(isOrgAdmin(_account, _orgId) == true, \"account is not a org admin account\");\n        _;\n    }\n\n    /** @notice confirms that org does not exist\n      * @param _orgId org id\n      */\n    modifier orgNotExists(string memory _orgId) {\n        require(_checkOrgExists(_orgId) != true, \"org exists\");\n        _;\n    }\n\n    /** @notice confirms that org exists\n      * @param _orgId org id\n      */\n    modifier orgExists(string memory _orgId) {\n        require(_checkOrgExists(_orgId) == true, \"org does not exist\");\n        _;\n    }\n\n    /** @notice checks of the passed org id is in approved status\n      * @param _orgId org id\n      */\n    modifier orgApproved(string memory _orgId) {\n        require(checkOrgApproved(_orgId) == true, \"org not in approved status\");\n        _;\n    }\n\n    /** @notice constructor accepts the contracts addresses of other deployed\n        contracts of the permissions model\n      * @param _permUpgradable - address of permissions upgradable contract\n      * @param _orgManager - address of org manager contract\n      * @param _rolesManager - address of role manager contract\n      * @param _accountManager - address of account manager contract\n      * @param _voterManager - address of voter manager contract\n      * @param _nodeManager - address of node manager contract\n      */\n    constructor (address _permUpgradable, address _orgManager, address _rolesManager,\n        address _accountManager, address _voterManager, address _nodeManager) public {\n        permUpgradable = PermissionsUpgradable(_permUpgradable);\n        orgManager = OrgManager(_orgManager);\n        roleManager = RoleManager(_rolesManager);\n        accountManager = AccountManager(_accountManager);\n        voterManager = VoterManager(_voterManager);\n        nodeManager = NodeManager(_nodeManager);\n    }\n\n    // initial set up related functions\n    /** @notice for permissions its necessary to define the initial admin org\n        id, network admin role id and default org admin role id. this\n        sets these values at the time of network boot up\n      * @param _nwAdminOrg - address of permissions upgradable contract\n      * @param _nwAdminRole - address of org manager contract\n      * @param _oAdminRole - address of role manager contract\n      * @dev this function will be executed only once as part of the boot up\n      */\n    function setPolicy(string calldata _nwAdminOrg, string calldata _nwAdminRole,\n        string calldata _oAdminRole) external onlyInterface\n    networkBootStatus(false) {\n        adminOrg = _nwAdminOrg;\n        adminRole = _nwAdminRole;\n        orgAdminRole = _oAdminRole;\n    }\n\n    /** @notice when migrating implementation contract, the values of these\n        key values need to be set from the previous implementation\n        contract. this function allows these values to be set\n      * @param _nwAdminOrg - address of permissions upgradable contract\n      * @param _nwAdminRole - address of org manager contract\n      * @param _oAdminRole - address of role manager contract\n      * @param _networkBootStatus - network boot status true/false\n      */\n    function setMigrationPolicy(string calldata _nwAdminOrg, string calldata _nwAdminRole,\n        string calldata _oAdminRole, bool _networkBootStatus) external onlyUpgradeable\n    networkBootStatus(false) {\n        adminOrg = _nwAdminOrg;\n        adminRole = _nwAdminRole;\n        orgAdminRole = _oAdminRole;\n        networkBoot = _networkBootStatus;\n    }\n\n    /** @notice called at the time of network initialization. sets up\n        network admin org with allowed sub org depth and breadth\n        creates the network admin for the network admin org\n        sets the default values required by account manager contract\n      * @param _breadth - number of sub orgs allowed at parent level\n      * @param _depth - levels of sub org nesting allowed at parent level\n      */\n    function init(uint256 _breadth, uint256 _depth) external\n    onlyInterface\n    networkBootStatus(false) {\n        orgManager.setUpOrg(adminOrg, _breadth, _depth);\n        roleManager.addRole(adminRole, adminOrg, fullAccess, true, true);\n        accountManager.setDefaults(adminRole, orgAdminRole);\n    }\n    /** @notice as a part of network initialization add all nodes which\n        are part of static-nodes.json as nodes belonging to\n        network admin org\n      * @param _enodeId - enode id\n      * @param _ip IP of node\n      * @param _port tcp port of node\n      * @param _raftport raft port of node\n      */\n    function addAdminNode(string calldata _enodeId, string calldata _ip, uint16 _port, uint16 _raftport) external\n    onlyInterface\n    networkBootStatus(false) {\n        nodeManager.addAdminNode(_enodeId, _ip, _port, _raftport, adminOrg);\n    }\n\n    /** @notice as a part of network initialization add all accounts which are\n        passed via permission-config.json as network administrator\n        accounts\n      * @param _account - account id\n      */\n    function addAdminAccount(address _account) external\n    onlyInterface\n    networkBootStatus(false) {\n        updateVoterList(adminOrg, _account, true);\n        accountManager.assignAdminRole(_account, adminOrg, adminRole, 2);\n    }\n\n    /** @notice once the network initialization is complete, sets the network\n        boot status to true\n      * @return network boot status\n      * @dev this will be called only once from geth as a part of\n      * @dev network initialization\n      */\n    function updateNetworkBootStatus() external\n    onlyInterface\n    networkBootStatus(false)\n    returns (bool){\n        networkBoot = true;\n        emit PermissionsInitialized(networkBoot);\n        return networkBoot;\n    }\n\n    /** @notice function to add a new organization to the network. creates org\n        record and marks it as pending approval. adds the passed node\n        node manager contract. adds the account with org admin role to\n        account manager contracts. creates voting record for approval\n        by other network admin accounts\n      * @param _orgId unique organization id\n      * @param _enodeId enode id linked to the organization\n      * @param _ip IP of node\n      * @param _port tcp port of node\n      * @param _raftport raft port of node\n      * @param _account account id. this will have the org admin privileges\n      */\n    function addOrg(string memory _orgId, string memory _enodeId,\n        string memory _ip, uint16 _port, uint16 _raftport, address _account, address _caller) public\n    onlyInterface\n    {\n        require(networkBoot == true, \"Incorrect network boot status\");\n        require(isNetworkAdmin(_caller) == true, \"account is not a network admin account\");\n        voterManager.addVotingItem(adminOrg, _orgId, _enodeId, _account, 1);\n        orgManager.addOrg(_orgId);\n        nodeManager.addNode(_enodeId, _ip, _port, _raftport, _orgId);\n        require(validateAccount(_account, _orgId) == true,\n            \"Operation cannot be performed\");\n        accountManager.assignAdminRole(_account, _orgId, orgAdminRole, 1);\n    }\n\n    /** @notice functions to approve a pending approval org record by networ\n        admin account. once majority votes are received the org is\n        marked as approved\n      * @param _orgId unique organization id\n      * @param _enodeId enode id linked to the organization\n      * @param _ip IP of node\n      * @param _port tcp port of node\n      * @param _raftport raft port of node\n      * @param _account account id this will have the org admin privileges\n      */\n    function approveOrg(string memory _orgId, string memory _enodeId, string memory _ip, uint16 _port, uint16 _raftport,\n        address _account, address _caller) public\n    onlyInterface\n    {\n        require(isNetworkAdmin(_caller) == true, \"account is not a network admin account\");\n        require(_checkOrgStatus(_orgId, 1) == true, \"Nothing to approve\");\n        if ((processVote(adminOrg, _caller, 1))) {\n            orgManager.approveOrg(_orgId);\n            roleManager.addRole(orgAdminRole, _orgId, fullAccess, true, true);\n            nodeManager.approveNode(_enodeId, _ip, _port, _raftport, _orgId);\n            accountManager.addNewAdmin(_orgId, _account);\n        }\n    }\n\n    /** @notice function to create a sub org under a given parent org.\n      * @param _pOrgId parent org id under which the sub org is being added\n      * @param _orgId unique id for the sub organization\n      * @param _enodeId enode id linked to the sjb organization\n      * @param _ip IP of node\n      * @param _port tcp port of node\n      * @param _raftport raft port of node\n      * @dev _enodeId is optional. parent org id should contain the complete\n        org hierarchy from master org id to the immediate parent. The org\n        hierarchy is separated by. For example, if master org ABC has a\n        sub organization SUB1, then while creating the sub organization at\n        SUB1 level, the parent org should be given as ABC.SUB1\n      */\n    function addSubOrg(string calldata _pOrgId, string calldata _orgId,\n        string calldata _enodeId, string calldata _ip, uint16 _port, uint16 _raftport, address _caller) external onlyInterface\n    orgExists(_pOrgId) orgAdmin(_caller, _pOrgId) {\n        orgManager.addSubOrg(_pOrgId, _orgId);\n        string memory pOrgId = string(abi.encodePacked(_pOrgId, \".\", _orgId));\n        if (bytes(_enodeId).length > 0) {\n            nodeManager.addOrgNode(_enodeId, _ip, _port, _raftport, pOrgId);\n        }\n    }\n\n    /** @notice function to update the org status. it updates the org status\n        and adds a voting item for network admins to approve\n      * @param _orgId unique id of the organization\n      * @param _action 1 for suspending an org and 2 for revoke of suspension\n      */\n    function updateOrgStatus(string calldata _orgId, uint256 _action, address _caller)\n    external onlyInterface networkAdmin(_caller) {\n        uint256 pendingOp;\n        pendingOp = orgManager.updateOrg(_orgId, _action);\n        voterManager.addVotingItem(adminOrg, _orgId, \"\", address(0), pendingOp);\n    }\n\n    /** @notice function to approve org status change. the org status is\n        changed once the majority votes are received from network\n        admin accounts.\n      * @param _orgId unique id for the sub organization\n      * @param _action 1 for suspending an org and 2 for revoke of suspension\n      */\n    function approveOrgStatus(string calldata _orgId, uint256 _action, address _caller)\n    external onlyInterface networkAdmin(_caller) {\n        require((_action == 1 || _action == 2), \"Operation not allowed\");\n        uint256 pendingOp;\n        uint256 orgStatus;\n        if (_action == 1) {\n            pendingOp = 2;\n            orgStatus = 3;\n        }\n        else if (_action == 2) {\n            pendingOp = 3;\n            orgStatus = 5;\n        }\n        require(_checkOrgStatus(_orgId, orgStatus) == true, \"operation not allowed\");\n        if ((processVote(adminOrg, _caller, pendingOp))) {\n            orgManager.approveOrgStatusUpdate(_orgId, _action);\n        }\n    }\n\n    // Role related functions\n\n    /** @notice function to add new role definition to an organization\n        can be executed by the org admin account only\n      * @param _roleId unique id for the role\n      * @param _orgId unique id of the organization to which the role belongs\n      * @param _access account access type allowed for the role\n      * @param _voter bool indicates if the role is voter role or not\n      * @param _admin bool indicates if the role is an admin role\n      * @dev account access type can have of the following four values:\n            0 - Read only\n            1 - value transfer\n            2 - contract deploy\n            3 - full access\n            4 - contract call\n            5 - value transfer and contract call\n            6 - value transfer and contract deploy\n            7 - contract call and deploy\n      */\n    function addNewRole(string calldata _roleId, string calldata _orgId,\n        uint256 _access, bool _voter, bool _admin, address _caller) external\n    onlyInterface orgApproved(_orgId) orgAdmin(_caller, _orgId) {\n        //add new roles can be created by org admins only\n        roleManager.addRole(_roleId, _orgId, _access, _voter, _admin);\n    }\n\n    /** @notice function to remove a role definition from an organization\n        can be executed by the org admin account only\n      * @param _roleId unique id for the role\n      * @param _orgId unique id of the organization to which the role belongs\n      */\n    function removeRole(string calldata _roleId, string calldata _orgId,\n        address _caller) external onlyInterface orgApproved(_orgId)\n    orgAdmin(_caller, _orgId) {\n        require(((keccak256(abi.encode(_roleId)) != keccak256(abi.encode(adminRole))) &&\n        (keccak256(abi.encode(_roleId)) != keccak256(abi.encode(orgAdminRole)))),\n            \"admin roles cannot be removed\");\n        roleManager.removeRole(_roleId, _orgId);\n    }\n\n    // Account related functions\n    /** @notice function to assign network admin/org admin role to an account\n        this can be executed by network admin accounts only. it assigns\n        the role to the accounts and creates voting record for network\n        admin accounts\n      * @param _orgId unique id of the organization to which the account belongs\n      * @param _account account id\n      * @param _roleId role id to be assigned to the account\n      */\n    function assignAdminRole(string calldata _orgId, address _account,\n        string calldata _roleId, address _caller) external\n    onlyInterface orgExists(_orgId) networkAdmin(_caller) {\n        accountManager.assignAdminRole(_account, _orgId, _roleId, 1);\n        //add voting item\n        voterManager.addVotingItem(adminOrg, _orgId, \"\", _account, 4);\n    }\n\n    /** @notice function to approve network admin/org admin role assigment\n        this can be executed by network admin accounts only.\n      * @param _orgId unique id of the organization to which the account belongs\n      * @param _account account id\n      */\n    function approveAdminRole(string calldata _orgId, address _account,\n        address _caller) external onlyInterface networkAdmin(_caller) {\n        if ((processVote(adminOrg, _caller, 4))) {\n            (bool ret, address account) = accountManager.removeExistingAdmin(_orgId);\n            if (ret) {\n                updateVoterList(adminOrg, account, false);\n            }\n            bool ret1 = accountManager.addNewAdmin(_orgId, _account);\n            if (ret1) {\n                updateVoterList(adminOrg, _account, true);\n            }\n        }\n    }\n\n    /** @notice function to update account status. can be executed by org admin\n        account only.\n      * @param _orgId unique id of the organization to which the account belongs\n      * @param _account account id\n      * @param _action 1-suspend 2-activate back 3-blacklist\n      */\n    function updateAccountStatus(string calldata _orgId, address _account,\n        uint256 _action, address _caller) external onlyInterface\n    orgAdmin(_caller, _orgId) {\n        // ensure that the action passed to this call is proper and is not\n        // called with action 4 and 5 which are actions for blacklisted account\n        // recovery\n        require((_action == 1 || _action == 2 || _action == 3),\n            \"invalid action. operation not allowed\");\n        accountManager.updateAccountStatus(_orgId, _account, _action);\n    }\n\n    // Node related functions\n\n    /** @notice function to add a new node to the organization. can be invoked\n        org admin account only\n      * @param _orgId unique id of the organization to which the account belongs\n      * @param _enodeId enode id being dded to the org\n      * @param _ip IP of node\n      * @param _port tcp port of node\n      * @param _raftport raft port of node\n\n      */\n    function addNode(string memory _orgId, string memory _enodeId, string memory _ip, uint16 _port, uint16 _raftport, address _caller)\n    public\n    onlyInterface\n    orgApproved(_orgId)\n    {\n        // check that the node is not part of another org\n        require(isOrgAdmin(_caller, _orgId) == true, \"account is not a org admin account\");\n        nodeManager.addOrgNode(_enodeId, _ip, _port, _raftport, _orgId);\n    }\n\n    /** @notice function to update node status. can be invoked by org admin\n        account only\n      * @param _orgId unique id of the organization to which the account belongs\n      * @param _enodeId enode id being dded to the org\n      * @param _ip IP of node\n      * @param _port tcp port of node\n      * @param _raftport raft port of node\n      * @param _action 1-deactivate, 2-activate back, 3-blacklist the node\n      */\n    function updateNodeStatus(string memory _orgId, string memory _enodeId, string memory _ip, uint16 _port, uint16 _raftport,\n        uint256 _action, address _caller) public\n    onlyInterface\n    {\n        require(isOrgAdmin(_caller, _orgId) == true, \"account is not a org admin account\");\n        // ensure that the action passed to this call is proper and is not\n        // called with action 4 and 5 which are actions for blacklisted node\n        // recovery\n        require((_action == 1 || _action == 2 || _action == 3),\n            \"invalid action. operation not allowed\");\n        nodeManager.updateNodeStatus(_enodeId, _ip, _port, _raftport, _orgId, _action);\n    }\n\n    /** @notice function to initiate blacklisted nodes recovery. this can be\n        invoked by an network admin account only\n      * @param _orgId unique id of the organization to which the account belongs\n      * @param _enodeId enode id being dded to the org\n      * @param _ip IP of node\n      * @param _port tcp port of node\n      * @param _raftport raft port of node\n      * @dev this function creates a voting record for other network admins to\n        approve the operation. The recovery is complete only after majority voting\n      */\n    function startBlacklistedNodeRecovery(string memory _orgId, string memory _enodeId, string memory _ip, uint16 _port, uint16 _raftport,\n        address _caller) public\n    onlyInterface\n    networkAdmin(_caller)\n    {\n        // update the node status as recovery initiated. action for this is 4\n        nodeManager.updateNodeStatus(_enodeId, _ip, _port, _raftport, _orgId, 4);\n\n        // add a voting record with pending op of 5 which corresponds to blacklisted node\n        // recovery\n        voterManager.addVotingItem(adminOrg, _orgId, _enodeId, address(0), 5);\n    }\n\n    /** @notice function to initiate blacklisted nodes recovery. this can be\n        invoked by an network admin account only\n      * @param _orgId unique id of the organization to which the account belongs\n      * @param _enodeId enode id being dded to the org\n      * @param _ip IP of node\n      * @param _port tcp port of node\n      * @param _raftport raft port of node\n      * @dev this function creates a voting record for other network admins to\n        approve the operation. The recovery is complete only after majority voting\n      */\n    function approveBlacklistedNodeRecovery(string memory _orgId, string memory _enodeId, string memory _ip, uint16 _port, uint16 _raftport,\n        address _caller) public\n    onlyInterface\n    networkAdmin(_caller)\n    {\n        // check if majority votes are received. pending op type is passed as 5\n        // which stands for black listed node recovery\n        if ((processVote(adminOrg, _caller, 5))) {\n            // update the node back to active\n            nodeManager.updateNodeStatus(_enodeId, _ip, _port, _raftport, _orgId, 5);\n        }\n    }\n\n    /** @notice function to initaite blacklisted nodes recovery. this can be\n        invoked by an network admin account only\n      * @param _orgId unique id of the organization to which the account belongs\n      * @param _account account id being dded to the org\n      * @dev this function creates a voting record for other network admins to\n        approve the operation. The recovery is complete only after majority voting\n      */\n    function startBlacklistedAccountRecovery(string calldata _orgId, address _account,\n        address _caller) external\n    onlyInterface\n    networkAdmin(_caller)\n    {\n        // update the account status as recovery initiated. action for this is 4\n        accountManager.updateAccountStatus(_orgId, _account, 4);\n        // add a voting record with pending op of 5 which corresponds to blacklisted node\n        // recovery\n        voterManager.addVotingItem(adminOrg, _orgId, \"\", _account, 6);\n    }\n\n    /** @notice function to initaite blacklisted nodes recovery. this can be\n        invoked by an network admin account only\n      * @param _orgId unique id of the organization to which the account belongs\n      * @param _account account id being dded to the org\n      * @dev this function creates a voting record for other network admins to\n        approve the operation. The recovery is complete only after majority voting\n      */\n    function approveBlacklistedAccountRecovery(string calldata _orgId, address _account,\n        address _caller) external\n    onlyInterface\n    networkAdmin(_caller) {\n        // check if majority votes are received. pending op type is passed as 6\n        // which stands for black listed account recovery\n        if ((processVote(adminOrg, _caller, 6))) {\n            // update the node back to active\n            accountManager.updateAccountStatus(_orgId, _account, 5);\n        }\n    }\n\n    /** @notice function to fetch network boot status\n      * @return bool network boot status\n      */\n    function getNetworkBootStatus() external view\n    returns (bool){\n        return networkBoot;\n    }\n\n    /** @notice function to fetch detail of any pending approval activities\n        for network admin organization\n      * @param _orgId unique id of the organization to which the account belongs\n      */\n    function getPendingOp(string calldata _orgId) external view\n    returns (string memory, string memory, address, uint256){\n        return voterManager.getPendingOpDetails(_orgId);\n    }\n\n    /** @notice function to assigns a role id to the account given account\n        can be executed by org admin account only\n      * @param _account account id\n      * @param _orgId organization id to which the account belongs\n      * @param _roleId role id to be assigned to the account\n      */\n    function assignAccountRole(address _account, string memory _orgId,\n        string memory _roleId, address _caller) public\n    onlyInterface\n    orgAdmin(_caller, _orgId)\n    orgApproved(_orgId) {\n        require(validateAccount(_account, _orgId) == true, \"operation cannot be performed\");\n        require(_roleExists(_roleId, _orgId) == true, \"role does not exists\");\n        bool admin = roleManager.isAdminRole(_roleId, _orgId, _getUltimateParent(_orgId));\n        accountManager.assignAccountRole(_account, _orgId, _roleId, admin);\n    }\n\n    /** @notice function to check if passed account is an network admin account\n      * @param _account account id\n      * @return true/false\n      */\n    function isNetworkAdmin(address _account) public view\n    returns (bool){\n        return (keccak256(abi.encode(accountManager.getAccountRole(_account))) == keccak256(abi.encode(adminRole)));\n    }\n\n    /** @notice function to check if passed account is an org admin account\n      * @param _account account id\n      * @param _orgId organization id\n      * @return true/false\n      */\n    function isOrgAdmin(address _account, string memory _orgId) public view\n    returns (bool){\n        if (accountManager.checkOrgAdmin(_account, _orgId, _getUltimateParent(_orgId))) {\n            return true;\n        }\n        return roleManager.isAdminRole(accountManager.getAccountRole(_account), _orgId,\n            _getUltimateParent(_orgId));\n    }\n\n    /** @notice function to validate the account for access change operation\n      * @param _account account id\n      * @param _orgId organization id\n      * @return true/false\n      */\n    function validateAccount(address _account, string memory _orgId) public view\n    returns (bool){\n        return (accountManager.validateAccount(_account, _orgId));\n    }\n\n    /** @notice function to update the voter list at network level. this will\n        be called whenever an account is assigned a network admin role\n        or an account having network admin role is being assigned\n         different role\n      * @param _orgId org id to which the account belongs\n      * @param _account account which needs to be added/removed as voter\n      * @param _add bool indicating if its an add or delete operation\n      */\n    function updateVoterList(string memory _orgId, address _account, bool _add) internal {\n        if (_add) {\n            voterManager.addVoter(_orgId, _account);\n        }\n        else {\n            voterManager.deleteVoter(_orgId, _account);\n        }\n    }\n\n    /** @notice whenever a network admin account votes on a pending item, this\n        function processes the vote.\n      * @param _orgId org id of the caller\n      * @param _caller account which approving the operation\n      * @param _pendingOp operation for which the approval is being done\n      * @dev the list of pending ops are managed in voter manager contract\n      */\n    function processVote(string memory _orgId, address _caller, uint256 _pendingOp) internal\n    returns (bool){\n        return voterManager.processVote(_orgId, _caller, _pendingOp);\n    }\n\n    /** @notice returns various permissions policy related parameters\n      * @return adminOrg admin org id\n      * @return adminRole default network admin role\n      * @return orgAdminRole default org admin role\n      * @return networkBoot network boot status\n      */\n    function getPolicyDetails() external view\n    returns (string memory, string memory, string memory, bool){\n        return (adminOrg, adminRole, orgAdminRole, networkBoot);\n    }\n\n    /** @notice checks if the passed org exists or not\n      * @param _orgId org id\n      * @return true/false\n      */\n    function _checkOrgExists(string memory _orgId) internal view\n    returns (bool){\n        return orgManager.checkOrgExists(_orgId);\n    }\n\n    /** @notice checks if the passed org is in approved status\n      * @param _orgId org id\n      * @return true/false\n      */\n    function checkOrgApproved(string memory _orgId) internal view\n    returns (bool){\n        return orgManager.checkOrgStatus(_orgId, 2);\n    }\n\n    /** @notice checks if the passed org is in the status passed\n      * @param _orgId org id\n      * @param _status status to be checked for\n      * @return true/false\n      */\n    function _checkOrgStatus(string memory _orgId, uint256 _status) internal view\n    returns (bool){\n        return orgManager.checkOrgStatus(_orgId, _status);\n    }\n\n    /** @notice checks if org admin account exists for the passed org id\n      * @param _orgId org id\n      * @return true/false\n      */\n    function _checkOrgAdminExists(string memory _orgId) internal view\n    returns (bool){\n        return accountManager.orgAdminExists(_orgId);\n    }\n\n    /** @notice checks if role id exists for the passed org_id\n      * @param _roleId role id\n      * @param _orgId org id\n      * @return true/false\n      */\n    function _roleExists(string memory _roleId, string memory _orgId) internal view\n    returns (bool){\n        return roleManager.roleExists(_roleId, _orgId, _getUltimateParent(_orgId));\n    }\n\n    /** @notice checks if the role id for the org is a voter role\n      * @param _roleId role id\n      * @param _orgId org id\n      * @return true/false\n      */\n    function _isVoterRole(string memory _roleId, string memory _orgId) internal view\n    returns (bool){\n        return roleManager.isVoterRole(_roleId, _orgId, _getUltimateParent(_orgId));\n    }\n\n    /** @notice returns the ultimate parent for a given org id\n      * @param _orgId org id\n      * @return ultimate parent org id\n      */\n    function _getUltimateParent(string memory _orgId) internal view\n    returns (string memory){\n        return orgManager.getUltimateParent(_orgId);\n    }\n\n    /** @notice checks if the node is allowed to connect or not\n      * @param _enodeId enode id\n      * @param _ip IP of node\n      * @param _port tcp port of node\n      * @return bool indicating if the node is allowed to connect or not\n      */\n    function connectionAllowed(string calldata _enodeId, string calldata _ip, uint16 _port) external view returns (bool) {\n        if (!networkBoot){\n            return true;\n        }\n        return nodeManager.connectionAllowed(_enodeId, _ip, _port);\n    }\n\n    /** @notice checks if the account is allowed to transact or not\n      * @param _sender source account\n      * @param _target target account\n      * @param _value value being transferred\n      * @param _gasPrice gas price\n      * @param _gasLimit gas limit\n      * @param _payload payload for transactions on contracts\n      * @return bool indicating if the account is allowed to transact or not\n      */\n    function transactionAllowed(address _sender, address _target, uint256 _value, uint256 _gasPrice, uint256 _gasLimit, bytes calldata _payload)\n    external view returns (bool) {\n        if (!networkBoot){\n            return true;\n        }\n\n        if (accountManager.getAccountStatus(_sender) == 2) {\n            (string memory act_org, string memory act_role) = accountManager.getAccountOrgRole(_sender);\n            string memory act_uOrg = _getUltimateParent(act_org);\n            if (orgManager.checkOrgActive(act_org)) {\n                if (isNetworkAdmin(_sender) || isOrgAdmin(_sender, act_org)) {\n                    return true;\n                }\n\n                uint256 typeOfxn = 1;\n                if (_target == address(0)) {\n                    typeOfxn = 2;\n                }\n                else if (_payload.length > 0) {\n                    typeOfxn = 3;\n                }\n                return roleManager.transactionAllowed(act_role, act_org, act_uOrg, typeOfxn);\n            }\n        }\n        return false;\n    }\n}\n",
  "sourcePath": "/home/manhtv19/coding/quorum/quorum-root/permission/contracts/PermissionsImplementation.sol",
  "compiler": {
    "name": "solc",
    "version": "0.5.3+commit.10d17f24.Emscripten.clang"
  },
  "schemaVersion": "3.4.6",
  "updatedAt": "2022-03-22T10:03:46.204Z",
  "devdoc": {
    "methods": {
      "addAdminAccount(address)": {
        "params": {
          "_account": "- account id"
        }
      },
      "addAdminNode(string,string,uint16,uint16)": {
        "params": {
          "_enodeId": "- enode id",
          "_ip": "IP of node",
          "_port": "tcp port of node",
          "_raftport": "raft port of node"
        }
      },
      "addNewRole(string,string,uint256,bool,bool,address)": {
        "details": "account access type can have of the following four values: 0 - Read only 1 - value transfer 2 - contract deploy 3 - full access 4 - contract call 5 - value transfer and contract call 6 - value transfer and contract deploy 7 - contract call and deploy",
        "params": {
          "_access": "account access type allowed for the role",
          "_admin": "bool indicates if the role is an admin role",
          "_orgId": "unique id of the organization to which the role belongs",
          "_roleId": "unique id for the role",
          "_voter": "bool indicates if the role is voter role or not"
        }
      },
      "addNode(string,string,string,uint16,uint16,address)": {
        "params": {
          "_enodeId": "enode id being dded to the org",
          "_ip": "IP of node",
          "_orgId": "unique id of the organization to which the account belongs",
          "_port": "tcp port of node",
          "_raftport": "raft port of node"
        }
      },
      "addOrg(string,string,string,uint16,uint16,address,address)": {
        "params": {
          "_account": "account id. this will have the org admin privileges",
          "_enodeId": "enode id linked to the organization",
          "_ip": "IP of node",
          "_orgId": "unique organization id",
          "_port": "tcp port of node",
          "_raftport": "raft port of node"
        }
      },
      "addSubOrg(string,string,string,string,uint16,uint16,address)": {
        "details": "_enodeId is optional. parent org id should contain the complete org hierarchy from master org id to the immediate parent. The org hierarchy is separated by. For example, if master org ABC has a sub organization SUB1, then while creating the sub organization at SUB1 level, the parent org should be given as ABC.SUB1",
        "params": {
          "_enodeId": "enode id linked to the sjb organization",
          "_ip": "IP of node",
          "_orgId": "unique id for the sub organization",
          "_pOrgId": "parent org id under which the sub org is being added",
          "_port": "tcp port of node",
          "_raftport": "raft port of node"
        }
      },
      "approveAdminRole(string,address,address)": {
        "params": {
          "_account": "account id",
          "_orgId": "unique id of the organization to which the account belongs"
        }
      },
      "approveBlacklistedAccountRecovery(string,address,address)": {
        "details": "this function creates a voting record for other network admins to approve the operation. The recovery is complete only after majority voting",
        "params": {
          "_account": "account id being dded to the org",
          "_orgId": "unique id of the organization to which the account belongs"
        }
      },
      "approveBlacklistedNodeRecovery(string,string,string,uint16,uint16,address)": {
        "details": "this function creates a voting record for other network admins to approve the operation. The recovery is complete only after majority voting",
        "params": {
          "_enodeId": "enode id being dded to the org",
          "_ip": "IP of node",
          "_orgId": "unique id of the organization to which the account belongs",
          "_port": "tcp port of node",
          "_raftport": "raft port of node"
        }
      },
      "approveOrg(string,string,string,uint16,uint16,address,address)": {
        "params": {
          "_account": "account id this will have the org admin privileges",
          "_enodeId": "enode id linked to the organization",
          "_ip": "IP of node",
          "_orgId": "unique organization id",
          "_port": "tcp port of node",
          "_raftport": "raft port of node"
        }
      },
      "approveOrgStatus(string,uint256,address)": {
        "params": {
          "_action": "1 for suspending an org and 2 for revoke of suspension",
          "_orgId": "unique id for the sub organization"
        }
      },
      "assignAccountRole(address,string,string,address)": {
        "params": {
          "_account": "account id",
          "_orgId": "organization id to which the account belongs",
          "_roleId": "role id to be assigned to the account"
        }
      },
      "assignAdminRole(string,address,string,address)": {
        "params": {
          "_account": "account id",
          "_orgId": "unique id of the organization to which the account belongs",
          "_roleId": "role id to be assigned to the account"
        }
      },
      "connectionAllowed(string,string,uint16)": {
        "params": {
          "_enodeId": "enode id",
          "_ip": "IP of node",
          "_port": "tcp port of node"
        },
        "return": "bool indicating if the node is allowed to connect or not"
      },
      "constructor": {
        "params": {
          "_accountManager": "- address of account manager contract",
          "_nodeManager": "- address of node manager contract",
          "_orgManager": "- address of org manager contract",
          "_permUpgradable": "- address of permissions upgradable contract",
          "_rolesManager": "- address of role manager contract",
          "_voterManager": "- address of voter manager contract"
        }
      },
      "getNetworkBootStatus()": {
        "return": "bool network boot status"
      },
      "getPendingOp(string)": {
        "params": {
          "_orgId": "unique id of the organization to which the account belongs"
        }
      },
      "getPolicyDetails()": {
        "return": "adminOrg admin org idadminRole default network admin roleorgAdminRole default org admin rolenetworkBoot network boot status"
      },
      "init(uint256,uint256)": {
        "params": {
          "_breadth": "- number of sub orgs allowed at parent level",
          "_depth": "- levels of sub org nesting allowed at parent level"
        }
      },
      "isNetworkAdmin(address)": {
        "params": {
          "_account": "account id"
        },
        "return": "true/false"
      },
      "isOrgAdmin(address,string)": {
        "params": {
          "_account": "account id",
          "_orgId": "organization id"
        },
        "return": "true/false"
      },
      "removeRole(string,string,address)": {
        "params": {
          "_orgId": "unique id of the organization to which the role belongs",
          "_roleId": "unique id for the role"
        }
      },
      "setMigrationPolicy(string,string,string,bool)": {
        "params": {
          "_networkBootStatus": "- network boot status true/false",
          "_nwAdminOrg": "- address of permissions upgradable contract",
          "_nwAdminRole": "- address of org manager contract",
          "_oAdminRole": "- address of role manager contract"
        }
      },
      "setPolicy(string,string,string)": {
        "details": "this function will be executed only once as part of the boot up",
        "params": {
          "_nwAdminOrg": "- address of permissions upgradable contract",
          "_nwAdminRole": "- address of org manager contract",
          "_oAdminRole": "- address of role manager contract"
        }
      },
      "startBlacklistedAccountRecovery(string,address,address)": {
        "details": "this function creates a voting record for other network admins to approve the operation. The recovery is complete only after majority voting",
        "params": {
          "_account": "account id being dded to the org",
          "_orgId": "unique id of the organization to which the account belongs"
        }
      },
      "startBlacklistedNodeRecovery(string,string,string,uint16,uint16,address)": {
        "details": "this function creates a voting record for other network admins to approve the operation. The recovery is complete only after majority voting",
        "params": {
          "_enodeId": "enode id being dded to the org",
          "_ip": "IP of node",
          "_orgId": "unique id of the organization to which the account belongs",
          "_port": "tcp port of node",
          "_raftport": "raft port of node"
        }
      },
      "transactionAllowed(address,address,uint256,uint256,uint256,bytes)": {
        "params": {
          "_gasLimit": "gas limit",
          "_gasPrice": "gas price",
          "_payload": "payload for transactions on contracts",
          "_sender": "source account",
          "_target": "target account",
          "_value": "value being transferred"
        },
        "return": "bool indicating if the account is allowed to transact or not"
      },
      "updateAccountStatus(string,address,uint256,address)": {
        "params": {
          "_account": "account id",
          "_action": "1-suspend 2-activate back 3-blacklist",
          "_orgId": "unique id of the organization to which the account belongs"
        }
      },
      "updateNetworkBootStatus()": {
        "details": "this will be called only once from geth as a part ofnetwork initialization",
        "return": "network boot status"
      },
      "updateNodeStatus(string,string,string,uint16,uint16,uint256,address)": {
        "params": {
          "_action": "1-deactivate, 2-activate back, 3-blacklist the node",
          "_enodeId": "enode id being dded to the org",
          "_ip": "IP of node",
          "_orgId": "unique id of the organization to which the account belongs",
          "_port": "tcp port of node",
          "_raftport": "raft port of node"
        }
      },
      "updateOrgStatus(string,uint256,address)": {
        "params": {
          "_action": "1 for suspending an org and 2 for revoke of suspension",
          "_orgId": "unique id of the organization"
        }
      },
      "validateAccount(address,string)": {
        "params": {
          "_account": "account id",
          "_orgId": "organization id"
        },
        "return": "true/false"
      }
    },
    "title": "Permissions Implementation Contract"
  },
  "userdoc": {
    "methods": {
      "addAdminAccount(address)": {
        "notice": "as a part of network initialization add all accounts which are passed via permission-config.json as network administrator accounts"
      },
      "addAdminNode(string,string,uint16,uint16)": {
        "notice": "as a part of network initialization add all nodes which are part of static-nodes.json as nodes belonging to network admin org"
      },
      "addNewRole(string,string,uint256,bool,bool,address)": {
        "notice": "function to add new role definition to an organization can be executed by the org admin account only"
      },
      "addNode(string,string,string,uint16,uint16,address)": {
        "notice": "function to add a new node to the organization. can be invoked org admin account only"
      },
      "addOrg(string,string,string,uint16,uint16,address,address)": {
        "notice": "function to add a new organization to the network. creates org record and marks it as pending approval. adds the passed node node manager contract. adds the account with org admin role to account manager contracts. creates voting record for approval by other network admin accounts"
      },
      "addSubOrg(string,string,string,string,uint16,uint16,address)": {
        "notice": "function to create a sub org under a given parent org."
      },
      "approveAdminRole(string,address,address)": {
        "notice": "function to approve network admin/org admin role assigment this can be executed by network admin accounts only."
      },
      "approveBlacklistedAccountRecovery(string,address,address)": {
        "notice": "function to initaite blacklisted nodes recovery. this can be invoked by an network admin account only"
      },
      "approveBlacklistedNodeRecovery(string,string,string,uint16,uint16,address)": {
        "notice": "function to initiate blacklisted nodes recovery. this can be invoked by an network admin account only"
      },
      "approveOrg(string,string,string,uint16,uint16,address,address)": {
        "notice": "functions to approve a pending approval org record by networ admin account. once majority votes are received the org is marked as approved"
      },
      "approveOrgStatus(string,uint256,address)": {
        "notice": "function to approve org status change. the org status is changed once the majority votes are received from network admin accounts."
      },
      "assignAccountRole(address,string,string,address)": {
        "notice": "function to assigns a role id to the account given account can be executed by org admin account only"
      },
      "assignAdminRole(string,address,string,address)": {
        "notice": "function to assign network admin/org admin role to an account this can be executed by network admin accounts only. it assigns the role to the accounts and creates voting record for network admin accounts"
      },
      "connectionAllowed(string,string,uint16)": {
        "notice": "checks if the node is allowed to connect or not"
      },
      "constructor": "constructor accepts the contracts addresses of other deployed contracts of the permissions model",
      "getNetworkBootStatus()": {
        "notice": "function to fetch network boot status"
      },
      "getPendingOp(string)": {
        "notice": "function to fetch detail of any pending approval activities for network admin organization"
      },
      "getPolicyDetails()": {
        "notice": "returns various permissions policy related parameters"
      },
      "init(uint256,uint256)": {
        "notice": "called at the time of network initialization. sets up network admin org with allowed sub org depth and breadth creates the network admin for the network admin org sets the default values required by account manager contract"
      },
      "isNetworkAdmin(address)": {
        "notice": "function to check if passed account is an network admin account"
      },
      "isOrgAdmin(address,string)": {
        "notice": "function to check if passed account is an org admin account"
      },
      "removeRole(string,string,address)": {
        "notice": "function to remove a role definition from an organization can be executed by the org admin account only"
      },
      "setMigrationPolicy(string,string,string,bool)": {
        "notice": "when migrating implementation contract, the values of these key values need to be set from the previous implementation contract. this function allows these values to be set"
      },
      "setPolicy(string,string,string)": {
        "notice": "for permissions its necessary to define the initial admin org id, network admin role id and default org admin role id. this sets these values at the time of network boot up"
      },
      "startBlacklistedAccountRecovery(string,address,address)": {
        "notice": "function to initaite blacklisted nodes recovery. this can be invoked by an network admin account only"
      },
      "startBlacklistedNodeRecovery(string,string,string,uint16,uint16,address)": {
        "notice": "function to initiate blacklisted nodes recovery. this can be invoked by an network admin account only"
      },
      "transactionAllowed(address,address,uint256,uint256,uint256,bytes)": {
        "notice": "checks if the account is allowed to transact or not"
      },
      "updateAccountStatus(string,address,uint256,address)": {
        "notice": "function to update account status. can be executed by org admin account only."
      },
      "updateNetworkBootStatus()": {
        "notice": "once the network initialization is complete, sets the network boot status to true"
      },
      "updateNodeStatus(string,string,string,uint16,uint16,uint256,address)": {
        "notice": "function to update node status. can be invoked by org admin account only"
      },
      "updateOrgStatus(string,uint256,address)": {
        "notice": "function to update the org status. it updates the org status and adds a voting item for network admins to approve"
      },
      "validateAccount(address,string)": {
        "notice": "function to validate the account for access change operation"
      }
    },
    "notice": "This contract holds implementation logic for all permissions related functionality. This can be called only by the interface contract."
  }
}