{
  "contractName": "RoleManager",
  "abi": [
    {
      "inputs": [
        {
          "name": "_permUpgradable",
          "type": "address"
        }
      ],
      "payable": false,
      "stateMutability": "nonpayable",
      "type": "constructor"
    },
    {
      "anonymous": false,
      "inputs": [
        {
          "indexed": false,
          "name": "_roleId",
          "type": "string"
        },
        {
          "indexed": false,
          "name": "_orgId",
          "type": "string"
        },
        {
          "indexed": false,
          "name": "_baseAccess",
          "type": "uint256"
        },
        {
          "indexed": false,
          "name": "_isVoter",
          "type": "bool"
        },
        {
          "indexed": false,
          "name": "_isAdmin",
          "type": "bool"
        }
      ],
      "name": "RoleCreated",
      "type": "event"
    },
    {
      "anonymous": false,
      "inputs": [
        {
          "indexed": false,
          "name": "_roleId",
          "type": "string"
        },
        {
          "indexed": false,
          "name": "_orgId",
          "type": "string"
        }
      ],
      "name": "RoleRevoked",
      "type": "event"
    },
    {
      "constant": false,
      "inputs": [
        {
          "name": "_roleId",
          "type": "string"
        },
        {
          "name": "_orgId",
          "type": "string"
        },
        {
          "name": "_baseAccess",
          "type": "uint256"
        },
        {
          "name": "_isVoter",
          "type": "bool"
        },
        {
          "name": "_isAdmin",
          "type": "bool"
        }
      ],
      "name": "addRole",
      "outputs": [],
      "payable": false,
      "stateMutability": "nonpayable",
      "type": "function"
    },
    {
      "constant": false,
      "inputs": [
        {
          "name": "_roleId",
          "type": "string"
        },
        {
          "name": "_orgId",
          "type": "string"
        }
      ],
      "name": "removeRole",
      "outputs": [],
      "payable": false,
      "stateMutability": "nonpayable",
      "type": "function"
    },
    {
      "constant": true,
      "inputs": [
        {
          "name": "_roleId",
          "type": "string"
        },
        {
          "name": "_orgId",
          "type": "string"
        },
        {
          "name": "_ultParent",
          "type": "string"
        }
      ],
      "name": "isVoterRole",
      "outputs": [
        {
          "name": "",
          "type": "bool"
        }
      ],
      "payable": false,
      "stateMutability": "view",
      "type": "function"
    },
    {
      "constant": true,
      "inputs": [
        {
          "name": "_roleId",
          "type": "string"
        },
        {
          "name": "_orgId",
          "type": "string"
        },
        {
          "name": "_ultParent",
          "type": "string"
        }
      ],
      "name": "isAdminRole",
      "outputs": [
        {
          "name": "",
          "type": "bool"
        }
      ],
      "payable": false,
      "stateMutability": "view",
      "type": "function"
    },
    {
      "constant": true,
      "inputs": [
        {
          "name": "_roleId",
          "type": "string"
        },
        {
          "name": "_orgId",
          "type": "string"
        }
      ],
      "name": "getRoleDetails",
      "outputs": [
        {
          "name": "roleId",
          "type": "string"
        },
        {
          "name": "orgId",
          "type": "string"
        },
        {
          "name": "accessType",
          "type": "uint256"
        },
        {
          "name": "voter",
          "type": "bool"
        },
        {
          "name": "admin",
          "type": "bool"
        },
        {
          "name": "active",
          "type": "bool"
        }
      ],
      "payable": false,
      "stateMutability": "view",
      "type": "function"
    },
    {
      "constant": true,
      "inputs": [
        {
          "name": "_rIndex",
          "type": "uint256"
        }
      ],
      "name": "getRoleDetailsFromIndex",
      "outputs": [
        {
          "name": "roleId",
          "type": "string"
        },
        {
          "name": "orgId",
          "type": "string"
        },
        {
          "name": "accessType",
          "type": "uint256"
        },
        {
          "name": "voter",
          "type": "bool"
        },
        {
          "name": "admin",
          "type": "bool"
        },
        {
          "name": "active",
          "type": "bool"
        }
      ],
      "payable": false,
      "stateMutability": "view",
      "type": "function"
    },
    {
      "constant": true,
      "inputs": [],
      "name": "getNumberOfRoles",
      "outputs": [
        {
          "name": "",
          "type": "uint256"
        }
      ],
      "payable": false,
      "stateMutability": "view",
      "type": "function"
    },
    {
      "constant": true,
      "inputs": [
        {
          "name": "_roleId",
          "type": "string"
        },
        {
          "name": "_orgId",
          "type": "string"
        },
        {
          "name": "_ultParent",
          "type": "string"
        }
      ],
      "name": "roleExists",
      "outputs": [
        {
          "name": "",
          "type": "bool"
        }
      ],
      "payable": false,
      "stateMutability": "view",
      "type": "function"
    },
    {
      "constant": true,
      "inputs": [
        {
          "name": "_roleId",
          "type": "string"
        },
        {
          "name": "_orgId",
          "type": "string"
        },
        {
          "name": "_ultParent",
          "type": "string"
        }
      ],
      "name": "roleAccess",
      "outputs": [
        {
          "name": "",
          "type": "uint256"
        }
      ],
      "payable": false,
      "stateMutability": "view",
      "type": "function"
    },
    {
      "constant": true,
      "inputs": [
        {
          "name": "_roleId",
          "type": "string"
        },
        {
          "name": "_orgId",
          "type": "string"
        },
        {
          "name": "_ultParent",
          "type": "string"
        },
        {
          "name": "_typeOfTxn",
          "type": "uint256"
        }
      ],
      "name": "transactionAllowed",
      "outputs": [
        {
          "name": "",
          "type": "bool"
        }
      ],
      "payable": false,
      "stateMutability": "view",
      "type": "function"
    }
  ],
  "bytecode": "0x608060405234801561001057600080fd5b5060405160208061316c8339810180604052602081101561003057600080fd5b8101908080519060200190929190505050806000806101000a81548173ffffffffffffffffffffffffffffffffffffffff021916908373ffffffffffffffffffffffffffffffffffffffff160217905550506130db806100916000396000f3fe608060405234801561001057600080fd5b50600436106100bb576000357c010000000000000000000000000000000000000000000000000000000090048063abf5739f11610083578063abf5739f14610636578063be322e5414610837578063cfc83dfa14610972578063d1f7786614610b6f578063deb16ba714610cb4576100bb565b80631870aba3146100c05780637b7135791461029b57806387f55d311461040f578063a451d4a81461042d578063a634301214610568575b600080fd5b61018c600480360360408110156100d657600080fd5b81019080803590602001906401000000008111156100f357600080fd5b82018360208201111561010557600080fd5b8035906020019184600183028401116401000000008311171561012757600080fd5b90919293919293908035906020019064010000000081111561014857600080fd5b82018360208201111561015a57600080fd5b8035906020019184600183028401116401000000008311171561017c57600080fd5b9091929391929390505050610def565b604051808060200180602001878152602001861515151581526020018515151515815260200184151515158152602001838103835289818151815260200191508051906020019080838360005b838110156101f45780820151818401526020810190506101d9565b50505050905090810190601f1680156102215780820380516001836020036101000a031916815260200191505b50838103825288818151815260200191508051906020019080838360005b8381101561025a57808201518184015260208101905061023f565b50505050905090810190601f1680156102875780820380516001836020036101000a031916815260200191505b509850505050505050505060405180910390f35b61040d600480360360a08110156102b157600080fd5b81019080803590602001906401000000008111156102ce57600080fd5b8201836020820111156102e057600080fd5b8035906020019184600183028401116401000000008311171561030257600080fd5b91908080601f016020809104026020016040519081016040528093929190818152602001838380828437600081840152601f19601f8201169050808301925050505050505091929192908035906020019064010000000081111561036557600080fd5b82018360208201111561037757600080fd5b8035906020019184600183028401116401000000008311171561039957600080fd5b91908080601f016020809104026020016040519081016040528093929190818152602001838380828437600081840152601f19601f820116905080830192505050505050509192919290803590602001909291908035151590602001909291908035151590602001909291905050506111f3565b005b6104176118ab565b6040518082815260200191505060405180910390f35b6104596004803603602081101561044357600080fd5b81019080803590602001909291905050506118b8565b604051808060200180602001878152602001861515151581526020018515151515815260200184151515158152602001838103835289818151815260200191508051906020019080838360005b838110156104c15780820151818401526020810190506104a6565b50505050905090810190601f1680156104ee5780820380516001836020036101000a031916815260200191505b50838103825288818151815260200191508051906020019080838360005b8381101561052757808201518184015260208101905061050c565b50505050905090810190601f1680156105545780820380516001836020036101000a031916815260200191505b509850505050505050505060405180910390f35b6106346004803603604081101561057e57600080fd5b810190808035906020019064010000000081111561059b57600080fd5b8201836020820111156105ad57600080fd5b803590602001918460018302840111640100000000831117156105cf57600080fd5b9091929391929390803590602001906401000000008111156105f057600080fd5b82018360208201111561060257600080fd5b8035906020019184600183028401116401000000008311171561062457600080fd5b9091929391929390505050611af9565b005b61081d6004803603606081101561064c57600080fd5b810190808035906020019064010000000081111561066957600080fd5b82018360208201111561067b57600080fd5b8035906020019184600183028401116401000000008311171561069d57600080fd5b91908080601f016020809104026020016040519081016040528093929190818152602001838380828437600081840152601f19601f8201169050808301925050505050505091929192908035906020019064010000000081111561070057600080fd5b82018360208201111561071257600080fd5b8035906020019184600183028401116401000000008311171561073457600080fd5b91908080601f016020809104026020016040519081016040528093929190818152602001838380828437600081840152601f19601f8201169050808301925050505050505091929192908035906020019064010000000081111561079757600080fd5b8201836020820111156107a957600080fd5b803590602001918460018302840111640100000000831117156107cb57600080fd5b91908080601f016020809104026020016040519081016040528093929190818152602001838380828437600081840152601f19601f820116905080830192505050505050509192919290505050611ed8565b604051808215151515815260200191505060405180910390f35b6109586004803603606081101561084d57600080fd5b810190808035906020019064010000000081111561086a57600080fd5b82018360208201111561087c57600080fd5b8035906020019184600183028401116401000000008311171561089e57600080fd5b9091929391929390803590602001906401000000008111156108bf57600080fd5b8201836020820111156108d157600080fd5b803590602001918460018302840111640100000000831117156108f357600080fd5b90919293919293908035906020019064010000000081111561091457600080fd5b82018360208201111561092657600080fd5b8035906020019184600183028401116401000000008311171561094857600080fd5b9091929391929390505050612196565b604051808215151515815260200191505060405180910390f35b610b596004803603606081101561098857600080fd5b81019080803590602001906401000000008111156109a557600080fd5b8201836020820111156109b757600080fd5b803590602001918460018302840111640100000000831117156109d957600080fd5b91908080601f016020809104026020016040519081016040528093929190818152602001838380828437600081840152601f19601f82011690508083019250505050505050919291929080359060200190640100000000811115610a3c57600080fd5b820183602082011115610a4e57600080fd5b80359060200191846001830284011164010000000083111715610a7057600080fd5b91908080601f016020809104026020016040519081016040528093929190818152602001838380828437600081840152601f19601f82011690508083019250505050505050919291929080359060200190640100000000811115610ad357600080fd5b820183602082011115610ae557600080fd5b80359060200191846001830284011164010000000083111715610b0757600080fd5b91908080601f016020809104026020016040519081016040528093929190818152602001838380828437600081840152601f19601f820116905080830192505050505050509192919290505050612622565b6040518082815260200191505060405180910390f35b610c9a60048036036080811015610b8557600080fd5b8101908080359060200190640100000000811115610ba257600080fd5b820183602082011115610bb457600080fd5b80359060200191846001830284011164010000000083111715610bd657600080fd5b909192939192939080359060200190640100000000811115610bf757600080fd5b820183602082011115610c0957600080fd5b80359060200191846001830284011164010000000083111715610c2b57600080fd5b909192939192939080359060200190640100000000811115610c4c57600080fd5b820183602082011115610c5e57600080fd5b80359060200191846001830284011164010000000083111715610c8057600080fd5b9091929391929390803590602001909291905050506128c6565b604051808215151515815260200191505060405180910390f35b610dd560048036036060811015610cca57600080fd5b8101908080359060200190640100000000811115610ce757600080fd5b820183602082011115610cf957600080fd5b80359060200191846001830284011164010000000083111715610d1b57600080fd5b909192939192939080359060200190640100000000811115610d3c57600080fd5b820183602082011115610d4e57600080fd5b80359060200191846001830284011164010000000083111715610d7057600080fd5b909192939192939080359060200190640100000000811115610d9157600080fd5b820183602082011115610da357600080fd5b80359060200191846001830284011164010000000083111715610dc557600080fd5b9091929391929390505050612a65565b604051808215151515815260200191505060405180910390f35b606080600080600080610e9b8a8a8080601f016020809104026020016040519081016040528093929190818152602001838380828437600081840152601f19601f8201169050808301925050505050505089898080601f016020809104026020016040519081016040528093929190818152602001838380828437600081840152601f19601f820116905080830192505050505050506020604051908101604052806000815250611ed8565b1515610f1f57898960008060008085858080601f016020809104026020016040519081016040528093929190818152602001838380828437600081840152601f19601f8201169050808301925050505050505094509091929394506020604051908101604052806000815250939291908393509550955095509550955095506111e6565b6000610fb38b8b8080601f016020809104026020016040519081016040528093929190818152602001838380828437600081840152601f19601f820116905080830192505050505050508a8a8080601f016020809104026020016040519081016040528093929190818152602001838380828437600081840152601f19601f82011690508083019250505050505050612ef1565b9050600181815481101515610fc457fe5b9060005260206000209060040201600001600182815481101515610fe457fe5b906000526020600020906004020160010160018381548110151561100457fe5b90600052602060002090600402016002015460018481548110151561102557fe5b906000526020600020906004020160030160009054906101000a900460ff1660018581548110151561105357fe5b906000526020600020906004020160030160019054906101000a900460ff1660018681548110151561108157fe5b906000526020600020906004020160030160029054906101000a900460ff16858054600181600116156101000203166002900480601f0160208091040260200160405190810160405280929190818152602001828054600181600116156101000203166002900480156111355780601f1061110a57610100808354040283529160200191611135565b820191906000526020600020905b81548152906001019060200180831161111857829003601f168201915b50505050509550848054600181600116156101000203166002900480601f0160208091040260200160405190810160405280929190818152602001828054600181600116156101000203166002900480156111d15780601f106111a6576101008083540402835291602001916111d1565b820191906000526020600020905b8154815290600101906020018083116111b457829003601f168201915b50505050509450965096509650965096509650505b9499939850945094509450565b6000809054906101000a900473ffffffffffffffffffffffffffffffffffffffff1673ffffffffffffffffffffffffffffffffffffffff16630e32cf906040518163ffffffff167c010000000000000000000000000000000000000000000000000000000002815260040160206040518083038186803b15801561127657600080fd5b505afa15801561128a573d6000803e3d6000fd5b505050506040513d60208110156112a057600080fd5b810190808051906020019092919050505073ffffffffffffffffffffffffffffffffffffffff163373ffffffffffffffffffffffffffffffffffffffff16141515611353576040517f08c379a000000000000000000000000000000000000000000000000000000000815260040180806020018281038252600e8152602001807f696e76616c69642063616c6c657200000000000000000000000000000000000081525060200191505060405180910390fd5b6008831015156113cb576040517f08c379a00000000000000000000000000000000000000000000000000000000081526004018080602001828103825260148152602001807f696e76616c6964206163636573732076616c756500000000000000000000000081525060200191505060405180910390fd5b6000600260008787604051602001808060200180602001838103835285818151815260200191508051906020019080838360005b8381101561141a5780820151818401526020810190506113ff565b50505050905090810190601f1680156114475780820380516001836020036101000a031916815260200191505b50838103825284818151815260200191508051906020019080838360005b83811015611480578082015181840152602081019050611465565b50505050905090810190601f1680156114ad5780820380516001836020036101000a031916815260200191505b509450505050506040516020818303038152906040528051906020012081526020019081526020016000205414151561154e576040517f08c379a00000000000000000000000000000000000000000000000000000000081526004018080602001828103825260178152602001807f726f6c652065786973747320666f7220746865206f726700000000000000000081525060200191505060405180910390fd5b600360008154809291906001019190505550600354600260008787604051602001808060200180602001838103835285818151815260200191508051906020019080838360005b838110156115b0578082015181840152602081019050611595565b50505050905090810190601f1680156115dd5780820380516001836020036101000a031916815260200191505b50838103825284818151815260200191508051906020019080838360005b838110156116165780820151818401526020810190506115fb565b50505050905090810190601f1680156116435780820380516001836020036101000a031916815260200191505b5094505050505060405160208183030381529060405280519060200120815260200190815260200160002081905550600160c06040519081016040528087815260200186815260200185815260200184151581526020018315158152602001600115158152509080600181540180825580915050906001820390600052602060002090600402016000909192909190915060008201518160000190805190602001906116f092919061300a565b50602082015181600101908051906020019061170d92919061300a565b506040820151816002015560608201518160030160006101000a81548160ff02191690831515021790555060808201518160030160016101000a81548160ff02191690831515021790555060a08201518160030160026101000a81548160ff0219169083151502179055505050507fefa5bc1bedbee25b04b00855c15a0c180ecb4a2440d4d08296e49561655e2b1c85858585856040518080602001806020018681526020018515151515815260200184151515158152602001838103835288818151815260200191508051906020019080838360005b838110156117ff5780820151818401526020810190506117e4565b50505050905090810190601f16801561182c5780820380516001836020036101000a031916815260200191505b50838103825287818151815260200191508051906020019080838360005b8381101561186557808201518184015260208101905061184a565b50505050905090810190601f1680156118925780820380516001836020036101000a031916815260200191505b5097505050505050505060405180910390a15050505050565b6000600180549050905090565b6060806000806000806001878154811015156118d057fe5b90600052602060002090600402016000016001888154811015156118f057fe5b906000526020600020906004020160010160018981548110151561191057fe5b90600052602060002090600402016002015460018a81548110151561193157fe5b906000526020600020906004020160030160009054906101000a900460ff1660018b81548110151561195f57fe5b906000526020600020906004020160030160019054906101000a900460ff1660018c81548110151561198d57fe5b906000526020600020906004020160030160029054906101000a900460ff16858054600181600116156101000203166002900480601f016020809104026020016040519081016040528092919081815260200182805460018160011615610100020316600290048015611a415780601f10611a1657610100808354040283529160200191611a41565b820191906000526020600020905b815481529060010190602001808311611a2457829003601f168201915b50505050509550848054600181600116156101000203166002900480601f016020809104026020016040519081016040528092919081815260200182805460018160011615610100020316600290048015611add5780601f10611ab257610100808354040283529160200191611add565b820191906000526020600020905b815481529060010190602001808311611ac057829003601f168201915b5050505050945095509550955095509550955091939550919395565b6000809054906101000a900473ffffffffffffffffffffffffffffffffffffffff1673ffffffffffffffffffffffffffffffffffffffff16630e32cf906040518163ffffffff167c010000000000000000000000000000000000000000000000000000000002815260040160206040518083038186803b158015611b7c57600080fd5b505afa158015611b90573d6000803e3d6000fd5b505050506040513d6020811015611ba657600080fd5b810190808051906020019092919050505073ffffffffffffffffffffffffffffffffffffffff163373ffffffffffffffffffffffffffffffffffffffff16141515611c59576040517f08c379a000000000000000000000000000000000000000000000000000000000815260040180806020018281038252600e8152602001807f696e76616c69642063616c6c657200000000000000000000000000000000000081525060200191505060405180910390fd5b600060026000868686866040516020018080602001806020018381038352878782818152602001925080828437600081840152601f19601f8201169050808301925050508381038252858582818152602001925080828437600081840152601f19601f82011690508083019250505096505050505050506040516020818303038152906040528051906020012081526020019081526020016000205414151515611d6b576040517f08c379a00000000000000000000000000000000000000000000000000000000081526004018080602001828103825260138152602001807f726f6c6520646f6573206e6f742065786973740000000000000000000000000081525060200191505060405180910390fd5b6000611dff85858080601f016020809104026020016040519081016040528093929190818152602001838380828437600081840152601f19601f8201169050808301925050505050505084848080601f016020809104026020016040519081016040528093929190818152602001838380828437600081840152601f19601f82011690508083019250505050505050612ef1565b90506000600182815481101515611e1257fe5b906000526020600020906004020160030160026101000a81548160ff0219169083151502179055507f1196059dd83524bf989fd94bb65808c09dbea2ab791fb6bfa87a0e0aa64b2ea6858585856040518080602001806020018381038352878782818152602001925080828437600081840152601f19601f8201169050808301925050508381038252858582818152602001925080828437600081840152601f19601f820116905080830192505050965050505050505060405180910390a15050505050565b6000806000600260008787604051602001808060200180602001838103835285818151815260200191508051906020019080838360005b83811015611f2a578082015181840152602081019050611f0f565b50505050905090810190601f168015611f575780820380516001836020036101000a031916815260200191505b50838103825284818151815260200191508051906020019080838360005b83811015611f90578082015181840152602081019050611f75565b50505050905090810190601f168015611fbd5780820380516001836020036101000a031916815260200191505b509450505050506040516020818303038152906040528051906020012081526020019081526020016000205414151561203257611ffa8585612ef1565b905060018181548110151561200b57fe5b906000526020600020906004020160030160029054906101000a900460ff1691505061218f565b6000600260008786604051602001808060200180602001838103835285818151815260200191508051906020019080838360005b83811015612081578082015181840152602081019050612066565b50505050905090810190601f1680156120ae5780820380516001836020036101000a031916815260200191505b50838103825284818151815260200191508051906020019080838360005b838110156120e75780820151818401526020810190506120cc565b50505050905090810190601f1680156121145780820380516001836020036101000a031916815260200191505b5094505050505060405160208183030381529060405280519060200120815260200190815260200160002054141515612189576121518584612ef1565b905060018181548110151561216257fe5b906000526020600020906004020160030160029054906101000a900460ff1691505061218f565b60009150505b9392505050565b60008060009054906101000a900473ffffffffffffffffffffffffffffffffffffffff1673ffffffffffffffffffffffffffffffffffffffff16630e32cf906040518163ffffffff167c010000000000000000000000000000000000000000000000000000000002815260040160206040518083038186803b15801561221b57600080fd5b505afa15801561222f573d6000803e3d6000fd5b505050506040513d602081101561224557600080fd5b810190808051906020019092919050505073ffffffffffffffffffffffffffffffffffffffff163373ffffffffffffffffffffffffffffffffffffffff161415156122f8576040517f08c379a000000000000000000000000000000000000000000000000000000000815260040180806020018281038252600e8152602001807f696e76616c69642063616c6c657200000000000000000000000000000000000081525060200191505060405180910390fd5b6123cf87878080601f016020809104026020016040519081016040528093929190818152602001838380828437600081840152601f19601f8201169050808301925050505050505086868080601f016020809104026020016040519081016040528093929190818152602001838380828437600081840152601f19601f8201169050808301925050505050505085858080601f016020809104026020016040519081016040528093929190818152602001838380828437600081840152601f19601f82011690508083019250505050505050611ed8565b15156123de5760009050612618565b600080600260008a8a8a8a6040516020018080602001806020018381038352878782818152602001925080828437600081840152601f19601f8201169050808301925050508381038252858582818152602001925080828437600081840152601f19601f82011690508083019250505096505050505050506040516020818303038152906040528051906020012081526020019081526020016000205414151561251b5761251488888080601f016020809104026020016040519081016040528093929190818152602001838380828437600081840152601f19601f8201169050808301925050505050505087878080601f016020809104026020016040519081016040528093929190818152602001838380828437600081840152601f19601f82011690508083019250505050505050612ef1565b90506125b0565b6125ad88888080601f016020809104026020016040519081016040528093929190818152602001838380828437600081840152601f19601f8201169050808301925050505050505085858080601f016020809104026020016040519081016040528093929190818152602001838380828437600081840152601f19601f82011690508083019250505050505050612ef1565b90505b6001818154811015156125bf57fe5b906000526020600020906004020160030160029054906101000a900460ff16801561261457506001818154811015156125f457fe5b906000526020600020906004020160030160019054906101000a900460ff165b9150505b9695505050505050565b6000806000600260008787604051602001808060200180602001838103835285818151815260200191508051906020019080838360005b83811015612674578082015181840152602081019050612659565b50505050905090810190601f1680156126a15780820380516001836020036101000a031916815260200191505b50838103825284818151815260200191508051906020019080838360005b838110156126da5780820151818401526020810190506126bf565b50505050905090810190601f1680156127075780820380516001836020036101000a031916815260200191505b509450505050506040516020818303038152906040528051906020012081526020019081526020016000205414151561276f576127448585612ef1565b905060018181548110151561275557fe5b9060005260206000209060040201600201549150506128bf565b6000600260008786604051602001808060200180602001838103835285818151815260200191508051906020019080838360005b838110156127be5780820151818401526020810190506127a3565b50505050905090810190601f1680156127eb5780820380516001836020036101000a031916815260200191505b50838103825284818151815260200191508051906020019080838360005b83811015612824578082015181840152602081019050612809565b50505050905090810190601f1680156128515780820380516001836020036101000a031916815260200191505b50945050505050604051602081830303815290604052805190602001208152602001908152602001600020541415156128b95761288e8584612ef1565b905060018181548110151561289f57fe5b9060005260206000209060040201600201549150506128bf565b60009150505b9392505050565b6000806129a089898080601f016020809104026020016040519081016040528093929190818152602001838380828437600081840152601f19601f8201169050808301925050505050505088888080601f016020809104026020016040519081016040528093929190818152602001838380828437600081840152601f19601f8201169050808301925050505050505087878080601f016020809104026020016040519081016040528093929190818152602001838380828437600081840152601f19601f82011690508083019250505050505050612622565b905060038114156129b5576001915050612a5a565b6001831480156129db575060018114806129cf5750600581145b806129da5750600681145b5b156129ea576001915050612a5a565b600283148015612a1057506002811480612a045750600681145b80612a0f5750600781145b5b15612a1f576001915050612a5a565b600383148015612a4557506004811480612a395750600581145b80612a445750600781145b5b15612a54576001915050612a5a565b60009150505b979650505050505050565b60008060009054906101000a900473ffffffffffffffffffffffffffffffffffffffff1673ffffffffffffffffffffffffffffffffffffffff16630e32cf906040518163ffffffff167c010000000000000000000000000000000000000000000000000000000002815260040160206040518083038186803b158015612aea57600080fd5b505afa158015612afe573d6000803e3d6000fd5b505050506040513d6020811015612b1457600080fd5b810190808051906020019092919050505073ffffffffffffffffffffffffffffffffffffffff163373ffffffffffffffffffffffffffffffffffffffff16141515612bc7576040517f08c379a000000000000000000000000000000000000000000000000000000000815260040180806020018281038252600e8152602001807f696e76616c69642063616c6c657200000000000000000000000000000000000081525060200191505060405180910390fd5b612c9e87878080601f016020809104026020016040519081016040528093929190818152602001838380828437600081840152601f19601f8201169050808301925050505050505086868080601f016020809104026020016040519081016040528093929190818152602001838380828437600081840152601f19601f8201169050808301925050505050505085858080601f016020809104026020016040519081016040528093929190818152602001838380828437600081840152601f19601f82011690508083019250505050505050611ed8565b1515612cad5760009050612ee7565b600080600260008a8a8a8a6040516020018080602001806020018381038352878782818152602001925080828437600081840152601f19601f8201169050808301925050508381038252858582818152602001925080828437600081840152601f19601f820116905080830192505050965050505050505060405160208183030381529060405280519060200120815260200190815260200160002054141515612dea57612de388888080601f016020809104026020016040519081016040528093929190818152602001838380828437600081840152601f19601f8201169050808301925050505050505087878080601f016020809104026020016040519081016040528093929190818152602001838380828437600081840152601f19601f82011690508083019250505050505050612ef1565b9050612e7f565b612e7c88888080601f016020809104026020016040519081016040528093929190818152602001838380828437600081840152601f19601f8201169050808301925050505050505085858080601f016020809104026020016040519081016040528093929190818152602001838380828437600081840152601f19601f82011690508083019250505050505050612ef1565b90505b600181815481101515612e8e57fe5b906000526020600020906004020160030160029054906101000a900460ff168015612ee35750600181815481101515612ec357fe5b906000526020600020906004020160030160009054906101000a900460ff165b9150505b9695505050505050565b60006001600260008585604051602001808060200180602001838103835285818151815260200191508051906020019080838360005b83811015612f42578082015181840152602081019050612f27565b50505050905090810190601f168015612f6f5780820380516001836020036101000a031916815260200191505b50838103825284818151815260200191508051906020019080838360005b83811015612fa8578082015181840152602081019050612f8d565b50505050905090810190601f168015612fd55780820380516001836020036101000a031916815260200191505b509450505050506040516020818303038152906040528051906020012081526020019081526020016000205403905092915050565b828054600181600116156101000203166002900490600052602060002090601f016020900481019282601f1061304b57805160ff1916838001178555613079565b82800160010185558215613079579182015b8281111561307857825182559160200191906001019061305d565b5b509050613086919061308a565b5090565b6130ac91905b808211156130a8576000816000905550600101613090565b5090565b9056fea165627a7a72305820893063592487cbc28d3dbb50444926ea2da7b61d7271d338966a92ed56ee748a0029",
  "source": "pragma solidity ^0.5.3;\n\nimport \"./PermissionsUpgradable.sol\";\n/** @title Role manager contract\n  * @notice This contract holds implementation logic for all role management\n    functionality. This can be called only by the implementation\n    contract only. there are few view functions exposed as public and\n    can be called directly. these are invoked by quorum for populating\n    permissions data in cache\n  */\ncontract RoleManager {\n    PermissionsUpgradable private permUpgradable;\n\n    struct RoleDetails {\n        string roleId;\n        string orgId;\n        uint256 baseAccess;\n        bool isVoter;\n        bool isAdmin;\n        bool active;\n    }\n\n    RoleDetails[] private roleList;\n    mapping(bytes32 => uint256) private roleIndex;\n    uint256 private numberOfRoles;\n\n    event RoleCreated(string _roleId, string _orgId, uint256 _baseAccess,\n        bool _isVoter, bool _isAdmin);\n    event RoleRevoked(string _roleId, string _orgId);\n\n    /** @notice confirms that the caller is the address of implementation\n         contract\n     */\n    modifier onlyImplementation {\n        require(msg.sender == permUpgradable.getPermImpl(), \"invalid caller\");\n        _;\n    }\n\n    /** @notice constructor. sets the permissions upgradable address\n      */\n    constructor (address _permUpgradable) public {\n        permUpgradable = PermissionsUpgradable(_permUpgradable);\n    }\n\n    /** @notice function to add a new role definition to an organization\n      * @param _roleId - unique identifier for the role being added\n      * @param _orgId - org id to which the role belongs\n      * @param _baseAccess - can be from 0 to 7\n      * @param _isVoter - bool to indicate if voter role or not\n      * @param _isAdmin - bool to indicate if admin role or not\n      * @dev base access can have any of the following values:\n            0 - Read only\n            1 - value transfer\n            2 - contract deploy\n            3 - full access\n            4 - contract call\n            5 - value transfer and contract call\n            6 - value transfer and contract deploy\n            7 - contract call and deploy\n      */\n    function addRole(string memory _roleId, string memory _orgId, uint256 _baseAccess,\n        bool _isVoter, bool _isAdmin) public onlyImplementation {\n        require(_baseAccess < 8, \"invalid access value\");\n        // Check if account already exists\n        require(roleIndex[keccak256(abi.encode(_roleId, _orgId))] == 0, \"role exists for the org\");\n        numberOfRoles ++;\n        roleIndex[keccak256(abi.encode(_roleId, _orgId))] = numberOfRoles;\n        roleList.push(RoleDetails(_roleId, _orgId, _baseAccess, _isVoter, _isAdmin, true));\n        emit RoleCreated(_roleId, _orgId, _baseAccess, _isVoter, _isAdmin);\n\n    }\n\n    /** @notice function to remove an existing role definition from an organization\n      * @param _roleId - unique identifier for the role being added\n      * @param _orgId - org id to which the role belongs\n      */\n    function removeRole(string calldata _roleId, string calldata _orgId) external\n    onlyImplementation {\n        require(roleIndex[keccak256(abi.encode(_roleId, _orgId))] != 0, \"role does not exist\");\n        uint256 rIndex = _getRoleIndex(_roleId, _orgId);\n        roleList[rIndex].active = false;\n        emit RoleRevoked(_roleId, _orgId);\n    }\n\n    /** @notice checks if the role is a voter role or not\n      * @param _roleId - unique identifier for the role being added\n      * @param _orgId - org id to which the role belongs\n      * @param _ultParent - master org id\n      * @return true or false\n      * @dev checks for the role existence in the passed org and master org\n      */\n    function isVoterRole(string calldata _roleId, string calldata _orgId,\n        string calldata _ultParent) external view onlyImplementation returns (bool){\n        if (!(roleExists(_roleId, _orgId, _ultParent))) {\n            return false;\n        }\n        uint256 rIndex;\n        if (roleIndex[keccak256(abi.encode(_roleId, _orgId))] != 0) {\n            rIndex = _getRoleIndex(_roleId, _orgId);\n        }\n        else {\n            rIndex = _getRoleIndex(_roleId, _ultParent);\n        }\n        return (roleList[rIndex].active && roleList[rIndex].isVoter);\n    }\n\n    /** @notice checks if the role is an admin role or not\n      * @param _roleId - unique identifier for the role being added\n      * @param _orgId - org id to which the role belongs\n      * @param _ultParent - master org id\n      * @return true or false\n      * @dev checks for the role existence in the passed org and master org\n      */\n    function isAdminRole(string calldata _roleId, string calldata _orgId,\n        string calldata _ultParent) external view onlyImplementation returns (bool){\n        if (!(roleExists(_roleId, _orgId, _ultParent))) {\n            return false;\n        }\n        uint256 rIndex;\n        if (roleIndex[keccak256(abi.encode(_roleId, _orgId))] != 0) {\n            rIndex = _getRoleIndex(_roleId, _orgId);\n        }\n        else {\n            rIndex = _getRoleIndex(_roleId, _ultParent);\n        }\n        return (roleList[rIndex].active && roleList[rIndex].isAdmin);\n    }\n\n    /** @notice returns the role details for a passed role id and org\n      * @param _roleId - unique identifier for the role being added\n      * @param _orgId - org id to which the role belongs\n      * @return role id\n      * @return org id\n      * @return access type\n      * @return bool to indicate if the role is a voter role\n      * @return bool to indicate if the role is active\n      */\n    function getRoleDetails(string calldata _roleId, string calldata _orgId)\n    external view returns (string memory roleId, string memory orgId,\n        uint256 accessType, bool voter, bool admin, bool active) {\n        if (!(roleExists(_roleId, _orgId, \"\"))) {\n            return (_roleId, \"\", 0, false, false, false);\n        }\n        uint256 rIndex = _getRoleIndex(_roleId, _orgId);\n        return (roleList[rIndex].roleId, roleList[rIndex].orgId,\n        roleList[rIndex].baseAccess, roleList[rIndex].isVoter,\n        roleList[rIndex].isAdmin, roleList[rIndex].active);\n    }\n\n    /** @notice returns the role details for a passed role index\n      * @param _rIndex - unique identifier for the role being added\n      * @return role id\n      * @return org id\n      * @return access type\n      * @return bool to indicate if the role is a voter role\n      * @return bool to indicate if the role is active\n      */\n    function getRoleDetailsFromIndex(uint256 _rIndex) external view returns\n    (string memory roleId, string memory orgId, uint256 accessType,\n        bool voter, bool admin, bool active) {\n        return (roleList[_rIndex].roleId, roleList[_rIndex].orgId,\n        roleList[_rIndex].baseAccess, roleList[_rIndex].isVoter,\n        roleList[_rIndex].isAdmin, roleList[_rIndex].active);\n    }\n\n    /** @notice returns the total number of roles in the network\n      * @return total number of roles\n      */\n    function getNumberOfRoles() external view returns (uint256) {\n        return roleList.length;\n    }\n\n    /** @notice checks if the role exists for the given org or master org\n      * @param _roleId - unique identifier for the role being added\n      * @param _orgId - org id to which the role belongs\n      * @param _ultParent - master org id\n      * @return true or false\n      */\n    function roleExists(string memory _roleId, string memory _orgId,\n        string memory _ultParent) public view returns (bool) {\n        uint256 id;\n        if (roleIndex[keccak256(abi.encode(_roleId, _orgId))] != 0) {\n            id = _getRoleIndex(_roleId, _orgId);\n            return roleList[id].active;\n        }\n        else if (roleIndex[keccak256(abi.encode(_roleId, _ultParent))] != 0) {\n            id = _getRoleIndex(_roleId, _ultParent);\n            return roleList[id].active;\n        }\n        return false;\n    }\n\n    function roleAccess(string memory _roleId, string memory _orgId,\n        string memory _ultParent) public view returns (uint256) {\n        uint256 id;\n        if (roleIndex[keccak256(abi.encode(_roleId, _orgId))] != 0) {\n            id = _getRoleIndex(_roleId, _orgId);\n            return roleList[id].baseAccess;\n        }\n        else if (roleIndex[keccak256(abi.encode(_roleId, _ultParent))] != 0) {\n            id = _getRoleIndex(_roleId, _ultParent);\n            return roleList[id].baseAccess;\n        }\n        return 0;\n    }\n\n    function transactionAllowed(string calldata _roleId, string calldata _orgId,\n        string calldata _ultParent, uint256 _typeOfTxn) external view returns (bool) {\n        uint256 access = roleAccess(_roleId, _orgId, _ultParent);\n\n        if (access == 3) {\n            return true;\n        }\n        if (_typeOfTxn == 1 && (access == 1 || access == 5 || access == 6)){\n            return true;\n        }\n        if (_typeOfTxn == 2 && (access == 2 || access == 6 || access == 7)){\n            return true;\n        }\n        if (_typeOfTxn == 3 && (access == 4 || access == 5 || access == 7)){\n            return true;\n        }\n\n        return false;\n    }\n\n    /** @notice returns the role index based on role id and org id\n      * @param _roleId - role id\n      * @param _orgId - org id\n      * @return role index\n      */\n    function _getRoleIndex(string memory _roleId, string memory _orgId)\n    internal view returns (uint256) {\n        return roleIndex[keccak256(abi.encode(_roleId, _orgId))] - 1;\n    }\n}\n",
  "sourcePath": "/home/manhtv19/coding/quorum/quorum-root/permission/contracts/RoleManager.sol",
  "compiler": {
    "name": "solc",
    "version": "0.5.3+commit.10d17f24.Emscripten.clang"
  },
  "schemaVersion": "3.4.6",
  "updatedAt": "2022-03-22T10:03:46.236Z",
  "devdoc": {
    "methods": {
      "addRole(string,string,uint256,bool,bool)": {
        "details": "base access can have any of the following values: 0 - Read only 1 - value transfer 2 - contract deploy 3 - full access 4 - contract call 5 - value transfer and contract call 6 - value transfer and contract deploy 7 - contract call and deploy",
        "params": {
          "_baseAccess": "- can be from 0 to 7",
          "_isAdmin": "- bool to indicate if admin role or not",
          "_isVoter": "- bool to indicate if voter role or not",
          "_orgId": "- org id to which the role belongs",
          "_roleId": "- unique identifier for the role being added"
        }
      },
      "getNumberOfRoles()": {
        "return": "total number of roles"
      },
      "getRoleDetails(string,string)": {
        "params": {
          "_orgId": "- org id to which the role belongs",
          "_roleId": "- unique identifier for the role being added"
        },
        "return": "role idorg idaccess typebool to indicate if the role is a voter rolebool to indicate if the role is active"
      },
      "getRoleDetailsFromIndex(uint256)": {
        "params": {
          "_rIndex": "- unique identifier for the role being added"
        },
        "return": "role idorg idaccess typebool to indicate if the role is a voter rolebool to indicate if the role is active"
      },
      "isAdminRole(string,string,string)": {
        "details": "checks for the role existence in the passed org and master org",
        "params": {
          "_orgId": "- org id to which the role belongs",
          "_roleId": "- unique identifier for the role being added",
          "_ultParent": "- master org id"
        },
        "return": "true or false"
      },
      "isVoterRole(string,string,string)": {
        "details": "checks for the role existence in the passed org and master org",
        "params": {
          "_orgId": "- org id to which the role belongs",
          "_roleId": "- unique identifier for the role being added",
          "_ultParent": "- master org id"
        },
        "return": "true or false"
      },
      "removeRole(string,string)": {
        "params": {
          "_orgId": "- org id to which the role belongs",
          "_roleId": "- unique identifier for the role being added"
        }
      },
      "roleExists(string,string,string)": {
        "params": {
          "_orgId": "- org id to which the role belongs",
          "_roleId": "- unique identifier for the role being added",
          "_ultParent": "- master org id"
        },
        "return": "true or false"
      }
    },
    "title": "Role manager contract"
  },
  "userdoc": {
    "methods": {
      "addRole(string,string,uint256,bool,bool)": {
        "notice": "function to add a new role definition to an organization"
      },
      "constructor": "constructor. sets the permissions upgradable address",
      "getNumberOfRoles()": {
        "notice": "returns the total number of roles in the network"
      },
      "getRoleDetails(string,string)": {
        "notice": "returns the role details for a passed role id and org"
      },
      "getRoleDetailsFromIndex(uint256)": {
        "notice": "returns the role details for a passed role index"
      },
      "isAdminRole(string,string,string)": {
        "notice": "checks if the role is an admin role or not"
      },
      "isVoterRole(string,string,string)": {
        "notice": "checks if the role is a voter role or not"
      },
      "removeRole(string,string)": {
        "notice": "function to remove an existing role definition from an organization"
      },
      "roleExists(string,string,string)": {
        "notice": "checks if the role exists for the given org or master org"
      }
    },
    "notice": "This contract holds implementation logic for all role management functionality. This can be called only by the implementation contract only. there are few view functions exposed as public and can be called directly. these are invoked by quorum for populating permissions data in cache"
  }
}