{
  "contractName": "VoterManager",
  "abi": [
    {
      "inputs": [
        {
          "name": "_permUpgradable",
          "type": "address"
        }
      ],
      "payable": false,
      "stateMutability": "nonpayable",
      "type": "constructor"
    },
    {
      "anonymous": false,
      "inputs": [
        {
          "indexed": false,
          "name": "_orgId",
          "type": "string"
        },
        {
          "indexed": false,
          "name": "_vAccount",
          "type": "address"
        }
      ],
      "name": "VoterAdded",
      "type": "event"
    },
    {
      "anonymous": false,
      "inputs": [
        {
          "indexed": false,
          "name": "_orgId",
          "type": "string"
        },
        {
          "indexed": false,
          "name": "_vAccount",
          "type": "address"
        }
      ],
      "name": "VoterDeleted",
      "type": "event"
    },
    {
      "anonymous": false,
      "inputs": [
        {
          "indexed": false,
          "name": "_orgId",
          "type": "string"
        }
      ],
      "name": "VotingItemAdded",
      "type": "event"
    },
    {
      "anonymous": false,
      "inputs": [
        {
          "indexed": false,
          "name": "_orgId",
          "type": "string"
        }
      ],
      "name": "VoteProcessed",
      "type": "event"
    },
    {
      "constant": false,
      "inputs": [
        {
          "name": "_orgId",
          "type": "string"
        },
        {
          "name": "_vAccount",
          "type": "address"
        }
      ],
      "name": "addVoter",
      "outputs": [],
      "payable": false,
      "stateMutability": "nonpayable",
      "type": "function"
    },
    {
      "constant": false,
      "inputs": [
        {
          "name": "_orgId",
          "type": "string"
        },
        {
          "name": "_vAccount",
          "type": "address"
        }
      ],
      "name": "deleteVoter",
      "outputs": [],
      "payable": false,
      "stateMutability": "nonpayable",
      "type": "function"
    },
    {
      "constant": false,
      "inputs": [
        {
          "name": "_authOrg",
          "type": "string"
        },
        {
          "name": "_orgId",
          "type": "string"
        },
        {
          "name": "_enodeId",
          "type": "string"
        },
        {
          "name": "_account",
          "type": "address"
        },
        {
          "name": "_pendingOp",
          "type": "uint256"
        }
      ],
      "name": "addVotingItem",
      "outputs": [],
      "payable": false,
      "stateMutability": "nonpayable",
      "type": "function"
    },
    {
      "constant": false,
      "inputs": [
        {
          "name": "_authOrg",
          "type": "string"
        },
        {
          "name": "_vAccount",
          "type": "address"
        },
        {
          "name": "_pendingOp",
          "type": "uint256"
        }
      ],
      "name": "processVote",
      "outputs": [
        {
          "name": "",
          "type": "bool"
        }
      ],
      "payable": false,
      "stateMutability": "nonpayable",
      "type": "function"
    },
    {
      "constant": true,
      "inputs": [
        {
          "name": "_orgId",
          "type": "string"
        }
      ],
      "name": "getPendingOpDetails",
      "outputs": [
        {
          "name": "",
          "type": "string"
        },
        {
          "name": "",
          "type": "string"
        },
        {
          "name": "",
          "type": "address"
        },
        {
          "name": "",
          "type": "uint256"
        }
      ],
      "payable": false,
      "stateMutability": "view",
      "type": "function"
    }
  ],
  "bytecode": "0x6080604052600060035534801561001557600080fd5b506040516020806129498339810180604052602081101561003557600080fd5b8101908080519060200190929190505050806000806101000a81548173ffffffffffffffffffffffffffffffffffffffff021916908373ffffffffffffffffffffffffffffffffffffffff160217905550506128b3806100966000396000f3fe608060405234801561001057600080fd5b5060043610610074576000357c010000000000000000000000000000000000000000000000000000000090048063014e6acc146100795780635607395b1461021157806359cbd6fe146102aa578063b021386414610343578063e98ac22d146103fe575b600080fd5b6100f06004803603602081101561008f57600080fd5b81019080803590602001906401000000008111156100ac57600080fd5b8201836020820111156100be57600080fd5b803590602001918460018302840111640100000000831117156100e057600080fd5b909192939192939050505061054b565b6040518080602001806020018573ffffffffffffffffffffffffffffffffffffffff1673ffffffffffffffffffffffffffffffffffffffff168152602001848152602001838103835287818151815260200191508051906020019080838360005b8381101561016c578082015181840152602081019050610151565b50505050905090810190601f1680156101995780820380516001836020036101000a031916815260200191505b50838103825286818151815260200191508051906020019080838360005b838110156101d25780820151818401526020810190506101b7565b50505050905090810190601f1680156101ff5780820380516001836020036101000a031916815260200191505b50965050505050505060405180910390f35b6102a86004803603604081101561022757600080fd5b810190808035906020019064010000000081111561024457600080fd5b82018360208201111561025657600080fd5b8035906020019184600183028401116401000000008311171561027857600080fd5b9091929391929390803573ffffffffffffffffffffffffffffffffffffffff1690602001909291905050506108fa565b005b610341600480360360408110156102c057600080fd5b81019080803590602001906401000000008111156102dd57600080fd5b8201836020820111156102ef57600080fd5b8035906020019184600183028401116401000000008311171561031157600080fd5b9091929391929390803573ffffffffffffffffffffffffffffffffffffffff169060200190929190505050611336565b005b6103e46004803603606081101561035957600080fd5b810190808035906020019064010000000081111561037657600080fd5b82018360208201111561038857600080fd5b803590602001918460018302840111640100000000831117156103aa57600080fd5b9091929391929390803573ffffffffffffffffffffffffffffffffffffffff16906020019092919080359060200190929190505050611728565b604051808215151515815260200191505060405180910390f35b610549600480360360a081101561041457600080fd5b810190808035906020019064010000000081111561043157600080fd5b82018360208201111561044357600080fd5b8035906020019184600183028401116401000000008311171561046557600080fd5b90919293919293908035906020019064010000000081111561048657600080fd5b82018360208201111561049857600080fd5b803590602001918460018302840111640100000000831117156104ba57600080fd5b9091929391929390803590602001906401000000008111156104db57600080fd5b8201836020820111156104ed57600080fd5b8035906020019184600183028401116401000000008311171561050f57600080fd5b9091929391929390803573ffffffffffffffffffffffffffffffffffffffff16906020019092919080359060200190929190505050611e0a565b005b6060806000806000809054906101000a900473ffffffffffffffffffffffffffffffffffffffff1673ffffffffffffffffffffffffffffffffffffffff16630e32cf906040518163ffffffff167c010000000000000000000000000000000000000000000000000000000002815260040160206040518083038186803b1580156105d457600080fd5b505afa1580156105e8573d6000803e3d6000fd5b505050506040513d60208110156105fe57600080fd5b810190808051906020019092919050505073ffffffffffffffffffffffffffffffffffffffff163373ffffffffffffffffffffffffffffffffffffffff161415156106b1576040517f08c379a000000000000000000000000000000000000000000000000000000000815260040180806020018281038252600e8152602001807f696e76616c69642063616c6c657200000000000000000000000000000000000081525060200191505060405180910390fd5b600061070087878080601f016020809104026020016040519081016040528093929190818152602001838380828437600081840152601f19601f82011690508083019250505050505050612353565b905060018181548110151561071157fe5b90600052602060002090600b020160040160000160018281548110151561073457fe5b90600052602060002090600b020160040160010160018381548110151561075757fe5b90600052602060002090600b020160040160020160009054906101000a900473ffffffffffffffffffffffffffffffffffffffff1660018481548110151561079b57fe5b90600052602060002090600b020160040160030154838054600181600116156101000203166002900480601f0160208091040260200160405190810160405280929190818152602001828054600181600116156101000203166002900480156108455780601f1061081a57610100808354040283529160200191610845565b820191906000526020600020905b81548152906001019060200180831161082857829003601f168201915b50505050509350828054600181600116156101000203166002900480601f0160208091040260200160405190810160405280929190818152602001828054600181600116156101000203166002900480156108e15780601f106108b6576101008083540402835291602001916108e1565b820191906000526020600020905b8154815290600101906020018083116108c457829003601f168201915b5050505050925094509450945094505092959194509250565b6000809054906101000a900473ffffffffffffffffffffffffffffffffffffffff1673ffffffffffffffffffffffffffffffffffffffff16630e32cf906040518163ffffffff167c010000000000000000000000000000000000000000000000000000000002815260040160206040518083038186803b15801561097d57600080fd5b505afa158015610991573d6000803e3d6000fd5b505050506040513d60208110156109a757600080fd5b810190808051906020019092919050505073ffffffffffffffffffffffffffffffffffffffff163373ffffffffffffffffffffffffffffffffffffffff16141515610a5a576040517f08c379a000000000000000000000000000000000000000000000000000000000815260040180806020018281038252600e8152602001807f696e76616c69642063616c6c657200000000000000000000000000000000000081525060200191505060405180910390fd5b600060026000858560405160200180806020018281038252848482818152602001925080828437600081840152601f19601f8201169050808301925050509350505050604051602081830303815290604052805190602001208152602001908152602001600020541415610e815760036000815480929190600101919050555060035460026000858560405160200180806020018281038252848482818152602001925080828437600081840152601f19601f820116905080830192505050935050505060405160208183030381529060405280519060200120815260200190815260200160002081905550600060018054809190600101610b5c919061258c565b90508383600183815481101515610b6f57fe5b90600052602060002090600b02016000019190610b8d9291906125be565b5060018082815481101515610b9e57fe5b90600052602060002090600b02016001018190555060018082815481101515610bc357fe5b90600052602060002090600b0201600201819055506000600182815481101515610be957fe5b90600052602060002090600b0201600301819055506020604051908101604052806000815250600182815481101515610c1e57fe5b90600052602060002090600b02016004016000019080519060200190610c4592919061263e565b506020604051908101604052806000815250600182815481101515610c6657fe5b90600052602060002090600b02016004016001019080519060200190610c8d92919061263e565b506000600182815481101515610c9f57fe5b90600052602060002090600b020160040160020160006101000a81548173ffffffffffffffffffffffffffffffffffffffff021916908373ffffffffffffffffffffffffffffffffffffffff1602179055506000600182815481101515610d0257fe5b90600052602060002090600b020160040160030181905550600181815481101515610d2957fe5b90600052602060002090600b020160010154600182815481101515610d4a57fe5b90600052602060002090600b020160090160008473ffffffffffffffffffffffffffffffffffffffff1673ffffffffffffffffffffffffffffffffffffffff16815260200190815260200160002081905550600181815481101515610dab57fe5b90600052602060002090600b020160080160408051908101604052808473ffffffffffffffffffffffffffffffffffffffff1681526020016001151581525090806001815401808255809150509060018203906000526020600020016000909192909190915060008201518160000160006101000a81548173ffffffffffffffffffffffffffffffffffffffff021916908373ffffffffffffffffffffffffffffffffffffffff16021790555060208201518160000160146101000a81548160ff0219169083151502179055505050505061129a565b6000610ed084848080601f016020809104026020016040519081016040528093929190818152602001838380828437600081840152601f19601f82011690508083019250505050505050612353565b90506000600182815481101515610ee357fe5b90600052602060002090600b020160090160008473ffffffffffffffffffffffffffffffffffffffff1673ffffffffffffffffffffffffffffffffffffffff1681526020019081526020016000205414156110fe57600181815481101515610f4757fe5b90600052602060002090600b020160010160008154809291906001019190505550600181815481101515610f7757fe5b90600052602060002090600b020160010154600182815481101515610f9857fe5b90600052602060002090600b020160090160008473ffffffffffffffffffffffffffffffffffffffff1673ffffffffffffffffffffffffffffffffffffffff16815260200190815260200160002081905550600181815481101515610ff957fe5b90600052602060002090600b020160080160408051908101604052808473ffffffffffffffffffffffffffffffffffffffff1681526020016001151581525090806001815401808255809150509060018203906000526020600020016000909192909190915060008201518160000160006101000a81548173ffffffffffffffffffffffffffffffffffffffff021916908373ffffffffffffffffffffffffffffffffffffffff16021790555060208201518160000160146101000a81548160ff0219169083151502179055505050506001818154811015156110d857fe5b90600052602060002090600b020160020160008154809291906001019190505550611298565b600061114e85858080601f016020809104026020016040519081016040528093929190818152602001838380828437600081840152601f19601f82011690508083019250505050505050846123fe565b90506001151560018381548110151561116357fe5b90600052602060002090600b02016008018281548110151561118157fe5b9060005260206000200160000160149054906101000a900460ff16151514151515611214576040517f08c379a000000000000000000000000000000000000000000000000000000000815260040180806020018281038252600f8152602001807f616c7265616479206120766f746572000000000000000000000000000000000081525060200191505060405180910390fd5b6001808381548110151561122457fe5b90600052602060002090600b02016008018281548110151561124257fe5b9060005260206000200160000160146101000a81548160ff02191690831515021790555060018281548110151561127557fe5b90600052602060002090600b020160020160008154809291906001019190505550505b505b7f424f3ad05c61ea35cad66f22b70b1fad7250d8229921238078c401db36d3457483838360405180806020018373ffffffffffffffffffffffffffffffffffffffff1673ffffffffffffffffffffffffffffffffffffffff1681526020018281038252858582818152602001925080828437600081840152601f19601f82011690508083019250505094505050505060405180910390a1505050565b6000809054906101000a900473ffffffffffffffffffffffffffffffffffffffff1673ffffffffffffffffffffffffffffffffffffffff16630e32cf906040518163ffffffff167c010000000000000000000000000000000000000000000000000000000002815260040160206040518083038186803b1580156113b957600080fd5b505afa1580156113cd573d6000803e3d6000fd5b505050506040513d60208110156113e357600080fd5b810190808051906020019092919050505073ffffffffffffffffffffffffffffffffffffffff163373ffffffffffffffffffffffffffffffffffffffff16141515611496576040517f08c379a000000000000000000000000000000000000000000000000000000000815260040180806020018281038252600e8152602001807f696e76616c69642063616c6c657200000000000000000000000000000000000081525060200191505060405180910390fd5b82828080601f016020809104026020016040519081016040528093929190818152602001838380828437600081840152601f19601f8201169050808301925050505050505081600115156114ea8383612475565b1515141515611561576040517f08c379a000000000000000000000000000000000000000000000000000000000815260040180806020018281038252600f8152602001807f6d757374206265206120766f746572000000000000000000000000000000000081525060200191505060405180910390fd5b60006115b086868080601f016020809104026020016040519081016040528093929190818152602001838380828437600081840152601f19601f82011690508083019250505050505050612353565b9050600061160287878080601f016020809104026020016040519081016040528093929190818152602001838380828437600081840152601f19601f82011690508083019250505050505050866123fe565b905060018281548110151561161357fe5b90600052602060002090600b02016002016000815480929190600190039190505550600060018381548110151561164657fe5b90600052602060002090600b02016008018281548110151561166457fe5b9060005260206000200160000160146101000a81548160ff0219169083151502179055507f654cd85d9b2abaf3affef0a047625d088e6e4d0448935c9b5016b5f5aa0ca3b687878760405180806020018373ffffffffffffffffffffffffffffffffffffffff1673ffffffffffffffffffffffffffffffffffffffff1681526020018281038252858582818152602001925080828437600081840152601f19601f82011690508083019250505094505050505060405180910390a150505050505050565b60008060009054906101000a900473ffffffffffffffffffffffffffffffffffffffff1673ffffffffffffffffffffffffffffffffffffffff16630e32cf906040518163ffffffff167c010000000000000000000000000000000000000000000000000000000002815260040160206040518083038186803b1580156117ad57600080fd5b505afa1580156117c1573d6000803e3d6000fd5b505050506040513d60208110156117d757600080fd5b810190808051906020019092919050505073ffffffffffffffffffffffffffffffffffffffff163373ffffffffffffffffffffffffffffffffffffffff1614151561188a576040517f08c379a000000000000000000000000000000000000000000000000000000000815260040180806020018281038252600e8152602001807f696e76616c69642063616c6c657200000000000000000000000000000000000081525060200191505060405180910390fd5b84848080601f016020809104026020016040519081016040528093929190818152602001838380828437600081840152601f19601f8201169050808301925050505050505083600115156118de8383612475565b1515141515611955576040517f08c379a000000000000000000000000000000000000000000000000000000000815260040180806020018281038252600f8152602001807f6d757374206265206120766f746572000000000000000000000000000000000081525060200191505060405180910390fd5b600115156119a788888080601f016020809104026020016040519081016040528093929190818152602001838380828437600081840152601f19601f8201169050808301925050505050505086612554565b1515141515611a1e576040517f08c379a00000000000000000000000000000000000000000000000000000000081526004018080602001828103825260128152602001807f6e6f7468696e6720746f20617070726f7665000000000000000000000000000081525060200191505060405180910390fd5b6000611a6d88888080601f016020809104026020016040519081016040528093929190818152602001838380828437600081840152601f19601f82011690508083019250505050505050612353565b905060011515600182815481101515611a8257fe5b90600052602060002090600b0201600a01600083815260200190815260200160002060008873ffffffffffffffffffffffffffffffffffffffff1673ffffffffffffffffffffffffffffffffffffffff16815260200190815260200160002060009054906101000a900460ff16151514151515611b67576040517f08c379a00000000000000000000000000000000000000000000000000000000081526004018080602001828103825260128152602001807f63616e6e6f7420646f75626c6520766f7465000000000000000000000000000081525060200191505060405180910390fd5b600181815481101515611b7657fe5b90600052602060002090600b02016003016000815480929190600101919050555060018082815481101515611ba757fe5b90600052602060002090600b0201600a01600083815260200190815260200160002060008873ffffffffffffffffffffffffffffffffffffffff1673ffffffffffffffffffffffffffffffffffffffff16815260200190815260200160002060006101000a81548160ff0219169083151502179055507f87999b54e45aa02834a1265e356d7bcdceb72b8cbb4396ebaeba32a103b43508888860405180806020018281038252848482818152602001925080828437600081840152601f19601f820116905080830192505050935050505060405180910390a16002600182815481101515611c9157fe5b90600052602060002090600b020160020154811515611cac57fe5b04600182815481101515611cbc57fe5b90600052602060002090600b0201600301541115611dfa576020604051908101604052806000815250600182815481101515611cf457fe5b90600052602060002090600b02016004016000019080519060200190611d1b92919061263e565b506020604051908101604052806000815250600182815481101515611d3c57fe5b90600052602060002090600b02016004016001019080519060200190611d6392919061263e565b506000600182815481101515611d7557fe5b90600052602060002090600b020160040160020160006101000a81548173ffffffffffffffffffffffffffffffffffffffff021916908373ffffffffffffffffffffffffffffffffffffffff1602179055506000600182815481101515611dd857fe5b90600052602060002090600b0201600401600301819055506001935050611e00565b60009350505b5050949350505050565b6000809054906101000a900473ffffffffffffffffffffffffffffffffffffffff1673ffffffffffffffffffffffffffffffffffffffff16630e32cf906040518163ffffffff167c010000000000000000000000000000000000000000000000000000000002815260040160206040518083038186803b158015611e8d57600080fd5b505afa158015611ea1573d6000803e3d6000fd5b505050506040513d6020811015611eb757600080fd5b810190808051906020019092919050505073ffffffffffffffffffffffffffffffffffffffff163373ffffffffffffffffffffffffffffffffffffffff16141515611f6a576040517f08c379a000000000000000000000000000000000000000000000000000000000815260040180806020018281038252600e8152602001807f696e76616c69642063616c6c657200000000000000000000000000000000000081525060200191505060405180910390fd5b611fb988888080601f016020809104026020016040519081016040528093929190818152602001838380828437600081840152601f19601f820116905080830192505050505050506000612554565b1515612010576040517f08c379a00000000000000000000000000000000000000000000000000000000081526004018080602001828103825260348152602001806128546034913960400191505060405180910390fd5b600061205f89898080601f016020809104026020016040519081016040528093929190818152602001838380828437600081840152601f19601f82011690508083019250505050505050612353565b9050868660018381548110151561207257fe5b90600052602060002090600b020160040160000191906120939291906125be565b5084846001838154811015156120a557fe5b90600052602060002090600b020160040160010191906120c69291906125be565b50826001828154811015156120d757fe5b90600052602060002090600b020160040160020160006101000a81548173ffffffffffffffffffffffffffffffffffffffff021916908373ffffffffffffffffffffffffffffffffffffffff1602179055508160018281548110151561213957fe5b90600052602060002090600b02016004016003018190555060008090505b60018281548110151561216657fe5b90600052602060002090600b0201600801805490508110156122be5760018281548110151561219157fe5b90600052602060002090600b0201600801818154811015156121af57fe5b9060005260206000200160000160149054906101000a900460ff16156122b15760006001838154811015156121e057fe5b90600052602060002090600b0201600a016000848152602001908152602001600020600060018581548110151561221357fe5b90600052602060002090600b02016008018481548110151561223157fe5b9060005260206000200160000160009054906101000a900473ffffffffffffffffffffffffffffffffffffffff1673ffffffffffffffffffffffffffffffffffffffff1673ffffffffffffffffffffffffffffffffffffffff16815260200190815260200160002060006101000a81548160ff0219169083151502179055505b8080600101915050612157565b5060006001828154811015156122d057fe5b90600052602060002090600b0201600301819055507f5bfaebb5931145594f63236d2a59314c4dc6035b65d0ca4cee9c7298e2f06ca3898960405180806020018281038252848482818152602001925080828437600081840152601f19601f820116905080830192505050935050505060405180910390a1505050505050505050565b6000600160026000846040516020018080602001828103825283818151815260200191508051906020019080838360005b8381101561239f578082015181840152602081019050612384565b50505050905090810190601f1680156123cc5780820380516001836020036101000a031916815260200191505b509250505060405160208183030381529060405280519060200120815260200190815260200160002054039050919050565b60008061240a84612353565b90506001808281548110151561241c57fe5b90600052602060002090600b020160090160008573ffffffffffffffffffffffffffffffffffffffff1673ffffffffffffffffffffffffffffffffffffffff168152602001908152602001600020540391505092915050565b60008061248184612353565b9050600060018281548110151561249457fe5b90600052602060002090600b020160090160008573ffffffffffffffffffffffffffffffffffffffff1673ffffffffffffffffffffffffffffffffffffffff1681526020019081526020016000205414156124f357600091505061254e565b60006124ff85856123fe565b905060018281548110151561251057fe5b90600052602060002090600b02016008018181548110151561252e57fe5b9060005260206000200160000160149054906101000a900460ff16925050505b92915050565b600081600161256285612353565b81548110151561256e57fe5b90600052602060002090600b02016004016003015414905092915050565b8154818355818111156125b957600b0281600b0283600052602060002091820191016125b891906126be565b5b505050565b828054600181600116156101000203166002900490600052602060002090601f016020900481019282601f106125ff57803560ff191683800117855561262d565b8280016001018555821561262d579182015b8281111561262c578235825591602001919060010190612611565b5b50905061263a919061276b565b5090565b828054600181600116156101000203166002900490600052602060002090601f016020900481019282601f1061267f57805160ff19168380011785556126ad565b828001600101855582156126ad579182015b828111156126ac578251825591602001919060010190612691565b5b5090506126ba919061276b565b5090565b61276891905b8082111561276457600080820160006126dd9190612790565b600182016000905560028201600090556003820160009055600482016000808201600061270a9190612790565b60018201600061271a9190612790565b6002820160006101000a81549073ffffffffffffffffffffffffffffffffffffffff02191690556003820160009055505060088201600061275b91906127d8565b50600b016126c4565b5090565b90565b61278d91905b80821115612789576000816000905550600101612771565b5090565b90565b50805460018160011615610100020316600290046000825580601f106127b657506127d5565b601f0160209004906000526020600020908101906127d4919061276b565b5b50565b50805460008255906000526020600020908101906127f691906127f9565b50565b61285091905b8082111561284c57600080820160006101000a81549073ffffffffffffffffffffffffffffffffffffffff02191690556000820160146101000a81549060ff0219169055506001016127ff565b5090565b9056fe6974656d732070656e64696e6720666f7220617070726f76616c2e206e6577206974656d2063616e6e6f74206265206164646564a165627a7a723058206002c64f7affd1181311e68f02c59a9704663667431c1db345bf5e7c6b1991520029",
  "source": "pragma solidity ^0.5.3;\n\nimport \"./PermissionsUpgradable.sol\";\n\n/** @title Voter manager contract\n  * @notice This contract holds implementation logic for all account voter and\n    voting functionality. This can be called only by the implementation\n    contract only. there are few view functions exposed as public and\n    can be called directly. these are invoked by quorum for populating\n    permissions data in cache\n  * @dev each voting record has an attribute operation type (opType)\n    which denotes the activity type which is pending approval. This can\n    have the following values:\n        0 - None - indicates no pending records for the org\n        1 - New org add activity  \n        2 - Org suspension activity\n        3 - Revoke of org suspension\n        4 - Assigning admin role for a new account\n        5 - Blacklisted node recovery\n        6 - Blacklisted account recovery\n  */\ncontract VoterManager {\n    PermissionsUpgradable private permUpgradable;\n    struct PendingOpDetails {\n        string orgId;\n        string enodeId;\n        address account;\n        uint256 opType;\n    }\n\n    struct Voter {\n        address vAccount;\n        bool active;\n    }\n\n    struct OrgVoterDetails {\n        string orgId;\n        uint256 voterCount;\n        uint256 validVoterCount;\n        uint256 voteCount;\n        PendingOpDetails pendingOp;\n        Voter [] voterList;\n        mapping(address => uint256) voterIndex;\n        mapping(uint256 => mapping(address => bool)) votingStatus;\n    }\n\n    OrgVoterDetails [] private orgVoterList;\n    mapping(bytes32 => uint256) private VoterOrgIndex;\n    uint256 private orgNum = 0;\n\n    // events related to managing voting accounts for the org\n    event VoterAdded(string _orgId, address _vAccount);\n    event VoterDeleted(string _orgId, address _vAccount);\n\n    event VotingItemAdded(string _orgId);\n    event VoteProcessed(string _orgId);\n\n    /** @notice confirms that the caller is the address of implementation\n        contract\n    */\n    modifier onlyImplementation {\n        require(msg.sender == permUpgradable.getPermImpl(), \"invalid caller\");\n        _;\n    }\n\n    /** @notice checks if account is a valid voter record and belongs to the org\n        passed\n      * @param _orgId - org id\n      * @param _vAccount - voter account passed\n      */\n    modifier voterExists(string memory _orgId, address _vAccount) {\n        require(_checkVoterExists(_orgId, _vAccount) == true, \"must be a voter\");\n        _;\n    }\n\n    /** @notice constructor. sets the permissions upgradable address\n      */\n    constructor (address _permUpgradable) public {\n        permUpgradable = PermissionsUpgradable(_permUpgradable);\n    }\n\n    /** @notice function to add a new voter account to the organization\n      * @param _orgId org id\n      * @param _vAccount - voter account\n      * @dev voter capability is currently enabled for network level activities\n        only. voting is not available for org related activities\n      */\n    function addVoter(string calldata _orgId, address _vAccount) external\n    onlyImplementation {\n        // check if the org exists\n        if (VoterOrgIndex[keccak256(abi.encode(_orgId))] == 0) {\n            orgNum++;\n            VoterOrgIndex[keccak256(abi.encode(_orgId))] = orgNum;\n            uint256 id = orgVoterList.length++;\n            orgVoterList[id].orgId = _orgId;\n            orgVoterList[id].voterCount = 1;\n            orgVoterList[id].validVoterCount = 1;\n            orgVoterList[id].voteCount = 0;\n            orgVoterList[id].pendingOp.orgId = \"\";\n            orgVoterList[id].pendingOp.enodeId = \"\";\n            orgVoterList[id].pendingOp.account = address(0);\n            orgVoterList[id].pendingOp.opType = 0;\n            orgVoterList[id].voterIndex[_vAccount] = orgVoterList[id].voterCount;\n            orgVoterList[id].voterList.push(Voter(_vAccount, true));\n        }\n        else {\n            uint256 id = _getVoterOrgIndex(_orgId);\n            // check if the voter is already present in the list\n            if (orgVoterList[id].voterIndex[_vAccount] == 0) {\n                orgVoterList[id].voterCount++;\n                orgVoterList[id].voterIndex[_vAccount] = orgVoterList[id].voterCount;\n                orgVoterList[id].voterList.push(Voter(_vAccount, true));\n                orgVoterList[id].validVoterCount++;\n            }\n            else {\n                uint256 vid = _getVoterIndex(_orgId, _vAccount);\n                require(orgVoterList[id].voterList[vid].active != true, \"already a voter\");\n                orgVoterList[id].voterList[vid].active = true;\n                orgVoterList[id].validVoterCount++;\n            }\n\n        }\n        emit VoterAdded(_orgId, _vAccount);\n    }\n\n    /** @notice function to delete a voter account from the organization\n      * @param _orgId org id\n      * @param _vAccount - voter account\n      * @dev voter capability is currently enabled for network level activities\n        only. voting is not available for org related activities\n      */\n    function deleteVoter(string calldata _orgId, address _vAccount) external\n    onlyImplementation\n    voterExists(_orgId, _vAccount) {\n        uint256 id = _getVoterOrgIndex(_orgId);\n        uint256 vId = _getVoterIndex(_orgId, _vAccount);\n        orgVoterList[id].validVoterCount --;\n        orgVoterList[id].voterList[vId].active = false;\n        emit VoterDeleted(_orgId, _vAccount);\n    }\n\n    /** @notice function to a voting item for network admin accounts to vote\n      * @param _authOrg org id of the authorizing org. it will be network admin org\n      * @param _orgId - org id for which the voting record is being created\n      * @param _enodeId - enode id for which the voting record is being created\n      * @param _account - account id for which the voting record is being created\n      * @param _pendingOp - operation for which voting is being done\n      */\n    function addVotingItem(string calldata _authOrg, string calldata _orgId,\n        string calldata _enodeId, address _account, uint256 _pendingOp)\n    external onlyImplementation {\n        // check if anything is pending approval for the org.\n        // If yes another item cannot be added\n        require((_checkPendingOp(_authOrg, 0)),\n            \"items pending for approval. new item cannot be added\");\n        uint256 id = _getVoterOrgIndex(_authOrg);\n        orgVoterList[id].pendingOp.orgId = _orgId;\n        orgVoterList[id].pendingOp.enodeId = _enodeId;\n        orgVoterList[id].pendingOp.account = _account;\n        orgVoterList[id].pendingOp.opType = _pendingOp;\n        // initialize vote status for voter accounts\n        for (uint256 i = 0; i < orgVoterList[id].voterList.length; i++) {\n            if (orgVoterList[id].voterList[i].active) {\n                orgVoterList[id].votingStatus[id][orgVoterList[id].voterList[i].vAccount] = false;\n            }\n        }\n        // set vote count to zero\n        orgVoterList[id].voteCount = 0;\n        emit VotingItemAdded(_authOrg);\n\n    }\n\n    /** @notice function processing vote of a voter account\n      * @param _authOrg org id of the authorizing org. it will be network admin org\n      * @param _vAccount - account id of the voter\n      * @param _pendingOp - operation which is being approved\n      * @return success of the voter process. either true or false\n      */\n    function processVote(string calldata _authOrg, address _vAccount, uint256 _pendingOp)\n    external onlyImplementation voterExists(_authOrg, _vAccount) returns (bool) {\n        // check something if anything is pending approval\n        require(_checkPendingOp(_authOrg, _pendingOp) == true, \"nothing to approve\");\n        uint256 id = _getVoterOrgIndex(_authOrg);\n        // check if vote is already processed\n        require(orgVoterList[id].votingStatus[id][_vAccount] != true, \"cannot double vote\");\n        orgVoterList[id].voteCount++;\n        orgVoterList[id].votingStatus[id][_vAccount] = true;\n        emit VoteProcessed(_authOrg);\n        if (orgVoterList[id].voteCount > orgVoterList[id].validVoterCount / 2) {\n            // majority achieved, clean up pending op\n            orgVoterList[id].pendingOp.orgId = \"\";\n            orgVoterList[id].pendingOp.enodeId = \"\";\n            orgVoterList[id].pendingOp.account = address(0);\n            orgVoterList[id].pendingOp.opType = 0;\n            return true;\n        }\n        return false;\n    }\n\n    /** @notice returns the details of any pending operation to be approved\n      * @param _orgId org id. this will be the org id of network admin org\n      */\n    function getPendingOpDetails(string calldata _orgId) external view\n    onlyImplementation returns (string memory, string memory, address, uint256){\n        uint256 orgIndex = _getVoterOrgIndex(_orgId);\n        return (orgVoterList[orgIndex].pendingOp.orgId, orgVoterList[orgIndex].pendingOp.enodeId,\n        orgVoterList[orgIndex].pendingOp.account, orgVoterList[orgIndex].pendingOp.opType);\n    }\n\n    /** @notice checks if the voter account exists and is linked to the org\n      * @param _orgId org id\n      * @param _vAccount voter account id\n      * @return true or false\n      */\n    function _checkVoterExists(string memory _orgId, address _vAccount)\n    internal view returns (bool){\n        uint256 orgIndex = _getVoterOrgIndex(_orgId);\n        if (orgVoterList[orgIndex].voterIndex[_vAccount] == 0) {\n            return false;\n        }\n        uint256 voterIndex = _getVoterIndex(_orgId, _vAccount);\n        return orgVoterList[orgIndex].voterList[voterIndex].active;\n    }\n\n    /** @notice checks if the pending operation exists or not\n      * @param _orgId org id\n      * @param _pendingOp type of operation\n      * @return true or false\n      */\n    function _checkPendingOp(string memory _orgId, uint256 _pendingOp)\n    internal view returns (bool){\n        return (orgVoterList[_getVoterOrgIndex(_orgId)].pendingOp.opType == _pendingOp);\n    }\n\n    /** @notice returns the voter account index\n      */\n    function _getVoterIndex(string memory _orgId, address _vAccount)\n    internal view returns (uint256) {\n        uint256 orgIndex = _getVoterOrgIndex(_orgId);\n        return orgVoterList[orgIndex].voterIndex[_vAccount] - 1;\n    }\n\n    /** @notice returns the org index for the org from voter list\n      */\n    function _getVoterOrgIndex(string memory _orgId)\n    internal view returns (uint256) {\n        return VoterOrgIndex[keccak256(abi.encode(_orgId))] - 1;\n    }\n\n}\n",
  "sourcePath": "/home/manhtv19/coding/quorum/quorum-root/permission/contracts/VoterManager.sol",
  "compiler": {
    "name": "solc",
    "version": "0.5.3+commit.10d17f24.Emscripten.clang"
  },
  "schemaVersion": "3.4.6",
  "updatedAt": "2022-03-22T10:03:46.240Z",
  "devdoc": {
    "details": "each voting record has an attribute operation type (opType) which denotes the activity type which is pending approval. This can have the following values: 0 - None - indicates no pending records for the org 1 - New org add activity   2 - Org suspension activity 3 - Revoke of org suspension 4 - Assigning admin role for a new account 5 - Blacklisted node recovery 6 - Blacklisted account recovery",
    "methods": {
      "addVoter(string,address)": {
        "details": "voter capability is currently enabled for network level activities only. voting is not available for org related activities",
        "params": {
          "_orgId": "org id",
          "_vAccount": "- voter account"
        }
      },
      "addVotingItem(string,string,string,address,uint256)": {
        "params": {
          "_account": "- account id for which the voting record is being created",
          "_authOrg": "org id of the authorizing org. it will be network admin org",
          "_enodeId": "- enode id for which the voting record is being created",
          "_orgId": "- org id for which the voting record is being created",
          "_pendingOp": "- operation for which voting is being done"
        }
      },
      "deleteVoter(string,address)": {
        "details": "voter capability is currently enabled for network level activities only. voting is not available for org related activities",
        "params": {
          "_orgId": "org id",
          "_vAccount": "- voter account"
        }
      },
      "getPendingOpDetails(string)": {
        "params": {
          "_orgId": "org id. this will be the org id of network admin org"
        }
      },
      "processVote(string,address,uint256)": {
        "params": {
          "_authOrg": "org id of the authorizing org. it will be network admin org",
          "_pendingOp": "- operation which is being approved",
          "_vAccount": "- account id of the voter"
        },
        "return": "success of the voter process. either true or false"
      }
    },
    "title": "Voter manager contract"
  },
  "userdoc": {
    "methods": {
      "addVoter(string,address)": {
        "notice": "function to add a new voter account to the organization"
      },
      "addVotingItem(string,string,string,address,uint256)": {
        "notice": "function to a voting item for network admin accounts to vote"
      },
      "constructor": "constructor. sets the permissions upgradable address",
      "deleteVoter(string,address)": {
        "notice": "function to delete a voter account from the organization"
      },
      "getPendingOpDetails(string)": {
        "notice": "returns the details of any pending operation to be approved"
      },
      "processVote(string,address,uint256)": {
        "notice": "function processing vote of a voter account"
      }
    },
    "notice": "This contract holds implementation logic for all account voter and voting functionality. This can be called only by the implementation contract only. there are few view functions exposed as public and can be called directly. these are invoked by quorum for populating permissions data in cache"
  }
}